{"abi":[{"inputs":[{"internalType":"uint256","name":"minimum","type":"uint256"},{"internalType":"address","name":"creator","type":"address"}],"stateMutability":"payable","type":"constructor"},{"inputs":[{"internalType":"uint256","name":"","type":"uint256"},{"internalType":"address","name":"","type":"address"}],"name":"approvals","outputs":[{"internalType":"bool","name":"","type":"bool"}],"stateMutability":"view","type":"function"},{"inputs":[{"internalType":"uint256","name":"index","type":"uint256"}],"name":"approveRequest","outputs":[],"stateMutability":"nonpayable","type":"function"},{"inputs":[{"internalType":"address","name":"","type":"address"}],"name":"approvers","outputs":[{"internalType":"bool","name":"","type":"bool"}],"stateMutability":"view","type":"function"},{"inputs":[],"name":"approversCount","outputs":[{"internalType":"uint256","name":"","type":"uint256"}],"stateMutability":"view","type":"function"},{"inputs":[],"name":"contribute","outputs":[],"stateMutability":"payable","type":"function"},{"inputs":[{"internalType":"string","name":"description","type":"string"},{"internalType":"uint256","name":"value","type":"uint256"},{"internalType":"address payable","name":"recipient","type":"address"}],"name":"createRequest","outputs":[],"stateMutability":"nonpayable","type":"function"},{"inputs":[{"internalType":"uint256","name":"index","type":"uint256"}],"name":"finalizeRequest","outputs":[],"stateMutability":"nonpayable","type":"function"},{"inputs":[{"internalType":"uint256","name":"index","type":"uint256"}],"name":"getRequestByIndex","outputs":[{"internalType":"uint256","name":"value","type":"uint256"},{"internalType":"address","name":"recipient","type":"address"},{"internalType":"bool","name":"complete","type":"bool"},{"internalType":"uint256","name":"approvalCount","type":"uint256"}],"stateMutability":"view","type":"function"},{"inputs":[],"name":"getRequestsCount","outputs":[{"internalType":"uint256","name":"","type":"uint256"}],"stateMutability":"view","type":"function"},{"inputs":[],"name":"manager","outputs":[{"internalType":"address","name":"","type":"address"}],"stateMutability":"view","type":"function"},{"inputs":[],"name":"minimumContribution","outputs":[{"internalType":"uint256","name":"","type":"uint256"}],"stateMutability":"view","type":"function"},{"inputs":[{"internalType":"uint256","name":"","type":"uint256"}],"name":"requests","outputs":[{"internalType":"string","name":"description","type":"string"},{"internalType":"uint256","name":"value","type":"uint256"},{"internalType":"address payable","name":"recipient","type":"address"},{"internalType":"bool","name":"complete","type":"bool"},{"internalType":"uint256","name":"approvalCount","type":"uint256"}],"stateMutability":"view","type":"function"}],"devdoc":{"kind":"dev","methods":{},"version":1},"evm":{"assembly":"    /* \"Campaign.sol\":404:5256  contract Campaign {... */\n  mstore(0x40, 0x80)\n    /* \"Campaign.sol\":1425:1548  constructor(uint minimum, address creator) payable{... */\n  mload(0x40)\n  sub(codesize, bytecodeSize)\n  dup1\n  bytecodeSize\n  dup4\n  codecopy\n  dup2\n  dup2\n  add\n  0x40\n  mstore\n  dup2\n  add\n  swap1\n  tag_1\n  swap2\n  swap1\n  tag_2\n  jump\t// in\ntag_1:\n    /* \"Campaign.sol\":1495:1502  creator */\n  dup1\n    /* \"Campaign.sol\":1485:1492  manager */\n  0x01\n  0x00\n    /* \"Campaign.sol\":1485:1502  manager = creator */\n  0x0100\n  exp\n  dup2\n  sload\n  dup2\n  0xffffffffffffffffffffffffffffffffffffffff\n  mul\n  not\n  and\n  swap1\n  dup4\n  0xffffffffffffffffffffffffffffffffffffffff\n  and\n  mul\n  or\n  swap1\n  sstore\n  pop\n    /* \"Campaign.sol\":1534:1541  minimum */\n  dup2\n    /* \"Campaign.sol\":1512:1531  minimumContribution */\n  0x02\n    /* \"Campaign.sol\":1512:1541  minimumContribution = minimum */\n  dup2\n  swap1\n  sstore\n  pop\n    /* \"Campaign.sol\":1425:1548  constructor(uint minimum, address creator) payable{... */\n  pop\n  pop\n    /* \"Campaign.sol\":404:5256  contract Campaign {... */\n  jump(tag_5)\n    /* \"#utility.yul\":88:205   */\ntag_7:\n    /* \"#utility.yul\":197:198   */\n  0x00\n    /* \"#utility.yul\":194:195   */\n  0x00\n    /* \"#utility.yul\":187:199   */\n  revert\n    /* \"#utility.yul\":334:411   */\ntag_9:\n    /* \"#utility.yul\":371:378   */\n  0x00\n    /* \"#utility.yul\":400:405   */\n  dup2\n    /* \"#utility.yul\":389:405   */\n  swap1\n  pop\n    /* \"#utility.yul\":334:411   */\n  swap2\n  swap1\n  pop\n  jump\t// out\n    /* \"#utility.yul\":417:539   */\ntag_10:\n    /* \"#utility.yul\":490:514   */\n  tag_22\n    /* \"#utility.yul\":508:513   */\n  dup2\n    /* \"#utility.yul\":490:514   */\n  tag_9\n  jump\t// in\ntag_22:\n    /* \"#utility.yul\":483:488   */\n  dup2\n    /* \"#utility.yul\":480:515   */\n  eq\n    /* \"#utility.yul\":470:533   */\n  tag_23\n  jumpi\n    /* \"#utility.yul\":529:530   */\n  0x00\n    /* \"#utility.yul\":526:527   */\n  0x00\n    /* \"#utility.yul\":519:531   */\n  revert\n    /* \"#utility.yul\":470:533   */\ntag_23:\n    /* \"#utility.yul\":417:539   */\n  pop\n  jump\t// out\n    /* \"#utility.yul\":545:688   */\ntag_11:\n    /* \"#utility.yul\":602:607   */\n  0x00\n    /* \"#utility.yul\":633:639   */\n  dup2\n    /* \"#utility.yul\":627:640   */\n  mload\n    /* \"#utility.yul\":618:640   */\n  swap1\n  pop\n    /* \"#utility.yul\":649:682   */\n  tag_25\n    /* \"#utility.yul\":676:681   */\n  dup2\n    /* \"#utility.yul\":649:682   */\n  tag_10\n  jump\t// in\ntag_25:\n    /* \"#utility.yul\":545:688   */\n  swap3\n  swap2\n  pop\n  pop\n  jump\t// out\n    /* \"#utility.yul\":694:820   */\ntag_12:\n    /* \"#utility.yul\":731:738   */\n  0x00\n    /* \"#utility.yul\":771:813   */\n  0xffffffffffffffffffffffffffffffffffffffff\n    /* \"#utility.yul\":764:769   */\n  dup3\n    /* \"#utility.yul\":760:814   */\n  and\n    /* \"#utility.yul\":749:814   */\n  swap1\n  pop\n    /* \"#utility.yul\":694:820   */\n  swap2\n  swap1\n  pop\n  jump\t// out\n    /* \"#utility.yul\":826:922   */\ntag_13:\n    /* \"#utility.yul\":863:870   */\n  0x00\n    /* \"#utility.yul\":892:916   */\n  tag_28\n    /* \"#utility.yul\":910:915   */\n  dup3\n    /* \"#utility.yul\":892:916   */\n  tag_12\n  jump\t// in\ntag_28:\n    /* \"#utility.yul\":881:916   */\n  swap1\n  pop\n    /* \"#utility.yul\":826:922   */\n  swap2\n  swap1\n  pop\n  jump\t// out\n    /* \"#utility.yul\":928:1050   */\ntag_14:\n    /* \"#utility.yul\":1001:1025   */\n  tag_30\n    /* \"#utility.yul\":1019:1024   */\n  dup2\n    /* \"#utility.yul\":1001:1025   */\n  tag_13\n  jump\t// in\ntag_30:\n    /* \"#utility.yul\":994:999   */\n  dup2\n    /* \"#utility.yul\":991:1026   */\n  eq\n    /* \"#utility.yul\":981:1044   */\n  tag_31\n  jumpi\n    /* \"#utility.yul\":1040:1041   */\n  0x00\n    /* \"#utility.yul\":1037:1038   */\n  0x00\n    /* \"#utility.yul\":1030:1042   */\n  revert\n    /* \"#utility.yul\":981:1044   */\ntag_31:\n    /* \"#utility.yul\":928:1050   */\n  pop\n  jump\t// out\n    /* \"#utility.yul\":1056:1199   */\ntag_15:\n    /* \"#utility.yul\":1113:1118   */\n  0x00\n    /* \"#utility.yul\":1144:1150   */\n  dup2\n    /* \"#utility.yul\":1138:1151   */\n  mload\n    /* \"#utility.yul\":1129:1151   */\n  swap1\n  pop\n    /* \"#utility.yul\":1160:1193   */\n  tag_33\n    /* \"#utility.yul\":1187:1192   */\n  dup2\n    /* \"#utility.yul\":1160:1193   */\n  tag_14\n  jump\t// in\ntag_33:\n    /* \"#utility.yul\":1056:1199   */\n  swap3\n  swap2\n  pop\n  pop\n  jump\t// out\n    /* \"#utility.yul\":1205:1712   */\ntag_2:\n    /* \"#utility.yul\":1284:1290   */\n  0x00\n    /* \"#utility.yul\":1292:1298   */\n  0x00\n    /* \"#utility.yul\":1341:1343   */\n  0x40\n    /* \"#utility.yul\":1329:1338   */\n  dup4\n    /* \"#utility.yul\":1320:1327   */\n  dup6\n    /* \"#utility.yul\":1316:1339   */\n  sub\n    /* \"#utility.yul\":1312:1344   */\n  slt\n    /* \"#utility.yul\":1309:1428   */\n  iszero\n  tag_35\n  jumpi\n    /* \"#utility.yul\":1347:1426   */\n  tag_36\n  tag_7\n  jump\t// in\ntag_36:\n    /* \"#utility.yul\":1309:1428   */\ntag_35:\n    /* \"#utility.yul\":1467:1468   */\n  0x00\n    /* \"#utility.yul\":1492:1556   */\n  tag_37\n    /* \"#utility.yul\":1548:1555   */\n  dup6\n    /* \"#utility.yul\":1539:1545   */\n  dup3\n    /* \"#utility.yul\":1528:1537   */\n  dup7\n    /* \"#utility.yul\":1524:1546   */\n  add\n    /* \"#utility.yul\":1492:1556   */\n  tag_11\n  jump\t// in\ntag_37:\n    /* \"#utility.yul\":1482:1556   */\n  swap3\n  pop\n    /* \"#utility.yul\":1438:1566   */\n  pop\n    /* \"#utility.yul\":1605:1607   */\n  0x20\n    /* \"#utility.yul\":1631:1695   */\n  tag_38\n    /* \"#utility.yul\":1687:1694   */\n  dup6\n    /* \"#utility.yul\":1678:1684   */\n  dup3\n    /* \"#utility.yul\":1667:1676   */\n  dup7\n    /* \"#utility.yul\":1663:1685   */\n  add\n    /* \"#utility.yul\":1631:1695   */\n  tag_15\n  jump\t// in\ntag_38:\n    /* \"#utility.yul\":1621:1695   */\n  swap2\n  pop\n    /* \"#utility.yul\":1576:1705   */\n  pop\n    /* \"#utility.yul\":1205:1712   */\n  swap3\n  pop\n  swap3\n  swap1\n  pop\n  jump\t// out\n    /* \"Campaign.sol\":404:5256  contract Campaign {... */\ntag_5:\n  dataSize(sub_0)\n  dup1\n  dataOffset(sub_0)\n  0x00\n  codecopy\n  0x00\n  return\nstop\n\nsub_0: assembly {\n        /* \"Campaign.sol\":404:5256  contract Campaign {... */\n      mstore(0x40, 0x80)\n      jumpi(tag_1, lt(calldatasize, 0x04))\n      shr(0xe0, calldataload(0x00))\n      dup1\n      0x82fde093\n      gt\n      tag_14\n      jumpi\n      dup1\n      0x82fde093\n      eq\n      tag_8\n      jumpi\n      dup1\n      0x8a9cfd55\n      eq\n      tag_9\n      jumpi\n      dup1\n      0x937e09b1\n      eq\n      tag_10\n      jumpi\n      dup1\n      0xab2850da\n      eq\n      tag_11\n      jumpi\n      dup1\n      0xd7bb99ba\n      eq\n      tag_12\n      jumpi\n      dup1\n      0xd7d1bbdb\n      eq\n      tag_13\n      jumpi\n      jump(tag_1)\n    tag_14:\n      dup1\n      0x03441006\n      eq\n      tag_2\n      jumpi\n      dup1\n      0x0a144391\n      eq\n      tag_3\n      jumpi\n      dup1\n      0x3410452a\n      eq\n      tag_4\n      jumpi\n      dup1\n      0x481c6a75\n      eq\n      tag_5\n      jumpi\n      dup1\n      0x6d052b37\n      eq\n      tag_6\n      jumpi\n      dup1\n      0x81d12c58\n      eq\n      tag_7\n      jumpi\n    tag_1:\n      revert(0x00, 0x00)\n        /* \"Campaign.sol\":3642:4090  function finalizeRequest(uint index) public restricted {... */\n    tag_2:\n      callvalue\n      dup1\n      iszero\n      tag_15\n      jumpi\n      revert(0x00, 0x00)\n    tag_15:\n      pop\n      tag_16\n      0x04\n      dup1\n      calldatasize\n      sub\n      dup2\n      add\n      swap1\n      tag_17\n      swap2\n      swap1\n      tag_18\n      jump\t// in\n    tag_17:\n      tag_19\n      jump\t// in\n    tag_16:\n      stop\n        /* \"Campaign.sol\":967:1009  mapping (address => bool) public approvers */\n    tag_3:\n      callvalue\n      dup1\n      iszero\n      tag_20\n      jumpi\n      revert(0x00, 0x00)\n    tag_20:\n      pop\n      tag_21\n      0x04\n      dup1\n      calldatasize\n      sub\n      dup2\n      add\n      swap1\n      tag_22\n      swap2\n      swap1\n      tag_23\n      jump\t// in\n    tag_22:\n      tag_24\n      jump\t// in\n    tag_21:\n      mload(0x40)\n      tag_25\n      swap2\n      swap1\n      tag_26\n      jump\t// in\n    tag_25:\n      mload(0x40)\n      dup1\n      swap2\n      sub\n      swap1\n      return\n        /* \"Campaign.sol\":4097:4183  function getRequestsCount() public view returns (uint) {... */\n    tag_4:\n      callvalue\n      dup1\n      iszero\n      tag_27\n      jumpi\n      revert(0x00, 0x00)\n    tag_27:\n      pop\n      tag_28\n      tag_29\n      jump\t// in\n    tag_28:\n      mload(0x40)\n      tag_30\n      swap2\n      swap1\n      tag_31\n      jump\t// in\n    tag_30:\n      mload(0x40)\n      dup1\n      swap2\n      sub\n      swap1\n      return\n        /* \"Campaign.sol\":858:880  address public manager */\n    tag_5:\n      callvalue\n      dup1\n      iszero\n      tag_32\n      jumpi\n      revert(0x00, 0x00)\n    tag_32:\n      pop\n      tag_33\n      tag_34\n      jump\t// in\n    tag_33:\n      mload(0x40)\n      tag_35\n      swap2\n      swap1\n      tag_36\n      jump\t// in\n    tag_35:\n      mload(0x40)\n      dup1\n      swap2\n      sub\n      swap1\n      return\n        /* \"Campaign.sol\":4914:5254  function getRequestByIndex(uint index) public view returns ( uint value, address recipient, bool complete, uint approvalCount) {... */\n    tag_6:\n      callvalue\n      dup1\n      iszero\n      tag_37\n      jumpi\n      revert(0x00, 0x00)\n    tag_37:\n      pop\n      tag_38\n      0x04\n      dup1\n      calldatasize\n      sub\n      dup2\n      add\n      swap1\n      tag_39\n      swap2\n      swap1\n      tag_18\n      jump\t// in\n    tag_39:\n      tag_40\n      jump\t// in\n    tag_38:\n      mload(0x40)\n      tag_41\n      swap5\n      swap4\n      swap3\n      swap2\n      swap1\n      tag_42\n      jump\t// in\n    tag_41:\n      mload(0x40)\n      dup1\n      swap2\n      sub\n      swap1\n      return\n        /* \"Campaign.sol\":827:852  Request[] public requests */\n    tag_7:\n      callvalue\n      dup1\n      iszero\n      tag_43\n      jumpi\n      revert(0x00, 0x00)\n    tag_43:\n      pop\n      tag_44\n      0x04\n      dup1\n      calldatasize\n      sub\n      dup2\n      add\n      swap1\n      tag_45\n      swap2\n      swap1\n      tag_18\n      jump\t// in\n    tag_45:\n      tag_46\n      jump\t// in\n    tag_44:\n      mload(0x40)\n      tag_47\n      swap6\n      swap5\n      swap4\n      swap3\n      swap2\n      swap1\n      tag_48\n      jump\t// in\n    tag_47:\n      mload(0x40)\n      dup1\n      swap2\n      sub\n      swap1\n      return\n        /* \"Campaign.sol\":1126:1152  uint public approversCount */\n    tag_8:\n      callvalue\n      dup1\n      iszero\n      tag_49\n      jumpi\n      revert(0x00, 0x00)\n    tag_49:\n      pop\n      tag_50\n      tag_51\n      jump\t// in\n    tag_50:\n      mload(0x40)\n      tag_52\n      swap2\n      swap1\n      tag_31\n      jump\t// in\n    tag_52:\n      mload(0x40)\n      dup1\n      swap2\n      sub\n      swap1\n      return\n        /* \"Campaign.sol\":2067:3054  function createRequest(string memory description, uint value, address payable recipient)... */\n    tag_9:\n      callvalue\n      dup1\n      iszero\n      tag_53\n      jumpi\n      revert(0x00, 0x00)\n    tag_53:\n      pop\n      tag_54\n      0x04\n      dup1\n      calldatasize\n      sub\n      dup2\n      add\n      swap1\n      tag_55\n      swap2\n      swap1\n      tag_56\n      jump\t// in\n    tag_55:\n      tag_57\n      jump\t// in\n    tag_54:\n      stop\n        /* \"Campaign.sol\":886:917  uint public minimumContribution */\n    tag_10:\n      callvalue\n      dup1\n      iszero\n      tag_58\n      jumpi\n      revert(0x00, 0x00)\n    tag_58:\n      pop\n      tag_59\n      tag_60\n      jump\t// in\n    tag_59:\n      mload(0x40)\n      tag_61\n      swap2\n      swap1\n      tag_31\n      jump\t// in\n    tag_61:\n      mload(0x40)\n      dup1\n      swap2\n      sub\n      swap1\n      return\n        /* \"Campaign.sol\":1015:1073  mapping(uint => mapping(address => bool)) public approvals */\n    tag_11:\n      callvalue\n      dup1\n      iszero\n      tag_62\n      jumpi\n      revert(0x00, 0x00)\n    tag_62:\n      pop\n      tag_63\n      0x04\n      dup1\n      calldatasize\n      sub\n      dup2\n      add\n      swap1\n      tag_64\n      swap2\n      swap1\n      tag_65\n      jump\t// in\n    tag_64:\n      tag_66\n      jump\t// in\n    tag_63:\n      mload(0x40)\n      tag_67\n      swap2\n      swap1\n      tag_26\n      jump\t// in\n    tag_67:\n      mload(0x40)\n      dup1\n      swap2\n      sub\n      swap1\n      return\n        /* \"Campaign.sol\":1674:2061  function contribute() public payable {... */\n    tag_12:\n      tag_68\n      tag_69\n      jump\t// in\n    tag_68:\n      stop\n        /* \"Campaign.sol\":3060:3635  function approveRequest(uint index) public {... */\n    tag_13:\n      callvalue\n      dup1\n      iszero\n      tag_70\n      jumpi\n      revert(0x00, 0x00)\n    tag_70:\n      pop\n      tag_71\n      0x04\n      dup1\n      calldatasize\n      sub\n      dup2\n      add\n      swap1\n      tag_72\n      swap2\n      swap1\n      tag_18\n      jump\t// in\n    tag_72:\n      tag_73\n      jump\t// in\n    tag_71:\n      stop\n        /* \"Campaign.sol\":3642:4090  function finalizeRequest(uint index) public restricted {... */\n    tag_19:\n        /* \"Campaign.sol\":1607:1614  manager */\n      0x01\n      0x00\n      swap1\n      sload\n      swap1\n      0x0100\n      exp\n      swap1\n      div\n      0xffffffffffffffffffffffffffffffffffffffff\n      and\n        /* \"Campaign.sol\":1593:1614  msg.sender == manager */\n      0xffffffffffffffffffffffffffffffffffffffff\n      and\n        /* \"Campaign.sol\":1593:1603  msg.sender */\n      caller\n        /* \"Campaign.sol\":1593:1614  msg.sender == manager */\n      0xffffffffffffffffffffffffffffffffffffffff\n      and\n      eq\n        /* \"Campaign.sol\":1585:1650  require(msg.sender == manager, \"Only manager can create request\") */\n      tag_75\n      jumpi\n      mload(0x40)\n      0x08c379a000000000000000000000000000000000000000000000000000000000\n      dup2\n      mstore\n      0x04\n      add\n      tag_76\n      swap1\n      tag_77\n      jump\t// in\n    tag_76:\n      mload(0x40)\n      dup1\n      swap2\n      sub\n      swap1\n      revert\n    tag_75:\n        /* \"Campaign.sol\":3708:3731  Request storage request */\n      0x00\n        /* \"Campaign.sol\":3734:3742  requests */\n      0x00\n        /* \"Campaign.sol\":3743:3748  index */\n      dup3\n        /* \"Campaign.sol\":3734:3749  requests[index] */\n      dup2\n      sload\n      dup2\n      lt\n      tag_79\n      jumpi\n      tag_80\n      tag_81\n      jump\t// in\n    tag_80:\n    tag_79:\n      swap1\n      0x00\n      mstore\n      keccak256(0x00, 0x20)\n      swap1\n      0x04\n      mul\n      add\n        /* \"Campaign.sol\":3708:3749  Request storage request = requests[index] */\n      swap1\n      pop\n        /* \"Campaign.sol\":3792:3799  request */\n      dup1\n        /* \"Campaign.sol\":3792:3805  request.value */\n      0x01\n      add\n      sload\n        /* \"Campaign.sol\":3767:3788  address(this).balance */\n      selfbalance\n        /* \"Campaign.sol\":3767:3805  address(this).balance >= request.value */\n      lt\n      iszero\n        /* \"Campaign.sol\":3759:3840  require(address(this).balance >= request.value, \"Insufficient contract balance.\") */\n      tag_83\n      jumpi\n      mload(0x40)\n      0x08c379a000000000000000000000000000000000000000000000000000000000\n      dup2\n      mstore\n      0x04\n      add\n      tag_84\n      swap1\n      tag_85\n      jump\t// in\n    tag_84:\n      mload(0x40)\n      dup1\n      swap2\n      sub\n      swap1\n      revert\n    tag_83:\n        /* \"Campaign.sol\":3901:3902  2 */\n      0x02\n        /* \"Campaign.sol\":3884:3898  approversCount */\n      sload(0x05)\n        /* \"Campaign.sol\":3884:3902  approversCount / 2 */\n      tag_86\n      swap2\n      swap1\n      tag_87\n      jump\t// in\n    tag_86:\n        /* \"Campaign.sol\":3859:3866  request */\n      dup2\n        /* \"Campaign.sol\":3859:3880  request.approvalCount */\n      0x03\n      add\n      sload\n        /* \"Campaign.sol\":3859:3903  request.approvalCount > (approversCount / 2) */\n      gt\n        /* \"Campaign.sol\":3851:3929  require(request.approvalCount > (approversCount / 2), \"Not enough approvals.\") */\n      tag_88\n      jumpi\n      mload(0x40)\n      0x08c379a000000000000000000000000000000000000000000000000000000000\n      dup2\n      mstore\n      0x04\n      add\n      tag_89\n      swap1\n      tag_90\n      jump\t// in\n    tag_89:\n      mload(0x40)\n      dup1\n      swap2\n      sub\n      swap1\n      revert\n    tag_88:\n        /* \"Campaign.sol\":3948:3955  request */\n      dup1\n        /* \"Campaign.sol\":3948:3964  request.complete */\n      0x02\n      add\n      0x14\n      swap1\n      sload\n      swap1\n      0x0100\n      exp\n      swap1\n      div\n      0xff\n      and\n        /* \"Campaign.sol\":3947:3964  !request.complete */\n      iszero\n        /* \"Campaign.sol\":3939:3997  require(!request.complete, \"Request is already complete.\") */\n      tag_91\n      jumpi\n      mload(0x40)\n      0x08c379a000000000000000000000000000000000000000000000000000000000\n      dup2\n      mstore\n      0x04\n      add\n      tag_92\n      swap1\n      tag_93\n      jump\t// in\n    tag_92:\n      mload(0x40)\n      dup1\n      swap2\n      sub\n      swap1\n      revert\n    tag_91:\n        /* \"Campaign.sol\":4008:4015  request */\n      dup1\n        /* \"Campaign.sol\":4008:4025  request.recipient */\n      0x02\n      add\n      0x00\n      swap1\n      sload\n      swap1\n      0x0100\n      exp\n      swap1\n      div\n      0xffffffffffffffffffffffffffffffffffffffff\n      and\n        /* \"Campaign.sol\":4008:4034  request.recipient.transfer */\n      0xffffffffffffffffffffffffffffffffffffffff\n      and\n        /* \"Campaign.sol\":4008:4049  request.recipient.transfer(request.value) */\n      0x08fc\n        /* \"Campaign.sol\":4035:4042  request */\n      dup3\n        /* \"Campaign.sol\":4035:4048  request.value */\n      0x01\n      add\n      sload\n        /* \"Campaign.sol\":4008:4049  request.recipient.transfer(request.value) */\n      swap1\n      dup2\n      iszero\n      mul\n      swap1\n      mload(0x40)\n      0x00\n      mload(0x40)\n      dup1\n      dup4\n      sub\n      dup2\n      dup6\n      dup9\n      dup9\n      call\n      swap4\n      pop\n      pop\n      pop\n      pop\n      iszero\n      dup1\n      iszero\n      tag_95\n      jumpi\n      returndatacopy(0x00, 0x00, returndatasize)\n      revert(0x00, returndatasize)\n    tag_95:\n      pop\n        /* \"Campaign.sol\":4078:4082  true */\n      0x01\n        /* \"Campaign.sol\":4059:4066  request */\n      dup2\n        /* \"Campaign.sol\":4059:4075  request.complete */\n      0x02\n      add\n      0x14\n        /* \"Campaign.sol\":4059:4082  request.complete = true */\n      0x0100\n      exp\n      dup2\n      sload\n      dup2\n      0xff\n      mul\n      not\n      and\n      swap1\n      dup4\n      iszero\n      iszero\n      mul\n      or\n      swap1\n      sstore\n      pop\n        /* \"Campaign.sol\":3697:4090  {... */\n      pop\n        /* \"Campaign.sol\":3642:4090  function finalizeRequest(uint index) public restricted {... */\n      pop\n      jump\t// out\n        /* \"Campaign.sol\":967:1009  mapping (address => bool) public approvers */\n    tag_24:\n      mstore(0x20, 0x03)\n      dup1\n      0x00\n      mstore\n      keccak256(0x00, 0x40)\n      0x00\n      swap2\n      pop\n      sload\n      swap1\n      0x0100\n      exp\n      swap1\n      div\n      0xff\n      and\n      dup2\n      jump\t// out\n        /* \"Campaign.sol\":4097:4183  function getRequestsCount() public view returns (uint) {... */\n    tag_29:\n        /* \"Campaign.sol\":4146:4150  uint */\n      0x00\n        /* \"Campaign.sol\":4165:4173  requests */\n      0x00\n        /* \"Campaign.sol\":4165:4180  requests.length */\n      dup1\n      sload\n      swap1\n      pop\n        /* \"Campaign.sol\":4158:4180  return requests.length */\n      swap1\n      pop\n        /* \"Campaign.sol\":4097:4183  function getRequestsCount() public view returns (uint) {... */\n      swap1\n      jump\t// out\n        /* \"Campaign.sol\":858:880  address public manager */\n    tag_34:\n      0x01\n      0x00\n      swap1\n      sload\n      swap1\n      0x0100\n      exp\n      swap1\n      div\n      0xffffffffffffffffffffffffffffffffffffffff\n      and\n      dup2\n      jump\t// out\n        /* \"Campaign.sol\":4914:5254  function getRequestByIndex(uint index) public view returns ( uint value, address recipient, bool complete, uint approvalCount) {... */\n    tag_40:\n        /* \"Campaign.sol\":4975:4985  uint value */\n      0x00\n        /* \"Campaign.sol\":4987:5004  address recipient */\n      0x00\n        /* \"Campaign.sol\":5006:5019  bool complete */\n      0x00\n        /* \"Campaign.sol\":5021:5039  uint approvalCount */\n      0x00\n        /* \"Campaign.sol\":5063:5071  requests */\n      0x00\n        /* \"Campaign.sol\":5063:5078  requests.length */\n      dup1\n      sload\n      swap1\n      pop\n        /* \"Campaign.sol\":5055:5060  index */\n      dup6\n        /* \"Campaign.sol\":5055:5078  index < requests.length */\n      lt\n        /* \"Campaign.sol\":5047:5105  require(index < requests.length, \"Invalid request index.\") */\n      tag_98\n      jumpi\n      mload(0x40)\n      0x08c379a000000000000000000000000000000000000000000000000000000000\n      dup2\n      mstore\n      0x04\n      add\n      tag_99\n      swap1\n      tag_100\n      jump\t// in\n    tag_99:\n      mload(0x40)\n      dup1\n      swap2\n      sub\n      swap1\n      revert\n    tag_98:\n        /* \"Campaign.sol\":5116:5138  Request memory request */\n      0x00\n        /* \"Campaign.sol\":5141:5149  requests */\n      0x00\n        /* \"Campaign.sol\":5150:5155  index */\n      dup7\n        /* \"Campaign.sol\":5141:5156  requests[index] */\n      dup2\n      sload\n      dup2\n      lt\n      tag_101\n      jumpi\n      tag_102\n      tag_81\n      jump\t// in\n    tag_102:\n    tag_101:\n      swap1\n      0x00\n      mstore\n      keccak256(0x00, 0x20)\n      swap1\n      0x04\n      mul\n      add\n        /* \"Campaign.sol\":5116:5156  Request memory request = requests[index] */\n      mload(0x40)\n      dup1\n      0xa0\n      add\n      0x40\n      mstore\n      swap1\n      dup2\n      0x00\n      dup3\n      add\n      dup1\n      sload\n      tag_104\n      swap1\n      tag_105\n      jump\t// in\n    tag_104:\n      dup1\n      0x1f\n      add\n      0x20\n      dup1\n      swap2\n      div\n      mul\n      0x20\n      add\n      mload(0x40)\n      swap1\n      dup2\n      add\n      0x40\n      mstore\n      dup1\n      swap3\n      swap2\n      swap1\n      dup2\n      dup2\n      mstore\n      0x20\n      add\n      dup3\n      dup1\n      sload\n      tag_106\n      swap1\n      tag_105\n      jump\t// in\n    tag_106:\n      dup1\n      iszero\n      tag_107\n      jumpi\n      dup1\n      0x1f\n      lt\n      tag_108\n      jumpi\n      0x0100\n      dup1\n      dup4\n      sload\n      div\n      mul\n      dup4\n      mstore\n      swap2\n      0x20\n      add\n      swap2\n      jump(tag_107)\n    tag_108:\n      dup3\n      add\n      swap2\n      swap1\n      0x00\n      mstore\n      keccak256(0x00, 0x20)\n      swap1\n    tag_109:\n      dup2\n      sload\n      dup2\n      mstore\n      swap1\n      0x01\n      add\n      swap1\n      0x20\n      add\n      dup1\n      dup4\n      gt\n      tag_109\n      jumpi\n      dup3\n      swap1\n      sub\n      0x1f\n      and\n      dup3\n      add\n      swap2\n    tag_107:\n      pop\n      pop\n      pop\n      pop\n      pop\n      dup2\n      mstore\n      0x20\n      add\n      0x01\n      dup3\n      add\n      sload\n      dup2\n      mstore\n      0x20\n      add\n      0x02\n      dup3\n      add\n      0x00\n      swap1\n      sload\n      swap1\n      0x0100\n      exp\n      swap1\n      div\n      0xffffffffffffffffffffffffffffffffffffffff\n      and\n      0xffffffffffffffffffffffffffffffffffffffff\n      and\n      0xffffffffffffffffffffffffffffffffffffffff\n      and\n      dup2\n      mstore\n      0x20\n      add\n      0x02\n      dup3\n      add\n      0x14\n      swap1\n      sload\n      swap1\n      0x0100\n      exp\n      swap1\n      div\n      0xff\n      and\n      iszero\n      iszero\n      iszero\n      iszero\n      dup2\n      mstore\n      0x20\n      add\n      0x03\n      dup3\n      add\n      sload\n      dup2\n      mstore\n      pop\n      pop\n      swap1\n      pop\n        /* \"Campaign.sol\":5177:5184  request */\n      dup1\n        /* \"Campaign.sol\":5177:5190  request.value */\n      0x20\n      add\n      mload\n        /* \"Campaign.sol\":5192:5199  request */\n      dup2\n        /* \"Campaign.sol\":5192:5209  request.recipient */\n      0x40\n      add\n      mload\n        /* \"Campaign.sol\":5211:5218  request */\n      dup3\n        /* \"Campaign.sol\":5211:5227  request.complete */\n      0x60\n      add\n      mload\n        /* \"Campaign.sol\":5229:5236  request */\n      dup4\n        /* \"Campaign.sol\":5229:5250  request.approvalCount */\n      0x80\n      add\n      mload\n        /* \"Campaign.sol\":5169:5251  return (request.value, request.recipient, request.complete, request.approvalCount) */\n      swap5\n      pop\n      swap5\n      pop\n      swap5\n      pop\n      swap5\n      pop\n      pop\n        /* \"Campaign.sol\":4914:5254  function getRequestByIndex(uint index) public view returns ( uint value, address recipient, bool complete, uint approvalCount) {... */\n      swap2\n      swap4\n      pop\n      swap2\n      swap4\n      jump\t// out\n        /* \"Campaign.sol\":827:852  Request[] public requests */\n    tag_46:\n      0x00\n      dup2\n      dup2\n      sload\n      dup2\n      lt\n      tag_110\n      jumpi\n      0x00\n      dup1\n      revert\n    tag_110:\n      swap1\n      0x00\n      mstore\n      keccak256(0x00, 0x20)\n      swap1\n      0x04\n      mul\n      add\n      0x00\n      swap2\n      pop\n      swap1\n      pop\n      dup1\n      0x00\n      add\n      dup1\n      sload\n      tag_112\n      swap1\n      tag_105\n      jump\t// in\n    tag_112:\n      dup1\n      0x1f\n      add\n      0x20\n      dup1\n      swap2\n      div\n      mul\n      0x20\n      add\n      mload(0x40)\n      swap1\n      dup2\n      add\n      0x40\n      mstore\n      dup1\n      swap3\n      swap2\n      swap1\n      dup2\n      dup2\n      mstore\n      0x20\n      add\n      dup3\n      dup1\n      sload\n      tag_113\n      swap1\n      tag_105\n      jump\t// in\n    tag_113:\n      dup1\n      iszero\n      tag_114\n      jumpi\n      dup1\n      0x1f\n      lt\n      tag_115\n      jumpi\n      0x0100\n      dup1\n      dup4\n      sload\n      div\n      mul\n      dup4\n      mstore\n      swap2\n      0x20\n      add\n      swap2\n      jump(tag_114)\n    tag_115:\n      dup3\n      add\n      swap2\n      swap1\n      0x00\n      mstore\n      keccak256(0x00, 0x20)\n      swap1\n    tag_116:\n      dup2\n      sload\n      dup2\n      mstore\n      swap1\n      0x01\n      add\n      swap1\n      0x20\n      add\n      dup1\n      dup4\n      gt\n      tag_116\n      jumpi\n      dup3\n      swap1\n      sub\n      0x1f\n      and\n      dup3\n      add\n      swap2\n    tag_114:\n      pop\n      pop\n      pop\n      pop\n      pop\n      swap1\n      dup1\n      0x01\n      add\n      sload\n      swap1\n      dup1\n      0x02\n      add\n      0x00\n      swap1\n      sload\n      swap1\n      0x0100\n      exp\n      swap1\n      div\n      0xffffffffffffffffffffffffffffffffffffffff\n      and\n      swap1\n      dup1\n      0x02\n      add\n      0x14\n      swap1\n      sload\n      swap1\n      0x0100\n      exp\n      swap1\n      div\n      0xff\n      and\n      swap1\n      dup1\n      0x03\n      add\n      sload\n      swap1\n      pop\n      dup6\n      jump\t// out\n        /* \"Campaign.sol\":1126:1152  uint public approversCount */\n    tag_51:\n      sload(0x05)\n      dup2\n      jump\t// out\n        /* \"Campaign.sol\":2067:3054  function createRequest(string memory description, uint value, address payable recipient)... */\n    tag_57:\n        /* \"Campaign.sol\":2372:2397  Request memory newRequest */\n      0x00\n        /* \"Campaign.sol\":2400:2580  Request({... */\n      mload(0x40)\n      dup1\n      0xa0\n      add\n      0x40\n      mstore\n      dup1\n        /* \"Campaign.sol\":2436:2447  description */\n      dup6\n        /* \"Campaign.sol\":2400:2580  Request({... */\n      dup2\n      mstore\n      0x20\n      add\n        /* \"Campaign.sol\":2469:2474  value */\n      dup5\n        /* \"Campaign.sol\":2400:2580  Request({... */\n      dup2\n      mstore\n      0x20\n      add\n        /* \"Campaign.sol\":2500:2509  recipient */\n      dup4\n        /* \"Campaign.sol\":2400:2580  Request({... */\n      0xffffffffffffffffffffffffffffffffffffffff\n      and\n      dup2\n      mstore\n      0x20\n      add\n        /* \"Campaign.sol\":2533:2538  false */\n      0x00\n        /* \"Campaign.sol\":2400:2580  Request({... */\n      iszero\n      iszero\n      dup2\n      mstore\n      0x20\n      add\n        /* \"Campaign.sol\":2568:2569  0 */\n      0x00\n        /* \"Campaign.sol\":2400:2580  Request({... */\n      dup2\n      mstore\n      pop\n        /* \"Campaign.sol\":2372:2580  Request memory newRequest = Request({... */\n      swap1\n      pop\n        /* \"Campaign.sol\":3022:3030  requests */\n      0x00\n        /* \"Campaign.sol\":3036:3046  newRequest */\n      dup2\n        /* \"Campaign.sol\":3022:3047  requests.push(newRequest) */\n      swap1\n      dup1\n      0x01\n      dup2\n      sload\n      add\n      dup1\n      dup3\n      sstore\n      dup1\n      swap2\n      pop\n      pop\n      0x01\n      swap1\n      sub\n      swap1\n      0x00\n      mstore\n      keccak256(0x00, 0x20)\n      swap1\n      0x04\n      mul\n      add\n      0x00\n      swap1\n      swap2\n      swap1\n      swap2\n      swap1\n      swap2\n      pop\n      0x00\n      dup3\n      add\n      mload\n      dup2\n      0x00\n      add\n      swap1\n      dup2\n      tag_119\n      swap2\n      swap1\n      tag_120\n      jump\t// in\n    tag_119:\n      pop\n      0x20\n      dup3\n      add\n      mload\n      dup2\n      0x01\n      add\n      sstore\n      0x40\n      dup3\n      add\n      mload\n      dup2\n      0x02\n      add\n      exp(0x0100, 0x00)\n      dup2\n      sload\n      dup2\n      0xffffffffffffffffffffffffffffffffffffffff\n      mul\n      not\n      and\n      swap1\n      dup4\n      0xffffffffffffffffffffffffffffffffffffffff\n      and\n      mul\n      or\n      swap1\n      sstore\n      pop\n      0x60\n      dup3\n      add\n      mload\n      dup2\n      0x02\n      add\n      exp(0x0100, 0x14)\n      dup2\n      sload\n      dup2\n      0xff\n      mul\n      not\n      and\n      swap1\n      dup4\n      iszero\n      iszero\n      mul\n      or\n      swap1\n      sstore\n      pop\n      0x80\n      dup3\n      add\n      mload\n      dup2\n      0x03\n      add\n      sstore\n      pop\n      pop\n        /* \"Campaign.sol\":2168:3054  {... */\n      pop\n        /* \"Campaign.sol\":2067:3054  function createRequest(string memory description, uint value, address payable recipient)... */\n      pop\n      pop\n      pop\n      jump\t// out\n        /* \"Campaign.sol\":886:917  uint public minimumContribution */\n    tag_60:\n      sload(0x02)\n      dup2\n      jump\t// out\n        /* \"Campaign.sol\":1015:1073  mapping(uint => mapping(address => bool)) public approvals */\n    tag_66:\n      mstore(0x20, 0x04)\n      dup2\n      0x00\n      mstore\n      mstore(0x20, keccak256(0x00, 0x40))\n      dup1\n      0x00\n      mstore\n      keccak256(0x00, 0x40)\n      0x00\n      swap2\n      pop\n      swap2\n      pop\n      swap1\n      sload\n      swap1\n      0x0100\n      exp\n      swap1\n      div\n      0xff\n      and\n      dup2\n      jump\t// out\n        /* \"Campaign.sol\":1674:2061  function contribute() public payable {... */\n    tag_69:\n        /* \"Campaign.sol\":1741:1760  minimumContribution */\n      sload(0x02)\n        /* \"Campaign.sol\":1729:1738  msg.value */\n      callvalue\n        /* \"Campaign.sol\":1729:1760  msg.value > minimumContribution */\n      gt\n        /* \"Campaign.sol\":1721:1814  require(msg.value > minimumContribution, \"Contribution must be greater than minimum amount.\") */\n      tag_122\n      jumpi\n      mload(0x40)\n      0x08c379a000000000000000000000000000000000000000000000000000000000\n      dup2\n      mstore\n      0x04\n      add\n      tag_123\n      swap1\n      tag_124\n      jump\t// in\n    tag_123:\n      mload(0x40)\n      dup1\n      swap2\n      sub\n      swap1\n      revert\n    tag_122:\n        /* \"Campaign.sol\":1949:1958  approvers */\n      0x03\n        /* \"Campaign.sol\":1949:1970  approvers[msg.sender] */\n      0x00\n        /* \"Campaign.sol\":1959:1969  msg.sender */\n      caller\n        /* \"Campaign.sol\":1949:1970  approvers[msg.sender] */\n      0xffffffffffffffffffffffffffffffffffffffff\n      and\n      0xffffffffffffffffffffffffffffffffffffffff\n      and\n      dup2\n      mstore\n      0x20\n      add\n      swap1\n      dup2\n      mstore\n      0x20\n      add\n      0x00\n      keccak256\n      0x00\n      swap1\n      sload\n      swap1\n      0x0100\n      exp\n      swap1\n      div\n      0xff\n      and\n        /* \"Campaign.sol\":1944:2055  if (!approvers[msg.sender]) {... */\n      tag_125\n      jumpi\n        /* \"Campaign.sol\":2010:2014  true */\n      0x01\n        /* \"Campaign.sol\":1986:1995  approvers */\n      0x03\n        /* \"Campaign.sol\":1986:2007  approvers[msg.sender] */\n      0x00\n        /* \"Campaign.sol\":1996:2006  msg.sender */\n      caller\n        /* \"Campaign.sol\":1986:2007  approvers[msg.sender] */\n      0xffffffffffffffffffffffffffffffffffffffff\n      and\n      0xffffffffffffffffffffffffffffffffffffffff\n      and\n      dup2\n      mstore\n      0x20\n      add\n      swap1\n      dup2\n      mstore\n      0x20\n      add\n      0x00\n      keccak256\n      0x00\n        /* \"Campaign.sol\":1986:2014  approvers[msg.sender] = true */\n      0x0100\n      exp\n      dup2\n      sload\n      dup2\n      0xff\n      mul\n      not\n      and\n      swap1\n      dup4\n      iszero\n      iszero\n      mul\n      or\n      swap1\n      sstore\n      pop\n        /* \"Campaign.sol\":2028:2042  approversCount */\n      0x05\n      0x00\n        /* \"Campaign.sol\":2028:2044  approversCount++ */\n      dup2\n      sload\n      dup1\n      swap3\n      swap2\n      swap1\n      tag_126\n      swap1\n      tag_127\n      jump\t// in\n    tag_126:\n      swap2\n      swap1\n      pop\n      sstore\n      pop\n        /* \"Campaign.sol\":1944:2055  if (!approvers[msg.sender]) {... */\n    tag_125:\n        /* \"Campaign.sol\":1674:2061  function contribute() public payable {... */\n      jump\t// out\n        /* \"Campaign.sol\":3060:3635  function approveRequest(uint index) public {... */\n    tag_73:\n        /* \"Campaign.sol\":3114:3137  Request storage request */\n      0x00\n        /* \"Campaign.sol\":3140:3148  requests */\n      0x00\n        /* \"Campaign.sol\":3149:3154  index */\n      dup3\n        /* \"Campaign.sol\":3140:3155  requests[index] */\n      dup2\n      sload\n      dup2\n      lt\n      tag_129\n      jumpi\n      tag_130\n      tag_81\n      jump\t// in\n    tag_130:\n    tag_129:\n      swap1\n      0x00\n      mstore\n      keccak256(0x00, 0x20)\n      swap1\n      0x04\n      mul\n      add\n        /* \"Campaign.sol\":3114:3155  Request storage request = requests[index] */\n      swap1\n      pop\n        /* \"Campaign.sol\":3174:3183  approvers */\n      0x03\n        /* \"Campaign.sol\":3174:3195  approvers[msg.sender] */\n      0x00\n        /* \"Campaign.sol\":3184:3194  msg.sender */\n      caller\n        /* \"Campaign.sol\":3174:3195  approvers[msg.sender] */\n      0xffffffffffffffffffffffffffffffffffffffff\n      and\n      0xffffffffffffffffffffffffffffffffffffffff\n      and\n      dup2\n      mstore\n      0x20\n      add\n      swap1\n      dup2\n      mstore\n      0x20\n      add\n      0x00\n      keccak256\n      0x00\n      swap1\n      sload\n      swap1\n      0x0100\n      exp\n      swap1\n      div\n      0xff\n      and\n        /* \"Campaign.sol\":3166:3230  require(approvers[msg.sender], \"Only contributors can approve.\") */\n      tag_132\n      jumpi\n      mload(0x40)\n      0x08c379a000000000000000000000000000000000000000000000000000000000\n      dup2\n      mstore\n      0x04\n      add\n      tag_133\n      swap1\n      tag_134\n      jump\t// in\n    tag_133:\n      mload(0x40)\n      dup1\n      swap2\n      sub\n      swap1\n      revert\n    tag_132:\n        /* \"Campaign.sol\":3382:3391  approvals */\n      0x04\n        /* \"Campaign.sol\":3382:3398  approvals[index] */\n      0x00\n        /* \"Campaign.sol\":3392:3397  index */\n      dup4\n        /* \"Campaign.sol\":3382:3398  approvals[index] */\n      dup2\n      mstore\n      0x20\n      add\n      swap1\n      dup2\n      mstore\n      0x20\n      add\n      0x00\n      keccak256\n        /* \"Campaign.sol\":3382:3410  approvals[index][msg.sender] */\n      0x00\n        /* \"Campaign.sol\":3399:3409  msg.sender */\n      caller\n        /* \"Campaign.sol\":3382:3410  approvals[index][msg.sender] */\n      0xffffffffffffffffffffffffffffffffffffffff\n      and\n      0xffffffffffffffffffffffffffffffffffffffff\n      and\n      dup2\n      mstore\n      0x20\n      add\n      swap1\n      dup2\n      mstore\n      0x20\n      add\n      0x00\n      keccak256\n      0x00\n      swap1\n      sload\n      swap1\n      0x0100\n      exp\n      swap1\n      div\n      0xff\n      and\n        /* \"Campaign.sol\":3381:3410  !approvals[index][msg.sender] */\n      iszero\n        /* \"Campaign.sol\":3373:3454  require(!approvals[index][msg.sender], \"You have already approved this request.\") */\n      tag_135\n      jumpi\n      mload(0x40)\n      0x08c379a000000000000000000000000000000000000000000000000000000000\n      dup2\n      mstore\n      0x04\n      add\n      tag_136\n      swap1\n      tag_137\n      jump\t// in\n    tag_136:\n      mload(0x40)\n      dup1\n      swap2\n      sub\n      swap1\n      revert\n    tag_135:\n        /* \"Campaign.sol\":3590:3594  true */\n      0x01\n        /* \"Campaign.sol\":3559:3568  approvals */\n      0x04\n        /* \"Campaign.sol\":3559:3575  approvals[index] */\n      0x00\n        /* \"Campaign.sol\":3569:3574  index */\n      dup5\n        /* \"Campaign.sol\":3559:3575  approvals[index] */\n      dup2\n      mstore\n      0x20\n      add\n      swap1\n      dup2\n      mstore\n      0x20\n      add\n      0x00\n      keccak256\n        /* \"Campaign.sol\":3559:3587  approvals[index][msg.sender] */\n      0x00\n        /* \"Campaign.sol\":3576:3586  msg.sender */\n      caller\n        /* \"Campaign.sol\":3559:3587  approvals[index][msg.sender] */\n      0xffffffffffffffffffffffffffffffffffffffff\n      and\n      0xffffffffffffffffffffffffffffffffffffffff\n      and\n      dup2\n      mstore\n      0x20\n      add\n      swap1\n      dup2\n      mstore\n      0x20\n      add\n      0x00\n      keccak256\n      0x00\n        /* \"Campaign.sol\":3559:3594  approvals[index][msg.sender] = true */\n      0x0100\n      exp\n      dup2\n      sload\n      dup2\n      0xff\n      mul\n      not\n      and\n      swap1\n      dup4\n      iszero\n      iszero\n      mul\n      or\n      swap1\n      sstore\n      pop\n        /* \"Campaign.sol\":3605:3612  request */\n      dup1\n        /* \"Campaign.sol\":3605:3626  request.approvalCount */\n      0x03\n      add\n      0x00\n        /* \"Campaign.sol\":3605:3628  request.approvalCount++ */\n      dup2\n      sload\n      dup1\n      swap3\n      swap2\n      swap1\n      tag_138\n      swap1\n      tag_127\n      jump\t// in\n    tag_138:\n      swap2\n      swap1\n      pop\n      sstore\n      pop\n        /* \"Campaign.sol\":3103:3635  {... */\n      pop\n        /* \"Campaign.sol\":3060:3635  function approveRequest(uint index) public {... */\n      pop\n      jump\t// out\n        /* \"#utility.yul\":7:82   */\n    tag_139:\n        /* \"#utility.yul\":40:46   */\n      0x00\n        /* \"#utility.yul\":73:75   */\n      0x40\n        /* \"#utility.yul\":67:76   */\n      mload\n        /* \"#utility.yul\":57:76   */\n      swap1\n      pop\n        /* \"#utility.yul\":7:82   */\n      swap1\n      jump\t// out\n        /* \"#utility.yul\":88:205   */\n    tag_140:\n        /* \"#utility.yul\":197:198   */\n      0x00\n        /* \"#utility.yul\":194:195   */\n      0x00\n        /* \"#utility.yul\":187:199   */\n      revert\n        /* \"#utility.yul\":211:328   */\n    tag_141:\n        /* \"#utility.yul\":320:321   */\n      0x00\n        /* \"#utility.yul\":317:318   */\n      0x00\n        /* \"#utility.yul\":310:322   */\n      revert\n        /* \"#utility.yul\":334:411   */\n    tag_142:\n        /* \"#utility.yul\":371:378   */\n      0x00\n        /* \"#utility.yul\":400:405   */\n      dup2\n        /* \"#utility.yul\":389:405   */\n      swap1\n      pop\n        /* \"#utility.yul\":334:411   */\n      swap2\n      swap1\n      pop\n      jump\t// out\n        /* \"#utility.yul\":417:539   */\n    tag_143:\n        /* \"#utility.yul\":490:514   */\n      tag_211\n        /* \"#utility.yul\":508:513   */\n      dup2\n        /* \"#utility.yul\":490:514   */\n      tag_142\n      jump\t// in\n    tag_211:\n        /* \"#utility.yul\":483:488   */\n      dup2\n        /* \"#utility.yul\":480:515   */\n      eq\n        /* \"#utility.yul\":470:533   */\n      tag_212\n      jumpi\n        /* \"#utility.yul\":529:530   */\n      0x00\n        /* \"#utility.yul\":526:527   */\n      0x00\n        /* \"#utility.yul\":519:531   */\n      revert\n        /* \"#utility.yul\":470:533   */\n    tag_212:\n        /* \"#utility.yul\":417:539   */\n      pop\n      jump\t// out\n        /* \"#utility.yul\":545:684   */\n    tag_144:\n        /* \"#utility.yul\":591:596   */\n      0x00\n        /* \"#utility.yul\":629:635   */\n      dup2\n        /* \"#utility.yul\":616:636   */\n      calldataload\n        /* \"#utility.yul\":607:636   */\n      swap1\n      pop\n        /* \"#utility.yul\":645:678   */\n      tag_214\n        /* \"#utility.yul\":672:677   */\n      dup2\n        /* \"#utility.yul\":645:678   */\n      tag_143\n      jump\t// in\n    tag_214:\n        /* \"#utility.yul\":545:684   */\n      swap3\n      swap2\n      pop\n      pop\n      jump\t// out\n        /* \"#utility.yul\":690:1019   */\n    tag_18:\n        /* \"#utility.yul\":749:755   */\n      0x00\n        /* \"#utility.yul\":798:800   */\n      0x20\n        /* \"#utility.yul\":786:795   */\n      dup3\n        /* \"#utility.yul\":777:784   */\n      dup5\n        /* \"#utility.yul\":773:796   */\n      sub\n        /* \"#utility.yul\":769:801   */\n      slt\n        /* \"#utility.yul\":766:885   */\n      iszero\n      tag_216\n      jumpi\n        /* \"#utility.yul\":804:883   */\n      tag_217\n      tag_140\n      jump\t// in\n    tag_217:\n        /* \"#utility.yul\":766:885   */\n    tag_216:\n        /* \"#utility.yul\":924:925   */\n      0x00\n        /* \"#utility.yul\":949:1002   */\n      tag_218\n        /* \"#utility.yul\":994:1001   */\n      dup5\n        /* \"#utility.yul\":985:991   */\n      dup3\n        /* \"#utility.yul\":974:983   */\n      dup6\n        /* \"#utility.yul\":970:992   */\n      add\n        /* \"#utility.yul\":949:1002   */\n      tag_144\n      jump\t// in\n    tag_218:\n        /* \"#utility.yul\":939:1002   */\n      swap2\n      pop\n        /* \"#utility.yul\":895:1012   */\n      pop\n        /* \"#utility.yul\":690:1019   */\n      swap3\n      swap2\n      pop\n      pop\n      jump\t// out\n        /* \"#utility.yul\":1025:1151   */\n    tag_145:\n        /* \"#utility.yul\":1062:1069   */\n      0x00\n        /* \"#utility.yul\":1102:1144   */\n      0xffffffffffffffffffffffffffffffffffffffff\n        /* \"#utility.yul\":1095:1100   */\n      dup3\n        /* \"#utility.yul\":1091:1145   */\n      and\n        /* \"#utility.yul\":1080:1145   */\n      swap1\n      pop\n        /* \"#utility.yul\":1025:1151   */\n      swap2\n      swap1\n      pop\n      jump\t// out\n        /* \"#utility.yul\":1157:1253   */\n    tag_146:\n        /* \"#utility.yul\":1194:1201   */\n      0x00\n        /* \"#utility.yul\":1223:1247   */\n      tag_221\n        /* \"#utility.yul\":1241:1246   */\n      dup3\n        /* \"#utility.yul\":1223:1247   */\n      tag_145\n      jump\t// in\n    tag_221:\n        /* \"#utility.yul\":1212:1247   */\n      swap1\n      pop\n        /* \"#utility.yul\":1157:1253   */\n      swap2\n      swap1\n      pop\n      jump\t// out\n        /* \"#utility.yul\":1259:1381   */\n    tag_147:\n        /* \"#utility.yul\":1332:1356   */\n      tag_223\n        /* \"#utility.yul\":1350:1355   */\n      dup2\n        /* \"#utility.yul\":1332:1356   */\n      tag_146\n      jump\t// in\n    tag_223:\n        /* \"#utility.yul\":1325:1330   */\n      dup2\n        /* \"#utility.yul\":1322:1357   */\n      eq\n        /* \"#utility.yul\":1312:1375   */\n      tag_224\n      jumpi\n        /* \"#utility.yul\":1371:1372   */\n      0x00\n        /* \"#utility.yul\":1368:1369   */\n      0x00\n        /* \"#utility.yul\":1361:1373   */\n      revert\n        /* \"#utility.yul\":1312:1375   */\n    tag_224:\n        /* \"#utility.yul\":1259:1381   */\n      pop\n      jump\t// out\n        /* \"#utility.yul\":1387:1526   */\n    tag_148:\n        /* \"#utility.yul\":1433:1438   */\n      0x00\n        /* \"#utility.yul\":1471:1477   */\n      dup2\n        /* \"#utility.yul\":1458:1478   */\n      calldataload\n        /* \"#utility.yul\":1449:1478   */\n      swap1\n      pop\n        /* \"#utility.yul\":1487:1520   */\n      tag_226\n        /* \"#utility.yul\":1514:1519   */\n      dup2\n        /* \"#utility.yul\":1487:1520   */\n      tag_147\n      jump\t// in\n    tag_226:\n        /* \"#utility.yul\":1387:1526   */\n      swap3\n      swap2\n      pop\n      pop\n      jump\t// out\n        /* \"#utility.yul\":1532:1861   */\n    tag_23:\n        /* \"#utility.yul\":1591:1597   */\n      0x00\n        /* \"#utility.yul\":1640:1642   */\n      0x20\n        /* \"#utility.yul\":1628:1637   */\n      dup3\n        /* \"#utility.yul\":1619:1626   */\n      dup5\n        /* \"#utility.yul\":1615:1638   */\n      sub\n        /* \"#utility.yul\":1611:1643   */\n      slt\n        /* \"#utility.yul\":1608:1727   */\n      iszero\n      tag_228\n      jumpi\n        /* \"#utility.yul\":1646:1725   */\n      tag_229\n      tag_140\n      jump\t// in\n    tag_229:\n        /* \"#utility.yul\":1608:1727   */\n    tag_228:\n        /* \"#utility.yul\":1766:1767   */\n      0x00\n        /* \"#utility.yul\":1791:1844   */\n      tag_230\n        /* \"#utility.yul\":1836:1843   */\n      dup5\n        /* \"#utility.yul\":1827:1833   */\n      dup3\n        /* \"#utility.yul\":1816:1825   */\n      dup6\n        /* \"#utility.yul\":1812:1834   */\n      add\n        /* \"#utility.yul\":1791:1844   */\n      tag_148\n      jump\t// in\n    tag_230:\n        /* \"#utility.yul\":1781:1844   */\n      swap2\n      pop\n        /* \"#utility.yul\":1737:1854   */\n      pop\n        /* \"#utility.yul\":1532:1861   */\n      swap3\n      swap2\n      pop\n      pop\n      jump\t// out\n        /* \"#utility.yul\":1867:1957   */\n    tag_149:\n        /* \"#utility.yul\":1901:1908   */\n      0x00\n        /* \"#utility.yul\":1944:1949   */\n      dup2\n        /* \"#utility.yul\":1937:1950   */\n      iszero\n        /* \"#utility.yul\":1930:1951   */\n      iszero\n        /* \"#utility.yul\":1919:1951   */\n      swap1\n      pop\n        /* \"#utility.yul\":1867:1957   */\n      swap2\n      swap1\n      pop\n      jump\t// out\n        /* \"#utility.yul\":1963:2072   */\n    tag_150:\n        /* \"#utility.yul\":2044:2065   */\n      tag_233\n        /* \"#utility.yul\":2059:2064   */\n      dup2\n        /* \"#utility.yul\":2044:2065   */\n      tag_149\n      jump\t// in\n    tag_233:\n        /* \"#utility.yul\":2039:2042   */\n      dup3\n        /* \"#utility.yul\":2032:2066   */\n      mstore\n        /* \"#utility.yul\":1963:2072   */\n      pop\n      pop\n      jump\t// out\n        /* \"#utility.yul\":2078:2288   */\n    tag_26:\n        /* \"#utility.yul\":2165:2169   */\n      0x00\n        /* \"#utility.yul\":2203:2205   */\n      0x20\n        /* \"#utility.yul\":2192:2201   */\n      dup3\n        /* \"#utility.yul\":2188:2206   */\n      add\n        /* \"#utility.yul\":2180:2206   */\n      swap1\n      pop\n        /* \"#utility.yul\":2216:2281   */\n      tag_235\n        /* \"#utility.yul\":2278:2279   */\n      0x00\n        /* \"#utility.yul\":2267:2276   */\n      dup4\n        /* \"#utility.yul\":2263:2280   */\n      add\n        /* \"#utility.yul\":2254:2260   */\n      dup5\n        /* \"#utility.yul\":2216:2281   */\n      tag_150\n      jump\t// in\n    tag_235:\n        /* \"#utility.yul\":2078:2288   */\n      swap3\n      swap2\n      pop\n      pop\n      jump\t// out\n        /* \"#utility.yul\":2294:2412   */\n    tag_151:\n        /* \"#utility.yul\":2381:2405   */\n      tag_237\n        /* \"#utility.yul\":2399:2404   */\n      dup2\n        /* \"#utility.yul\":2381:2405   */\n      tag_142\n      jump\t// in\n    tag_237:\n        /* \"#utility.yul\":2376:2379   */\n      dup3\n        /* \"#utility.yul\":2369:2406   */\n      mstore\n        /* \"#utility.yul\":2294:2412   */\n      pop\n      pop\n      jump\t// out\n        /* \"#utility.yul\":2418:2640   */\n    tag_31:\n        /* \"#utility.yul\":2511:2515   */\n      0x00\n        /* \"#utility.yul\":2549:2551   */\n      0x20\n        /* \"#utility.yul\":2538:2547   */\n      dup3\n        /* \"#utility.yul\":2534:2552   */\n      add\n        /* \"#utility.yul\":2526:2552   */\n      swap1\n      pop\n        /* \"#utility.yul\":2562:2633   */\n      tag_239\n        /* \"#utility.yul\":2630:2631   */\n      0x00\n        /* \"#utility.yul\":2619:2628   */\n      dup4\n        /* \"#utility.yul\":2615:2632   */\n      add\n        /* \"#utility.yul\":2606:2612   */\n      dup5\n        /* \"#utility.yul\":2562:2633   */\n      tag_151\n      jump\t// in\n    tag_239:\n        /* \"#utility.yul\":2418:2640   */\n      swap3\n      swap2\n      pop\n      pop\n      jump\t// out\n        /* \"#utility.yul\":2646:2764   */\n    tag_152:\n        /* \"#utility.yul\":2733:2757   */\n      tag_241\n        /* \"#utility.yul\":2751:2756   */\n      dup2\n        /* \"#utility.yul\":2733:2757   */\n      tag_146\n      jump\t// in\n    tag_241:\n        /* \"#utility.yul\":2728:2731   */\n      dup3\n        /* \"#utility.yul\":2721:2758   */\n      mstore\n        /* \"#utility.yul\":2646:2764   */\n      pop\n      pop\n      jump\t// out\n        /* \"#utility.yul\":2770:2992   */\n    tag_36:\n        /* \"#utility.yul\":2863:2867   */\n      0x00\n        /* \"#utility.yul\":2901:2903   */\n      0x20\n        /* \"#utility.yul\":2890:2899   */\n      dup3\n        /* \"#utility.yul\":2886:2904   */\n      add\n        /* \"#utility.yul\":2878:2904   */\n      swap1\n      pop\n        /* \"#utility.yul\":2914:2985   */\n      tag_243\n        /* \"#utility.yul\":2982:2983   */\n      0x00\n        /* \"#utility.yul\":2971:2980   */\n      dup4\n        /* \"#utility.yul\":2967:2984   */\n      add\n        /* \"#utility.yul\":2958:2964   */\n      dup5\n        /* \"#utility.yul\":2914:2985   */\n      tag_152\n      jump\t// in\n    tag_243:\n        /* \"#utility.yul\":2770:2992   */\n      swap3\n      swap2\n      pop\n      pop\n      jump\t// out\n        /* \"#utility.yul\":2998:3539   */\n    tag_42:\n        /* \"#utility.yul\":3169:3173   */\n      0x00\n        /* \"#utility.yul\":3207:3210   */\n      0x80\n        /* \"#utility.yul\":3196:3205   */\n      dup3\n        /* \"#utility.yul\":3192:3211   */\n      add\n        /* \"#utility.yul\":3184:3211   */\n      swap1\n      pop\n        /* \"#utility.yul\":3221:3292   */\n      tag_245\n        /* \"#utility.yul\":3289:3290   */\n      0x00\n        /* \"#utility.yul\":3278:3287   */\n      dup4\n        /* \"#utility.yul\":3274:3291   */\n      add\n        /* \"#utility.yul\":3265:3271   */\n      dup8\n        /* \"#utility.yul\":3221:3292   */\n      tag_151\n      jump\t// in\n    tag_245:\n        /* \"#utility.yul\":3302:3374   */\n      tag_246\n        /* \"#utility.yul\":3370:3372   */\n      0x20\n        /* \"#utility.yul\":3359:3368   */\n      dup4\n        /* \"#utility.yul\":3355:3373   */\n      add\n        /* \"#utility.yul\":3346:3352   */\n      dup7\n        /* \"#utility.yul\":3302:3374   */\n      tag_152\n      jump\t// in\n    tag_246:\n        /* \"#utility.yul\":3384:3450   */\n      tag_247\n        /* \"#utility.yul\":3446:3448   */\n      0x40\n        /* \"#utility.yul\":3435:3444   */\n      dup4\n        /* \"#utility.yul\":3431:3449   */\n      add\n        /* \"#utility.yul\":3422:3428   */\n      dup6\n        /* \"#utility.yul\":3384:3450   */\n      tag_150\n      jump\t// in\n    tag_247:\n        /* \"#utility.yul\":3460:3532   */\n      tag_248\n        /* \"#utility.yul\":3528:3530   */\n      0x60\n        /* \"#utility.yul\":3517:3526   */\n      dup4\n        /* \"#utility.yul\":3513:3531   */\n      add\n        /* \"#utility.yul\":3504:3510   */\n      dup5\n        /* \"#utility.yul\":3460:3532   */\n      tag_151\n      jump\t// in\n    tag_248:\n        /* \"#utility.yul\":2998:3539   */\n      swap6\n      swap5\n      pop\n      pop\n      pop\n      pop\n      pop\n      jump\t// out\n        /* \"#utility.yul\":3545:3644   */\n    tag_153:\n        /* \"#utility.yul\":3597:3603   */\n      0x00\n        /* \"#utility.yul\":3631:3636   */\n      dup2\n        /* \"#utility.yul\":3625:3637   */\n      mload\n        /* \"#utility.yul\":3615:3637   */\n      swap1\n      pop\n        /* \"#utility.yul\":3545:3644   */\n      swap2\n      swap1\n      pop\n      jump\t// out\n        /* \"#utility.yul\":3650:3819   */\n    tag_154:\n        /* \"#utility.yul\":3734:3745   */\n      0x00\n        /* \"#utility.yul\":3768:3774   */\n      dup3\n        /* \"#utility.yul\":3763:3766   */\n      dup3\n        /* \"#utility.yul\":3756:3775   */\n      mstore\n        /* \"#utility.yul\":3808:3812   */\n      0x20\n        /* \"#utility.yul\":3803:3806   */\n      dup3\n        /* \"#utility.yul\":3799:3813   */\n      add\n        /* \"#utility.yul\":3784:3813   */\n      swap1\n      pop\n        /* \"#utility.yul\":3650:3819   */\n      swap3\n      swap2\n      pop\n      pop\n      jump\t// out\n        /* \"#utility.yul\":3825:3964   */\n    tag_155:\n        /* \"#utility.yul\":3914:3920   */\n      dup3\n        /* \"#utility.yul\":3909:3912   */\n      dup2\n        /* \"#utility.yul\":3904:3907   */\n      dup4\n        /* \"#utility.yul\":3898:3921   */\n      mcopy\n        /* \"#utility.yul\":3955:3956   */\n      0x00\n        /* \"#utility.yul\":3946:3952   */\n      dup4\n        /* \"#utility.yul\":3941:3944   */\n      dup4\n        /* \"#utility.yul\":3937:3953   */\n      add\n        /* \"#utility.yul\":3930:3957   */\n      mstore\n        /* \"#utility.yul\":3825:3964   */\n      pop\n      pop\n      pop\n      jump\t// out\n        /* \"#utility.yul\":3970:4072   */\n    tag_156:\n        /* \"#utility.yul\":4011:4017   */\n      0x00\n        /* \"#utility.yul\":4062:4064   */\n      0x1f\n        /* \"#utility.yul\":4058:4065   */\n      not\n        /* \"#utility.yul\":4053:4055   */\n      0x1f\n        /* \"#utility.yul\":4046:4051   */\n      dup4\n        /* \"#utility.yul\":4042:4056   */\n      add\n        /* \"#utility.yul\":4038:4066   */\n      and\n        /* \"#utility.yul\":4028:4066   */\n      swap1\n      pop\n        /* \"#utility.yul\":3970:4072   */\n      swap2\n      swap1\n      pop\n      jump\t// out\n        /* \"#utility.yul\":4078:4455   */\n    tag_157:\n        /* \"#utility.yul\":4166:4169   */\n      0x00\n        /* \"#utility.yul\":4194:4233   */\n      tag_254\n        /* \"#utility.yul\":4227:4232   */\n      dup3\n        /* \"#utility.yul\":4194:4233   */\n      tag_153\n      jump\t// in\n    tag_254:\n        /* \"#utility.yul\":4249:4320   */\n      tag_255\n        /* \"#utility.yul\":4313:4319   */\n      dup2\n        /* \"#utility.yul\":4308:4311   */\n      dup6\n        /* \"#utility.yul\":4249:4320   */\n      tag_154\n      jump\t// in\n    tag_255:\n        /* \"#utility.yul\":4242:4320   */\n      swap4\n      pop\n        /* \"#utility.yul\":4329:4394   */\n      tag_256\n        /* \"#utility.yul\":4387:4393   */\n      dup2\n        /* \"#utility.yul\":4382:4385   */\n      dup6\n        /* \"#utility.yul\":4375:4379   */\n      0x20\n        /* \"#utility.yul\":4368:4373   */\n      dup7\n        /* \"#utility.yul\":4364:4380   */\n      add\n        /* \"#utility.yul\":4329:4394   */\n      tag_155\n      jump\t// in\n    tag_256:\n        /* \"#utility.yul\":4419:4448   */\n      tag_257\n        /* \"#utility.yul\":4441:4447   */\n      dup2\n        /* \"#utility.yul\":4419:4448   */\n      tag_156\n      jump\t// in\n    tag_257:\n        /* \"#utility.yul\":4414:4417   */\n      dup5\n        /* \"#utility.yul\":4410:4449   */\n      add\n        /* \"#utility.yul\":4403:4449   */\n      swap2\n      pop\n        /* \"#utility.yul\":4170:4455   */\n      pop\n        /* \"#utility.yul\":4078:4455   */\n      swap3\n      swap2\n      pop\n      pop\n      jump\t// out\n        /* \"#utility.yul\":4461:4565   */\n    tag_158:\n        /* \"#utility.yul\":4506:4513   */\n      0x00\n        /* \"#utility.yul\":4535:4559   */\n      tag_259\n        /* \"#utility.yul\":4553:4558   */\n      dup3\n        /* \"#utility.yul\":4535:4559   */\n      tag_145\n      jump\t// in\n    tag_259:\n        /* \"#utility.yul\":4524:4559   */\n      swap1\n      pop\n        /* \"#utility.yul\":4461:4565   */\n      swap2\n      swap1\n      pop\n      jump\t// out\n        /* \"#utility.yul\":4571:4713   */\n    tag_159:\n        /* \"#utility.yul\":4674:4706   */\n      tag_261\n        /* \"#utility.yul\":4700:4705   */\n      dup2\n        /* \"#utility.yul\":4674:4706   */\n      tag_158\n      jump\t// in\n    tag_261:\n        /* \"#utility.yul\":4669:4672   */\n      dup3\n        /* \"#utility.yul\":4662:4707   */\n      mstore\n        /* \"#utility.yul\":4571:4713   */\n      pop\n      pop\n      jump\t// out\n        /* \"#utility.yul\":4719:5494   */\n    tag_48:\n        /* \"#utility.yul\":4954:4958   */\n      0x00\n        /* \"#utility.yul\":4992:4995   */\n      0xa0\n        /* \"#utility.yul\":4981:4990   */\n      dup3\n        /* \"#utility.yul\":4977:4996   */\n      add\n        /* \"#utility.yul\":4969:4996   */\n      swap1\n      pop\n        /* \"#utility.yul\":5042:5051   */\n      dup2\n        /* \"#utility.yul\":5036:5040   */\n      dup2\n        /* \"#utility.yul\":5032:5052   */\n      sub\n        /* \"#utility.yul\":5028:5029   */\n      0x00\n        /* \"#utility.yul\":5017:5026   */\n      dup4\n        /* \"#utility.yul\":5013:5030   */\n      add\n        /* \"#utility.yul\":5006:5053   */\n      mstore\n        /* \"#utility.yul\":5070:5148   */\n      tag_263\n        /* \"#utility.yul\":5143:5147   */\n      dup2\n        /* \"#utility.yul\":5134:5140   */\n      dup9\n        /* \"#utility.yul\":5070:5148   */\n      tag_157\n      jump\t// in\n    tag_263:\n        /* \"#utility.yul\":5062:5148   */\n      swap1\n      pop\n        /* \"#utility.yul\":5158:5230   */\n      tag_264\n        /* \"#utility.yul\":5226:5228   */\n      0x20\n        /* \"#utility.yul\":5215:5224   */\n      dup4\n        /* \"#utility.yul\":5211:5229   */\n      add\n        /* \"#utility.yul\":5202:5208   */\n      dup8\n        /* \"#utility.yul\":5158:5230   */\n      tag_151\n      jump\t// in\n    tag_264:\n        /* \"#utility.yul\":5240:5328   */\n      tag_265\n        /* \"#utility.yul\":5324:5326   */\n      0x40\n        /* \"#utility.yul\":5313:5322   */\n      dup4\n        /* \"#utility.yul\":5309:5327   */\n      add\n        /* \"#utility.yul\":5300:5306   */\n      dup7\n        /* \"#utility.yul\":5240:5328   */\n      tag_159\n      jump\t// in\n    tag_265:\n        /* \"#utility.yul\":5338:5404   */\n      tag_266\n        /* \"#utility.yul\":5400:5402   */\n      0x60\n        /* \"#utility.yul\":5389:5398   */\n      dup4\n        /* \"#utility.yul\":5385:5403   */\n      add\n        /* \"#utility.yul\":5376:5382   */\n      dup6\n        /* \"#utility.yul\":5338:5404   */\n      tag_150\n      jump\t// in\n    tag_266:\n        /* \"#utility.yul\":5414:5487   */\n      tag_267\n        /* \"#utility.yul\":5482:5485   */\n      0x80\n        /* \"#utility.yul\":5471:5480   */\n      dup4\n        /* \"#utility.yul\":5467:5486   */\n      add\n        /* \"#utility.yul\":5458:5464   */\n      dup5\n        /* \"#utility.yul\":5414:5487   */\n      tag_151\n      jump\t// in\n    tag_267:\n        /* \"#utility.yul\":4719:5494   */\n      swap7\n      swap6\n      pop\n      pop\n      pop\n      pop\n      pop\n      pop\n      jump\t// out\n        /* \"#utility.yul\":5500:5617   */\n    tag_160:\n        /* \"#utility.yul\":5609:5610   */\n      0x00\n        /* \"#utility.yul\":5606:5607   */\n      0x00\n        /* \"#utility.yul\":5599:5611   */\n      revert\n        /* \"#utility.yul\":5623:5740   */\n    tag_161:\n        /* \"#utility.yul\":5732:5733   */\n      0x00\n        /* \"#utility.yul\":5729:5730   */\n      0x00\n        /* \"#utility.yul\":5722:5734   */\n      revert\n        /* \"#utility.yul\":5746:5926   */\n    tag_162:\n        /* \"#utility.yul\":5794:5871   */\n      0x4e487b7100000000000000000000000000000000000000000000000000000000\n        /* \"#utility.yul\":5791:5792   */\n      0x00\n        /* \"#utility.yul\":5784:5872   */\n      mstore\n        /* \"#utility.yul\":5891:5895   */\n      0x41\n        /* \"#utility.yul\":5888:5889   */\n      0x04\n        /* \"#utility.yul\":5881:5896   */\n      mstore\n        /* \"#utility.yul\":5915:5919   */\n      0x24\n        /* \"#utility.yul\":5912:5913   */\n      0x00\n        /* \"#utility.yul\":5905:5920   */\n      revert\n        /* \"#utility.yul\":5932:6213   */\n    tag_163:\n        /* \"#utility.yul\":6015:6042   */\n      tag_272\n        /* \"#utility.yul\":6037:6041   */\n      dup3\n        /* \"#utility.yul\":6015:6042   */\n      tag_156\n      jump\t// in\n    tag_272:\n        /* \"#utility.yul\":6007:6013   */\n      dup2\n        /* \"#utility.yul\":6003:6043   */\n      add\n        /* \"#utility.yul\":6145:6151   */\n      dup2\n        /* \"#utility.yul\":6133:6143   */\n      dup2\n        /* \"#utility.yul\":6130:6152   */\n      lt\n        /* \"#utility.yul\":6109:6127   */\n      0xffffffffffffffff\n        /* \"#utility.yul\":6097:6107   */\n      dup3\n        /* \"#utility.yul\":6094:6128   */\n      gt\n        /* \"#utility.yul\":6091:6153   */\n      or\n        /* \"#utility.yul\":6088:6176   */\n      iszero\n      tag_273\n      jumpi\n        /* \"#utility.yul\":6156:6174   */\n      tag_274\n      tag_162\n      jump\t// in\n    tag_274:\n        /* \"#utility.yul\":6088:6176   */\n    tag_273:\n        /* \"#utility.yul\":6196:6206   */\n      dup1\n        /* \"#utility.yul\":6192:6194   */\n      0x40\n        /* \"#utility.yul\":6185:6207   */\n      mstore\n        /* \"#utility.yul\":5975:6213   */\n      pop\n        /* \"#utility.yul\":5932:6213   */\n      pop\n      pop\n      jump\t// out\n        /* \"#utility.yul\":6219:6348   */\n    tag_164:\n        /* \"#utility.yul\":6253:6259   */\n      0x00\n        /* \"#utility.yul\":6280:6300   */\n      tag_276\n      tag_139\n      jump\t// in\n    tag_276:\n        /* \"#utility.yul\":6270:6300   */\n      swap1\n      pop\n        /* \"#utility.yul\":6309:6342   */\n      tag_277\n        /* \"#utility.yul\":6337:6341   */\n      dup3\n        /* \"#utility.yul\":6329:6335   */\n      dup3\n        /* \"#utility.yul\":6309:6342   */\n      tag_163\n      jump\t// in\n    tag_277:\n        /* \"#utility.yul\":6219:6348   */\n      swap2\n      swap1\n      pop\n      jump\t// out\n        /* \"#utility.yul\":6354:6662   */\n    tag_165:\n        /* \"#utility.yul\":6416:6420   */\n      0x00\n        /* \"#utility.yul\":6506:6524   */\n      0xffffffffffffffff\n        /* \"#utility.yul\":6498:6504   */\n      dup3\n        /* \"#utility.yul\":6495:6525   */\n      gt\n        /* \"#utility.yul\":6492:6548   */\n      iszero\n      tag_279\n      jumpi\n        /* \"#utility.yul\":6528:6546   */\n      tag_280\n      tag_162\n      jump\t// in\n    tag_280:\n        /* \"#utility.yul\":6492:6548   */\n    tag_279:\n        /* \"#utility.yul\":6566:6595   */\n      tag_281\n        /* \"#utility.yul\":6588:6594   */\n      dup3\n        /* \"#utility.yul\":6566:6595   */\n      tag_156\n      jump\t// in\n    tag_281:\n        /* \"#utility.yul\":6558:6595   */\n      swap1\n      pop\n        /* \"#utility.yul\":6650:6654   */\n      0x20\n        /* \"#utility.yul\":6644:6648   */\n      dup2\n        /* \"#utility.yul\":6640:6655   */\n      add\n        /* \"#utility.yul\":6632:6655   */\n      swap1\n      pop\n        /* \"#utility.yul\":6354:6662   */\n      swap2\n      swap1\n      pop\n      jump\t// out\n        /* \"#utility.yul\":6668:6816   */\n    tag_166:\n        /* \"#utility.yul\":6766:6772   */\n      dup3\n        /* \"#utility.yul\":6761:6764   */\n      dup2\n        /* \"#utility.yul\":6756:6759   */\n      dup4\n        /* \"#utility.yul\":6743:6773   */\n      calldatacopy\n        /* \"#utility.yul\":6807:6808   */\n      0x00\n        /* \"#utility.yul\":6798:6804   */\n      dup4\n        /* \"#utility.yul\":6793:6796   */\n      dup4\n        /* \"#utility.yul\":6789:6805   */\n      add\n        /* \"#utility.yul\":6782:6809   */\n      mstore\n        /* \"#utility.yul\":6668:6816   */\n      pop\n      pop\n      pop\n      jump\t// out\n        /* \"#utility.yul\":6822:7247   */\n    tag_167:\n        /* \"#utility.yul\":6900:6905   */\n      0x00\n        /* \"#utility.yul\":6925:6991   */\n      tag_284\n        /* \"#utility.yul\":6941:6990   */\n      tag_285\n        /* \"#utility.yul\":6983:6989   */\n      dup5\n        /* \"#utility.yul\":6941:6990   */\n      tag_165\n      jump\t// in\n    tag_285:\n        /* \"#utility.yul\":6925:6991   */\n      tag_164\n      jump\t// in\n    tag_284:\n        /* \"#utility.yul\":6916:6991   */\n      swap1\n      pop\n        /* \"#utility.yul\":7014:7020   */\n      dup3\n        /* \"#utility.yul\":7007:7012   */\n      dup2\n        /* \"#utility.yul\":7000:7021   */\n      mstore\n        /* \"#utility.yul\":7052:7056   */\n      0x20\n        /* \"#utility.yul\":7045:7050   */\n      dup2\n        /* \"#utility.yul\":7041:7057   */\n      add\n        /* \"#utility.yul\":7090:7093   */\n      dup5\n        /* \"#utility.yul\":7081:7087   */\n      dup5\n        /* \"#utility.yul\":7076:7079   */\n      dup5\n        /* \"#utility.yul\":7072:7088   */\n      add\n        /* \"#utility.yul\":7069:7094   */\n      gt\n        /* \"#utility.yul\":7066:7178   */\n      iszero\n      tag_286\n      jumpi\n        /* \"#utility.yul\":7097:7176   */\n      tag_287\n      tag_161\n      jump\t// in\n    tag_287:\n        /* \"#utility.yul\":7066:7178   */\n    tag_286:\n        /* \"#utility.yul\":7187:7241   */\n      tag_288\n        /* \"#utility.yul\":7234:7240   */\n      dup5\n        /* \"#utility.yul\":7229:7232   */\n      dup3\n        /* \"#utility.yul\":7224:7227   */\n      dup6\n        /* \"#utility.yul\":7187:7241   */\n      tag_166\n      jump\t// in\n    tag_288:\n        /* \"#utility.yul\":6906:7247   */\n      pop\n        /* \"#utility.yul\":6822:7247   */\n      swap4\n      swap3\n      pop\n      pop\n      pop\n      jump\t// out\n        /* \"#utility.yul\":7267:7607   */\n    tag_168:\n        /* \"#utility.yul\":7323:7328   */\n      0x00\n        /* \"#utility.yul\":7372:7375   */\n      dup3\n        /* \"#utility.yul\":7365:7369   */\n      0x1f\n        /* \"#utility.yul\":7357:7363   */\n      dup4\n        /* \"#utility.yul\":7353:7370   */\n      add\n        /* \"#utility.yul\":7349:7376   */\n      slt\n        /* \"#utility.yul\":7339:7461   */\n      tag_290\n      jumpi\n        /* \"#utility.yul\":7380:7459   */\n      tag_291\n      tag_160\n      jump\t// in\n    tag_291:\n        /* \"#utility.yul\":7339:7461   */\n    tag_290:\n        /* \"#utility.yul\":7497:7503   */\n      dup2\n        /* \"#utility.yul\":7484:7504   */\n      calldataload\n        /* \"#utility.yul\":7522:7601   */\n      tag_292\n        /* \"#utility.yul\":7597:7600   */\n      dup5\n        /* \"#utility.yul\":7589:7595   */\n      dup3\n        /* \"#utility.yul\":7582:7586   */\n      0x20\n        /* \"#utility.yul\":7574:7580   */\n      dup7\n        /* \"#utility.yul\":7570:7587   */\n      add\n        /* \"#utility.yul\":7522:7601   */\n      tag_167\n      jump\t// in\n    tag_292:\n        /* \"#utility.yul\":7513:7601   */\n      swap2\n      pop\n        /* \"#utility.yul\":7329:7607   */\n      pop\n        /* \"#utility.yul\":7267:7607   */\n      swap3\n      swap2\n      pop\n      pop\n      jump\t// out\n        /* \"#utility.yul\":7613:7751   */\n    tag_169:\n        /* \"#utility.yul\":7694:7726   */\n      tag_294\n        /* \"#utility.yul\":7720:7725   */\n      dup2\n        /* \"#utility.yul\":7694:7726   */\n      tag_158\n      jump\t// in\n    tag_294:\n        /* \"#utility.yul\":7687:7692   */\n      dup2\n        /* \"#utility.yul\":7684:7727   */\n      eq\n        /* \"#utility.yul\":7674:7745   */\n      tag_295\n      jumpi\n        /* \"#utility.yul\":7741:7742   */\n      0x00\n        /* \"#utility.yul\":7738:7739   */\n      0x00\n        /* \"#utility.yul\":7731:7743   */\n      revert\n        /* \"#utility.yul\":7674:7745   */\n    tag_295:\n        /* \"#utility.yul\":7613:7751   */\n      pop\n      jump\t// out\n        /* \"#utility.yul\":7757:7912   */\n    tag_170:\n        /* \"#utility.yul\":7811:7816   */\n      0x00\n        /* \"#utility.yul\":7849:7855   */\n      dup2\n        /* \"#utility.yul\":7836:7856   */\n      calldataload\n        /* \"#utility.yul\":7827:7856   */\n      swap1\n      pop\n        /* \"#utility.yul\":7865:7906   */\n      tag_297\n        /* \"#utility.yul\":7900:7905   */\n      dup2\n        /* \"#utility.yul\":7865:7906   */\n      tag_169\n      jump\t// in\n    tag_297:\n        /* \"#utility.yul\":7757:7912   */\n      swap3\n      swap2\n      pop\n      pop\n      jump\t// out\n        /* \"#utility.yul\":7918:8733   */\n    tag_56:\n        /* \"#utility.yul\":8013:8019   */\n      0x00\n        /* \"#utility.yul\":8021:8027   */\n      0x00\n        /* \"#utility.yul\":8029:8035   */\n      0x00\n        /* \"#utility.yul\":8078:8080   */\n      0x60\n        /* \"#utility.yul\":8066:8075   */\n      dup5\n        /* \"#utility.yul\":8057:8064   */\n      dup7\n        /* \"#utility.yul\":8053:8076   */\n      sub\n        /* \"#utility.yul\":8049:8081   */\n      slt\n        /* \"#utility.yul\":8046:8165   */\n      iszero\n      tag_299\n      jumpi\n        /* \"#utility.yul\":8084:8163   */\n      tag_300\n      tag_140\n      jump\t// in\n    tag_300:\n        /* \"#utility.yul\":8046:8165   */\n    tag_299:\n        /* \"#utility.yul\":8232:8233   */\n      0x00\n        /* \"#utility.yul\":8221:8230   */\n      dup5\n        /* \"#utility.yul\":8217:8234   */\n      add\n        /* \"#utility.yul\":8204:8235   */\n      calldataload\n        /* \"#utility.yul\":8262:8280   */\n      0xffffffffffffffff\n        /* \"#utility.yul\":8254:8260   */\n      dup2\n        /* \"#utility.yul\":8251:8281   */\n      gt\n        /* \"#utility.yul\":8248:8365   */\n      iszero\n      tag_301\n      jumpi\n        /* \"#utility.yul\":8284:8363   */\n      tag_302\n      tag_141\n      jump\t// in\n    tag_302:\n        /* \"#utility.yul\":8248:8365   */\n    tag_301:\n        /* \"#utility.yul\":8389:8452   */\n      tag_303\n        /* \"#utility.yul\":8444:8451   */\n      dup7\n        /* \"#utility.yul\":8435:8441   */\n      dup3\n        /* \"#utility.yul\":8424:8433   */\n      dup8\n        /* \"#utility.yul\":8420:8442   */\n      add\n        /* \"#utility.yul\":8389:8452   */\n      tag_168\n      jump\t// in\n    tag_303:\n        /* \"#utility.yul\":8379:8452   */\n      swap4\n      pop\n        /* \"#utility.yul\":8175:8462   */\n      pop\n        /* \"#utility.yul\":8501:8503   */\n      0x20\n        /* \"#utility.yul\":8527:8580   */\n      tag_304\n        /* \"#utility.yul\":8572:8579   */\n      dup7\n        /* \"#utility.yul\":8563:8569   */\n      dup3\n        /* \"#utility.yul\":8552:8561   */\n      dup8\n        /* \"#utility.yul\":8548:8570   */\n      add\n        /* \"#utility.yul\":8527:8580   */\n      tag_144\n      jump\t// in\n    tag_304:\n        /* \"#utility.yul\":8517:8580   */\n      swap3\n      pop\n        /* \"#utility.yul\":8472:8590   */\n      pop\n        /* \"#utility.yul\":8629:8631   */\n      0x40\n        /* \"#utility.yul\":8655:8716   */\n      tag_305\n        /* \"#utility.yul\":8708:8715   */\n      dup7\n        /* \"#utility.yul\":8699:8705   */\n      dup3\n        /* \"#utility.yul\":8688:8697   */\n      dup8\n        /* \"#utility.yul\":8684:8706   */\n      add\n        /* \"#utility.yul\":8655:8716   */\n      tag_170\n      jump\t// in\n    tag_305:\n        /* \"#utility.yul\":8645:8716   */\n      swap2\n      pop\n        /* \"#utility.yul\":8600:8726   */\n      pop\n        /* \"#utility.yul\":7918:8733   */\n      swap3\n      pop\n      swap3\n      pop\n      swap3\n      jump\t// out\n        /* \"#utility.yul\":8739:9213   */\n    tag_65:\n        /* \"#utility.yul\":8807:8813   */\n      0x00\n        /* \"#utility.yul\":8815:8821   */\n      0x00\n        /* \"#utility.yul\":8864:8866   */\n      0x40\n        /* \"#utility.yul\":8852:8861   */\n      dup4\n        /* \"#utility.yul\":8843:8850   */\n      dup6\n        /* \"#utility.yul\":8839:8862   */\n      sub\n        /* \"#utility.yul\":8835:8867   */\n      slt\n        /* \"#utility.yul\":8832:8951   */\n      iszero\n      tag_307\n      jumpi\n        /* \"#utility.yul\":8870:8949   */\n      tag_308\n      tag_140\n      jump\t// in\n    tag_308:\n        /* \"#utility.yul\":8832:8951   */\n    tag_307:\n        /* \"#utility.yul\":8990:8991   */\n      0x00\n        /* \"#utility.yul\":9015:9068   */\n      tag_309\n        /* \"#utility.yul\":9060:9067   */\n      dup6\n        /* \"#utility.yul\":9051:9057   */\n      dup3\n        /* \"#utility.yul\":9040:9049   */\n      dup7\n        /* \"#utility.yul\":9036:9058   */\n      add\n        /* \"#utility.yul\":9015:9068   */\n      tag_144\n      jump\t// in\n    tag_309:\n        /* \"#utility.yul\":9005:9068   */\n      swap3\n      pop\n        /* \"#utility.yul\":8961:9078   */\n      pop\n        /* \"#utility.yul\":9117:9119   */\n      0x20\n        /* \"#utility.yul\":9143:9196   */\n      tag_310\n        /* \"#utility.yul\":9188:9195   */\n      dup6\n        /* \"#utility.yul\":9179:9185   */\n      dup3\n        /* \"#utility.yul\":9168:9177   */\n      dup7\n        /* \"#utility.yul\":9164:9186   */\n      add\n        /* \"#utility.yul\":9143:9196   */\n      tag_148\n      jump\t// in\n    tag_310:\n        /* \"#utility.yul\":9133:9196   */\n      swap2\n      pop\n        /* \"#utility.yul\":9088:9206   */\n      pop\n        /* \"#utility.yul\":8739:9213   */\n      swap3\n      pop\n      swap3\n      swap1\n      pop\n      jump\t// out\n        /* \"#utility.yul\":9219:9400   */\n    tag_171:\n        /* \"#utility.yul\":9359:9392   */\n      0x4f6e6c79206d616e616765722063616e20637265617465207265717565737400\n        /* \"#utility.yul\":9355:9356   */\n      0x00\n        /* \"#utility.yul\":9347:9353   */\n      dup3\n        /* \"#utility.yul\":9343:9357   */\n      add\n        /* \"#utility.yul\":9336:9393   */\n      mstore\n        /* \"#utility.yul\":9219:9400   */\n      pop\n      jump\t// out\n        /* \"#utility.yul\":9406:9772   */\n    tag_172:\n        /* \"#utility.yul\":9548:9551   */\n      0x00\n        /* \"#utility.yul\":9569:9636   */\n      tag_313\n        /* \"#utility.yul\":9633:9635   */\n      0x1f\n        /* \"#utility.yul\":9628:9631   */\n      dup4\n        /* \"#utility.yul\":9569:9636   */\n      tag_154\n      jump\t// in\n    tag_313:\n        /* \"#utility.yul\":9562:9636   */\n      swap2\n      pop\n        /* \"#utility.yul\":9645:9738   */\n      tag_314\n        /* \"#utility.yul\":9734:9737   */\n      dup3\n        /* \"#utility.yul\":9645:9738   */\n      tag_171\n      jump\t// in\n    tag_314:\n        /* \"#utility.yul\":9763:9765   */\n      0x20\n        /* \"#utility.yul\":9758:9761   */\n      dup3\n        /* \"#utility.yul\":9754:9766   */\n      add\n        /* \"#utility.yul\":9747:9766   */\n      swap1\n      pop\n        /* \"#utility.yul\":9406:9772   */\n      swap2\n      swap1\n      pop\n      jump\t// out\n        /* \"#utility.yul\":9778:10197   */\n    tag_77:\n        /* \"#utility.yul\":9944:9948   */\n      0x00\n        /* \"#utility.yul\":9982:9984   */\n      0x20\n        /* \"#utility.yul\":9971:9980   */\n      dup3\n        /* \"#utility.yul\":9967:9985   */\n      add\n        /* \"#utility.yul\":9959:9985   */\n      swap1\n      pop\n        /* \"#utility.yul\":10031:10040   */\n      dup2\n        /* \"#utility.yul\":10025:10029   */\n      dup2\n        /* \"#utility.yul\":10021:10041   */\n      sub\n        /* \"#utility.yul\":10017:10018   */\n      0x00\n        /* \"#utility.yul\":10006:10015   */\n      dup4\n        /* \"#utility.yul\":10002:10019   */\n      add\n        /* \"#utility.yul\":9995:10042   */\n      mstore\n        /* \"#utility.yul\":10059:10190   */\n      tag_316\n        /* \"#utility.yul\":10185:10189   */\n      dup2\n        /* \"#utility.yul\":10059:10190   */\n      tag_172\n      jump\t// in\n    tag_316:\n        /* \"#utility.yul\":10051:10190   */\n      swap1\n      pop\n        /* \"#utility.yul\":9778:10197   */\n      swap2\n      swap1\n      pop\n      jump\t// out\n        /* \"#utility.yul\":10203:10383   */\n    tag_81:\n        /* \"#utility.yul\":10251:10328   */\n      0x4e487b7100000000000000000000000000000000000000000000000000000000\n        /* \"#utility.yul\":10248:10249   */\n      0x00\n        /* \"#utility.yul\":10241:10329   */\n      mstore\n        /* \"#utility.yul\":10348:10352   */\n      0x32\n        /* \"#utility.yul\":10345:10346   */\n      0x04\n        /* \"#utility.yul\":10338:10353   */\n      mstore\n        /* \"#utility.yul\":10372:10376   */\n      0x24\n        /* \"#utility.yul\":10369:10370   */\n      0x00\n        /* \"#utility.yul\":10362:10377   */\n      revert\n        /* \"#utility.yul\":10389:10569   */\n    tag_173:\n        /* \"#utility.yul\":10529:10561   */\n      0x496e73756666696369656e7420636f6e74726163742062616c616e63652e0000\n        /* \"#utility.yul\":10525:10526   */\n      0x00\n        /* \"#utility.yul\":10517:10523   */\n      dup3\n        /* \"#utility.yul\":10513:10527   */\n      add\n        /* \"#utility.yul\":10506:10562   */\n      mstore\n        /* \"#utility.yul\":10389:10569   */\n      pop\n      jump\t// out\n        /* \"#utility.yul\":10575:10941   */\n    tag_174:\n        /* \"#utility.yul\":10717:10720   */\n      0x00\n        /* \"#utility.yul\":10738:10805   */\n      tag_320\n        /* \"#utility.yul\":10802:10804   */\n      0x1e\n        /* \"#utility.yul\":10797:10800   */\n      dup4\n        /* \"#utility.yul\":10738:10805   */\n      tag_154\n      jump\t// in\n    tag_320:\n        /* \"#utility.yul\":10731:10805   */\n      swap2\n      pop\n        /* \"#utility.yul\":10814:10907   */\n      tag_321\n        /* \"#utility.yul\":10903:10906   */\n      dup3\n        /* \"#utility.yul\":10814:10907   */\n      tag_173\n      jump\t// in\n    tag_321:\n        /* \"#utility.yul\":10932:10934   */\n      0x20\n        /* \"#utility.yul\":10927:10930   */\n      dup3\n        /* \"#utility.yul\":10923:10935   */\n      add\n        /* \"#utility.yul\":10916:10935   */\n      swap1\n      pop\n        /* \"#utility.yul\":10575:10941   */\n      swap2\n      swap1\n      pop\n      jump\t// out\n        /* \"#utility.yul\":10947:11366   */\n    tag_85:\n        /* \"#utility.yul\":11113:11117   */\n      0x00\n        /* \"#utility.yul\":11151:11153   */\n      0x20\n        /* \"#utility.yul\":11140:11149   */\n      dup3\n        /* \"#utility.yul\":11136:11154   */\n      add\n        /* \"#utility.yul\":11128:11154   */\n      swap1\n      pop\n        /* \"#utility.yul\":11200:11209   */\n      dup2\n        /* \"#utility.yul\":11194:11198   */\n      dup2\n        /* \"#utility.yul\":11190:11210   */\n      sub\n        /* \"#utility.yul\":11186:11187   */\n      0x00\n        /* \"#utility.yul\":11175:11184   */\n      dup4\n        /* \"#utility.yul\":11171:11188   */\n      add\n        /* \"#utility.yul\":11164:11211   */\n      mstore\n        /* \"#utility.yul\":11228:11359   */\n      tag_323\n        /* \"#utility.yul\":11354:11358   */\n      dup2\n        /* \"#utility.yul\":11228:11359   */\n      tag_174\n      jump\t// in\n    tag_323:\n        /* \"#utility.yul\":11220:11359   */\n      swap1\n      pop\n        /* \"#utility.yul\":10947:11366   */\n      swap2\n      swap1\n      pop\n      jump\t// out\n        /* \"#utility.yul\":11372:11552   */\n    tag_175:\n        /* \"#utility.yul\":11420:11497   */\n      0x4e487b7100000000000000000000000000000000000000000000000000000000\n        /* \"#utility.yul\":11417:11418   */\n      0x00\n        /* \"#utility.yul\":11410:11498   */\n      mstore\n        /* \"#utility.yul\":11517:11521   */\n      0x12\n        /* \"#utility.yul\":11514:11515   */\n      0x04\n        /* \"#utility.yul\":11507:11522   */\n      mstore\n        /* \"#utility.yul\":11541:11545   */\n      0x24\n        /* \"#utility.yul\":11538:11539   */\n      0x00\n        /* \"#utility.yul\":11531:11546   */\n      revert\n        /* \"#utility.yul\":11558:11738   */\n    tag_176:\n        /* \"#utility.yul\":11606:11683   */\n      0x4e487b7100000000000000000000000000000000000000000000000000000000\n        /* \"#utility.yul\":11603:11604   */\n      0x00\n        /* \"#utility.yul\":11596:11684   */\n      mstore\n        /* \"#utility.yul\":11703:11707   */\n      0x11\n        /* \"#utility.yul\":11700:11701   */\n      0x04\n        /* \"#utility.yul\":11693:11708   */\n      mstore\n        /* \"#utility.yul\":11727:11731   */\n      0x24\n        /* \"#utility.yul\":11724:11725   */\n      0x00\n        /* \"#utility.yul\":11717:11732   */\n      revert\n        /* \"#utility.yul\":11744:11929   */\n    tag_87:\n        /* \"#utility.yul\":11784:11785   */\n      0x00\n        /* \"#utility.yul\":11801:11821   */\n      tag_327\n        /* \"#utility.yul\":11819:11820   */\n      dup3\n        /* \"#utility.yul\":11801:11821   */\n      tag_142\n      jump\t// in\n    tag_327:\n        /* \"#utility.yul\":11796:11821   */\n      swap2\n      pop\n        /* \"#utility.yul\":11835:11855   */\n      tag_328\n        /* \"#utility.yul\":11853:11854   */\n      dup4\n        /* \"#utility.yul\":11835:11855   */\n      tag_142\n      jump\t// in\n    tag_328:\n        /* \"#utility.yul\":11830:11855   */\n      swap3\n      pop\n        /* \"#utility.yul\":11874:11875   */\n      dup3\n        /* \"#utility.yul\":11864:11899   */\n      tag_329\n      jumpi\n        /* \"#utility.yul\":11879:11897   */\n      tag_330\n      tag_175\n      jump\t// in\n    tag_330:\n        /* \"#utility.yul\":11864:11899   */\n    tag_329:\n        /* \"#utility.yul\":11921:11922   */\n      dup3\n        /* \"#utility.yul\":11918:11919   */\n      dup3\n        /* \"#utility.yul\":11914:11923   */\n      div\n        /* \"#utility.yul\":11909:11923   */\n      swap1\n      pop\n        /* \"#utility.yul\":11744:11929   */\n      swap3\n      swap2\n      pop\n      pop\n      jump\t// out\n        /* \"#utility.yul\":11935:12106   */\n    tag_177:\n        /* \"#utility.yul\":12075:12098   */\n      0x4e6f7420656e6f75676820617070726f76616c732e0000000000000000000000\n        /* \"#utility.yul\":12071:12072   */\n      0x00\n        /* \"#utility.yul\":12063:12069   */\n      dup3\n        /* \"#utility.yul\":12059:12073   */\n      add\n        /* \"#utility.yul\":12052:12099   */\n      mstore\n        /* \"#utility.yul\":11935:12106   */\n      pop\n      jump\t// out\n        /* \"#utility.yul\":12112:12478   */\n    tag_178:\n        /* \"#utility.yul\":12254:12257   */\n      0x00\n        /* \"#utility.yul\":12275:12342   */\n      tag_333\n        /* \"#utility.yul\":12339:12341   */\n      0x15\n        /* \"#utility.yul\":12334:12337   */\n      dup4\n        /* \"#utility.yul\":12275:12342   */\n      tag_154\n      jump\t// in\n    tag_333:\n        /* \"#utility.yul\":12268:12342   */\n      swap2\n      pop\n        /* \"#utility.yul\":12351:12444   */\n      tag_334\n        /* \"#utility.yul\":12440:12443   */\n      dup3\n        /* \"#utility.yul\":12351:12444   */\n      tag_177\n      jump\t// in\n    tag_334:\n        /* \"#utility.yul\":12469:12471   */\n      0x20\n        /* \"#utility.yul\":12464:12467   */\n      dup3\n        /* \"#utility.yul\":12460:12472   */\n      add\n        /* \"#utility.yul\":12453:12472   */\n      swap1\n      pop\n        /* \"#utility.yul\":12112:12478   */\n      swap2\n      swap1\n      pop\n      jump\t// out\n        /* \"#utility.yul\":12484:12903   */\n    tag_90:\n        /* \"#utility.yul\":12650:12654   */\n      0x00\n        /* \"#utility.yul\":12688:12690   */\n      0x20\n        /* \"#utility.yul\":12677:12686   */\n      dup3\n        /* \"#utility.yul\":12673:12691   */\n      add\n        /* \"#utility.yul\":12665:12691   */\n      swap1\n      pop\n        /* \"#utility.yul\":12737:12746   */\n      dup2\n        /* \"#utility.yul\":12731:12735   */\n      dup2\n        /* \"#utility.yul\":12727:12747   */\n      sub\n        /* \"#utility.yul\":12723:12724   */\n      0x00\n        /* \"#utility.yul\":12712:12721   */\n      dup4\n        /* \"#utility.yul\":12708:12725   */\n      add\n        /* \"#utility.yul\":12701:12748   */\n      mstore\n        /* \"#utility.yul\":12765:12896   */\n      tag_336\n        /* \"#utility.yul\":12891:12895   */\n      dup2\n        /* \"#utility.yul\":12765:12896   */\n      tag_178\n      jump\t// in\n    tag_336:\n        /* \"#utility.yul\":12757:12896   */\n      swap1\n      pop\n        /* \"#utility.yul\":12484:12903   */\n      swap2\n      swap1\n      pop\n      jump\t// out\n        /* \"#utility.yul\":12909:13087   */\n    tag_179:\n        /* \"#utility.yul\":13049:13079   */\n      0x5265717565737420697320616c726561647920636f6d706c6574652e00000000\n        /* \"#utility.yul\":13045:13046   */\n      0x00\n        /* \"#utility.yul\":13037:13043   */\n      dup3\n        /* \"#utility.yul\":13033:13047   */\n      add\n        /* \"#utility.yul\":13026:13080   */\n      mstore\n        /* \"#utility.yul\":12909:13087   */\n      pop\n      jump\t// out\n        /* \"#utility.yul\":13093:13459   */\n    tag_180:\n        /* \"#utility.yul\":13235:13238   */\n      0x00\n        /* \"#utility.yul\":13256:13323   */\n      tag_339\n        /* \"#utility.yul\":13320:13322   */\n      0x1c\n        /* \"#utility.yul\":13315:13318   */\n      dup4\n        /* \"#utility.yul\":13256:13323   */\n      tag_154\n      jump\t// in\n    tag_339:\n        /* \"#utility.yul\":13249:13323   */\n      swap2\n      pop\n        /* \"#utility.yul\":13332:13425   */\n      tag_340\n        /* \"#utility.yul\":13421:13424   */\n      dup3\n        /* \"#utility.yul\":13332:13425   */\n      tag_179\n      jump\t// in\n    tag_340:\n        /* \"#utility.yul\":13450:13452   */\n      0x20\n        /* \"#utility.yul\":13445:13448   */\n      dup3\n        /* \"#utility.yul\":13441:13453   */\n      add\n        /* \"#utility.yul\":13434:13453   */\n      swap1\n      pop\n        /* \"#utility.yul\":13093:13459   */\n      swap2\n      swap1\n      pop\n      jump\t// out\n        /* \"#utility.yul\":13465:13884   */\n    tag_93:\n        /* \"#utility.yul\":13631:13635   */\n      0x00\n        /* \"#utility.yul\":13669:13671   */\n      0x20\n        /* \"#utility.yul\":13658:13667   */\n      dup3\n        /* \"#utility.yul\":13654:13672   */\n      add\n        /* \"#utility.yul\":13646:13672   */\n      swap1\n      pop\n        /* \"#utility.yul\":13718:13727   */\n      dup2\n        /* \"#utility.yul\":13712:13716   */\n      dup2\n        /* \"#utility.yul\":13708:13728   */\n      sub\n        /* \"#utility.yul\":13704:13705   */\n      0x00\n        /* \"#utility.yul\":13693:13702   */\n      dup4\n        /* \"#utility.yul\":13689:13706   */\n      add\n        /* \"#utility.yul\":13682:13729   */\n      mstore\n        /* \"#utility.yul\":13746:13877   */\n      tag_342\n        /* \"#utility.yul\":13872:13876   */\n      dup2\n        /* \"#utility.yul\":13746:13877   */\n      tag_180\n      jump\t// in\n    tag_342:\n        /* \"#utility.yul\":13738:13877   */\n      swap1\n      pop\n        /* \"#utility.yul\":13465:13884   */\n      swap2\n      swap1\n      pop\n      jump\t// out\n        /* \"#utility.yul\":13890:14062   */\n    tag_181:\n        /* \"#utility.yul\":14030:14054   */\n      0x496e76616c6964207265717565737420696e6465782e00000000000000000000\n        /* \"#utility.yul\":14026:14027   */\n      0x00\n        /* \"#utility.yul\":14018:14024   */\n      dup3\n        /* \"#utility.yul\":14014:14028   */\n      add\n        /* \"#utility.yul\":14007:14055   */\n      mstore\n        /* \"#utility.yul\":13890:14062   */\n      pop\n      jump\t// out\n        /* \"#utility.yul\":14068:14434   */\n    tag_182:\n        /* \"#utility.yul\":14210:14213   */\n      0x00\n        /* \"#utility.yul\":14231:14298   */\n      tag_345\n        /* \"#utility.yul\":14295:14297   */\n      0x16\n        /* \"#utility.yul\":14290:14293   */\n      dup4\n        /* \"#utility.yul\":14231:14298   */\n      tag_154\n      jump\t// in\n    tag_345:\n        /* \"#utility.yul\":14224:14298   */\n      swap2\n      pop\n        /* \"#utility.yul\":14307:14400   */\n      tag_346\n        /* \"#utility.yul\":14396:14399   */\n      dup3\n        /* \"#utility.yul\":14307:14400   */\n      tag_181\n      jump\t// in\n    tag_346:\n        /* \"#utility.yul\":14425:14427   */\n      0x20\n        /* \"#utility.yul\":14420:14423   */\n      dup3\n        /* \"#utility.yul\":14416:14428   */\n      add\n        /* \"#utility.yul\":14409:14428   */\n      swap1\n      pop\n        /* \"#utility.yul\":14068:14434   */\n      swap2\n      swap1\n      pop\n      jump\t// out\n        /* \"#utility.yul\":14440:14859   */\n    tag_100:\n        /* \"#utility.yul\":14606:14610   */\n      0x00\n        /* \"#utility.yul\":14644:14646   */\n      0x20\n        /* \"#utility.yul\":14633:14642   */\n      dup3\n        /* \"#utility.yul\":14629:14647   */\n      add\n        /* \"#utility.yul\":14621:14647   */\n      swap1\n      pop\n        /* \"#utility.yul\":14693:14702   */\n      dup2\n        /* \"#utility.yul\":14687:14691   */\n      dup2\n        /* \"#utility.yul\":14683:14703   */\n      sub\n        /* \"#utility.yul\":14679:14680   */\n      0x00\n        /* \"#utility.yul\":14668:14677   */\n      dup4\n        /* \"#utility.yul\":14664:14681   */\n      add\n        /* \"#utility.yul\":14657:14704   */\n      mstore\n        /* \"#utility.yul\":14721:14852   */\n      tag_348\n        /* \"#utility.yul\":14847:14851   */\n      dup2\n        /* \"#utility.yul\":14721:14852   */\n      tag_182\n      jump\t// in\n    tag_348:\n        /* \"#utility.yul\":14713:14852   */\n      swap1\n      pop\n        /* \"#utility.yul\":14440:14859   */\n      swap2\n      swap1\n      pop\n      jump\t// out\n        /* \"#utility.yul\":14865:15045   */\n    tag_183:\n        /* \"#utility.yul\":14913:14990   */\n      0x4e487b7100000000000000000000000000000000000000000000000000000000\n        /* \"#utility.yul\":14910:14911   */\n      0x00\n        /* \"#utility.yul\":14903:14991   */\n      mstore\n        /* \"#utility.yul\":15010:15014   */\n      0x22\n        /* \"#utility.yul\":15007:15008   */\n      0x04\n        /* \"#utility.yul\":15000:15015   */\n      mstore\n        /* \"#utility.yul\":15034:15038   */\n      0x24\n        /* \"#utility.yul\":15031:15032   */\n      0x00\n        /* \"#utility.yul\":15024:15039   */\n      revert\n        /* \"#utility.yul\":15051:15371   */\n    tag_105:\n        /* \"#utility.yul\":15095:15101   */\n      0x00\n        /* \"#utility.yul\":15132:15133   */\n      0x02\n        /* \"#utility.yul\":15126:15130   */\n      dup3\n        /* \"#utility.yul\":15122:15134   */\n      div\n        /* \"#utility.yul\":15112:15134   */\n      swap1\n      pop\n        /* \"#utility.yul\":15179:15180   */\n      0x01\n        /* \"#utility.yul\":15173:15177   */\n      dup3\n        /* \"#utility.yul\":15169:15181   */\n      and\n        /* \"#utility.yul\":15200:15218   */\n      dup1\n        /* \"#utility.yul\":15190:15271   */\n      tag_351\n      jumpi\n        /* \"#utility.yul\":15256:15260   */\n      0x7f\n        /* \"#utility.yul\":15248:15254   */\n      dup3\n        /* \"#utility.yul\":15244:15261   */\n      and\n        /* \"#utility.yul\":15234:15261   */\n      swap2\n      pop\n        /* \"#utility.yul\":15190:15271   */\n    tag_351:\n        /* \"#utility.yul\":15318:15320   */\n      0x20\n        /* \"#utility.yul\":15310:15316   */\n      dup3\n        /* \"#utility.yul\":15307:15321   */\n      lt\n        /* \"#utility.yul\":15287:15305   */\n      dup2\n        /* \"#utility.yul\":15284:15322   */\n      sub\n        /* \"#utility.yul\":15281:15365   */\n      tag_352\n      jumpi\n        /* \"#utility.yul\":15337:15355   */\n      tag_353\n      tag_183\n      jump\t// in\n    tag_353:\n        /* \"#utility.yul\":15281:15365   */\n    tag_352:\n        /* \"#utility.yul\":15102:15371   */\n      pop\n        /* \"#utility.yul\":15051:15371   */\n      swap2\n      swap1\n      pop\n      jump\t// out\n        /* \"#utility.yul\":15377:15518   */\n    tag_184:\n        /* \"#utility.yul\":15426:15430   */\n      0x00\n        /* \"#utility.yul\":15449:15452   */\n      dup2\n        /* \"#utility.yul\":15441:15452   */\n      swap1\n      pop\n        /* \"#utility.yul\":15472:15475   */\n      dup2\n        /* \"#utility.yul\":15469:15470   */\n      0x00\n        /* \"#utility.yul\":15462:15476   */\n      mstore\n        /* \"#utility.yul\":15506:15510   */\n      0x20\n        /* \"#utility.yul\":15503:15504   */\n      0x00\n        /* \"#utility.yul\":15493:15511   */\n      keccak256\n        /* \"#utility.yul\":15485:15511   */\n      swap1\n      pop\n        /* \"#utility.yul\":15377:15518   */\n      swap2\n      swap1\n      pop\n      jump\t// out\n        /* \"#utility.yul\":15524:15617   */\n    tag_185:\n        /* \"#utility.yul\":15561:15567   */\n      0x00\n        /* \"#utility.yul\":15608:15610   */\n      0x20\n        /* \"#utility.yul\":15603:15605   */\n      0x1f\n        /* \"#utility.yul\":15596:15601   */\n      dup4\n        /* \"#utility.yul\":15592:15606   */\n      add\n        /* \"#utility.yul\":15588:15611   */\n      div\n        /* \"#utility.yul\":15578:15611   */\n      swap1\n      pop\n        /* \"#utility.yul\":15524:15617   */\n      swap2\n      swap1\n      pop\n      jump\t// out\n        /* \"#utility.yul\":15623:15730   */\n    tag_186:\n        /* \"#utility.yul\":15667:15675   */\n      0x00\n        /* \"#utility.yul\":15717:15722   */\n      dup3\n        /* \"#utility.yul\":15711:15715   */\n      dup3\n        /* \"#utility.yul\":15707:15723   */\n      shl\n        /* \"#utility.yul\":15686:15723   */\n      swap1\n      pop\n        /* \"#utility.yul\":15623:15730   */\n      swap3\n      swap2\n      pop\n      pop\n      jump\t// out\n        /* \"#utility.yul\":15736:16129   */\n    tag_187:\n        /* \"#utility.yul\":15805:15811   */\n      0x00\n        /* \"#utility.yul\":15855:15856   */\n      0x08\n        /* \"#utility.yul\":15843:15853   */\n      dup4\n        /* \"#utility.yul\":15839:15857   */\n      mul\n        /* \"#utility.yul\":15878:15975   */\n      tag_358\n        /* \"#utility.yul\":15908:15974   */\n      0xffffffffffffffffffffffffffffffffffffffffffffffffffffffffffffffff\n        /* \"#utility.yul\":15897:15906   */\n      dup3\n        /* \"#utility.yul\":15878:15975   */\n      tag_186\n      jump\t// in\n    tag_358:\n        /* \"#utility.yul\":15996:16035   */\n      tag_359\n        /* \"#utility.yul\":16026:16034   */\n      dup7\n        /* \"#utility.yul\":16015:16024   */\n      dup4\n        /* \"#utility.yul\":15996:16035   */\n      tag_186\n      jump\t// in\n    tag_359:\n        /* \"#utility.yul\":15984:16035   */\n      swap6\n      pop\n        /* \"#utility.yul\":16068:16072   */\n      dup1\n        /* \"#utility.yul\":16064:16073   */\n      not\n        /* \"#utility.yul\":16057:16062   */\n      dup5\n        /* \"#utility.yul\":16053:16074   */\n      and\n        /* \"#utility.yul\":16044:16074   */\n      swap4\n      pop\n        /* \"#utility.yul\":16117:16121   */\n      dup1\n        /* \"#utility.yul\":16107:16115   */\n      dup7\n        /* \"#utility.yul\":16103:16122   */\n      and\n        /* \"#utility.yul\":16096:16101   */\n      dup5\n        /* \"#utility.yul\":16093:16123   */\n      or\n        /* \"#utility.yul\":16083:16123   */\n      swap3\n      pop\n        /* \"#utility.yul\":15812:16129   */\n      pop\n      pop\n        /* \"#utility.yul\":15736:16129   */\n      swap4\n      swap3\n      pop\n      pop\n      pop\n      jump\t// out\n        /* \"#utility.yul\":16135:16195   */\n    tag_188:\n        /* \"#utility.yul\":16163:16166   */\n      0x00\n        /* \"#utility.yul\":16184:16189   */\n      dup2\n        /* \"#utility.yul\":16177:16189   */\n      swap1\n      pop\n        /* \"#utility.yul\":16135:16195   */\n      swap2\n      swap1\n      pop\n      jump\t// out\n        /* \"#utility.yul\":16201:16343   */\n    tag_189:\n        /* \"#utility.yul\":16251:16260   */\n      0x00\n        /* \"#utility.yul\":16284:16337   */\n      tag_362\n        /* \"#utility.yul\":16302:16336   */\n      tag_363\n        /* \"#utility.yul\":16311:16335   */\n      tag_364\n        /* \"#utility.yul\":16329:16334   */\n      dup5\n        /* \"#utility.yul\":16311:16335   */\n      tag_142\n      jump\t// in\n    tag_364:\n        /* \"#utility.yul\":16302:16336   */\n      tag_188\n      jump\t// in\n    tag_363:\n        /* \"#utility.yul\":16284:16337   */\n      tag_142\n      jump\t// in\n    tag_362:\n        /* \"#utility.yul\":16271:16337   */\n      swap1\n      pop\n        /* \"#utility.yul\":16201:16343   */\n      swap2\n      swap1\n      pop\n      jump\t// out\n        /* \"#utility.yul\":16349:16424   */\n    tag_190:\n        /* \"#utility.yul\":16392:16395   */\n      0x00\n        /* \"#utility.yul\":16413:16418   */\n      dup2\n        /* \"#utility.yul\":16406:16418   */\n      swap1\n      pop\n        /* \"#utility.yul\":16349:16424   */\n      swap2\n      swap1\n      pop\n      jump\t// out\n        /* \"#utility.yul\":16430:16699   */\n    tag_191:\n        /* \"#utility.yul\":16540:16579   */\n      tag_367\n        /* \"#utility.yul\":16571:16578   */\n      dup4\n        /* \"#utility.yul\":16540:16579   */\n      tag_189\n      jump\t// in\n    tag_367:\n        /* \"#utility.yul\":16601:16692   */\n      tag_368\n        /* \"#utility.yul\":16650:16691   */\n      tag_369\n        /* \"#utility.yul\":16674:16690   */\n      dup3\n        /* \"#utility.yul\":16650:16691   */\n      tag_190\n      jump\t// in\n    tag_369:\n        /* \"#utility.yul\":16642:16648   */\n      dup5\n        /* \"#utility.yul\":16635:16639   */\n      dup5\n        /* \"#utility.yul\":16629:16640   */\n      sload\n        /* \"#utility.yul\":16601:16692   */\n      tag_187\n      jump\t// in\n    tag_368:\n        /* \"#utility.yul\":16595:16599   */\n      dup3\n        /* \"#utility.yul\":16588:16693   */\n      sstore\n        /* \"#utility.yul\":16506:16699   */\n      pop\n        /* \"#utility.yul\":16430:16699   */\n      pop\n      pop\n      pop\n      jump\t// out\n        /* \"#utility.yul\":16705:16778   */\n    tag_192:\n        /* \"#utility.yul\":16750:16753   */\n      0x00\n        /* \"#utility.yul\":16771:16772   */\n      0x00\n        /* \"#utility.yul\":16764:16772   */\n      swap1\n      pop\n        /* \"#utility.yul\":16705:16778   */\n      swap1\n      jump\t// out\n        /* \"#utility.yul\":16784:16973   */\n    tag_193:\n        /* \"#utility.yul\":16861:16893   */\n      tag_372\n      tag_192\n      jump\t// in\n    tag_372:\n        /* \"#utility.yul\":16902:16967   */\n      tag_373\n        /* \"#utility.yul\":16960:16966   */\n      dup2\n        /* \"#utility.yul\":16952:16958   */\n      dup5\n        /* \"#utility.yul\":16946:16950   */\n      dup5\n        /* \"#utility.yul\":16902:16967   */\n      tag_191\n      jump\t// in\n    tag_373:\n        /* \"#utility.yul\":16837:16973   */\n      pop\n        /* \"#utility.yul\":16784:16973   */\n      pop\n      pop\n      jump\t// out\n        /* \"#utility.yul\":16979:17165   */\n    tag_194:\n        /* \"#utility.yul\":17039:17159   */\n    tag_375:\n        /* \"#utility.yul\":17056:17059   */\n      dup2\n        /* \"#utility.yul\":17049:17054   */\n      dup2\n        /* \"#utility.yul\":17046:17060   */\n      lt\n        /* \"#utility.yul\":17039:17159   */\n      iszero\n      tag_377\n      jumpi\n        /* \"#utility.yul\":17110:17149   */\n      tag_378\n        /* \"#utility.yul\":17147:17148   */\n      0x00\n        /* \"#utility.yul\":17140:17145   */\n      dup3\n        /* \"#utility.yul\":17110:17149   */\n      tag_193\n      jump\t// in\n    tag_378:\n        /* \"#utility.yul\":17083:17084   */\n      0x01\n        /* \"#utility.yul\":17076:17081   */\n      dup2\n        /* \"#utility.yul\":17072:17085   */\n      add\n        /* \"#utility.yul\":17063:17085   */\n      swap1\n      pop\n        /* \"#utility.yul\":17039:17159   */\n      jump(tag_375)\n    tag_377:\n        /* \"#utility.yul\":16979:17165   */\n      pop\n      pop\n      jump\t// out\n        /* \"#utility.yul\":17171:17714   */\n    tag_195:\n        /* \"#utility.yul\":17272:17274   */\n      0x1f\n        /* \"#utility.yul\":17267:17270   */\n      dup3\n        /* \"#utility.yul\":17264:17275   */\n      gt\n        /* \"#utility.yul\":17261:17707   */\n      iszero\n      tag_380\n      jumpi\n        /* \"#utility.yul\":17306:17344   */\n      tag_381\n        /* \"#utility.yul\":17338:17343   */\n      dup2\n        /* \"#utility.yul\":17306:17344   */\n      tag_184\n      jump\t// in\n    tag_381:\n        /* \"#utility.yul\":17390:17419   */\n      tag_382\n        /* \"#utility.yul\":17408:17418   */\n      dup5\n        /* \"#utility.yul\":17390:17419   */\n      tag_185\n      jump\t// in\n    tag_382:\n        /* \"#utility.yul\":17380:17388   */\n      dup2\n        /* \"#utility.yul\":17376:17420   */\n      add\n        /* \"#utility.yul\":17573:17575   */\n      0x20\n        /* \"#utility.yul\":17561:17571   */\n      dup6\n        /* \"#utility.yul\":17558:17576   */\n      lt\n        /* \"#utility.yul\":17555:17604   */\n      iszero\n      tag_383\n      jumpi\n        /* \"#utility.yul\":17594:17602   */\n      dup2\n        /* \"#utility.yul\":17579:17602   */\n      swap1\n      pop\n        /* \"#utility.yul\":17555:17604   */\n    tag_383:\n        /* \"#utility.yul\":17617:17697   */\n      tag_384\n        /* \"#utility.yul\":17673:17695   */\n      tag_385\n        /* \"#utility.yul\":17691:17694   */\n      dup6\n        /* \"#utility.yul\":17673:17695   */\n      tag_185\n      jump\t// in\n    tag_385:\n        /* \"#utility.yul\":17663:17671   */\n      dup4\n        /* \"#utility.yul\":17659:17696   */\n      add\n        /* \"#utility.yul\":17646:17657   */\n      dup3\n        /* \"#utility.yul\":17617:17697   */\n      tag_194\n      jump\t// in\n    tag_384:\n        /* \"#utility.yul\":17276:17707   */\n      pop\n      pop\n        /* \"#utility.yul\":17261:17707   */\n    tag_380:\n        /* \"#utility.yul\":17171:17714   */\n      pop\n      pop\n      pop\n      jump\t// out\n        /* \"#utility.yul\":17720:17837   */\n    tag_196:\n        /* \"#utility.yul\":17774:17782   */\n      0x00\n        /* \"#utility.yul\":17824:17829   */\n      dup3\n        /* \"#utility.yul\":17818:17822   */\n      dup3\n        /* \"#utility.yul\":17814:17830   */\n      shr\n        /* \"#utility.yul\":17793:17830   */\n      swap1\n      pop\n        /* \"#utility.yul\":17720:17837   */\n      swap3\n      swap2\n      pop\n      pop\n      jump\t// out\n        /* \"#utility.yul\":17843:18012   */\n    tag_197:\n        /* \"#utility.yul\":17887:17893   */\n      0x00\n        /* \"#utility.yul\":17920:17971   */\n      tag_388\n        /* \"#utility.yul\":17968:17969   */\n      0x00\n        /* \"#utility.yul\":17964:17970   */\n      not\n        /* \"#utility.yul\":17956:17961   */\n      dup5\n        /* \"#utility.yul\":17953:17954   */\n      0x08\n        /* \"#utility.yul\":17949:17962   */\n      mul\n        /* \"#utility.yul\":17920:17971   */\n      tag_196\n      jump\t// in\n    tag_388:\n        /* \"#utility.yul\":17916:17972   */\n      not\n        /* \"#utility.yul\":18001:18005   */\n      dup1\n        /* \"#utility.yul\":17995:17999   */\n      dup4\n        /* \"#utility.yul\":17991:18006   */\n      and\n        /* \"#utility.yul\":17981:18006   */\n      swap2\n      pop\n        /* \"#utility.yul\":17894:18012   */\n      pop\n        /* \"#utility.yul\":17843:18012   */\n      swap3\n      swap2\n      pop\n      pop\n      jump\t// out\n        /* \"#utility.yul\":18017:18312   */\n    tag_198:\n        /* \"#utility.yul\":18093:18097   */\n      0x00\n        /* \"#utility.yul\":18239:18268   */\n      tag_390\n        /* \"#utility.yul\":18264:18267   */\n      dup4\n        /* \"#utility.yul\":18258:18262   */\n      dup4\n        /* \"#utility.yul\":18239:18268   */\n      tag_197\n      jump\t// in\n    tag_390:\n        /* \"#utility.yul\":18231:18268   */\n      swap2\n      pop\n        /* \"#utility.yul\":18301:18304   */\n      dup3\n        /* \"#utility.yul\":18298:18299   */\n      0x02\n        /* \"#utility.yul\":18294:18305   */\n      mul\n        /* \"#utility.yul\":18288:18292   */\n      dup3\n        /* \"#utility.yul\":18285:18306   */\n      or\n        /* \"#utility.yul\":18277:18306   */\n      swap1\n      pop\n        /* \"#utility.yul\":18017:18312   */\n      swap3\n      swap2\n      pop\n      pop\n      jump\t// out\n        /* \"#utility.yul\":18317:19712   */\n    tag_120:\n        /* \"#utility.yul\":18434:18471   */\n      tag_392\n        /* \"#utility.yul\":18467:18470   */\n      dup3\n        /* \"#utility.yul\":18434:18471   */\n      tag_153\n      jump\t// in\n    tag_392:\n        /* \"#utility.yul\":18536:18554   */\n      0xffffffffffffffff\n        /* \"#utility.yul\":18528:18534   */\n      dup2\n        /* \"#utility.yul\":18525:18555   */\n      gt\n        /* \"#utility.yul\":18522:18578   */\n      iszero\n      tag_393\n      jumpi\n        /* \"#utility.yul\":18558:18576   */\n      tag_394\n      tag_162\n      jump\t// in\n    tag_394:\n        /* \"#utility.yul\":18522:18578   */\n    tag_393:\n        /* \"#utility.yul\":18602:18640   */\n      tag_395\n        /* \"#utility.yul\":18634:18638   */\n      dup3\n        /* \"#utility.yul\":18628:18639   */\n      sload\n        /* \"#utility.yul\":18602:18640   */\n      tag_105\n      jump\t// in\n    tag_395:\n        /* \"#utility.yul\":18687:18754   */\n      tag_396\n        /* \"#utility.yul\":18747:18753   */\n      dup3\n        /* \"#utility.yul\":18739:18745   */\n      dup3\n        /* \"#utility.yul\":18733:18737   */\n      dup6\n        /* \"#utility.yul\":18687:18754   */\n      tag_195\n      jump\t// in\n    tag_396:\n        /* \"#utility.yul\":18781:18782   */\n      0x00\n        /* \"#utility.yul\":18805:18809   */\n      0x20\n        /* \"#utility.yul\":18792:18809   */\n      swap1\n      pop\n        /* \"#utility.yul\":18837:18839   */\n      0x1f\n        /* \"#utility.yul\":18829:18835   */\n      dup4\n        /* \"#utility.yul\":18826:18840   */\n      gt\n        /* \"#utility.yul\":18854:18855   */\n      0x01\n        /* \"#utility.yul\":18849:19467   */\n      dup2\n      eq\n      tag_398\n      jumpi\n        /* \"#utility.yul\":19511:19512   */\n      0x00\n        /* \"#utility.yul\":19528:19534   */\n      dup5\n        /* \"#utility.yul\":19525:19602   */\n      iszero\n      tag_399\n      jumpi\n        /* \"#utility.yul\":19577:19586   */\n      dup3\n        /* \"#utility.yul\":19572:19575   */\n      dup8\n        /* \"#utility.yul\":19568:19587   */\n      add\n        /* \"#utility.yul\":19562:19588   */\n      mload\n        /* \"#utility.yul\":19553:19588   */\n      swap1\n      pop\n        /* \"#utility.yul\":19525:19602   */\n    tag_399:\n        /* \"#utility.yul\":19628:19695   */\n      tag_400\n        /* \"#utility.yul\":19688:19694   */\n      dup6\n        /* \"#utility.yul\":19681:19686   */\n      dup3\n        /* \"#utility.yul\":19628:19695   */\n      tag_198\n      jump\t// in\n    tag_400:\n        /* \"#utility.yul\":19622:19626   */\n      dup7\n        /* \"#utility.yul\":19615:19696   */\n      sstore\n        /* \"#utility.yul\":19484:19706   */\n      pop\n        /* \"#utility.yul\":18819:19706   */\n      jump(tag_397)\n        /* \"#utility.yul\":18849:19467   */\n    tag_398:\n        /* \"#utility.yul\":18901:18905   */\n      0x1f\n        /* \"#utility.yul\":18897:18906   */\n      not\n        /* \"#utility.yul\":18889:18895   */\n      dup5\n        /* \"#utility.yul\":18885:18907   */\n      and\n        /* \"#utility.yul\":18935:18972   */\n      tag_401\n        /* \"#utility.yul\":18967:18971   */\n      dup7\n        /* \"#utility.yul\":18935:18972   */\n      tag_184\n      jump\t// in\n    tag_401:\n        /* \"#utility.yul\":18994:18995   */\n      0x00\n        /* \"#utility.yul\":19008:19216   */\n    tag_402:\n        /* \"#utility.yul\":19022:19029   */\n      dup3\n        /* \"#utility.yul\":19019:19020   */\n      dup2\n        /* \"#utility.yul\":19016:19030   */\n      lt\n        /* \"#utility.yul\":19008:19216   */\n      iszero\n      tag_404\n      jumpi\n        /* \"#utility.yul\":19101:19110   */\n      dup5\n        /* \"#utility.yul\":19096:19099   */\n      dup10\n        /* \"#utility.yul\":19092:19111   */\n      add\n        /* \"#utility.yul\":19086:19112   */\n      mload\n        /* \"#utility.yul\":19078:19084   */\n      dup3\n        /* \"#utility.yul\":19071:19113   */\n      sstore\n        /* \"#utility.yul\":19152:19153   */\n      0x01\n        /* \"#utility.yul\":19144:19150   */\n      dup3\n        /* \"#utility.yul\":19140:19154   */\n      add\n        /* \"#utility.yul\":19130:19154   */\n      swap2\n      pop\n        /* \"#utility.yul\":19199:19201   */\n      0x20\n        /* \"#utility.yul\":19188:19197   */\n      dup6\n        /* \"#utility.yul\":19184:19202   */\n      add\n        /* \"#utility.yul\":19171:19202   */\n      swap5\n      pop\n        /* \"#utility.yul\":19045:19049   */\n      0x20\n        /* \"#utility.yul\":19042:19043   */\n      dup2\n        /* \"#utility.yul\":19038:19050   */\n      add\n        /* \"#utility.yul\":19033:19050   */\n      swap1\n      pop\n        /* \"#utility.yul\":19008:19216   */\n      jump(tag_402)\n    tag_404:\n        /* \"#utility.yul\":19244:19250   */\n      dup7\n        /* \"#utility.yul\":19235:19242   */\n      dup4\n        /* \"#utility.yul\":19232:19251   */\n      lt\n        /* \"#utility.yul\":19229:19408   */\n      iszero\n      tag_405\n      jumpi\n        /* \"#utility.yul\":19302:19311   */\n      dup5\n        /* \"#utility.yul\":19297:19300   */\n      dup10\n        /* \"#utility.yul\":19293:19312   */\n      add\n        /* \"#utility.yul\":19287:19313   */\n      mload\n        /* \"#utility.yul\":19345:19393   */\n      tag_406\n        /* \"#utility.yul\":19387:19391   */\n      0x1f\n        /* \"#utility.yul\":19379:19385   */\n      dup10\n        /* \"#utility.yul\":19375:19392   */\n      and\n        /* \"#utility.yul\":19364:19373   */\n      dup3\n        /* \"#utility.yul\":19345:19393   */\n      tag_197\n      jump\t// in\n    tag_406:\n        /* \"#utility.yul\":19337:19343   */\n      dup4\n        /* \"#utility.yul\":19330:19394   */\n      sstore\n        /* \"#utility.yul\":19252:19408   */\n      pop\n        /* \"#utility.yul\":19229:19408   */\n    tag_405:\n        /* \"#utility.yul\":19454:19455   */\n      0x01\n        /* \"#utility.yul\":19450:19451   */\n      0x02\n        /* \"#utility.yul\":19442:19448   */\n      dup9\n        /* \"#utility.yul\":19438:19452   */\n      mul\n        /* \"#utility.yul\":19434:19456   */\n      add\n        /* \"#utility.yul\":19428:19432   */\n      dup9\n        /* \"#utility.yul\":19421:19457   */\n      sstore\n        /* \"#utility.yul\":18856:19467   */\n      pop\n      pop\n      pop\n        /* \"#utility.yul\":18819:19706   */\n    tag_397:\n      pop\n        /* \"#utility.yul\":18409:19712   */\n      pop\n      pop\n      pop\n        /* \"#utility.yul\":18317:19712   */\n      pop\n      pop\n      jump\t// out\n        /* \"#utility.yul\":19718:19954   */\n    tag_199:\n        /* \"#utility.yul\":19858:19892   */\n      0x436f6e747269627574696f6e206d757374206265206772656174657220746861\n        /* \"#utility.yul\":19854:19855   */\n      0x00\n        /* \"#utility.yul\":19846:19852   */\n      dup3\n        /* \"#utility.yul\":19842:19856   */\n      add\n        /* \"#utility.yul\":19835:19893   */\n      mstore\n        /* \"#utility.yul\":19927:19946   */\n      0x6e206d696e696d756d20616d6f756e742e000000000000000000000000000000\n        /* \"#utility.yul\":19922:19924   */\n      0x20\n        /* \"#utility.yul\":19914:19920   */\n      dup3\n        /* \"#utility.yul\":19910:19925   */\n      add\n        /* \"#utility.yul\":19903:19947   */\n      mstore\n        /* \"#utility.yul\":19718:19954   */\n      pop\n      jump\t// out\n        /* \"#utility.yul\":19960:20326   */\n    tag_200:\n        /* \"#utility.yul\":20102:20105   */\n      0x00\n        /* \"#utility.yul\":20123:20190   */\n      tag_409\n        /* \"#utility.yul\":20187:20189   */\n      0x31\n        /* \"#utility.yul\":20182:20185   */\n      dup4\n        /* \"#utility.yul\":20123:20190   */\n      tag_154\n      jump\t// in\n    tag_409:\n        /* \"#utility.yul\":20116:20190   */\n      swap2\n      pop\n        /* \"#utility.yul\":20199:20292   */\n      tag_410\n        /* \"#utility.yul\":20288:20291   */\n      dup3\n        /* \"#utility.yul\":20199:20292   */\n      tag_199\n      jump\t// in\n    tag_410:\n        /* \"#utility.yul\":20317:20319   */\n      0x40\n        /* \"#utility.yul\":20312:20315   */\n      dup3\n        /* \"#utility.yul\":20308:20320   */\n      add\n        /* \"#utility.yul\":20301:20320   */\n      swap1\n      pop\n        /* \"#utility.yul\":19960:20326   */\n      swap2\n      swap1\n      pop\n      jump\t// out\n        /* \"#utility.yul\":20332:20751   */\n    tag_124:\n        /* \"#utility.yul\":20498:20502   */\n      0x00\n        /* \"#utility.yul\":20536:20538   */\n      0x20\n        /* \"#utility.yul\":20525:20534   */\n      dup3\n        /* \"#utility.yul\":20521:20539   */\n      add\n        /* \"#utility.yul\":20513:20539   */\n      swap1\n      pop\n        /* \"#utility.yul\":20585:20594   */\n      dup2\n        /* \"#utility.yul\":20579:20583   */\n      dup2\n        /* \"#utility.yul\":20575:20595   */\n      sub\n        /* \"#utility.yul\":20571:20572   */\n      0x00\n        /* \"#utility.yul\":20560:20569   */\n      dup4\n        /* \"#utility.yul\":20556:20573   */\n      add\n        /* \"#utility.yul\":20549:20596   */\n      mstore\n        /* \"#utility.yul\":20613:20744   */\n      tag_412\n        /* \"#utility.yul\":20739:20743   */\n      dup2\n        /* \"#utility.yul\":20613:20744   */\n      tag_200\n      jump\t// in\n    tag_412:\n        /* \"#utility.yul\":20605:20744   */\n      swap1\n      pop\n        /* \"#utility.yul\":20332:20751   */\n      swap2\n      swap1\n      pop\n      jump\t// out\n        /* \"#utility.yul\":20757:20990   */\n    tag_127:\n        /* \"#utility.yul\":20796:20799   */\n      0x00\n        /* \"#utility.yul\":20819:20843   */\n      tag_414\n        /* \"#utility.yul\":20837:20842   */\n      dup3\n        /* \"#utility.yul\":20819:20843   */\n      tag_142\n      jump\t// in\n    tag_414:\n        /* \"#utility.yul\":20810:20843   */\n      swap2\n      pop\n        /* \"#utility.yul\":20865:20931   */\n      0xffffffffffffffffffffffffffffffffffffffffffffffffffffffffffffffff\n        /* \"#utility.yul\":20858:20863   */\n      dup3\n        /* \"#utility.yul\":20855:20932   */\n      sub\n        /* \"#utility.yul\":20852:20955   */\n      tag_415\n      jumpi\n        /* \"#utility.yul\":20935:20953   */\n      tag_416\n      tag_176\n      jump\t// in\n    tag_416:\n        /* \"#utility.yul\":20852:20955   */\n    tag_415:\n        /* \"#utility.yul\":20982:20983   */\n      0x01\n        /* \"#utility.yul\":20975:20980   */\n      dup3\n        /* \"#utility.yul\":20971:20984   */\n      add\n        /* \"#utility.yul\":20964:20984   */\n      swap1\n      pop\n        /* \"#utility.yul\":20757:20990   */\n      swap2\n      swap1\n      pop\n      jump\t// out\n        /* \"#utility.yul\":20996:21176   */\n    tag_201:\n        /* \"#utility.yul\":21136:21168   */\n      0x4f6e6c7920636f6e7472696275746f72732063616e20617070726f76652e0000\n        /* \"#utility.yul\":21132:21133   */\n      0x00\n        /* \"#utility.yul\":21124:21130   */\n      dup3\n        /* \"#utility.yul\":21120:21134   */\n      add\n        /* \"#utility.yul\":21113:21169   */\n      mstore\n        /* \"#utility.yul\":20996:21176   */\n      pop\n      jump\t// out\n        /* \"#utility.yul\":21182:21548   */\n    tag_202:\n        /* \"#utility.yul\":21324:21327   */\n      0x00\n        /* \"#utility.yul\":21345:21412   */\n      tag_419\n        /* \"#utility.yul\":21409:21411   */\n      0x1e\n        /* \"#utility.yul\":21404:21407   */\n      dup4\n        /* \"#utility.yul\":21345:21412   */\n      tag_154\n      jump\t// in\n    tag_419:\n        /* \"#utility.yul\":21338:21412   */\n      swap2\n      pop\n        /* \"#utility.yul\":21421:21514   */\n      tag_420\n        /* \"#utility.yul\":21510:21513   */\n      dup3\n        /* \"#utility.yul\":21421:21514   */\n      tag_201\n      jump\t// in\n    tag_420:\n        /* \"#utility.yul\":21539:21541   */\n      0x20\n        /* \"#utility.yul\":21534:21537   */\n      dup3\n        /* \"#utility.yul\":21530:21542   */\n      add\n        /* \"#utility.yul\":21523:21542   */\n      swap1\n      pop\n        /* \"#utility.yul\":21182:21548   */\n      swap2\n      swap1\n      pop\n      jump\t// out\n        /* \"#utility.yul\":21554:21973   */\n    tag_134:\n        /* \"#utility.yul\":21720:21724   */\n      0x00\n        /* \"#utility.yul\":21758:21760   */\n      0x20\n        /* \"#utility.yul\":21747:21756   */\n      dup3\n        /* \"#utility.yul\":21743:21761   */\n      add\n        /* \"#utility.yul\":21735:21761   */\n      swap1\n      pop\n        /* \"#utility.yul\":21807:21816   */\n      dup2\n        /* \"#utility.yul\":21801:21805   */\n      dup2\n        /* \"#utility.yul\":21797:21817   */\n      sub\n        /* \"#utility.yul\":21793:21794   */\n      0x00\n        /* \"#utility.yul\":21782:21791   */\n      dup4\n        /* \"#utility.yul\":21778:21795   */\n      add\n        /* \"#utility.yul\":21771:21818   */\n      mstore\n        /* \"#utility.yul\":21835:21966   */\n      tag_422\n        /* \"#utility.yul\":21961:21965   */\n      dup2\n        /* \"#utility.yul\":21835:21966   */\n      tag_202\n      jump\t// in\n    tag_422:\n        /* \"#utility.yul\":21827:21966   */\n      swap1\n      pop\n        /* \"#utility.yul\":21554:21973   */\n      swap2\n      swap1\n      pop\n      jump\t// out\n        /* \"#utility.yul\":21979:22205   */\n    tag_203:\n        /* \"#utility.yul\":22119:22153   */\n      0x596f75206861766520616c726561647920617070726f76656420746869732072\n        /* \"#utility.yul\":22115:22116   */\n      0x00\n        /* \"#utility.yul\":22107:22113   */\n      dup3\n        /* \"#utility.yul\":22103:22117   */\n      add\n        /* \"#utility.yul\":22096:22154   */\n      mstore\n        /* \"#utility.yul\":22188:22197   */\n      0x6571756573742e00000000000000000000000000000000000000000000000000\n        /* \"#utility.yul\":22183:22185   */\n      0x20\n        /* \"#utility.yul\":22175:22181   */\n      dup3\n        /* \"#utility.yul\":22171:22186   */\n      add\n        /* \"#utility.yul\":22164:22198   */\n      mstore\n        /* \"#utility.yul\":21979:22205   */\n      pop\n      jump\t// out\n        /* \"#utility.yul\":22211:22577   */\n    tag_204:\n        /* \"#utility.yul\":22353:22356   */\n      0x00\n        /* \"#utility.yul\":22374:22441   */\n      tag_425\n        /* \"#utility.yul\":22438:22440   */\n      0x27\n        /* \"#utility.yul\":22433:22436   */\n      dup4\n        /* \"#utility.yul\":22374:22441   */\n      tag_154\n      jump\t// in\n    tag_425:\n        /* \"#utility.yul\":22367:22441   */\n      swap2\n      pop\n        /* \"#utility.yul\":22450:22543   */\n      tag_426\n        /* \"#utility.yul\":22539:22542   */\n      dup3\n        /* \"#utility.yul\":22450:22543   */\n      tag_203\n      jump\t// in\n    tag_426:\n        /* \"#utility.yul\":22568:22570   */\n      0x40\n        /* \"#utility.yul\":22563:22566   */\n      dup3\n        /* \"#utility.yul\":22559:22571   */\n      add\n        /* \"#utility.yul\":22552:22571   */\n      swap1\n      pop\n        /* \"#utility.yul\":22211:22577   */\n      swap2\n      swap1\n      pop\n      jump\t// out\n        /* \"#utility.yul\":22583:23002   */\n    tag_137:\n        /* \"#utility.yul\":22749:22753   */\n      0x00\n        /* \"#utility.yul\":22787:22789   */\n      0x20\n        /* \"#utility.yul\":22776:22785   */\n      dup3\n        /* \"#utility.yul\":22772:22790   */\n      add\n        /* \"#utility.yul\":22764:22790   */\n      swap1\n      pop\n        /* \"#utility.yul\":22836:22845   */\n      dup2\n        /* \"#utility.yul\":22830:22834   */\n      dup2\n        /* \"#utility.yul\":22826:22846   */\n      sub\n        /* \"#utility.yul\":22822:22823   */\n      0x00\n        /* \"#utility.yul\":22811:22820   */\n      dup4\n        /* \"#utility.yul\":22807:22824   */\n      add\n        /* \"#utility.yul\":22800:22847   */\n      mstore\n        /* \"#utility.yul\":22864:22995   */\n      tag_428\n        /* \"#utility.yul\":22990:22994   */\n      dup2\n        /* \"#utility.yul\":22864:22995   */\n      tag_204\n      jump\t// in\n    tag_428:\n        /* \"#utility.yul\":22856:22995   */\n      swap1\n      pop\n        /* \"#utility.yul\":22583:23002   */\n      swap2\n      swap1\n      pop\n      jump\t// out\n\n    auxdata: 0xa26469706673582212207be6a1b7568bb3502a31fee2aec7228574295c41796e00be196fe5840cfd22a764736f6c634300081c0033\n}\n","bytecode":{"linkReferences":{},"object":"608060405260405161195b38038061195b83398181016040528101906100259190610104565b8060015f6101000a81548173ffffffffffffffffffffffffffffffffffffffff021916908373ffffffffffffffffffffffffffffffffffffffff160217905550816002819055505050610142565b5f5ffd5b5f819050919050565b61008981610077565b8114610093575f5ffd5b50565b5f815190506100a481610080565b92915050565b5f73ffffffffffffffffffffffffffffffffffffffff82169050919050565b5f6100d3826100aa565b9050919050565b6100e3816100c9565b81146100ed575f5ffd5b50565b5f815190506100fe816100da565b92915050565b5f5f6040838503121561011a57610119610073565b5b5f61012785828601610096565b9250506020610138858286016100f0565b9150509250929050565b61180c8061014f5f395ff3fe6080604052600436106100a6575f3560e01c806382fde0931161006357806382fde093146101e15780638a9cfd551461020b578063937e09b114610233578063ab2850da1461025d578063d7bb99ba14610299578063d7d1bbdb146102a3576100a6565b806303441006146100aa5780630a144391146100d25780633410452a1461010e578063481c6a75146101385780636d052b371461016257806381d12c58146101a1575b5f5ffd5b3480156100b5575f5ffd5b506100d060048036038101906100cb9190610c22565b6102cb565b005b3480156100dd575f5ffd5b506100f860048036038101906100f39190610ca7565b6104f5565b6040516101059190610cec565b60405180910390f35b348015610119575f5ffd5b50610122610512565b60405161012f9190610d14565b60405180910390f35b348015610143575f5ffd5b5061014c61051d565b6040516101599190610d3c565b60405180910390f35b34801561016d575f5ffd5b5061018860048036038101906101839190610c22565b610542565b6040516101989493929190610d55565b60405180910390f35b3480156101ac575f5ffd5b506101c760048036038101906101c29190610c22565b6106f0565b6040516101d8959493929190610e28565b60405180910390f35b3480156101ec575f5ffd5b506101f56107e2565b6040516102029190610d14565b60405180910390f35b348015610216575f5ffd5b50610231600480360381019061022c9190610fd6565b6107e8565b005b34801561023e575f5ffd5b506102476108e8565b6040516102549190610d14565b60405180910390f35b348015610268575f5ffd5b50610283600480360381019061027e9190611042565b6108ee565b6040516102909190610cec565b60405180910390f35b6102a1610918565b005b3480156102ae575f5ffd5b506102c960048036038101906102c49190610c22565b610a19565b005b60015f9054906101000a900473ffffffffffffffffffffffffffffffffffffffff1673ffffffffffffffffffffffffffffffffffffffff163373ffffffffffffffffffffffffffffffffffffffff161461035a576040517f08c379a0000000000000000000000000000000000000000000000000000000008152600401610351906110ca565b60405180910390fd5b5f5f828154811061036e5761036d6110e8565b5b905f5260205f209060040201905080600101544710156103c3576040517f08c379a00000000000000000000000000000000000000000000000000000000081526004016103ba9061115f565b60405180910390fd5b60026005546103d291906111d7565b816003015411610417576040517f08c379a000000000000000000000000000000000000000000000000000000000815260040161040e90611251565b60405180910390fd5b8060020160149054906101000a900460ff1615610469576040517f08c379a0000000000000000000000000000000000000000000000000000000008152600401610460906112b9565b60405180910390fd5b806002015f9054906101000a900473ffffffffffffffffffffffffffffffffffffffff1673ffffffffffffffffffffffffffffffffffffffff166108fc826001015490811502906040515f60405180830381858888f193505050501580156104d3573d5f5f3e3d5ffd5b5060018160020160146101000a81548160ff0219169083151502179055505050565b6003602052805f5260405f205f915054906101000a900460ff1681565b5f5f80549050905090565b60015f9054906101000a900473ffffffffffffffffffffffffffffffffffffffff1681565b5f5f5f5f5f80549050851061058c576040517f08c379a000000000000000000000000000000000000000000000000000000000815260040161058390611321565b60405180910390fd5b5f5f86815481106105a05761059f6110e8565b5b905f5260205f2090600402016040518060a00160405290815f820180546105c69061136c565b80601f01602080910402602001604051908101604052809291908181526020018280546105f29061136c565b801561063d5780601f106106145761010080835404028352916020019161063d565b820191905f5260205f20905b81548152906001019060200180831161062057829003601f168201915b5050505050815260200160018201548152602001600282015f9054906101000a900473ffffffffffffffffffffffffffffffffffffffff1673ffffffffffffffffffffffffffffffffffffffff1673ffffffffffffffffffffffffffffffffffffffff1681526020016002820160149054906101000a900460ff16151515158152602001600382015481525050905080602001518160400151826060015183608001519450945094509450509193509193565b5f81815481106106fe575f80fd5b905f5260205f2090600402015f91509050805f01805461071d9061136c565b80601f01602080910402602001604051908101604052809291908181526020018280546107499061136c565b80156107945780601f1061076b57610100808354040283529160200191610794565b820191905f5260205f20905b81548152906001019060200180831161077757829003601f168201915b505050505090806001015490806002015f9054906101000a900473ffffffffffffffffffffffffffffffffffffffff16908060020160149054906101000a900460ff16908060030154905085565b60055481565b5f6040518060a001604052808581526020018481526020018373ffffffffffffffffffffffffffffffffffffffff1681526020015f151581526020015f81525090505f81908060018154018082558091505060019003905f5260205f2090600402015f909190919091505f820151815f019081610865919061153c565b50602082015181600101556040820151816002015f6101000a81548173ffffffffffffffffffffffffffffffffffffffff021916908373ffffffffffffffffffffffffffffffffffffffff16021790555060608201518160020160146101000a81548160ff02191690831515021790555060808201518160030155505050505050565b60025481565b6004602052815f5260405f20602052805f5260405f205f915091509054906101000a900460ff1681565b600254341161095c576040517f08c379a00000000000000000000000000000000000000000000000000000000081526004016109539061167b565b60405180910390fd5b60035f3373ffffffffffffffffffffffffffffffffffffffff1673ffffffffffffffffffffffffffffffffffffffff1681526020019081526020015f205f9054906101000a900460ff16610a1757600160035f3373ffffffffffffffffffffffffffffffffffffffff1673ffffffffffffffffffffffffffffffffffffffff1681526020019081526020015f205f6101000a81548160ff02191690831515021790555060055f815480929190610a1190611699565b91905055505b565b5f5f8281548110610a2d57610a2c6110e8565b5b905f5260205f209060040201905060035f3373ffffffffffffffffffffffffffffffffffffffff1673ffffffffffffffffffffffffffffffffffffffff1681526020019081526020015f205f9054906101000a900460ff16610ac4576040517f08c379a0000000000000000000000000000000000000000000000000000000008152600401610abb9061172a565b60405180910390fd5b60045f8381526020019081526020015f205f3373ffffffffffffffffffffffffffffffffffffffff1673ffffffffffffffffffffffffffffffffffffffff1681526020019081526020015f205f9054906101000a900460ff1615610b5d576040517f08c379a0000000000000000000000000000000000000000000000000000000008152600401610b54906117b8565b60405180910390fd5b600160045f8481526020019081526020015f205f3373ffffffffffffffffffffffffffffffffffffffff1673ffffffffffffffffffffffffffffffffffffffff1681526020019081526020015f205f6101000a81548160ff021916908315150217905550806003015f815480929190610bd590611699565b91905055505050565b5f604051905090565b5f5ffd5b5f5ffd5b5f819050919050565b610c0181610bef565b8114610c0b575f5ffd5b50565b5f81359050610c1c81610bf8565b92915050565b5f60208284031215610c3757610c36610be7565b5b5f610c4484828501610c0e565b91505092915050565b5f73ffffffffffffffffffffffffffffffffffffffff82169050919050565b5f610c7682610c4d565b9050919050565b610c8681610c6c565b8114610c90575f5ffd5b50565b5f81359050610ca181610c7d565b92915050565b5f60208284031215610cbc57610cbb610be7565b5b5f610cc984828501610c93565b91505092915050565b5f8115159050919050565b610ce681610cd2565b82525050565b5f602082019050610cff5f830184610cdd565b92915050565b610d0e81610bef565b82525050565b5f602082019050610d275f830184610d05565b92915050565b610d3681610c6c565b82525050565b5f602082019050610d4f5f830184610d2d565b92915050565b5f608082019050610d685f830187610d05565b610d756020830186610d2d565b610d826040830185610cdd565b610d8f6060830184610d05565b95945050505050565b5f81519050919050565b5f82825260208201905092915050565b8281835e5f83830152505050565b5f601f19601f8301169050919050565b5f610dda82610d98565b610de48185610da2565b9350610df4818560208601610db2565b610dfd81610dc0565b840191505092915050565b5f610e1282610c4d565b9050919050565b610e2281610e08565b82525050565b5f60a0820190508181035f830152610e408188610dd0565b9050610e4f6020830187610d05565b610e5c6040830186610e19565b610e696060830185610cdd565b610e766080830184610d05565b9695505050505050565b5f5ffd5b5f5ffd5b7f4e487b71000000000000000000000000000000000000000000000000000000005f52604160045260245ffd5b610ebe82610dc0565b810181811067ffffffffffffffff82111715610edd57610edc610e88565b5b80604052505050565b5f610eef610bde565b9050610efb8282610eb5565b919050565b5f67ffffffffffffffff821115610f1a57610f19610e88565b5b610f2382610dc0565b9050602081019050919050565b828183375f83830152505050565b5f610f50610f4b84610f00565b610ee6565b905082815260208101848484011115610f6c57610f6b610e84565b5b610f77848285610f30565b509392505050565b5f82601f830112610f9357610f92610e80565b5b8135610fa3848260208601610f3e565b91505092915050565b610fb581610e08565b8114610fbf575f5ffd5b50565b5f81359050610fd081610fac565b92915050565b5f5f5f60608486031215610fed57610fec610be7565b5b5f84013567ffffffffffffffff81111561100a57611009610beb565b5b61101686828701610f7f565b935050602061102786828701610c0e565b925050604061103886828701610fc2565b9150509250925092565b5f5f6040838503121561105857611057610be7565b5b5f61106585828601610c0e565b925050602061107685828601610c93565b9150509250929050565b7f4f6e6c79206d616e616765722063616e206372656174652072657175657374005f82015250565b5f6110b4601f83610da2565b91506110bf82611080565b602082019050919050565b5f6020820190508181035f8301526110e1816110a8565b9050919050565b7f4e487b71000000000000000000000000000000000000000000000000000000005f52603260045260245ffd5b7f496e73756666696369656e7420636f6e74726163742062616c616e63652e00005f82015250565b5f611149601e83610da2565b915061115482611115565b602082019050919050565b5f6020820190508181035f8301526111768161113d565b9050919050565b7f4e487b71000000000000000000000000000000000000000000000000000000005f52601260045260245ffd5b7f4e487b71000000000000000000000000000000000000000000000000000000005f52601160045260245ffd5b5f6111e182610bef565b91506111ec83610bef565b9250826111fc576111fb61117d565b5b828204905092915050565b7f4e6f7420656e6f75676820617070726f76616c732e00000000000000000000005f82015250565b5f61123b601583610da2565b915061124682611207565b602082019050919050565b5f6020820190508181035f8301526112688161122f565b9050919050565b7f5265717565737420697320616c726561647920636f6d706c6574652e000000005f82015250565b5f6112a3601c83610da2565b91506112ae8261126f565b602082019050919050565b5f6020820190508181035f8301526112d081611297565b9050919050565b7f496e76616c6964207265717565737420696e6465782e000000000000000000005f82015250565b5f61130b601683610da2565b9150611316826112d7565b602082019050919050565b5f6020820190508181035f830152611338816112ff565b9050919050565b7f4e487b71000000000000000000000000000000000000000000000000000000005f52602260045260245ffd5b5f600282049050600182168061138357607f821691505b6020821081036113965761139561133f565b5b50919050565b5f819050815f5260205f209050919050565b5f6020601f8301049050919050565b5f82821b905092915050565b5f600883026113f87fffffffffffffffffffffffffffffffffffffffffffffffffffffffffffffffff826113bd565b61140286836113bd565b95508019841693508086168417925050509392505050565b5f819050919050565b5f61143d61143861143384610bef565b61141a565b610bef565b9050919050565b5f819050919050565b61145683611423565b61146a61146282611444565b8484546113c9565b825550505050565b5f5f905090565b611481611472565b61148c81848461144d565b505050565b5b818110156114af576114a45f82611479565b600181019050611492565b5050565b601f8211156114f4576114c58161139c565b6114ce846113ae565b810160208510156114dd578190505b6114f16114e9856113ae565b830182611491565b50505b505050565b5f82821c905092915050565b5f6115145f19846008026114f9565b1980831691505092915050565b5f61152c8383611505565b9150826002028217905092915050565b61154582610d98565b67ffffffffffffffff81111561155e5761155d610e88565b5b611568825461136c565b6115738282856114b3565b5f60209050601f8311600181146115a4575f8415611592578287015190505b61159c8582611521565b865550611603565b601f1984166115b28661139c565b5f5b828110156115d9578489015182556001820191506020850194506020810190506115b4565b868310156115f657848901516115f2601f891682611505565b8355505b6001600288020188555050505b505050505050565b7f436f6e747269627574696f6e206d7573742062652067726561746572207468615f8201527f6e206d696e696d756d20616d6f756e742e000000000000000000000000000000602082015250565b5f611665603183610da2565b91506116708261160b565b604082019050919050565b5f6020820190508181035f83015261169281611659565b9050919050565b5f6116a382610bef565b91507fffffffffffffffffffffffffffffffffffffffffffffffffffffffffffffffff82036116d5576116d46111aa565b5b600182019050919050565b7f4f6e6c7920636f6e7472696275746f72732063616e20617070726f76652e00005f82015250565b5f611714601e83610da2565b915061171f826116e0565b602082019050919050565b5f6020820190508181035f83015261174181611708565b9050919050565b7f596f75206861766520616c726561647920617070726f766564207468697320725f8201527f6571756573742e00000000000000000000000000000000000000000000000000602082015250565b5f6117a2602783610da2565b91506117ad82611748565b604082019050919050565b5f6020820190508181035f8301526117cf81611796565b905091905056fea26469706673582212207be6a1b7568bb3502a31fee2aec7228574295c41796e00be196fe5840cfd22a764736f6c634300081c0033","opcodes":"PUSH1 0x80 PUSH1 0x40 MSTORE PUSH1 0x40 MLOAD PUSH2 0x195B CODESIZE SUB DUP1 PUSH2 0x195B DUP4 CODECOPY DUP2 DUP2 ADD PUSH1 0x40 MSTORE DUP2 ADD SWAP1 PUSH2 0x25 SWAP2 SWAP1 PUSH2 0x104 JUMP JUMPDEST DUP1 PUSH1 0x1 PUSH0 PUSH2 0x100 EXP DUP2 SLOAD DUP2 PUSH20 0xFFFFFFFFFFFFFFFFFFFFFFFFFFFFFFFFFFFFFFFF MUL NOT AND SWAP1 DUP4 PUSH20 0xFFFFFFFFFFFFFFFFFFFFFFFFFFFFFFFFFFFFFFFF AND MUL OR SWAP1 SSTORE POP DUP2 PUSH1 0x2 DUP2 SWAP1 SSTORE POP POP POP PUSH2 0x142 JUMP JUMPDEST PUSH0 PUSH0 REVERT JUMPDEST PUSH0 DUP2 SWAP1 POP SWAP2 SWAP1 POP JUMP JUMPDEST PUSH2 0x89 DUP2 PUSH2 0x77 JUMP JUMPDEST DUP2 EQ PUSH2 0x93 JUMPI PUSH0 PUSH0 REVERT JUMPDEST POP JUMP JUMPDEST PUSH0 DUP2 MLOAD SWAP1 POP PUSH2 0xA4 DUP2 PUSH2 0x80 JUMP JUMPDEST SWAP3 SWAP2 POP POP JUMP JUMPDEST PUSH0 PUSH20 0xFFFFFFFFFFFFFFFFFFFFFFFFFFFFFFFFFFFFFFFF DUP3 AND SWAP1 POP SWAP2 SWAP1 POP JUMP JUMPDEST PUSH0 PUSH2 0xD3 DUP3 PUSH2 0xAA JUMP JUMPDEST SWAP1 POP SWAP2 SWAP1 POP JUMP JUMPDEST PUSH2 0xE3 DUP2 PUSH2 0xC9 JUMP JUMPDEST DUP2 EQ PUSH2 0xED JUMPI PUSH0 PUSH0 REVERT JUMPDEST POP JUMP JUMPDEST PUSH0 DUP2 MLOAD SWAP1 POP PUSH2 0xFE DUP2 PUSH2 0xDA JUMP JUMPDEST SWAP3 SWAP2 POP POP JUMP JUMPDEST PUSH0 PUSH0 PUSH1 0x40 DUP4 DUP6 SUB SLT ISZERO PUSH2 0x11A JUMPI PUSH2 0x119 PUSH2 0x73 JUMP JUMPDEST JUMPDEST PUSH0 PUSH2 0x127 DUP6 DUP3 DUP7 ADD PUSH2 0x96 JUMP JUMPDEST SWAP3 POP POP PUSH1 0x20 PUSH2 0x138 DUP6 DUP3 DUP7 ADD PUSH2 0xF0 JUMP JUMPDEST SWAP2 POP POP SWAP3 POP SWAP3 SWAP1 POP JUMP JUMPDEST PUSH2 0x180C DUP1 PUSH2 0x14F PUSH0 CODECOPY PUSH0 RETURN INVALID PUSH1 0x80 PUSH1 0x40 MSTORE PUSH1 0x4 CALLDATASIZE LT PUSH2 0xA6 JUMPI PUSH0 CALLDATALOAD PUSH1 0xE0 SHR DUP1 PUSH4 0x82FDE093 GT PUSH2 0x63 JUMPI DUP1 PUSH4 0x82FDE093 EQ PUSH2 0x1E1 JUMPI DUP1 PUSH4 0x8A9CFD55 EQ PUSH2 0x20B JUMPI DUP1 PUSH4 0x937E09B1 EQ PUSH2 0x233 JUMPI DUP1 PUSH4 0xAB2850DA EQ PUSH2 0x25D JUMPI DUP1 PUSH4 0xD7BB99BA EQ PUSH2 0x299 JUMPI DUP1 PUSH4 0xD7D1BBDB EQ PUSH2 0x2A3 JUMPI PUSH2 0xA6 JUMP JUMPDEST DUP1 PUSH4 0x3441006 EQ PUSH2 0xAA JUMPI DUP1 PUSH4 0xA144391 EQ PUSH2 0xD2 JUMPI DUP1 PUSH4 0x3410452A EQ PUSH2 0x10E JUMPI DUP1 PUSH4 0x481C6A75 EQ PUSH2 0x138 JUMPI DUP1 PUSH4 0x6D052B37 EQ PUSH2 0x162 JUMPI DUP1 PUSH4 0x81D12C58 EQ PUSH2 0x1A1 JUMPI JUMPDEST PUSH0 PUSH0 REVERT JUMPDEST CALLVALUE DUP1 ISZERO PUSH2 0xB5 JUMPI PUSH0 PUSH0 REVERT JUMPDEST POP PUSH2 0xD0 PUSH1 0x4 DUP1 CALLDATASIZE SUB DUP2 ADD SWAP1 PUSH2 0xCB SWAP2 SWAP1 PUSH2 0xC22 JUMP JUMPDEST PUSH2 0x2CB JUMP JUMPDEST STOP JUMPDEST CALLVALUE DUP1 ISZERO PUSH2 0xDD JUMPI PUSH0 PUSH0 REVERT JUMPDEST POP PUSH2 0xF8 PUSH1 0x4 DUP1 CALLDATASIZE SUB DUP2 ADD SWAP1 PUSH2 0xF3 SWAP2 SWAP1 PUSH2 0xCA7 JUMP JUMPDEST PUSH2 0x4F5 JUMP JUMPDEST PUSH1 0x40 MLOAD PUSH2 0x105 SWAP2 SWAP1 PUSH2 0xCEC JUMP JUMPDEST PUSH1 0x40 MLOAD DUP1 SWAP2 SUB SWAP1 RETURN JUMPDEST CALLVALUE DUP1 ISZERO PUSH2 0x119 JUMPI PUSH0 PUSH0 REVERT JUMPDEST POP PUSH2 0x122 PUSH2 0x512 JUMP JUMPDEST PUSH1 0x40 MLOAD PUSH2 0x12F SWAP2 SWAP1 PUSH2 0xD14 JUMP JUMPDEST PUSH1 0x40 MLOAD DUP1 SWAP2 SUB SWAP1 RETURN JUMPDEST CALLVALUE DUP1 ISZERO PUSH2 0x143 JUMPI PUSH0 PUSH0 REVERT JUMPDEST POP PUSH2 0x14C PUSH2 0x51D JUMP JUMPDEST PUSH1 0x40 MLOAD PUSH2 0x159 SWAP2 SWAP1 PUSH2 0xD3C JUMP JUMPDEST PUSH1 0x40 MLOAD DUP1 SWAP2 SUB SWAP1 RETURN JUMPDEST CALLVALUE DUP1 ISZERO PUSH2 0x16D JUMPI PUSH0 PUSH0 REVERT JUMPDEST POP PUSH2 0x188 PUSH1 0x4 DUP1 CALLDATASIZE SUB DUP2 ADD SWAP1 PUSH2 0x183 SWAP2 SWAP1 PUSH2 0xC22 JUMP JUMPDEST PUSH2 0x542 JUMP JUMPDEST PUSH1 0x40 MLOAD PUSH2 0x198 SWAP5 SWAP4 SWAP3 SWAP2 SWAP1 PUSH2 0xD55 JUMP JUMPDEST PUSH1 0x40 MLOAD DUP1 SWAP2 SUB SWAP1 RETURN JUMPDEST CALLVALUE DUP1 ISZERO PUSH2 0x1AC JUMPI PUSH0 PUSH0 REVERT JUMPDEST POP PUSH2 0x1C7 PUSH1 0x4 DUP1 CALLDATASIZE SUB DUP2 ADD SWAP1 PUSH2 0x1C2 SWAP2 SWAP1 PUSH2 0xC22 JUMP JUMPDEST PUSH2 0x6F0 JUMP JUMPDEST PUSH1 0x40 MLOAD PUSH2 0x1D8 SWAP6 SWAP5 SWAP4 SWAP3 SWAP2 SWAP1 PUSH2 0xE28 JUMP JUMPDEST PUSH1 0x40 MLOAD DUP1 SWAP2 SUB SWAP1 RETURN JUMPDEST CALLVALUE DUP1 ISZERO PUSH2 0x1EC JUMPI PUSH0 PUSH0 REVERT JUMPDEST POP PUSH2 0x1F5 PUSH2 0x7E2 JUMP JUMPDEST PUSH1 0x40 MLOAD PUSH2 0x202 SWAP2 SWAP1 PUSH2 0xD14 JUMP JUMPDEST PUSH1 0x40 MLOAD DUP1 SWAP2 SUB SWAP1 RETURN JUMPDEST CALLVALUE DUP1 ISZERO PUSH2 0x216 JUMPI PUSH0 PUSH0 REVERT JUMPDEST POP PUSH2 0x231 PUSH1 0x4 DUP1 CALLDATASIZE SUB DUP2 ADD SWAP1 PUSH2 0x22C SWAP2 SWAP1 PUSH2 0xFD6 JUMP JUMPDEST PUSH2 0x7E8 JUMP JUMPDEST STOP JUMPDEST CALLVALUE DUP1 ISZERO PUSH2 0x23E JUMPI PUSH0 PUSH0 REVERT JUMPDEST POP PUSH2 0x247 PUSH2 0x8E8 JUMP JUMPDEST PUSH1 0x40 MLOAD PUSH2 0x254 SWAP2 SWAP1 PUSH2 0xD14 JUMP JUMPDEST PUSH1 0x40 MLOAD DUP1 SWAP2 SUB SWAP1 RETURN JUMPDEST CALLVALUE DUP1 ISZERO PUSH2 0x268 JUMPI PUSH0 PUSH0 REVERT JUMPDEST POP PUSH2 0x283 PUSH1 0x4 DUP1 CALLDATASIZE SUB DUP2 ADD SWAP1 PUSH2 0x27E SWAP2 SWAP1 PUSH2 0x1042 JUMP JUMPDEST PUSH2 0x8EE JUMP JUMPDEST PUSH1 0x40 MLOAD PUSH2 0x290 SWAP2 SWAP1 PUSH2 0xCEC JUMP JUMPDEST PUSH1 0x40 MLOAD DUP1 SWAP2 SUB SWAP1 RETURN JUMPDEST PUSH2 0x2A1 PUSH2 0x918 JUMP JUMPDEST STOP JUMPDEST CALLVALUE DUP1 ISZERO PUSH2 0x2AE JUMPI PUSH0 PUSH0 REVERT JUMPDEST POP PUSH2 0x2C9 PUSH1 0x4 DUP1 CALLDATASIZE SUB DUP2 ADD SWAP1 PUSH2 0x2C4 SWAP2 SWAP1 PUSH2 0xC22 JUMP JUMPDEST PUSH2 0xA19 JUMP JUMPDEST STOP JUMPDEST PUSH1 0x1 PUSH0 SWAP1 SLOAD SWAP1 PUSH2 0x100 EXP SWAP1 DIV PUSH20 0xFFFFFFFFFFFFFFFFFFFFFFFFFFFFFFFFFFFFFFFF AND PUSH20 0xFFFFFFFFFFFFFFFFFFFFFFFFFFFFFFFFFFFFFFFF AND CALLER PUSH20 0xFFFFFFFFFFFFFFFFFFFFFFFFFFFFFFFFFFFFFFFF AND EQ PUSH2 0x35A JUMPI PUSH1 0x40 MLOAD PUSH32 0x8C379A000000000000000000000000000000000000000000000000000000000 DUP2 MSTORE PUSH1 0x4 ADD PUSH2 0x351 SWAP1 PUSH2 0x10CA JUMP JUMPDEST PUSH1 0x40 MLOAD DUP1 SWAP2 SUB SWAP1 REVERT JUMPDEST PUSH0 PUSH0 DUP3 DUP2 SLOAD DUP2 LT PUSH2 0x36E JUMPI PUSH2 0x36D PUSH2 0x10E8 JUMP JUMPDEST JUMPDEST SWAP1 PUSH0 MSTORE PUSH1 0x20 PUSH0 KECCAK256 SWAP1 PUSH1 0x4 MUL ADD SWAP1 POP DUP1 PUSH1 0x1 ADD SLOAD SELFBALANCE LT ISZERO PUSH2 0x3C3 JUMPI PUSH1 0x40 MLOAD PUSH32 0x8C379A000000000000000000000000000000000000000000000000000000000 DUP2 MSTORE PUSH1 0x4 ADD PUSH2 0x3BA SWAP1 PUSH2 0x115F JUMP JUMPDEST PUSH1 0x40 MLOAD DUP1 SWAP2 SUB SWAP1 REVERT JUMPDEST PUSH1 0x2 PUSH1 0x5 SLOAD PUSH2 0x3D2 SWAP2 SWAP1 PUSH2 0x11D7 JUMP JUMPDEST DUP2 PUSH1 0x3 ADD SLOAD GT PUSH2 0x417 JUMPI PUSH1 0x40 MLOAD PUSH32 0x8C379A000000000000000000000000000000000000000000000000000000000 DUP2 MSTORE PUSH1 0x4 ADD PUSH2 0x40E SWAP1 PUSH2 0x1251 JUMP JUMPDEST PUSH1 0x40 MLOAD DUP1 SWAP2 SUB SWAP1 REVERT JUMPDEST DUP1 PUSH1 0x2 ADD PUSH1 0x14 SWAP1 SLOAD SWAP1 PUSH2 0x100 EXP SWAP1 DIV PUSH1 0xFF AND ISZERO PUSH2 0x469 JUMPI PUSH1 0x40 MLOAD PUSH32 0x8C379A000000000000000000000000000000000000000000000000000000000 DUP2 MSTORE PUSH1 0x4 ADD PUSH2 0x460 SWAP1 PUSH2 0x12B9 JUMP JUMPDEST PUSH1 0x40 MLOAD DUP1 SWAP2 SUB SWAP1 REVERT JUMPDEST DUP1 PUSH1 0x2 ADD PUSH0 SWAP1 SLOAD SWAP1 PUSH2 0x100 EXP SWAP1 DIV PUSH20 0xFFFFFFFFFFFFFFFFFFFFFFFFFFFFFFFFFFFFFFFF AND PUSH20 0xFFFFFFFFFFFFFFFFFFFFFFFFFFFFFFFFFFFFFFFF AND PUSH2 0x8FC DUP3 PUSH1 0x1 ADD SLOAD SWAP1 DUP2 ISZERO MUL SWAP1 PUSH1 0x40 MLOAD PUSH0 PUSH1 0x40 MLOAD DUP1 DUP4 SUB DUP2 DUP6 DUP9 DUP9 CALL SWAP4 POP POP POP POP ISZERO DUP1 ISZERO PUSH2 0x4D3 JUMPI RETURNDATASIZE PUSH0 PUSH0 RETURNDATACOPY RETURNDATASIZE PUSH0 REVERT JUMPDEST POP PUSH1 0x1 DUP2 PUSH1 0x2 ADD PUSH1 0x14 PUSH2 0x100 EXP DUP2 SLOAD DUP2 PUSH1 0xFF MUL NOT AND SWAP1 DUP4 ISZERO ISZERO MUL OR SWAP1 SSTORE POP POP POP JUMP JUMPDEST PUSH1 0x3 PUSH1 0x20 MSTORE DUP1 PUSH0 MSTORE PUSH1 0x40 PUSH0 KECCAK256 PUSH0 SWAP2 POP SLOAD SWAP1 PUSH2 0x100 EXP SWAP1 DIV PUSH1 0xFF AND DUP2 JUMP JUMPDEST PUSH0 PUSH0 DUP1 SLOAD SWAP1 POP SWAP1 POP SWAP1 JUMP JUMPDEST PUSH1 0x1 PUSH0 SWAP1 SLOAD SWAP1 PUSH2 0x100 EXP SWAP1 DIV PUSH20 0xFFFFFFFFFFFFFFFFFFFFFFFFFFFFFFFFFFFFFFFF AND DUP2 JUMP JUMPDEST PUSH0 PUSH0 PUSH0 PUSH0 PUSH0 DUP1 SLOAD SWAP1 POP DUP6 LT PUSH2 0x58C JUMPI PUSH1 0x40 MLOAD PUSH32 0x8C379A000000000000000000000000000000000000000000000000000000000 DUP2 MSTORE PUSH1 0x4 ADD PUSH2 0x583 SWAP1 PUSH2 0x1321 JUMP JUMPDEST PUSH1 0x40 MLOAD DUP1 SWAP2 SUB SWAP1 REVERT JUMPDEST PUSH0 PUSH0 DUP7 DUP2 SLOAD DUP2 LT PUSH2 0x5A0 JUMPI PUSH2 0x59F PUSH2 0x10E8 JUMP JUMPDEST JUMPDEST SWAP1 PUSH0 MSTORE PUSH1 0x20 PUSH0 KECCAK256 SWAP1 PUSH1 0x4 MUL ADD PUSH1 0x40 MLOAD DUP1 PUSH1 0xA0 ADD PUSH1 0x40 MSTORE SWAP1 DUP2 PUSH0 DUP3 ADD DUP1 SLOAD PUSH2 0x5C6 SWAP1 PUSH2 0x136C JUMP JUMPDEST DUP1 PUSH1 0x1F ADD PUSH1 0x20 DUP1 SWAP2 DIV MUL PUSH1 0x20 ADD PUSH1 0x40 MLOAD SWAP1 DUP2 ADD PUSH1 0x40 MSTORE DUP1 SWAP3 SWAP2 SWAP1 DUP2 DUP2 MSTORE PUSH1 0x20 ADD DUP3 DUP1 SLOAD PUSH2 0x5F2 SWAP1 PUSH2 0x136C JUMP JUMPDEST DUP1 ISZERO PUSH2 0x63D JUMPI DUP1 PUSH1 0x1F LT PUSH2 0x614 JUMPI PUSH2 0x100 DUP1 DUP4 SLOAD DIV MUL DUP4 MSTORE SWAP2 PUSH1 0x20 ADD SWAP2 PUSH2 0x63D JUMP JUMPDEST DUP3 ADD SWAP2 SWAP1 PUSH0 MSTORE PUSH1 0x20 PUSH0 KECCAK256 SWAP1 JUMPDEST DUP2 SLOAD DUP2 MSTORE SWAP1 PUSH1 0x1 ADD SWAP1 PUSH1 0x20 ADD DUP1 DUP4 GT PUSH2 0x620 JUMPI DUP3 SWAP1 SUB PUSH1 0x1F AND DUP3 ADD SWAP2 JUMPDEST POP POP POP POP POP DUP2 MSTORE PUSH1 0x20 ADD PUSH1 0x1 DUP3 ADD SLOAD DUP2 MSTORE PUSH1 0x20 ADD PUSH1 0x2 DUP3 ADD PUSH0 SWAP1 SLOAD SWAP1 PUSH2 0x100 EXP SWAP1 DIV PUSH20 0xFFFFFFFFFFFFFFFFFFFFFFFFFFFFFFFFFFFFFFFF AND PUSH20 0xFFFFFFFFFFFFFFFFFFFFFFFFFFFFFFFFFFFFFFFF AND PUSH20 0xFFFFFFFFFFFFFFFFFFFFFFFFFFFFFFFFFFFFFFFF AND DUP2 MSTORE PUSH1 0x20 ADD PUSH1 0x2 DUP3 ADD PUSH1 0x14 SWAP1 SLOAD SWAP1 PUSH2 0x100 EXP SWAP1 DIV PUSH1 0xFF AND ISZERO ISZERO ISZERO ISZERO DUP2 MSTORE PUSH1 0x20 ADD PUSH1 0x3 DUP3 ADD SLOAD DUP2 MSTORE POP POP SWAP1 POP DUP1 PUSH1 0x20 ADD MLOAD DUP2 PUSH1 0x40 ADD MLOAD DUP3 PUSH1 0x60 ADD MLOAD DUP4 PUSH1 0x80 ADD MLOAD SWAP5 POP SWAP5 POP SWAP5 POP SWAP5 POP POP SWAP2 SWAP4 POP SWAP2 SWAP4 JUMP JUMPDEST PUSH0 DUP2 DUP2 SLOAD DUP2 LT PUSH2 0x6FE JUMPI PUSH0 DUP1 REVERT JUMPDEST SWAP1 PUSH0 MSTORE PUSH1 0x20 PUSH0 KECCAK256 SWAP1 PUSH1 0x4 MUL ADD PUSH0 SWAP2 POP SWAP1 POP DUP1 PUSH0 ADD DUP1 SLOAD PUSH2 0x71D SWAP1 PUSH2 0x136C JUMP JUMPDEST DUP1 PUSH1 0x1F ADD PUSH1 0x20 DUP1 SWAP2 DIV MUL PUSH1 0x20 ADD PUSH1 0x40 MLOAD SWAP1 DUP2 ADD PUSH1 0x40 MSTORE DUP1 SWAP3 SWAP2 SWAP1 DUP2 DUP2 MSTORE PUSH1 0x20 ADD DUP3 DUP1 SLOAD PUSH2 0x749 SWAP1 PUSH2 0x136C JUMP JUMPDEST DUP1 ISZERO PUSH2 0x794 JUMPI DUP1 PUSH1 0x1F LT PUSH2 0x76B JUMPI PUSH2 0x100 DUP1 DUP4 SLOAD DIV MUL DUP4 MSTORE SWAP2 PUSH1 0x20 ADD SWAP2 PUSH2 0x794 JUMP JUMPDEST DUP3 ADD SWAP2 SWAP1 PUSH0 MSTORE PUSH1 0x20 PUSH0 KECCAK256 SWAP1 JUMPDEST DUP2 SLOAD DUP2 MSTORE SWAP1 PUSH1 0x1 ADD SWAP1 PUSH1 0x20 ADD DUP1 DUP4 GT PUSH2 0x777 JUMPI DUP3 SWAP1 SUB PUSH1 0x1F AND DUP3 ADD SWAP2 JUMPDEST POP POP POP POP POP SWAP1 DUP1 PUSH1 0x1 ADD SLOAD SWAP1 DUP1 PUSH1 0x2 ADD PUSH0 SWAP1 SLOAD SWAP1 PUSH2 0x100 EXP SWAP1 DIV PUSH20 0xFFFFFFFFFFFFFFFFFFFFFFFFFFFFFFFFFFFFFFFF AND SWAP1 DUP1 PUSH1 0x2 ADD PUSH1 0x14 SWAP1 SLOAD SWAP1 PUSH2 0x100 EXP SWAP1 DIV PUSH1 0xFF AND SWAP1 DUP1 PUSH1 0x3 ADD SLOAD SWAP1 POP DUP6 JUMP JUMPDEST PUSH1 0x5 SLOAD DUP2 JUMP JUMPDEST PUSH0 PUSH1 0x40 MLOAD DUP1 PUSH1 0xA0 ADD PUSH1 0x40 MSTORE DUP1 DUP6 DUP2 MSTORE PUSH1 0x20 ADD DUP5 DUP2 MSTORE PUSH1 0x20 ADD DUP4 PUSH20 0xFFFFFFFFFFFFFFFFFFFFFFFFFFFFFFFFFFFFFFFF AND DUP2 MSTORE PUSH1 0x20 ADD PUSH0 ISZERO ISZERO DUP2 MSTORE PUSH1 0x20 ADD PUSH0 DUP2 MSTORE POP SWAP1 POP PUSH0 DUP2 SWAP1 DUP1 PUSH1 0x1 DUP2 SLOAD ADD DUP1 DUP3 SSTORE DUP1 SWAP2 POP POP PUSH1 0x1 SWAP1 SUB SWAP1 PUSH0 MSTORE PUSH1 0x20 PUSH0 KECCAK256 SWAP1 PUSH1 0x4 MUL ADD PUSH0 SWAP1 SWAP2 SWAP1 SWAP2 SWAP1 SWAP2 POP PUSH0 DUP3 ADD MLOAD DUP2 PUSH0 ADD SWAP1 DUP2 PUSH2 0x865 SWAP2 SWAP1 PUSH2 0x153C JUMP JUMPDEST POP PUSH1 0x20 DUP3 ADD MLOAD DUP2 PUSH1 0x1 ADD SSTORE PUSH1 0x40 DUP3 ADD MLOAD DUP2 PUSH1 0x2 ADD PUSH0 PUSH2 0x100 EXP DUP2 SLOAD DUP2 PUSH20 0xFFFFFFFFFFFFFFFFFFFFFFFFFFFFFFFFFFFFFFFF MUL NOT AND SWAP1 DUP4 PUSH20 0xFFFFFFFFFFFFFFFFFFFFFFFFFFFFFFFFFFFFFFFF AND MUL OR SWAP1 SSTORE POP PUSH1 0x60 DUP3 ADD MLOAD DUP2 PUSH1 0x2 ADD PUSH1 0x14 PUSH2 0x100 EXP DUP2 SLOAD DUP2 PUSH1 0xFF MUL NOT AND SWAP1 DUP4 ISZERO ISZERO MUL OR SWAP1 SSTORE POP PUSH1 0x80 DUP3 ADD MLOAD DUP2 PUSH1 0x3 ADD SSTORE POP POP POP POP POP POP JUMP JUMPDEST PUSH1 0x2 SLOAD DUP2 JUMP JUMPDEST PUSH1 0x4 PUSH1 0x20 MSTORE DUP2 PUSH0 MSTORE PUSH1 0x40 PUSH0 KECCAK256 PUSH1 0x20 MSTORE DUP1 PUSH0 MSTORE PUSH1 0x40 PUSH0 KECCAK256 PUSH0 SWAP2 POP SWAP2 POP SWAP1 SLOAD SWAP1 PUSH2 0x100 EXP SWAP1 DIV PUSH1 0xFF AND DUP2 JUMP JUMPDEST PUSH1 0x2 SLOAD CALLVALUE GT PUSH2 0x95C JUMPI PUSH1 0x40 MLOAD PUSH32 0x8C379A000000000000000000000000000000000000000000000000000000000 DUP2 MSTORE PUSH1 0x4 ADD PUSH2 0x953 SWAP1 PUSH2 0x167B JUMP JUMPDEST PUSH1 0x40 MLOAD DUP1 SWAP2 SUB SWAP1 REVERT JUMPDEST PUSH1 0x3 PUSH0 CALLER PUSH20 0xFFFFFFFFFFFFFFFFFFFFFFFFFFFFFFFFFFFFFFFF AND PUSH20 0xFFFFFFFFFFFFFFFFFFFFFFFFFFFFFFFFFFFFFFFF AND DUP2 MSTORE PUSH1 0x20 ADD SWAP1 DUP2 MSTORE PUSH1 0x20 ADD PUSH0 KECCAK256 PUSH0 SWAP1 SLOAD SWAP1 PUSH2 0x100 EXP SWAP1 DIV PUSH1 0xFF AND PUSH2 0xA17 JUMPI PUSH1 0x1 PUSH1 0x3 PUSH0 CALLER PUSH20 0xFFFFFFFFFFFFFFFFFFFFFFFFFFFFFFFFFFFFFFFF AND PUSH20 0xFFFFFFFFFFFFFFFFFFFFFFFFFFFFFFFFFFFFFFFF AND DUP2 MSTORE PUSH1 0x20 ADD SWAP1 DUP2 MSTORE PUSH1 0x20 ADD PUSH0 KECCAK256 PUSH0 PUSH2 0x100 EXP DUP2 SLOAD DUP2 PUSH1 0xFF MUL NOT AND SWAP1 DUP4 ISZERO ISZERO MUL OR SWAP1 SSTORE POP PUSH1 0x5 PUSH0 DUP2 SLOAD DUP1 SWAP3 SWAP2 SWAP1 PUSH2 0xA11 SWAP1 PUSH2 0x1699 JUMP JUMPDEST SWAP2 SWAP1 POP SSTORE POP JUMPDEST JUMP JUMPDEST PUSH0 PUSH0 DUP3 DUP2 SLOAD DUP2 LT PUSH2 0xA2D JUMPI PUSH2 0xA2C PUSH2 0x10E8 JUMP JUMPDEST JUMPDEST SWAP1 PUSH0 MSTORE PUSH1 0x20 PUSH0 KECCAK256 SWAP1 PUSH1 0x4 MUL ADD SWAP1 POP PUSH1 0x3 PUSH0 CALLER PUSH20 0xFFFFFFFFFFFFFFFFFFFFFFFFFFFFFFFFFFFFFFFF AND PUSH20 0xFFFFFFFFFFFFFFFFFFFFFFFFFFFFFFFFFFFFFFFF AND DUP2 MSTORE PUSH1 0x20 ADD SWAP1 DUP2 MSTORE PUSH1 0x20 ADD PUSH0 KECCAK256 PUSH0 SWAP1 SLOAD SWAP1 PUSH2 0x100 EXP SWAP1 DIV PUSH1 0xFF AND PUSH2 0xAC4 JUMPI PUSH1 0x40 MLOAD PUSH32 0x8C379A000000000000000000000000000000000000000000000000000000000 DUP2 MSTORE PUSH1 0x4 ADD PUSH2 0xABB SWAP1 PUSH2 0x172A JUMP JUMPDEST PUSH1 0x40 MLOAD DUP1 SWAP2 SUB SWAP1 REVERT JUMPDEST PUSH1 0x4 PUSH0 DUP4 DUP2 MSTORE PUSH1 0x20 ADD SWAP1 DUP2 MSTORE PUSH1 0x20 ADD PUSH0 KECCAK256 PUSH0 CALLER PUSH20 0xFFFFFFFFFFFFFFFFFFFFFFFFFFFFFFFFFFFFFFFF AND PUSH20 0xFFFFFFFFFFFFFFFFFFFFFFFFFFFFFFFFFFFFFFFF AND DUP2 MSTORE PUSH1 0x20 ADD SWAP1 DUP2 MSTORE PUSH1 0x20 ADD PUSH0 KECCAK256 PUSH0 SWAP1 SLOAD SWAP1 PUSH2 0x100 EXP SWAP1 DIV PUSH1 0xFF AND ISZERO PUSH2 0xB5D JUMPI PUSH1 0x40 MLOAD PUSH32 0x8C379A000000000000000000000000000000000000000000000000000000000 DUP2 MSTORE PUSH1 0x4 ADD PUSH2 0xB54 SWAP1 PUSH2 0x17B8 JUMP JUMPDEST PUSH1 0x40 MLOAD DUP1 SWAP2 SUB SWAP1 REVERT JUMPDEST PUSH1 0x1 PUSH1 0x4 PUSH0 DUP5 DUP2 MSTORE PUSH1 0x20 ADD SWAP1 DUP2 MSTORE PUSH1 0x20 ADD PUSH0 KECCAK256 PUSH0 CALLER PUSH20 0xFFFFFFFFFFFFFFFFFFFFFFFFFFFFFFFFFFFFFFFF AND PUSH20 0xFFFFFFFFFFFFFFFFFFFFFFFFFFFFFFFFFFFFFFFF AND DUP2 MSTORE PUSH1 0x20 ADD SWAP1 DUP2 MSTORE PUSH1 0x20 ADD PUSH0 KECCAK256 PUSH0 PUSH2 0x100 EXP DUP2 SLOAD DUP2 PUSH1 0xFF MUL NOT AND SWAP1 DUP4 ISZERO ISZERO MUL OR SWAP1 SSTORE POP DUP1 PUSH1 0x3 ADD PUSH0 DUP2 SLOAD DUP1 SWAP3 SWAP2 SWAP1 PUSH2 0xBD5 SWAP1 PUSH2 0x1699 JUMP JUMPDEST SWAP2 SWAP1 POP SSTORE POP POP POP JUMP JUMPDEST PUSH0 PUSH1 0x40 MLOAD SWAP1 POP SWAP1 JUMP JUMPDEST PUSH0 PUSH0 REVERT JUMPDEST PUSH0 PUSH0 REVERT JUMPDEST PUSH0 DUP2 SWAP1 POP SWAP2 SWAP1 POP JUMP JUMPDEST PUSH2 0xC01 DUP2 PUSH2 0xBEF JUMP JUMPDEST DUP2 EQ PUSH2 0xC0B JUMPI PUSH0 PUSH0 REVERT JUMPDEST POP JUMP JUMPDEST PUSH0 DUP2 CALLDATALOAD SWAP1 POP PUSH2 0xC1C DUP2 PUSH2 0xBF8 JUMP JUMPDEST SWAP3 SWAP2 POP POP JUMP JUMPDEST PUSH0 PUSH1 0x20 DUP3 DUP5 SUB SLT ISZERO PUSH2 0xC37 JUMPI PUSH2 0xC36 PUSH2 0xBE7 JUMP JUMPDEST JUMPDEST PUSH0 PUSH2 0xC44 DUP5 DUP3 DUP6 ADD PUSH2 0xC0E JUMP JUMPDEST SWAP2 POP POP SWAP3 SWAP2 POP POP JUMP JUMPDEST PUSH0 PUSH20 0xFFFFFFFFFFFFFFFFFFFFFFFFFFFFFFFFFFFFFFFF DUP3 AND SWAP1 POP SWAP2 SWAP1 POP JUMP JUMPDEST PUSH0 PUSH2 0xC76 DUP3 PUSH2 0xC4D JUMP JUMPDEST SWAP1 POP SWAP2 SWAP1 POP JUMP JUMPDEST PUSH2 0xC86 DUP2 PUSH2 0xC6C JUMP JUMPDEST DUP2 EQ PUSH2 0xC90 JUMPI PUSH0 PUSH0 REVERT JUMPDEST POP JUMP JUMPDEST PUSH0 DUP2 CALLDATALOAD SWAP1 POP PUSH2 0xCA1 DUP2 PUSH2 0xC7D JUMP JUMPDEST SWAP3 SWAP2 POP POP JUMP JUMPDEST PUSH0 PUSH1 0x20 DUP3 DUP5 SUB SLT ISZERO PUSH2 0xCBC JUMPI PUSH2 0xCBB PUSH2 0xBE7 JUMP JUMPDEST JUMPDEST PUSH0 PUSH2 0xCC9 DUP5 DUP3 DUP6 ADD PUSH2 0xC93 JUMP JUMPDEST SWAP2 POP POP SWAP3 SWAP2 POP POP JUMP JUMPDEST PUSH0 DUP2 ISZERO ISZERO SWAP1 POP SWAP2 SWAP1 POP JUMP JUMPDEST PUSH2 0xCE6 DUP2 PUSH2 0xCD2 JUMP JUMPDEST DUP3 MSTORE POP POP JUMP JUMPDEST PUSH0 PUSH1 0x20 DUP3 ADD SWAP1 POP PUSH2 0xCFF PUSH0 DUP4 ADD DUP5 PUSH2 0xCDD JUMP JUMPDEST SWAP3 SWAP2 POP POP JUMP JUMPDEST PUSH2 0xD0E DUP2 PUSH2 0xBEF JUMP JUMPDEST DUP3 MSTORE POP POP JUMP JUMPDEST PUSH0 PUSH1 0x20 DUP3 ADD SWAP1 POP PUSH2 0xD27 PUSH0 DUP4 ADD DUP5 PUSH2 0xD05 JUMP JUMPDEST SWAP3 SWAP2 POP POP JUMP JUMPDEST PUSH2 0xD36 DUP2 PUSH2 0xC6C JUMP JUMPDEST DUP3 MSTORE POP POP JUMP JUMPDEST PUSH0 PUSH1 0x20 DUP3 ADD SWAP1 POP PUSH2 0xD4F PUSH0 DUP4 ADD DUP5 PUSH2 0xD2D JUMP JUMPDEST SWAP3 SWAP2 POP POP JUMP JUMPDEST PUSH0 PUSH1 0x80 DUP3 ADD SWAP1 POP PUSH2 0xD68 PUSH0 DUP4 ADD DUP8 PUSH2 0xD05 JUMP JUMPDEST PUSH2 0xD75 PUSH1 0x20 DUP4 ADD DUP7 PUSH2 0xD2D JUMP JUMPDEST PUSH2 0xD82 PUSH1 0x40 DUP4 ADD DUP6 PUSH2 0xCDD JUMP JUMPDEST PUSH2 0xD8F PUSH1 0x60 DUP4 ADD DUP5 PUSH2 0xD05 JUMP JUMPDEST SWAP6 SWAP5 POP POP POP POP POP JUMP JUMPDEST PUSH0 DUP2 MLOAD SWAP1 POP SWAP2 SWAP1 POP JUMP JUMPDEST PUSH0 DUP3 DUP3 MSTORE PUSH1 0x20 DUP3 ADD SWAP1 POP SWAP3 SWAP2 POP POP JUMP JUMPDEST DUP3 DUP2 DUP4 MCOPY PUSH0 DUP4 DUP4 ADD MSTORE POP POP POP JUMP JUMPDEST PUSH0 PUSH1 0x1F NOT PUSH1 0x1F DUP4 ADD AND SWAP1 POP SWAP2 SWAP1 POP JUMP JUMPDEST PUSH0 PUSH2 0xDDA DUP3 PUSH2 0xD98 JUMP JUMPDEST PUSH2 0xDE4 DUP2 DUP6 PUSH2 0xDA2 JUMP JUMPDEST SWAP4 POP PUSH2 0xDF4 DUP2 DUP6 PUSH1 0x20 DUP7 ADD PUSH2 0xDB2 JUMP JUMPDEST PUSH2 0xDFD DUP2 PUSH2 0xDC0 JUMP JUMPDEST DUP5 ADD SWAP2 POP POP SWAP3 SWAP2 POP POP JUMP JUMPDEST PUSH0 PUSH2 0xE12 DUP3 PUSH2 0xC4D JUMP JUMPDEST SWAP1 POP SWAP2 SWAP1 POP JUMP JUMPDEST PUSH2 0xE22 DUP2 PUSH2 0xE08 JUMP JUMPDEST DUP3 MSTORE POP POP JUMP JUMPDEST PUSH0 PUSH1 0xA0 DUP3 ADD SWAP1 POP DUP2 DUP2 SUB PUSH0 DUP4 ADD MSTORE PUSH2 0xE40 DUP2 DUP9 PUSH2 0xDD0 JUMP JUMPDEST SWAP1 POP PUSH2 0xE4F PUSH1 0x20 DUP4 ADD DUP8 PUSH2 0xD05 JUMP JUMPDEST PUSH2 0xE5C PUSH1 0x40 DUP4 ADD DUP7 PUSH2 0xE19 JUMP JUMPDEST PUSH2 0xE69 PUSH1 0x60 DUP4 ADD DUP6 PUSH2 0xCDD JUMP JUMPDEST PUSH2 0xE76 PUSH1 0x80 DUP4 ADD DUP5 PUSH2 0xD05 JUMP JUMPDEST SWAP7 SWAP6 POP POP POP POP POP POP JUMP JUMPDEST PUSH0 PUSH0 REVERT JUMPDEST PUSH0 PUSH0 REVERT JUMPDEST PUSH32 0x4E487B7100000000000000000000000000000000000000000000000000000000 PUSH0 MSTORE PUSH1 0x41 PUSH1 0x4 MSTORE PUSH1 0x24 PUSH0 REVERT JUMPDEST PUSH2 0xEBE DUP3 PUSH2 0xDC0 JUMP JUMPDEST DUP2 ADD DUP2 DUP2 LT PUSH8 0xFFFFFFFFFFFFFFFF DUP3 GT OR ISZERO PUSH2 0xEDD JUMPI PUSH2 0xEDC PUSH2 0xE88 JUMP JUMPDEST JUMPDEST DUP1 PUSH1 0x40 MSTORE POP POP POP JUMP JUMPDEST PUSH0 PUSH2 0xEEF PUSH2 0xBDE JUMP JUMPDEST SWAP1 POP PUSH2 0xEFB DUP3 DUP3 PUSH2 0xEB5 JUMP JUMPDEST SWAP2 SWAP1 POP JUMP JUMPDEST PUSH0 PUSH8 0xFFFFFFFFFFFFFFFF DUP3 GT ISZERO PUSH2 0xF1A JUMPI PUSH2 0xF19 PUSH2 0xE88 JUMP JUMPDEST JUMPDEST PUSH2 0xF23 DUP3 PUSH2 0xDC0 JUMP JUMPDEST SWAP1 POP PUSH1 0x20 DUP2 ADD SWAP1 POP SWAP2 SWAP1 POP JUMP JUMPDEST DUP3 DUP2 DUP4 CALLDATACOPY PUSH0 DUP4 DUP4 ADD MSTORE POP POP POP JUMP JUMPDEST PUSH0 PUSH2 0xF50 PUSH2 0xF4B DUP5 PUSH2 0xF00 JUMP JUMPDEST PUSH2 0xEE6 JUMP JUMPDEST SWAP1 POP DUP3 DUP2 MSTORE PUSH1 0x20 DUP2 ADD DUP5 DUP5 DUP5 ADD GT ISZERO PUSH2 0xF6C JUMPI PUSH2 0xF6B PUSH2 0xE84 JUMP JUMPDEST JUMPDEST PUSH2 0xF77 DUP5 DUP3 DUP6 PUSH2 0xF30 JUMP JUMPDEST POP SWAP4 SWAP3 POP POP POP JUMP JUMPDEST PUSH0 DUP3 PUSH1 0x1F DUP4 ADD SLT PUSH2 0xF93 JUMPI PUSH2 0xF92 PUSH2 0xE80 JUMP JUMPDEST JUMPDEST DUP2 CALLDATALOAD PUSH2 0xFA3 DUP5 DUP3 PUSH1 0x20 DUP7 ADD PUSH2 0xF3E JUMP JUMPDEST SWAP2 POP POP SWAP3 SWAP2 POP POP JUMP JUMPDEST PUSH2 0xFB5 DUP2 PUSH2 0xE08 JUMP JUMPDEST DUP2 EQ PUSH2 0xFBF JUMPI PUSH0 PUSH0 REVERT JUMPDEST POP JUMP JUMPDEST PUSH0 DUP2 CALLDATALOAD SWAP1 POP PUSH2 0xFD0 DUP2 PUSH2 0xFAC JUMP JUMPDEST SWAP3 SWAP2 POP POP JUMP JUMPDEST PUSH0 PUSH0 PUSH0 PUSH1 0x60 DUP5 DUP7 SUB SLT ISZERO PUSH2 0xFED JUMPI PUSH2 0xFEC PUSH2 0xBE7 JUMP JUMPDEST JUMPDEST PUSH0 DUP5 ADD CALLDATALOAD PUSH8 0xFFFFFFFFFFFFFFFF DUP2 GT ISZERO PUSH2 0x100A JUMPI PUSH2 0x1009 PUSH2 0xBEB JUMP JUMPDEST JUMPDEST PUSH2 0x1016 DUP7 DUP3 DUP8 ADD PUSH2 0xF7F JUMP JUMPDEST SWAP4 POP POP PUSH1 0x20 PUSH2 0x1027 DUP7 DUP3 DUP8 ADD PUSH2 0xC0E JUMP JUMPDEST SWAP3 POP POP PUSH1 0x40 PUSH2 0x1038 DUP7 DUP3 DUP8 ADD PUSH2 0xFC2 JUMP JUMPDEST SWAP2 POP POP SWAP3 POP SWAP3 POP SWAP3 JUMP JUMPDEST PUSH0 PUSH0 PUSH1 0x40 DUP4 DUP6 SUB SLT ISZERO PUSH2 0x1058 JUMPI PUSH2 0x1057 PUSH2 0xBE7 JUMP JUMPDEST JUMPDEST PUSH0 PUSH2 0x1065 DUP6 DUP3 DUP7 ADD PUSH2 0xC0E JUMP JUMPDEST SWAP3 POP POP PUSH1 0x20 PUSH2 0x1076 DUP6 DUP3 DUP7 ADD PUSH2 0xC93 JUMP JUMPDEST SWAP2 POP POP SWAP3 POP SWAP3 SWAP1 POP JUMP JUMPDEST PUSH32 0x4F6E6C79206D616E616765722063616E20637265617465207265717565737400 PUSH0 DUP3 ADD MSTORE POP JUMP JUMPDEST PUSH0 PUSH2 0x10B4 PUSH1 0x1F DUP4 PUSH2 0xDA2 JUMP JUMPDEST SWAP2 POP PUSH2 0x10BF DUP3 PUSH2 0x1080 JUMP JUMPDEST PUSH1 0x20 DUP3 ADD SWAP1 POP SWAP2 SWAP1 POP JUMP JUMPDEST PUSH0 PUSH1 0x20 DUP3 ADD SWAP1 POP DUP2 DUP2 SUB PUSH0 DUP4 ADD MSTORE PUSH2 0x10E1 DUP2 PUSH2 0x10A8 JUMP JUMPDEST SWAP1 POP SWAP2 SWAP1 POP JUMP JUMPDEST PUSH32 0x4E487B7100000000000000000000000000000000000000000000000000000000 PUSH0 MSTORE PUSH1 0x32 PUSH1 0x4 MSTORE PUSH1 0x24 PUSH0 REVERT JUMPDEST PUSH32 0x496E73756666696369656E7420636F6E74726163742062616C616E63652E0000 PUSH0 DUP3 ADD MSTORE POP JUMP JUMPDEST PUSH0 PUSH2 0x1149 PUSH1 0x1E DUP4 PUSH2 0xDA2 JUMP JUMPDEST SWAP2 POP PUSH2 0x1154 DUP3 PUSH2 0x1115 JUMP JUMPDEST PUSH1 0x20 DUP3 ADD SWAP1 POP SWAP2 SWAP1 POP JUMP JUMPDEST PUSH0 PUSH1 0x20 DUP3 ADD SWAP1 POP DUP2 DUP2 SUB PUSH0 DUP4 ADD MSTORE PUSH2 0x1176 DUP2 PUSH2 0x113D JUMP JUMPDEST SWAP1 POP SWAP2 SWAP1 POP JUMP JUMPDEST PUSH32 0x4E487B7100000000000000000000000000000000000000000000000000000000 PUSH0 MSTORE PUSH1 0x12 PUSH1 0x4 MSTORE PUSH1 0x24 PUSH0 REVERT JUMPDEST PUSH32 0x4E487B7100000000000000000000000000000000000000000000000000000000 PUSH0 MSTORE PUSH1 0x11 PUSH1 0x4 MSTORE PUSH1 0x24 PUSH0 REVERT JUMPDEST PUSH0 PUSH2 0x11E1 DUP3 PUSH2 0xBEF JUMP JUMPDEST SWAP2 POP PUSH2 0x11EC DUP4 PUSH2 0xBEF JUMP JUMPDEST SWAP3 POP DUP3 PUSH2 0x11FC JUMPI PUSH2 0x11FB PUSH2 0x117D JUMP JUMPDEST JUMPDEST DUP3 DUP3 DIV SWAP1 POP SWAP3 SWAP2 POP POP JUMP JUMPDEST PUSH32 0x4E6F7420656E6F75676820617070726F76616C732E0000000000000000000000 PUSH0 DUP3 ADD MSTORE POP JUMP JUMPDEST PUSH0 PUSH2 0x123B PUSH1 0x15 DUP4 PUSH2 0xDA2 JUMP JUMPDEST SWAP2 POP PUSH2 0x1246 DUP3 PUSH2 0x1207 JUMP JUMPDEST PUSH1 0x20 DUP3 ADD SWAP1 POP SWAP2 SWAP1 POP JUMP JUMPDEST PUSH0 PUSH1 0x20 DUP3 ADD SWAP1 POP DUP2 DUP2 SUB PUSH0 DUP4 ADD MSTORE PUSH2 0x1268 DUP2 PUSH2 0x122F JUMP JUMPDEST SWAP1 POP SWAP2 SWAP1 POP JUMP JUMPDEST PUSH32 0x5265717565737420697320616C726561647920636F6D706C6574652E00000000 PUSH0 DUP3 ADD MSTORE POP JUMP JUMPDEST PUSH0 PUSH2 0x12A3 PUSH1 0x1C DUP4 PUSH2 0xDA2 JUMP JUMPDEST SWAP2 POP PUSH2 0x12AE DUP3 PUSH2 0x126F JUMP JUMPDEST PUSH1 0x20 DUP3 ADD SWAP1 POP SWAP2 SWAP1 POP JUMP JUMPDEST PUSH0 PUSH1 0x20 DUP3 ADD SWAP1 POP DUP2 DUP2 SUB PUSH0 DUP4 ADD MSTORE PUSH2 0x12D0 DUP2 PUSH2 0x1297 JUMP JUMPDEST SWAP1 POP SWAP2 SWAP1 POP JUMP JUMPDEST PUSH32 0x496E76616C6964207265717565737420696E6465782E00000000000000000000 PUSH0 DUP3 ADD MSTORE POP JUMP JUMPDEST PUSH0 PUSH2 0x130B PUSH1 0x16 DUP4 PUSH2 0xDA2 JUMP JUMPDEST SWAP2 POP PUSH2 0x1316 DUP3 PUSH2 0x12D7 JUMP JUMPDEST PUSH1 0x20 DUP3 ADD SWAP1 POP SWAP2 SWAP1 POP JUMP JUMPDEST PUSH0 PUSH1 0x20 DUP3 ADD SWAP1 POP DUP2 DUP2 SUB PUSH0 DUP4 ADD MSTORE PUSH2 0x1338 DUP2 PUSH2 0x12FF JUMP JUMPDEST SWAP1 POP SWAP2 SWAP1 POP JUMP JUMPDEST PUSH32 0x4E487B7100000000000000000000000000000000000000000000000000000000 PUSH0 MSTORE PUSH1 0x22 PUSH1 0x4 MSTORE PUSH1 0x24 PUSH0 REVERT JUMPDEST PUSH0 PUSH1 0x2 DUP3 DIV SWAP1 POP PUSH1 0x1 DUP3 AND DUP1 PUSH2 0x1383 JUMPI PUSH1 0x7F DUP3 AND SWAP2 POP JUMPDEST PUSH1 0x20 DUP3 LT DUP2 SUB PUSH2 0x1396 JUMPI PUSH2 0x1395 PUSH2 0x133F JUMP JUMPDEST JUMPDEST POP SWAP2 SWAP1 POP JUMP JUMPDEST PUSH0 DUP2 SWAP1 POP DUP2 PUSH0 MSTORE PUSH1 0x20 PUSH0 KECCAK256 SWAP1 POP SWAP2 SWAP1 POP JUMP JUMPDEST PUSH0 PUSH1 0x20 PUSH1 0x1F DUP4 ADD DIV SWAP1 POP SWAP2 SWAP1 POP JUMP JUMPDEST PUSH0 DUP3 DUP3 SHL SWAP1 POP SWAP3 SWAP2 POP POP JUMP JUMPDEST PUSH0 PUSH1 0x8 DUP4 MUL PUSH2 0x13F8 PUSH32 0xFFFFFFFFFFFFFFFFFFFFFFFFFFFFFFFFFFFFFFFFFFFFFFFFFFFFFFFFFFFFFFFF DUP3 PUSH2 0x13BD JUMP JUMPDEST PUSH2 0x1402 DUP7 DUP4 PUSH2 0x13BD JUMP JUMPDEST SWAP6 POP DUP1 NOT DUP5 AND SWAP4 POP DUP1 DUP7 AND DUP5 OR SWAP3 POP POP POP SWAP4 SWAP3 POP POP POP JUMP JUMPDEST PUSH0 DUP2 SWAP1 POP SWAP2 SWAP1 POP JUMP JUMPDEST PUSH0 PUSH2 0x143D PUSH2 0x1438 PUSH2 0x1433 DUP5 PUSH2 0xBEF JUMP JUMPDEST PUSH2 0x141A JUMP JUMPDEST PUSH2 0xBEF JUMP JUMPDEST SWAP1 POP SWAP2 SWAP1 POP JUMP JUMPDEST PUSH0 DUP2 SWAP1 POP SWAP2 SWAP1 POP JUMP JUMPDEST PUSH2 0x1456 DUP4 PUSH2 0x1423 JUMP JUMPDEST PUSH2 0x146A PUSH2 0x1462 DUP3 PUSH2 0x1444 JUMP JUMPDEST DUP5 DUP5 SLOAD PUSH2 0x13C9 JUMP JUMPDEST DUP3 SSTORE POP POP POP POP JUMP JUMPDEST PUSH0 PUSH0 SWAP1 POP SWAP1 JUMP JUMPDEST PUSH2 0x1481 PUSH2 0x1472 JUMP JUMPDEST PUSH2 0x148C DUP2 DUP5 DUP5 PUSH2 0x144D JUMP JUMPDEST POP POP POP JUMP JUMPDEST JUMPDEST DUP2 DUP2 LT ISZERO PUSH2 0x14AF JUMPI PUSH2 0x14A4 PUSH0 DUP3 PUSH2 0x1479 JUMP JUMPDEST PUSH1 0x1 DUP2 ADD SWAP1 POP PUSH2 0x1492 JUMP JUMPDEST POP POP JUMP JUMPDEST PUSH1 0x1F DUP3 GT ISZERO PUSH2 0x14F4 JUMPI PUSH2 0x14C5 DUP2 PUSH2 0x139C JUMP JUMPDEST PUSH2 0x14CE DUP5 PUSH2 0x13AE JUMP JUMPDEST DUP2 ADD PUSH1 0x20 DUP6 LT ISZERO PUSH2 0x14DD JUMPI DUP2 SWAP1 POP JUMPDEST PUSH2 0x14F1 PUSH2 0x14E9 DUP6 PUSH2 0x13AE JUMP JUMPDEST DUP4 ADD DUP3 PUSH2 0x1491 JUMP JUMPDEST POP POP JUMPDEST POP POP POP JUMP JUMPDEST PUSH0 DUP3 DUP3 SHR SWAP1 POP SWAP3 SWAP2 POP POP JUMP JUMPDEST PUSH0 PUSH2 0x1514 PUSH0 NOT DUP5 PUSH1 0x8 MUL PUSH2 0x14F9 JUMP JUMPDEST NOT DUP1 DUP4 AND SWAP2 POP POP SWAP3 SWAP2 POP POP JUMP JUMPDEST PUSH0 PUSH2 0x152C DUP4 DUP4 PUSH2 0x1505 JUMP JUMPDEST SWAP2 POP DUP3 PUSH1 0x2 MUL DUP3 OR SWAP1 POP SWAP3 SWAP2 POP POP JUMP JUMPDEST PUSH2 0x1545 DUP3 PUSH2 0xD98 JUMP JUMPDEST PUSH8 0xFFFFFFFFFFFFFFFF DUP2 GT ISZERO PUSH2 0x155E JUMPI PUSH2 0x155D PUSH2 0xE88 JUMP JUMPDEST JUMPDEST PUSH2 0x1568 DUP3 SLOAD PUSH2 0x136C JUMP JUMPDEST PUSH2 0x1573 DUP3 DUP3 DUP6 PUSH2 0x14B3 JUMP JUMPDEST PUSH0 PUSH1 0x20 SWAP1 POP PUSH1 0x1F DUP4 GT PUSH1 0x1 DUP2 EQ PUSH2 0x15A4 JUMPI PUSH0 DUP5 ISZERO PUSH2 0x1592 JUMPI DUP3 DUP8 ADD MLOAD SWAP1 POP JUMPDEST PUSH2 0x159C DUP6 DUP3 PUSH2 0x1521 JUMP JUMPDEST DUP7 SSTORE POP PUSH2 0x1603 JUMP JUMPDEST PUSH1 0x1F NOT DUP5 AND PUSH2 0x15B2 DUP7 PUSH2 0x139C JUMP JUMPDEST PUSH0 JUMPDEST DUP3 DUP2 LT ISZERO PUSH2 0x15D9 JUMPI DUP5 DUP10 ADD MLOAD DUP3 SSTORE PUSH1 0x1 DUP3 ADD SWAP2 POP PUSH1 0x20 DUP6 ADD SWAP5 POP PUSH1 0x20 DUP2 ADD SWAP1 POP PUSH2 0x15B4 JUMP JUMPDEST DUP7 DUP4 LT ISZERO PUSH2 0x15F6 JUMPI DUP5 DUP10 ADD MLOAD PUSH2 0x15F2 PUSH1 0x1F DUP10 AND DUP3 PUSH2 0x1505 JUMP JUMPDEST DUP4 SSTORE POP JUMPDEST PUSH1 0x1 PUSH1 0x2 DUP9 MUL ADD DUP9 SSTORE POP POP POP JUMPDEST POP POP POP POP POP POP JUMP JUMPDEST PUSH32 0x436F6E747269627574696F6E206D757374206265206772656174657220746861 PUSH0 DUP3 ADD MSTORE PUSH32 0x6E206D696E696D756D20616D6F756E742E000000000000000000000000000000 PUSH1 0x20 DUP3 ADD MSTORE POP JUMP JUMPDEST PUSH0 PUSH2 0x1665 PUSH1 0x31 DUP4 PUSH2 0xDA2 JUMP JUMPDEST SWAP2 POP PUSH2 0x1670 DUP3 PUSH2 0x160B JUMP JUMPDEST PUSH1 0x40 DUP3 ADD SWAP1 POP SWAP2 SWAP1 POP JUMP JUMPDEST PUSH0 PUSH1 0x20 DUP3 ADD SWAP1 POP DUP2 DUP2 SUB PUSH0 DUP4 ADD MSTORE PUSH2 0x1692 DUP2 PUSH2 0x1659 JUMP JUMPDEST SWAP1 POP SWAP2 SWAP1 POP JUMP JUMPDEST PUSH0 PUSH2 0x16A3 DUP3 PUSH2 0xBEF JUMP JUMPDEST SWAP2 POP PUSH32 0xFFFFFFFFFFFFFFFFFFFFFFFFFFFFFFFFFFFFFFFFFFFFFFFFFFFFFFFFFFFFFFFF DUP3 SUB PUSH2 0x16D5 JUMPI PUSH2 0x16D4 PUSH2 0x11AA JUMP JUMPDEST JUMPDEST PUSH1 0x1 DUP3 ADD SWAP1 POP SWAP2 SWAP1 POP JUMP JUMPDEST PUSH32 0x4F6E6C7920636F6E7472696275746F72732063616E20617070726F76652E0000 PUSH0 DUP3 ADD MSTORE POP JUMP JUMPDEST PUSH0 PUSH2 0x1714 PUSH1 0x1E DUP4 PUSH2 0xDA2 JUMP JUMPDEST SWAP2 POP PUSH2 0x171F DUP3 PUSH2 0x16E0 JUMP JUMPDEST PUSH1 0x20 DUP3 ADD SWAP1 POP SWAP2 SWAP1 POP JUMP JUMPDEST PUSH0 PUSH1 0x20 DUP3 ADD SWAP1 POP DUP2 DUP2 SUB PUSH0 DUP4 ADD MSTORE PUSH2 0x1741 DUP2 PUSH2 0x1708 JUMP JUMPDEST SWAP1 POP SWAP2 SWAP1 POP JUMP JUMPDEST PUSH32 0x596F75206861766520616C726561647920617070726F76656420746869732072 PUSH0 DUP3 ADD MSTORE PUSH32 0x6571756573742E00000000000000000000000000000000000000000000000000 PUSH1 0x20 DUP3 ADD MSTORE POP JUMP JUMPDEST PUSH0 PUSH2 0x17A2 PUSH1 0x27 DUP4 PUSH2 0xDA2 JUMP JUMPDEST SWAP2 POP PUSH2 0x17AD DUP3 PUSH2 0x1748 JUMP JUMPDEST PUSH1 0x40 DUP3 ADD SWAP1 POP SWAP2 SWAP1 POP JUMP JUMPDEST PUSH0 PUSH1 0x20 DUP3 ADD SWAP1 POP DUP2 DUP2 SUB PUSH0 DUP4 ADD MSTORE PUSH2 0x17CF DUP2 PUSH2 0x1796 JUMP JUMPDEST SWAP1 POP SWAP2 SWAP1 POP JUMP INVALID LOG2 PUSH5 0x6970667358 0x22 SLT KECCAK256 PUSH28 0xE6A1B7568BB3502A31FEE2AEC7228574295C41796E00BE196FE5840C REVERT 0x22 0xA7 PUSH5 0x736F6C6343 STOP ADDMOD SHR STOP CALLER "},"gasEstimates":{"creation":{"codeDepositCost":"1231200","executionCost":"infinite","totalCost":"infinite"},"external":{"approvals(uint256,address)":"3136","approveRequest(uint256)":"infinite","approvers(address)":"2856","approversCount()":"2425","contribute()":"53275","createRequest(string,uint256,address)":"infinite","finalizeRequest(uint256)":"infinite","getRequestByIndex(uint256)":"infinite","getRequestsCount()":"2484","manager()":"2575","minimumContribution()":"2469","requests(uint256)":"infinite"}},"methodIdentifiers":{"approvals(uint256,address)":"ab2850da","approveRequest(uint256)":"d7d1bbdb","approvers(address)":"0a144391","approversCount()":"82fde093","contribute()":"d7bb99ba","createRequest(string,uint256,address)":"8a9cfd55","finalizeRequest(uint256)":"03441006","getRequestByIndex(uint256)":"6d052b37","getRequestsCount()":"3410452a","manager()":"481c6a75","minimumContribution()":"937e09b1","requests(uint256)":"81d12c58"}},"storageLayout":{"storage":[{"astId":54,"contract":"Campaign.sol:Campaign","label":"requests","offset":0,"slot":"0","type":"t_array(t_struct(Request)50_storage)dyn_storage"},{"astId":56,"contract":"Campaign.sol:Campaign","label":"manager","offset":0,"slot":"1","type":"t_address"},{"astId":58,"contract":"Campaign.sol:Campaign","label":"minimumContribution","offset":0,"slot":"2","type":"t_uint256"},{"astId":62,"contract":"Campaign.sol:Campaign","label":"approvers","offset":0,"slot":"3","type":"t_mapping(t_address,t_bool)"},{"astId":68,"contract":"Campaign.sol:Campaign","label":"approvals","offset":0,"slot":"4","type":"t_mapping(t_uint256,t_mapping(t_address,t_bool))"},{"astId":70,"contract":"Campaign.sol:Campaign","label":"approversCount","offset":0,"slot":"5","type":"t_uint256"}],"types":{"t_address":{"encoding":"inplace","label":"address","numberOfBytes":"20"},"t_address_payable":{"encoding":"inplace","label":"address payable","numberOfBytes":"20"},"t_array(t_struct(Request)50_storage)dyn_storage":{"base":"t_struct(Request)50_storage","encoding":"dynamic_array","label":"struct Campaign.Request[]","numberOfBytes":"32"},"t_bool":{"encoding":"inplace","label":"bool","numberOfBytes":"1"},"t_mapping(t_address,t_bool)":{"encoding":"mapping","key":"t_address","label":"mapping(address => bool)","numberOfBytes":"32","value":"t_bool"},"t_mapping(t_uint256,t_mapping(t_address,t_bool))":{"encoding":"mapping","key":"t_uint256","label":"mapping(uint256 => mapping(address => bool))","numberOfBytes":"32","value":"t_mapping(t_address,t_bool)"},"t_string_storage":{"encoding":"bytes","label":"string","numberOfBytes":"32"},"t_struct(Request)50_storage":{"encoding":"inplace","label":"struct Campaign.Request","members":[{"astId":41,"contract":"Campaign.sol:Campaign","label":"description","offset":0,"slot":"0","type":"t_string_storage"},{"astId":43,"contract":"Campaign.sol:Campaign","label":"value","offset":0,"slot":"1","type":"t_uint256"},{"astId":45,"contract":"Campaign.sol:Campaign","label":"recipient","offset":0,"slot":"2","type":"t_address_payable"},{"astId":47,"contract":"Campaign.sol:Campaign","label":"complete","offset":20,"slot":"2","type":"t_bool"},{"astId":49,"contract":"Campaign.sol:Campaign","label":"approvalCount","offset":0,"slot":"3","type":"t_uint256"}],"numberOfBytes":"128"},"t_uint256":{"encoding":"inplace","label":"uint256","numberOfBytes":"32"}}},"transientStorageLayout":{"storage":[],"types":null},"userdoc":{"kind":"user","methods":{},"version":1}}