{"abi":[{"inputs":[{"internalType":"uint256","name":"minimum","type":"uint256"},{"internalType":"address","name":"creator","type":"address"}],"stateMutability":"payable","type":"constructor"},{"inputs":[{"internalType":"uint256","name":"","type":"uint256"},{"internalType":"address","name":"","type":"address"}],"name":"approvals","outputs":[{"internalType":"bool","name":"","type":"bool"}],"stateMutability":"view","type":"function"},{"inputs":[{"internalType":"uint256","name":"index","type":"uint256"}],"name":"approveRequest","outputs":[],"stateMutability":"nonpayable","type":"function"},{"inputs":[{"internalType":"address","name":"","type":"address"}],"name":"approvers","outputs":[{"internalType":"bool","name":"","type":"bool"}],"stateMutability":"view","type":"function"},{"inputs":[],"name":"approversCount","outputs":[{"internalType":"uint256","name":"","type":"uint256"}],"stateMutability":"view","type":"function"},{"inputs":[],"name":"contribute","outputs":[],"stateMutability":"payable","type":"function"},{"inputs":[{"internalType":"string","name":"description","type":"string"},{"internalType":"uint256","name":"value","type":"uint256"},{"internalType":"address payable","name":"recipient","type":"address"}],"name":"createRequest","outputs":[],"stateMutability":"nonpayable","type":"function"},{"inputs":[{"internalType":"uint256","name":"index","type":"uint256"}],"name":"finalizeRequest","outputs":[],"stateMutability":"nonpayable","type":"function"},{"inputs":[{"internalType":"uint256","name":"index","type":"uint256"}],"name":"getRequestByIndex","outputs":[{"internalType":"uint256","name":"value","type":"uint256"},{"internalType":"address","name":"recipient","type":"address"},{"internalType":"bool","name":"complete","type":"bool"},{"internalType":"uint256","name":"approvalCount","type":"uint256"}],"stateMutability":"view","type":"function"},{"inputs":[],"name":"getRequestsCount","outputs":[{"internalType":"uint256","name":"","type":"uint256"}],"stateMutability":"view","type":"function"},{"inputs":[],"name":"getSummary","outputs":[{"internalType":"uint256","name":"","type":"uint256"},{"internalType":"uint256","name":"","type":"uint256"},{"internalType":"uint256","name":"","type":"uint256"},{"internalType":"uint256","name":"","type":"uint256"},{"internalType":"address","name":"","type":"address"}],"stateMutability":"view","type":"function"},{"inputs":[],"name":"manager","outputs":[{"internalType":"address","name":"","type":"address"}],"stateMutability":"view","type":"function"},{"inputs":[],"name":"minimumContribution","outputs":[{"internalType":"uint256","name":"","type":"uint256"}],"stateMutability":"view","type":"function"},{"inputs":[{"internalType":"uint256","name":"","type":"uint256"}],"name":"requests","outputs":[{"internalType":"string","name":"description","type":"string"},{"internalType":"uint256","name":"value","type":"uint256"},{"internalType":"address payable","name":"recipient","type":"address"},{"internalType":"bool","name":"complete","type":"bool"},{"internalType":"uint256","name":"approvalCount","type":"uint256"}],"stateMutability":"view","type":"function"}],"devdoc":{"kind":"dev","methods":{},"version":1},"evm":{"assembly":"    /* \"Campaign.sol\":404:5482  contract Campaign {... */\n  mstore(0x40, 0x80)\n    /* \"Campaign.sol\":1425:1548  constructor(uint minimum, address creator) payable{... */\n  mload(0x40)\n  sub(codesize, bytecodeSize)\n  dup1\n  bytecodeSize\n  dup4\n  codecopy\n  dup2\n  dup2\n  add\n  0x40\n  mstore\n  dup2\n  add\n  swap1\n  tag_1\n  swap2\n  swap1\n  tag_2\n  jump\t// in\ntag_1:\n    /* \"Campaign.sol\":1495:1502  creator */\n  dup1\n    /* \"Campaign.sol\":1485:1492  manager */\n  0x01\n  0x00\n    /* \"Campaign.sol\":1485:1502  manager = creator */\n  0x0100\n  exp\n  dup2\n  sload\n  dup2\n  0xffffffffffffffffffffffffffffffffffffffff\n  mul\n  not\n  and\n  swap1\n  dup4\n  0xffffffffffffffffffffffffffffffffffffffff\n  and\n  mul\n  or\n  swap1\n  sstore\n  pop\n    /* \"Campaign.sol\":1534:1541  minimum */\n  dup2\n    /* \"Campaign.sol\":1512:1531  minimumContribution */\n  0x02\n    /* \"Campaign.sol\":1512:1541  minimumContribution = minimum */\n  dup2\n  swap1\n  sstore\n  pop\n    /* \"Campaign.sol\":1425:1548  constructor(uint minimum, address creator) payable{... */\n  pop\n  pop\n    /* \"Campaign.sol\":404:5482  contract Campaign {... */\n  jump(tag_5)\n    /* \"#utility.yul\":88:205   */\ntag_7:\n    /* \"#utility.yul\":197:198   */\n  0x00\n    /* \"#utility.yul\":194:195   */\n  0x00\n    /* \"#utility.yul\":187:199   */\n  revert\n    /* \"#utility.yul\":334:411   */\ntag_9:\n    /* \"#utility.yul\":371:378   */\n  0x00\n    /* \"#utility.yul\":400:405   */\n  dup2\n    /* \"#utility.yul\":389:405   */\n  swap1\n  pop\n    /* \"#utility.yul\":334:411   */\n  swap2\n  swap1\n  pop\n  jump\t// out\n    /* \"#utility.yul\":417:539   */\ntag_10:\n    /* \"#utility.yul\":490:514   */\n  tag_22\n    /* \"#utility.yul\":508:513   */\n  dup2\n    /* \"#utility.yul\":490:514   */\n  tag_9\n  jump\t// in\ntag_22:\n    /* \"#utility.yul\":483:488   */\n  dup2\n    /* \"#utility.yul\":480:515   */\n  eq\n    /* \"#utility.yul\":470:533   */\n  tag_23\n  jumpi\n    /* \"#utility.yul\":529:530   */\n  0x00\n    /* \"#utility.yul\":526:527   */\n  0x00\n    /* \"#utility.yul\":519:531   */\n  revert\n    /* \"#utility.yul\":470:533   */\ntag_23:\n    /* \"#utility.yul\":417:539   */\n  pop\n  jump\t// out\n    /* \"#utility.yul\":545:688   */\ntag_11:\n    /* \"#utility.yul\":602:607   */\n  0x00\n    /* \"#utility.yul\":633:639   */\n  dup2\n    /* \"#utility.yul\":627:640   */\n  mload\n    /* \"#utility.yul\":618:640   */\n  swap1\n  pop\n    /* \"#utility.yul\":649:682   */\n  tag_25\n    /* \"#utility.yul\":676:681   */\n  dup2\n    /* \"#utility.yul\":649:682   */\n  tag_10\n  jump\t// in\ntag_25:\n    /* \"#utility.yul\":545:688   */\n  swap3\n  swap2\n  pop\n  pop\n  jump\t// out\n    /* \"#utility.yul\":694:820   */\ntag_12:\n    /* \"#utility.yul\":731:738   */\n  0x00\n    /* \"#utility.yul\":771:813   */\n  0xffffffffffffffffffffffffffffffffffffffff\n    /* \"#utility.yul\":764:769   */\n  dup3\n    /* \"#utility.yul\":760:814   */\n  and\n    /* \"#utility.yul\":749:814   */\n  swap1\n  pop\n    /* \"#utility.yul\":694:820   */\n  swap2\n  swap1\n  pop\n  jump\t// out\n    /* \"#utility.yul\":826:922   */\ntag_13:\n    /* \"#utility.yul\":863:870   */\n  0x00\n    /* \"#utility.yul\":892:916   */\n  tag_28\n    /* \"#utility.yul\":910:915   */\n  dup3\n    /* \"#utility.yul\":892:916   */\n  tag_12\n  jump\t// in\ntag_28:\n    /* \"#utility.yul\":881:916   */\n  swap1\n  pop\n    /* \"#utility.yul\":826:922   */\n  swap2\n  swap1\n  pop\n  jump\t// out\n    /* \"#utility.yul\":928:1050   */\ntag_14:\n    /* \"#utility.yul\":1001:1025   */\n  tag_30\n    /* \"#utility.yul\":1019:1024   */\n  dup2\n    /* \"#utility.yul\":1001:1025   */\n  tag_13\n  jump\t// in\ntag_30:\n    /* \"#utility.yul\":994:999   */\n  dup2\n    /* \"#utility.yul\":991:1026   */\n  eq\n    /* \"#utility.yul\":981:1044   */\n  tag_31\n  jumpi\n    /* \"#utility.yul\":1040:1041   */\n  0x00\n    /* \"#utility.yul\":1037:1038   */\n  0x00\n    /* \"#utility.yul\":1030:1042   */\n  revert\n    /* \"#utility.yul\":981:1044   */\ntag_31:\n    /* \"#utility.yul\":928:1050   */\n  pop\n  jump\t// out\n    /* \"#utility.yul\":1056:1199   */\ntag_15:\n    /* \"#utility.yul\":1113:1118   */\n  0x00\n    /* \"#utility.yul\":1144:1150   */\n  dup2\n    /* \"#utility.yul\":1138:1151   */\n  mload\n    /* \"#utility.yul\":1129:1151   */\n  swap1\n  pop\n    /* \"#utility.yul\":1160:1193   */\n  tag_33\n    /* \"#utility.yul\":1187:1192   */\n  dup2\n    /* \"#utility.yul\":1160:1193   */\n  tag_14\n  jump\t// in\ntag_33:\n    /* \"#utility.yul\":1056:1199   */\n  swap3\n  swap2\n  pop\n  pop\n  jump\t// out\n    /* \"#utility.yul\":1205:1712   */\ntag_2:\n    /* \"#utility.yul\":1284:1290   */\n  0x00\n    /* \"#utility.yul\":1292:1298   */\n  0x00\n    /* \"#utility.yul\":1341:1343   */\n  0x40\n    /* \"#utility.yul\":1329:1338   */\n  dup4\n    /* \"#utility.yul\":1320:1327   */\n  dup6\n    /* \"#utility.yul\":1316:1339   */\n  sub\n    /* \"#utility.yul\":1312:1344   */\n  slt\n    /* \"#utility.yul\":1309:1428   */\n  iszero\n  tag_35\n  jumpi\n    /* \"#utility.yul\":1347:1426   */\n  tag_36\n  tag_7\n  jump\t// in\ntag_36:\n    /* \"#utility.yul\":1309:1428   */\ntag_35:\n    /* \"#utility.yul\":1467:1468   */\n  0x00\n    /* \"#utility.yul\":1492:1556   */\n  tag_37\n    /* \"#utility.yul\":1548:1555   */\n  dup6\n    /* \"#utility.yul\":1539:1545   */\n  dup3\n    /* \"#utility.yul\":1528:1537   */\n  dup7\n    /* \"#utility.yul\":1524:1546   */\n  add\n    /* \"#utility.yul\":1492:1556   */\n  tag_11\n  jump\t// in\ntag_37:\n    /* \"#utility.yul\":1482:1556   */\n  swap3\n  pop\n    /* \"#utility.yul\":1438:1566   */\n  pop\n    /* \"#utility.yul\":1605:1607   */\n  0x20\n    /* \"#utility.yul\":1631:1695   */\n  tag_38\n    /* \"#utility.yul\":1687:1694   */\n  dup6\n    /* \"#utility.yul\":1678:1684   */\n  dup3\n    /* \"#utility.yul\":1667:1676   */\n  dup7\n    /* \"#utility.yul\":1663:1685   */\n  add\n    /* \"#utility.yul\":1631:1695   */\n  tag_15\n  jump\t// in\ntag_38:\n    /* \"#utility.yul\":1621:1695   */\n  swap2\n  pop\n    /* \"#utility.yul\":1576:1705   */\n  pop\n    /* \"#utility.yul\":1205:1712   */\n  swap3\n  pop\n  swap3\n  swap1\n  pop\n  jump\t// out\n    /* \"Campaign.sol\":404:5482  contract Campaign {... */\ntag_5:\n  dataSize(sub_0)\n  dup1\n  dataOffset(sub_0)\n  0x00\n  codecopy\n  0x00\n  return\nstop\n\nsub_0: assembly {\n        /* \"Campaign.sol\":404:5482  contract Campaign {... */\n      mstore(0x40, 0x80)\n      jumpi(tag_1, lt(calldatasize, 0x04))\n      shr(0xe0, calldataload(0x00))\n      dup1\n      0x81d12c58\n      gt\n      tag_15\n      jumpi\n      dup1\n      0x937e09b1\n      gt\n      tag_16\n      jumpi\n      dup1\n      0x937e09b1\n      eq\n      tag_11\n      jumpi\n      dup1\n      0xab2850da\n      eq\n      tag_12\n      jumpi\n      dup1\n      0xd7bb99ba\n      eq\n      tag_13\n      jumpi\n      dup1\n      0xd7d1bbdb\n      eq\n      tag_14\n      jumpi\n      jump(tag_1)\n    tag_16:\n      dup1\n      0x81d12c58\n      eq\n      tag_8\n      jumpi\n      dup1\n      0x82fde093\n      eq\n      tag_9\n      jumpi\n      dup1\n      0x8a9cfd55\n      eq\n      tag_10\n      jumpi\n      jump(tag_1)\n    tag_15:\n      dup1\n      0x03441006\n      eq\n      tag_2\n      jumpi\n      dup1\n      0x0a144391\n      eq\n      tag_3\n      jumpi\n      dup1\n      0x3410452a\n      eq\n      tag_4\n      jumpi\n      dup1\n      0x4051ddac\n      eq\n      tag_5\n      jumpi\n      dup1\n      0x481c6a75\n      eq\n      tag_6\n      jumpi\n      dup1\n      0x6d052b37\n      eq\n      tag_7\n      jumpi\n    tag_1:\n      revert(0x00, 0x00)\n        /* \"Campaign.sol\":3642:4090  function finalizeRequest(uint index) public restricted {... */\n    tag_2:\n      callvalue\n      dup1\n      iszero\n      tag_17\n      jumpi\n      revert(0x00, 0x00)\n    tag_17:\n      pop\n      tag_18\n      0x04\n      dup1\n      calldatasize\n      sub\n      dup2\n      add\n      swap1\n      tag_19\n      swap2\n      swap1\n      tag_20\n      jump\t// in\n    tag_19:\n      tag_21\n      jump\t// in\n    tag_18:\n      stop\n        /* \"Campaign.sol\":967:1009  mapping (address => bool) public approvers */\n    tag_3:\n      callvalue\n      dup1\n      iszero\n      tag_22\n      jumpi\n      revert(0x00, 0x00)\n    tag_22:\n      pop\n      tag_23\n      0x04\n      dup1\n      calldatasize\n      sub\n      dup2\n      add\n      swap1\n      tag_24\n      swap2\n      swap1\n      tag_25\n      jump\t// in\n    tag_24:\n      tag_26\n      jump\t// in\n    tag_23:\n      mload(0x40)\n      tag_27\n      swap2\n      swap1\n      tag_28\n      jump\t// in\n    tag_27:\n      mload(0x40)\n      dup1\n      swap2\n      sub\n      swap1\n      return\n        /* \"Campaign.sol\":4097:4183  function getRequestsCount() public view returns (uint) {... */\n    tag_4:\n      callvalue\n      dup1\n      iszero\n      tag_29\n      jumpi\n      revert(0x00, 0x00)\n    tag_29:\n      pop\n      tag_30\n      tag_31\n      jump\t// in\n    tag_30:\n      mload(0x40)\n      tag_32\n      swap2\n      swap1\n      tag_33\n      jump\t// in\n    tag_32:\n      mload(0x40)\n      dup1\n      swap2\n      sub\n      swap1\n      return\n        /* \"Campaign.sol\":5256:5480  function getSummary() public view returns (uint, uint, uint, uint, address) {... */\n    tag_5:\n      callvalue\n      dup1\n      iszero\n      tag_34\n      jumpi\n      revert(0x00, 0x00)\n    tag_34:\n      pop\n      tag_35\n      tag_36\n      jump\t// in\n    tag_35:\n      mload(0x40)\n      tag_37\n      swap6\n      swap5\n      swap4\n      swap3\n      swap2\n      swap1\n      tag_38\n      jump\t// in\n    tag_37:\n      mload(0x40)\n      dup1\n      swap2\n      sub\n      swap1\n      return\n        /* \"Campaign.sol\":858:880  address public manager */\n    tag_6:\n      callvalue\n      dup1\n      iszero\n      tag_39\n      jumpi\n      revert(0x00, 0x00)\n    tag_39:\n      pop\n      tag_40\n      tag_41\n      jump\t// in\n    tag_40:\n      mload(0x40)\n      tag_42\n      swap2\n      swap1\n      tag_43\n      jump\t// in\n    tag_42:\n      mload(0x40)\n      dup1\n      swap2\n      sub\n      swap1\n      return\n        /* \"Campaign.sol\":4914:5254  function getRequestByIndex(uint index) public view returns ( uint value, address recipient, bool complete, uint approvalCount) {... */\n    tag_7:\n      callvalue\n      dup1\n      iszero\n      tag_44\n      jumpi\n      revert(0x00, 0x00)\n    tag_44:\n      pop\n      tag_45\n      0x04\n      dup1\n      calldatasize\n      sub\n      dup2\n      add\n      swap1\n      tag_46\n      swap2\n      swap1\n      tag_20\n      jump\t// in\n    tag_46:\n      tag_47\n      jump\t// in\n    tag_45:\n      mload(0x40)\n      tag_48\n      swap5\n      swap4\n      swap3\n      swap2\n      swap1\n      tag_49\n      jump\t// in\n    tag_48:\n      mload(0x40)\n      dup1\n      swap2\n      sub\n      swap1\n      return\n        /* \"Campaign.sol\":827:852  Request[] public requests */\n    tag_8:\n      callvalue\n      dup1\n      iszero\n      tag_50\n      jumpi\n      revert(0x00, 0x00)\n    tag_50:\n      pop\n      tag_51\n      0x04\n      dup1\n      calldatasize\n      sub\n      dup2\n      add\n      swap1\n      tag_52\n      swap2\n      swap1\n      tag_20\n      jump\t// in\n    tag_52:\n      tag_53\n      jump\t// in\n    tag_51:\n      mload(0x40)\n      tag_54\n      swap6\n      swap5\n      swap4\n      swap3\n      swap2\n      swap1\n      tag_55\n      jump\t// in\n    tag_54:\n      mload(0x40)\n      dup1\n      swap2\n      sub\n      swap1\n      return\n        /* \"Campaign.sol\":1126:1152  uint public approversCount */\n    tag_9:\n      callvalue\n      dup1\n      iszero\n      tag_56\n      jumpi\n      revert(0x00, 0x00)\n    tag_56:\n      pop\n      tag_57\n      tag_58\n      jump\t// in\n    tag_57:\n      mload(0x40)\n      tag_59\n      swap2\n      swap1\n      tag_33\n      jump\t// in\n    tag_59:\n      mload(0x40)\n      dup1\n      swap2\n      sub\n      swap1\n      return\n        /* \"Campaign.sol\":2067:3054  function createRequest(string memory description, uint value, address payable recipient)... */\n    tag_10:\n      callvalue\n      dup1\n      iszero\n      tag_60\n      jumpi\n      revert(0x00, 0x00)\n    tag_60:\n      pop\n      tag_61\n      0x04\n      dup1\n      calldatasize\n      sub\n      dup2\n      add\n      swap1\n      tag_62\n      swap2\n      swap1\n      tag_63\n      jump\t// in\n    tag_62:\n      tag_64\n      jump\t// in\n    tag_61:\n      stop\n        /* \"Campaign.sol\":886:917  uint public minimumContribution */\n    tag_11:\n      callvalue\n      dup1\n      iszero\n      tag_65\n      jumpi\n      revert(0x00, 0x00)\n    tag_65:\n      pop\n      tag_66\n      tag_67\n      jump\t// in\n    tag_66:\n      mload(0x40)\n      tag_68\n      swap2\n      swap1\n      tag_33\n      jump\t// in\n    tag_68:\n      mload(0x40)\n      dup1\n      swap2\n      sub\n      swap1\n      return\n        /* \"Campaign.sol\":1015:1073  mapping(uint => mapping(address => bool)) public approvals */\n    tag_12:\n      callvalue\n      dup1\n      iszero\n      tag_69\n      jumpi\n      revert(0x00, 0x00)\n    tag_69:\n      pop\n      tag_70\n      0x04\n      dup1\n      calldatasize\n      sub\n      dup2\n      add\n      swap1\n      tag_71\n      swap2\n      swap1\n      tag_72\n      jump\t// in\n    tag_71:\n      tag_73\n      jump\t// in\n    tag_70:\n      mload(0x40)\n      tag_74\n      swap2\n      swap1\n      tag_28\n      jump\t// in\n    tag_74:\n      mload(0x40)\n      dup1\n      swap2\n      sub\n      swap1\n      return\n        /* \"Campaign.sol\":1674:2061  function contribute() public payable {... */\n    tag_13:\n      tag_75\n      tag_76\n      jump\t// in\n    tag_75:\n      stop\n        /* \"Campaign.sol\":3060:3635  function approveRequest(uint index) public {... */\n    tag_14:\n      callvalue\n      dup1\n      iszero\n      tag_77\n      jumpi\n      revert(0x00, 0x00)\n    tag_77:\n      pop\n      tag_78\n      0x04\n      dup1\n      calldatasize\n      sub\n      dup2\n      add\n      swap1\n      tag_79\n      swap2\n      swap1\n      tag_20\n      jump\t// in\n    tag_79:\n      tag_80\n      jump\t// in\n    tag_78:\n      stop\n        /* \"Campaign.sol\":3642:4090  function finalizeRequest(uint index) public restricted {... */\n    tag_21:\n        /* \"Campaign.sol\":1607:1614  manager */\n      0x01\n      0x00\n      swap1\n      sload\n      swap1\n      0x0100\n      exp\n      swap1\n      div\n      0xffffffffffffffffffffffffffffffffffffffff\n      and\n        /* \"Campaign.sol\":1593:1614  msg.sender == manager */\n      0xffffffffffffffffffffffffffffffffffffffff\n      and\n        /* \"Campaign.sol\":1593:1603  msg.sender */\n      caller\n        /* \"Campaign.sol\":1593:1614  msg.sender == manager */\n      0xffffffffffffffffffffffffffffffffffffffff\n      and\n      eq\n        /* \"Campaign.sol\":1585:1650  require(msg.sender == manager, \"Only manager can create request\") */\n      tag_82\n      jumpi\n      mload(0x40)\n      0x08c379a000000000000000000000000000000000000000000000000000000000\n      dup2\n      mstore\n      0x04\n      add\n      tag_83\n      swap1\n      tag_84\n      jump\t// in\n    tag_83:\n      mload(0x40)\n      dup1\n      swap2\n      sub\n      swap1\n      revert\n    tag_82:\n        /* \"Campaign.sol\":3708:3731  Request storage request */\n      0x00\n        /* \"Campaign.sol\":3734:3742  requests */\n      0x00\n        /* \"Campaign.sol\":3743:3748  index */\n      dup3\n        /* \"Campaign.sol\":3734:3749  requests[index] */\n      dup2\n      sload\n      dup2\n      lt\n      tag_86\n      jumpi\n      tag_87\n      tag_88\n      jump\t// in\n    tag_87:\n    tag_86:\n      swap1\n      0x00\n      mstore\n      keccak256(0x00, 0x20)\n      swap1\n      0x04\n      mul\n      add\n        /* \"Campaign.sol\":3708:3749  Request storage request = requests[index] */\n      swap1\n      pop\n        /* \"Campaign.sol\":3792:3799  request */\n      dup1\n        /* \"Campaign.sol\":3792:3805  request.value */\n      0x01\n      add\n      sload\n        /* \"Campaign.sol\":3767:3788  address(this).balance */\n      selfbalance\n        /* \"Campaign.sol\":3767:3805  address(this).balance >= request.value */\n      lt\n      iszero\n        /* \"Campaign.sol\":3759:3840  require(address(this).balance >= request.value, \"Insufficient contract balance.\") */\n      tag_90\n      jumpi\n      mload(0x40)\n      0x08c379a000000000000000000000000000000000000000000000000000000000\n      dup2\n      mstore\n      0x04\n      add\n      tag_91\n      swap1\n      tag_92\n      jump\t// in\n    tag_91:\n      mload(0x40)\n      dup1\n      swap2\n      sub\n      swap1\n      revert\n    tag_90:\n        /* \"Campaign.sol\":3901:3902  2 */\n      0x02\n        /* \"Campaign.sol\":3884:3898  approversCount */\n      sload(0x05)\n        /* \"Campaign.sol\":3884:3902  approversCount / 2 */\n      tag_93\n      swap2\n      swap1\n      tag_94\n      jump\t// in\n    tag_93:\n        /* \"Campaign.sol\":3859:3866  request */\n      dup2\n        /* \"Campaign.sol\":3859:3880  request.approvalCount */\n      0x03\n      add\n      sload\n        /* \"Campaign.sol\":3859:3903  request.approvalCount > (approversCount / 2) */\n      gt\n        /* \"Campaign.sol\":3851:3929  require(request.approvalCount > (approversCount / 2), \"Not enough approvals.\") */\n      tag_95\n      jumpi\n      mload(0x40)\n      0x08c379a000000000000000000000000000000000000000000000000000000000\n      dup2\n      mstore\n      0x04\n      add\n      tag_96\n      swap1\n      tag_97\n      jump\t// in\n    tag_96:\n      mload(0x40)\n      dup1\n      swap2\n      sub\n      swap1\n      revert\n    tag_95:\n        /* \"Campaign.sol\":3948:3955  request */\n      dup1\n        /* \"Campaign.sol\":3948:3964  request.complete */\n      0x02\n      add\n      0x14\n      swap1\n      sload\n      swap1\n      0x0100\n      exp\n      swap1\n      div\n      0xff\n      and\n        /* \"Campaign.sol\":3947:3964  !request.complete */\n      iszero\n        /* \"Campaign.sol\":3939:3997  require(!request.complete, \"Request is already complete.\") */\n      tag_98\n      jumpi\n      mload(0x40)\n      0x08c379a000000000000000000000000000000000000000000000000000000000\n      dup2\n      mstore\n      0x04\n      add\n      tag_99\n      swap1\n      tag_100\n      jump\t// in\n    tag_99:\n      mload(0x40)\n      dup1\n      swap2\n      sub\n      swap1\n      revert\n    tag_98:\n        /* \"Campaign.sol\":4008:4015  request */\n      dup1\n        /* \"Campaign.sol\":4008:4025  request.recipient */\n      0x02\n      add\n      0x00\n      swap1\n      sload\n      swap1\n      0x0100\n      exp\n      swap1\n      div\n      0xffffffffffffffffffffffffffffffffffffffff\n      and\n        /* \"Campaign.sol\":4008:4034  request.recipient.transfer */\n      0xffffffffffffffffffffffffffffffffffffffff\n      and\n        /* \"Campaign.sol\":4008:4049  request.recipient.transfer(request.value) */\n      0x08fc\n        /* \"Campaign.sol\":4035:4042  request */\n      dup3\n        /* \"Campaign.sol\":4035:4048  request.value */\n      0x01\n      add\n      sload\n        /* \"Campaign.sol\":4008:4049  request.recipient.transfer(request.value) */\n      swap1\n      dup2\n      iszero\n      mul\n      swap1\n      mload(0x40)\n      0x00\n      mload(0x40)\n      dup1\n      dup4\n      sub\n      dup2\n      dup6\n      dup9\n      dup9\n      call\n      swap4\n      pop\n      pop\n      pop\n      pop\n      iszero\n      dup1\n      iszero\n      tag_102\n      jumpi\n      returndatacopy(0x00, 0x00, returndatasize)\n      revert(0x00, returndatasize)\n    tag_102:\n      pop\n        /* \"Campaign.sol\":4078:4082  true */\n      0x01\n        /* \"Campaign.sol\":4059:4066  request */\n      dup2\n        /* \"Campaign.sol\":4059:4075  request.complete */\n      0x02\n      add\n      0x14\n        /* \"Campaign.sol\":4059:4082  request.complete = true */\n      0x0100\n      exp\n      dup2\n      sload\n      dup2\n      0xff\n      mul\n      not\n      and\n      swap1\n      dup4\n      iszero\n      iszero\n      mul\n      or\n      swap1\n      sstore\n      pop\n        /* \"Campaign.sol\":3697:4090  {... */\n      pop\n        /* \"Campaign.sol\":3642:4090  function finalizeRequest(uint index) public restricted {... */\n      pop\n      jump\t// out\n        /* \"Campaign.sol\":967:1009  mapping (address => bool) public approvers */\n    tag_26:\n      mstore(0x20, 0x03)\n      dup1\n      0x00\n      mstore\n      keccak256(0x00, 0x40)\n      0x00\n      swap2\n      pop\n      sload\n      swap1\n      0x0100\n      exp\n      swap1\n      div\n      0xff\n      and\n      dup2\n      jump\t// out\n        /* \"Campaign.sol\":4097:4183  function getRequestsCount() public view returns (uint) {... */\n    tag_31:\n        /* \"Campaign.sol\":4146:4150  uint */\n      0x00\n        /* \"Campaign.sol\":4165:4173  requests */\n      0x00\n        /* \"Campaign.sol\":4165:4180  requests.length */\n      dup1\n      sload\n      swap1\n      pop\n        /* \"Campaign.sol\":4158:4180  return requests.length */\n      swap1\n      pop\n        /* \"Campaign.sol\":4097:4183  function getRequestsCount() public view returns (uint) {... */\n      swap1\n      jump\t// out\n        /* \"Campaign.sol\":5256:5480  function getSummary() public view returns (uint, uint, uint, uint, address) {... */\n    tag_36:\n        /* \"Campaign.sol\":5299:5303  uint */\n      0x00\n        /* \"Campaign.sol\":5305:5309  uint */\n      0x00\n        /* \"Campaign.sol\":5311:5315  uint */\n      0x00\n        /* \"Campaign.sol\":5317:5321  uint */\n      0x00\n        /* \"Campaign.sol\":5323:5330  address */\n      0x00\n        /* \"Campaign.sol\":5355:5374  minimumContribution */\n      sload(0x02)\n        /* \"Campaign.sol\":5384:5405  address(this).balance */\n      selfbalance\n        /* \"Campaign.sol\":5415:5423  requests */\n      0x00\n        /* \"Campaign.sol\":5415:5430  requests.length */\n      dup1\n      sload\n      swap1\n      pop\n        /* \"Campaign.sol\":5440:5454  approversCount */\n      sload(0x05)\n        /* \"Campaign.sol\":5464:5471  manager */\n      0x01\n      0x00\n      swap1\n      sload\n      swap1\n      0x0100\n      exp\n      swap1\n      div\n      0xffffffffffffffffffffffffffffffffffffffff\n      and\n        /* \"Campaign.sol\":5338:5477  return (... */\n      swap5\n      pop\n      swap5\n      pop\n      swap5\n      pop\n      swap5\n      pop\n      swap5\n      pop\n        /* \"Campaign.sol\":5256:5480  function getSummary() public view returns (uint, uint, uint, uint, address) {... */\n      swap1\n      swap2\n      swap3\n      swap4\n      swap5\n      jump\t// out\n        /* \"Campaign.sol\":858:880  address public manager */\n    tag_41:\n      0x01\n      0x00\n      swap1\n      sload\n      swap1\n      0x0100\n      exp\n      swap1\n      div\n      0xffffffffffffffffffffffffffffffffffffffff\n      and\n      dup2\n      jump\t// out\n        /* \"Campaign.sol\":4914:5254  function getRequestByIndex(uint index) public view returns ( uint value, address recipient, bool complete, uint approvalCount) {... */\n    tag_47:\n        /* \"Campaign.sol\":4975:4985  uint value */\n      0x00\n        /* \"Campaign.sol\":4987:5004  address recipient */\n      0x00\n        /* \"Campaign.sol\":5006:5019  bool complete */\n      0x00\n        /* \"Campaign.sol\":5021:5039  uint approvalCount */\n      0x00\n        /* \"Campaign.sol\":5063:5071  requests */\n      0x00\n        /* \"Campaign.sol\":5063:5078  requests.length */\n      dup1\n      sload\n      swap1\n      pop\n        /* \"Campaign.sol\":5055:5060  index */\n      dup6\n        /* \"Campaign.sol\":5055:5078  index < requests.length */\n      lt\n        /* \"Campaign.sol\":5047:5105  require(index < requests.length, \"Invalid request index.\") */\n      tag_106\n      jumpi\n      mload(0x40)\n      0x08c379a000000000000000000000000000000000000000000000000000000000\n      dup2\n      mstore\n      0x04\n      add\n      tag_107\n      swap1\n      tag_108\n      jump\t// in\n    tag_107:\n      mload(0x40)\n      dup1\n      swap2\n      sub\n      swap1\n      revert\n    tag_106:\n        /* \"Campaign.sol\":5116:5138  Request memory request */\n      0x00\n        /* \"Campaign.sol\":5141:5149  requests */\n      0x00\n        /* \"Campaign.sol\":5150:5155  index */\n      dup7\n        /* \"Campaign.sol\":5141:5156  requests[index] */\n      dup2\n      sload\n      dup2\n      lt\n      tag_109\n      jumpi\n      tag_110\n      tag_88\n      jump\t// in\n    tag_110:\n    tag_109:\n      swap1\n      0x00\n      mstore\n      keccak256(0x00, 0x20)\n      swap1\n      0x04\n      mul\n      add\n        /* \"Campaign.sol\":5116:5156  Request memory request = requests[index] */\n      mload(0x40)\n      dup1\n      0xa0\n      add\n      0x40\n      mstore\n      swap1\n      dup2\n      0x00\n      dup3\n      add\n      dup1\n      sload\n      tag_112\n      swap1\n      tag_113\n      jump\t// in\n    tag_112:\n      dup1\n      0x1f\n      add\n      0x20\n      dup1\n      swap2\n      div\n      mul\n      0x20\n      add\n      mload(0x40)\n      swap1\n      dup2\n      add\n      0x40\n      mstore\n      dup1\n      swap3\n      swap2\n      swap1\n      dup2\n      dup2\n      mstore\n      0x20\n      add\n      dup3\n      dup1\n      sload\n      tag_114\n      swap1\n      tag_113\n      jump\t// in\n    tag_114:\n      dup1\n      iszero\n      tag_115\n      jumpi\n      dup1\n      0x1f\n      lt\n      tag_116\n      jumpi\n      0x0100\n      dup1\n      dup4\n      sload\n      div\n      mul\n      dup4\n      mstore\n      swap2\n      0x20\n      add\n      swap2\n      jump(tag_115)\n    tag_116:\n      dup3\n      add\n      swap2\n      swap1\n      0x00\n      mstore\n      keccak256(0x00, 0x20)\n      swap1\n    tag_117:\n      dup2\n      sload\n      dup2\n      mstore\n      swap1\n      0x01\n      add\n      swap1\n      0x20\n      add\n      dup1\n      dup4\n      gt\n      tag_117\n      jumpi\n      dup3\n      swap1\n      sub\n      0x1f\n      and\n      dup3\n      add\n      swap2\n    tag_115:\n      pop\n      pop\n      pop\n      pop\n      pop\n      dup2\n      mstore\n      0x20\n      add\n      0x01\n      dup3\n      add\n      sload\n      dup2\n      mstore\n      0x20\n      add\n      0x02\n      dup3\n      add\n      0x00\n      swap1\n      sload\n      swap1\n      0x0100\n      exp\n      swap1\n      div\n      0xffffffffffffffffffffffffffffffffffffffff\n      and\n      0xffffffffffffffffffffffffffffffffffffffff\n      and\n      0xffffffffffffffffffffffffffffffffffffffff\n      and\n      dup2\n      mstore\n      0x20\n      add\n      0x02\n      dup3\n      add\n      0x14\n      swap1\n      sload\n      swap1\n      0x0100\n      exp\n      swap1\n      div\n      0xff\n      and\n      iszero\n      iszero\n      iszero\n      iszero\n      dup2\n      mstore\n      0x20\n      add\n      0x03\n      dup3\n      add\n      sload\n      dup2\n      mstore\n      pop\n      pop\n      swap1\n      pop\n        /* \"Campaign.sol\":5177:5184  request */\n      dup1\n        /* \"Campaign.sol\":5177:5190  request.value */\n      0x20\n      add\n      mload\n        /* \"Campaign.sol\":5192:5199  request */\n      dup2\n        /* \"Campaign.sol\":5192:5209  request.recipient */\n      0x40\n      add\n      mload\n        /* \"Campaign.sol\":5211:5218  request */\n      dup3\n        /* \"Campaign.sol\":5211:5227  request.complete */\n      0x60\n      add\n      mload\n        /* \"Campaign.sol\":5229:5236  request */\n      dup4\n        /* \"Campaign.sol\":5229:5250  request.approvalCount */\n      0x80\n      add\n      mload\n        /* \"Campaign.sol\":5169:5251  return (request.value, request.recipient, request.complete, request.approvalCount) */\n      swap5\n      pop\n      swap5\n      pop\n      swap5\n      pop\n      swap5\n      pop\n      pop\n        /* \"Campaign.sol\":4914:5254  function getRequestByIndex(uint index) public view returns ( uint value, address recipient, bool complete, uint approvalCount) {... */\n      swap2\n      swap4\n      pop\n      swap2\n      swap4\n      jump\t// out\n        /* \"Campaign.sol\":827:852  Request[] public requests */\n    tag_53:\n      0x00\n      dup2\n      dup2\n      sload\n      dup2\n      lt\n      tag_118\n      jumpi\n      0x00\n      dup1\n      revert\n    tag_118:\n      swap1\n      0x00\n      mstore\n      keccak256(0x00, 0x20)\n      swap1\n      0x04\n      mul\n      add\n      0x00\n      swap2\n      pop\n      swap1\n      pop\n      dup1\n      0x00\n      add\n      dup1\n      sload\n      tag_120\n      swap1\n      tag_113\n      jump\t// in\n    tag_120:\n      dup1\n      0x1f\n      add\n      0x20\n      dup1\n      swap2\n      div\n      mul\n      0x20\n      add\n      mload(0x40)\n      swap1\n      dup2\n      add\n      0x40\n      mstore\n      dup1\n      swap3\n      swap2\n      swap1\n      dup2\n      dup2\n      mstore\n      0x20\n      add\n      dup3\n      dup1\n      sload\n      tag_121\n      swap1\n      tag_113\n      jump\t// in\n    tag_121:\n      dup1\n      iszero\n      tag_122\n      jumpi\n      dup1\n      0x1f\n      lt\n      tag_123\n      jumpi\n      0x0100\n      dup1\n      dup4\n      sload\n      div\n      mul\n      dup4\n      mstore\n      swap2\n      0x20\n      add\n      swap2\n      jump(tag_122)\n    tag_123:\n      dup3\n      add\n      swap2\n      swap1\n      0x00\n      mstore\n      keccak256(0x00, 0x20)\n      swap1\n    tag_124:\n      dup2\n      sload\n      dup2\n      mstore\n      swap1\n      0x01\n      add\n      swap1\n      0x20\n      add\n      dup1\n      dup4\n      gt\n      tag_124\n      jumpi\n      dup3\n      swap1\n      sub\n      0x1f\n      and\n      dup3\n      add\n      swap2\n    tag_122:\n      pop\n      pop\n      pop\n      pop\n      pop\n      swap1\n      dup1\n      0x01\n      add\n      sload\n      swap1\n      dup1\n      0x02\n      add\n      0x00\n      swap1\n      sload\n      swap1\n      0x0100\n      exp\n      swap1\n      div\n      0xffffffffffffffffffffffffffffffffffffffff\n      and\n      swap1\n      dup1\n      0x02\n      add\n      0x14\n      swap1\n      sload\n      swap1\n      0x0100\n      exp\n      swap1\n      div\n      0xff\n      and\n      swap1\n      dup1\n      0x03\n      add\n      sload\n      swap1\n      pop\n      dup6\n      jump\t// out\n        /* \"Campaign.sol\":1126:1152  uint public approversCount */\n    tag_58:\n      sload(0x05)\n      dup2\n      jump\t// out\n        /* \"Campaign.sol\":2067:3054  function createRequest(string memory description, uint value, address payable recipient)... */\n    tag_64:\n        /* \"Campaign.sol\":2372:2397  Request memory newRequest */\n      0x00\n        /* \"Campaign.sol\":2400:2580  Request({... */\n      mload(0x40)\n      dup1\n      0xa0\n      add\n      0x40\n      mstore\n      dup1\n        /* \"Campaign.sol\":2436:2447  description */\n      dup6\n        /* \"Campaign.sol\":2400:2580  Request({... */\n      dup2\n      mstore\n      0x20\n      add\n        /* \"Campaign.sol\":2469:2474  value */\n      dup5\n        /* \"Campaign.sol\":2400:2580  Request({... */\n      dup2\n      mstore\n      0x20\n      add\n        /* \"Campaign.sol\":2500:2509  recipient */\n      dup4\n        /* \"Campaign.sol\":2400:2580  Request({... */\n      0xffffffffffffffffffffffffffffffffffffffff\n      and\n      dup2\n      mstore\n      0x20\n      add\n        /* \"Campaign.sol\":2533:2538  false */\n      0x00\n        /* \"Campaign.sol\":2400:2580  Request({... */\n      iszero\n      iszero\n      dup2\n      mstore\n      0x20\n      add\n        /* \"Campaign.sol\":2568:2569  0 */\n      0x00\n        /* \"Campaign.sol\":2400:2580  Request({... */\n      dup2\n      mstore\n      pop\n        /* \"Campaign.sol\":2372:2580  Request memory newRequest = Request({... */\n      swap1\n      pop\n        /* \"Campaign.sol\":3022:3030  requests */\n      0x00\n        /* \"Campaign.sol\":3036:3046  newRequest */\n      dup2\n        /* \"Campaign.sol\":3022:3047  requests.push(newRequest) */\n      swap1\n      dup1\n      0x01\n      dup2\n      sload\n      add\n      dup1\n      dup3\n      sstore\n      dup1\n      swap2\n      pop\n      pop\n      0x01\n      swap1\n      sub\n      swap1\n      0x00\n      mstore\n      keccak256(0x00, 0x20)\n      swap1\n      0x04\n      mul\n      add\n      0x00\n      swap1\n      swap2\n      swap1\n      swap2\n      swap1\n      swap2\n      pop\n      0x00\n      dup3\n      add\n      mload\n      dup2\n      0x00\n      add\n      swap1\n      dup2\n      tag_127\n      swap2\n      swap1\n      tag_128\n      jump\t// in\n    tag_127:\n      pop\n      0x20\n      dup3\n      add\n      mload\n      dup2\n      0x01\n      add\n      sstore\n      0x40\n      dup3\n      add\n      mload\n      dup2\n      0x02\n      add\n      exp(0x0100, 0x00)\n      dup2\n      sload\n      dup2\n      0xffffffffffffffffffffffffffffffffffffffff\n      mul\n      not\n      and\n      swap1\n      dup4\n      0xffffffffffffffffffffffffffffffffffffffff\n      and\n      mul\n      or\n      swap1\n      sstore\n      pop\n      0x60\n      dup3\n      add\n      mload\n      dup2\n      0x02\n      add\n      exp(0x0100, 0x14)\n      dup2\n      sload\n      dup2\n      0xff\n      mul\n      not\n      and\n      swap1\n      dup4\n      iszero\n      iszero\n      mul\n      or\n      swap1\n      sstore\n      pop\n      0x80\n      dup3\n      add\n      mload\n      dup2\n      0x03\n      add\n      sstore\n      pop\n      pop\n        /* \"Campaign.sol\":2168:3054  {... */\n      pop\n        /* \"Campaign.sol\":2067:3054  function createRequest(string memory description, uint value, address payable recipient)... */\n      pop\n      pop\n      pop\n      jump\t// out\n        /* \"Campaign.sol\":886:917  uint public minimumContribution */\n    tag_67:\n      sload(0x02)\n      dup2\n      jump\t// out\n        /* \"Campaign.sol\":1015:1073  mapping(uint => mapping(address => bool)) public approvals */\n    tag_73:\n      mstore(0x20, 0x04)\n      dup2\n      0x00\n      mstore\n      mstore(0x20, keccak256(0x00, 0x40))\n      dup1\n      0x00\n      mstore\n      keccak256(0x00, 0x40)\n      0x00\n      swap2\n      pop\n      swap2\n      pop\n      swap1\n      sload\n      swap1\n      0x0100\n      exp\n      swap1\n      div\n      0xff\n      and\n      dup2\n      jump\t// out\n        /* \"Campaign.sol\":1674:2061  function contribute() public payable {... */\n    tag_76:\n        /* \"Campaign.sol\":1741:1760  minimumContribution */\n      sload(0x02)\n        /* \"Campaign.sol\":1729:1738  msg.value */\n      callvalue\n        /* \"Campaign.sol\":1729:1760  msg.value > minimumContribution */\n      gt\n        /* \"Campaign.sol\":1721:1814  require(msg.value > minimumContribution, \"Contribution must be greater than minimum amount.\") */\n      tag_130\n      jumpi\n      mload(0x40)\n      0x08c379a000000000000000000000000000000000000000000000000000000000\n      dup2\n      mstore\n      0x04\n      add\n      tag_131\n      swap1\n      tag_132\n      jump\t// in\n    tag_131:\n      mload(0x40)\n      dup1\n      swap2\n      sub\n      swap1\n      revert\n    tag_130:\n        /* \"Campaign.sol\":1949:1958  approvers */\n      0x03\n        /* \"Campaign.sol\":1949:1970  approvers[msg.sender] */\n      0x00\n        /* \"Campaign.sol\":1959:1969  msg.sender */\n      caller\n        /* \"Campaign.sol\":1949:1970  approvers[msg.sender] */\n      0xffffffffffffffffffffffffffffffffffffffff\n      and\n      0xffffffffffffffffffffffffffffffffffffffff\n      and\n      dup2\n      mstore\n      0x20\n      add\n      swap1\n      dup2\n      mstore\n      0x20\n      add\n      0x00\n      keccak256\n      0x00\n      swap1\n      sload\n      swap1\n      0x0100\n      exp\n      swap1\n      div\n      0xff\n      and\n        /* \"Campaign.sol\":1944:2055  if (!approvers[msg.sender]) {... */\n      tag_133\n      jumpi\n        /* \"Campaign.sol\":2010:2014  true */\n      0x01\n        /* \"Campaign.sol\":1986:1995  approvers */\n      0x03\n        /* \"Campaign.sol\":1986:2007  approvers[msg.sender] */\n      0x00\n        /* \"Campaign.sol\":1996:2006  msg.sender */\n      caller\n        /* \"Campaign.sol\":1986:2007  approvers[msg.sender] */\n      0xffffffffffffffffffffffffffffffffffffffff\n      and\n      0xffffffffffffffffffffffffffffffffffffffff\n      and\n      dup2\n      mstore\n      0x20\n      add\n      swap1\n      dup2\n      mstore\n      0x20\n      add\n      0x00\n      keccak256\n      0x00\n        /* \"Campaign.sol\":1986:2014  approvers[msg.sender] = true */\n      0x0100\n      exp\n      dup2\n      sload\n      dup2\n      0xff\n      mul\n      not\n      and\n      swap1\n      dup4\n      iszero\n      iszero\n      mul\n      or\n      swap1\n      sstore\n      pop\n        /* \"Campaign.sol\":2028:2042  approversCount */\n      0x05\n      0x00\n        /* \"Campaign.sol\":2028:2044  approversCount++ */\n      dup2\n      sload\n      dup1\n      swap3\n      swap2\n      swap1\n      tag_134\n      swap1\n      tag_135\n      jump\t// in\n    tag_134:\n      swap2\n      swap1\n      pop\n      sstore\n      pop\n        /* \"Campaign.sol\":1944:2055  if (!approvers[msg.sender]) {... */\n    tag_133:\n        /* \"Campaign.sol\":1674:2061  function contribute() public payable {... */\n      jump\t// out\n        /* \"Campaign.sol\":3060:3635  function approveRequest(uint index) public {... */\n    tag_80:\n        /* \"Campaign.sol\":3114:3137  Request storage request */\n      0x00\n        /* \"Campaign.sol\":3140:3148  requests */\n      0x00\n        /* \"Campaign.sol\":3149:3154  index */\n      dup3\n        /* \"Campaign.sol\":3140:3155  requests[index] */\n      dup2\n      sload\n      dup2\n      lt\n      tag_137\n      jumpi\n      tag_138\n      tag_88\n      jump\t// in\n    tag_138:\n    tag_137:\n      swap1\n      0x00\n      mstore\n      keccak256(0x00, 0x20)\n      swap1\n      0x04\n      mul\n      add\n        /* \"Campaign.sol\":3114:3155  Request storage request = requests[index] */\n      swap1\n      pop\n        /* \"Campaign.sol\":3174:3183  approvers */\n      0x03\n        /* \"Campaign.sol\":3174:3195  approvers[msg.sender] */\n      0x00\n        /* \"Campaign.sol\":3184:3194  msg.sender */\n      caller\n        /* \"Campaign.sol\":3174:3195  approvers[msg.sender] */\n      0xffffffffffffffffffffffffffffffffffffffff\n      and\n      0xffffffffffffffffffffffffffffffffffffffff\n      and\n      dup2\n      mstore\n      0x20\n      add\n      swap1\n      dup2\n      mstore\n      0x20\n      add\n      0x00\n      keccak256\n      0x00\n      swap1\n      sload\n      swap1\n      0x0100\n      exp\n      swap1\n      div\n      0xff\n      and\n        /* \"Campaign.sol\":3166:3230  require(approvers[msg.sender], \"Only contributors can approve.\") */\n      tag_140\n      jumpi\n      mload(0x40)\n      0x08c379a000000000000000000000000000000000000000000000000000000000\n      dup2\n      mstore\n      0x04\n      add\n      tag_141\n      swap1\n      tag_142\n      jump\t// in\n    tag_141:\n      mload(0x40)\n      dup1\n      swap2\n      sub\n      swap1\n      revert\n    tag_140:\n        /* \"Campaign.sol\":3382:3391  approvals */\n      0x04\n        /* \"Campaign.sol\":3382:3398  approvals[index] */\n      0x00\n        /* \"Campaign.sol\":3392:3397  index */\n      dup4\n        /* \"Campaign.sol\":3382:3398  approvals[index] */\n      dup2\n      mstore\n      0x20\n      add\n      swap1\n      dup2\n      mstore\n      0x20\n      add\n      0x00\n      keccak256\n        /* \"Campaign.sol\":3382:3410  approvals[index][msg.sender] */\n      0x00\n        /* \"Campaign.sol\":3399:3409  msg.sender */\n      caller\n        /* \"Campaign.sol\":3382:3410  approvals[index][msg.sender] */\n      0xffffffffffffffffffffffffffffffffffffffff\n      and\n      0xffffffffffffffffffffffffffffffffffffffff\n      and\n      dup2\n      mstore\n      0x20\n      add\n      swap1\n      dup2\n      mstore\n      0x20\n      add\n      0x00\n      keccak256\n      0x00\n      swap1\n      sload\n      swap1\n      0x0100\n      exp\n      swap1\n      div\n      0xff\n      and\n        /* \"Campaign.sol\":3381:3410  !approvals[index][msg.sender] */\n      iszero\n        /* \"Campaign.sol\":3373:3454  require(!approvals[index][msg.sender], \"You have already approved this request.\") */\n      tag_143\n      jumpi\n      mload(0x40)\n      0x08c379a000000000000000000000000000000000000000000000000000000000\n      dup2\n      mstore\n      0x04\n      add\n      tag_144\n      swap1\n      tag_145\n      jump\t// in\n    tag_144:\n      mload(0x40)\n      dup1\n      swap2\n      sub\n      swap1\n      revert\n    tag_143:\n        /* \"Campaign.sol\":3590:3594  true */\n      0x01\n        /* \"Campaign.sol\":3559:3568  approvals */\n      0x04\n        /* \"Campaign.sol\":3559:3575  approvals[index] */\n      0x00\n        /* \"Campaign.sol\":3569:3574  index */\n      dup5\n        /* \"Campaign.sol\":3559:3575  approvals[index] */\n      dup2\n      mstore\n      0x20\n      add\n      swap1\n      dup2\n      mstore\n      0x20\n      add\n      0x00\n      keccak256\n        /* \"Campaign.sol\":3559:3587  approvals[index][msg.sender] */\n      0x00\n        /* \"Campaign.sol\":3576:3586  msg.sender */\n      caller\n        /* \"Campaign.sol\":3559:3587  approvals[index][msg.sender] */\n      0xffffffffffffffffffffffffffffffffffffffff\n      and\n      0xffffffffffffffffffffffffffffffffffffffff\n      and\n      dup2\n      mstore\n      0x20\n      add\n      swap1\n      dup2\n      mstore\n      0x20\n      add\n      0x00\n      keccak256\n      0x00\n        /* \"Campaign.sol\":3559:3594  approvals[index][msg.sender] = true */\n      0x0100\n      exp\n      dup2\n      sload\n      dup2\n      0xff\n      mul\n      not\n      and\n      swap1\n      dup4\n      iszero\n      iszero\n      mul\n      or\n      swap1\n      sstore\n      pop\n        /* \"Campaign.sol\":3605:3612  request */\n      dup1\n        /* \"Campaign.sol\":3605:3626  request.approvalCount */\n      0x03\n      add\n      0x00\n        /* \"Campaign.sol\":3605:3628  request.approvalCount++ */\n      dup2\n      sload\n      dup1\n      swap3\n      swap2\n      swap1\n      tag_146\n      swap1\n      tag_135\n      jump\t// in\n    tag_146:\n      swap2\n      swap1\n      pop\n      sstore\n      pop\n        /* \"Campaign.sol\":3103:3635  {... */\n      pop\n        /* \"Campaign.sol\":3060:3635  function approveRequest(uint index) public {... */\n      pop\n      jump\t// out\n        /* \"#utility.yul\":7:82   */\n    tag_147:\n        /* \"#utility.yul\":40:46   */\n      0x00\n        /* \"#utility.yul\":73:75   */\n      0x40\n        /* \"#utility.yul\":67:76   */\n      mload\n        /* \"#utility.yul\":57:76   */\n      swap1\n      pop\n        /* \"#utility.yul\":7:82   */\n      swap1\n      jump\t// out\n        /* \"#utility.yul\":88:205   */\n    tag_148:\n        /* \"#utility.yul\":197:198   */\n      0x00\n        /* \"#utility.yul\":194:195   */\n      0x00\n        /* \"#utility.yul\":187:199   */\n      revert\n        /* \"#utility.yul\":211:328   */\n    tag_149:\n        /* \"#utility.yul\":320:321   */\n      0x00\n        /* \"#utility.yul\":317:318   */\n      0x00\n        /* \"#utility.yul\":310:322   */\n      revert\n        /* \"#utility.yul\":334:411   */\n    tag_150:\n        /* \"#utility.yul\":371:378   */\n      0x00\n        /* \"#utility.yul\":400:405   */\n      dup2\n        /* \"#utility.yul\":389:405   */\n      swap1\n      pop\n        /* \"#utility.yul\":334:411   */\n      swap2\n      swap1\n      pop\n      jump\t// out\n        /* \"#utility.yul\":417:539   */\n    tag_151:\n        /* \"#utility.yul\":490:514   */\n      tag_219\n        /* \"#utility.yul\":508:513   */\n      dup2\n        /* \"#utility.yul\":490:514   */\n      tag_150\n      jump\t// in\n    tag_219:\n        /* \"#utility.yul\":483:488   */\n      dup2\n        /* \"#utility.yul\":480:515   */\n      eq\n        /* \"#utility.yul\":470:533   */\n      tag_220\n      jumpi\n        /* \"#utility.yul\":529:530   */\n      0x00\n        /* \"#utility.yul\":526:527   */\n      0x00\n        /* \"#utility.yul\":519:531   */\n      revert\n        /* \"#utility.yul\":470:533   */\n    tag_220:\n        /* \"#utility.yul\":417:539   */\n      pop\n      jump\t// out\n        /* \"#utility.yul\":545:684   */\n    tag_152:\n        /* \"#utility.yul\":591:596   */\n      0x00\n        /* \"#utility.yul\":629:635   */\n      dup2\n        /* \"#utility.yul\":616:636   */\n      calldataload\n        /* \"#utility.yul\":607:636   */\n      swap1\n      pop\n        /* \"#utility.yul\":645:678   */\n      tag_222\n        /* \"#utility.yul\":672:677   */\n      dup2\n        /* \"#utility.yul\":645:678   */\n      tag_151\n      jump\t// in\n    tag_222:\n        /* \"#utility.yul\":545:684   */\n      swap3\n      swap2\n      pop\n      pop\n      jump\t// out\n        /* \"#utility.yul\":690:1019   */\n    tag_20:\n        /* \"#utility.yul\":749:755   */\n      0x00\n        /* \"#utility.yul\":798:800   */\n      0x20\n        /* \"#utility.yul\":786:795   */\n      dup3\n        /* \"#utility.yul\":777:784   */\n      dup5\n        /* \"#utility.yul\":773:796   */\n      sub\n        /* \"#utility.yul\":769:801   */\n      slt\n        /* \"#utility.yul\":766:885   */\n      iszero\n      tag_224\n      jumpi\n        /* \"#utility.yul\":804:883   */\n      tag_225\n      tag_148\n      jump\t// in\n    tag_225:\n        /* \"#utility.yul\":766:885   */\n    tag_224:\n        /* \"#utility.yul\":924:925   */\n      0x00\n        /* \"#utility.yul\":949:1002   */\n      tag_226\n        /* \"#utility.yul\":994:1001   */\n      dup5\n        /* \"#utility.yul\":985:991   */\n      dup3\n        /* \"#utility.yul\":974:983   */\n      dup6\n        /* \"#utility.yul\":970:992   */\n      add\n        /* \"#utility.yul\":949:1002   */\n      tag_152\n      jump\t// in\n    tag_226:\n        /* \"#utility.yul\":939:1002   */\n      swap2\n      pop\n        /* \"#utility.yul\":895:1012   */\n      pop\n        /* \"#utility.yul\":690:1019   */\n      swap3\n      swap2\n      pop\n      pop\n      jump\t// out\n        /* \"#utility.yul\":1025:1151   */\n    tag_153:\n        /* \"#utility.yul\":1062:1069   */\n      0x00\n        /* \"#utility.yul\":1102:1144   */\n      0xffffffffffffffffffffffffffffffffffffffff\n        /* \"#utility.yul\":1095:1100   */\n      dup3\n        /* \"#utility.yul\":1091:1145   */\n      and\n        /* \"#utility.yul\":1080:1145   */\n      swap1\n      pop\n        /* \"#utility.yul\":1025:1151   */\n      swap2\n      swap1\n      pop\n      jump\t// out\n        /* \"#utility.yul\":1157:1253   */\n    tag_154:\n        /* \"#utility.yul\":1194:1201   */\n      0x00\n        /* \"#utility.yul\":1223:1247   */\n      tag_229\n        /* \"#utility.yul\":1241:1246   */\n      dup3\n        /* \"#utility.yul\":1223:1247   */\n      tag_153\n      jump\t// in\n    tag_229:\n        /* \"#utility.yul\":1212:1247   */\n      swap1\n      pop\n        /* \"#utility.yul\":1157:1253   */\n      swap2\n      swap1\n      pop\n      jump\t// out\n        /* \"#utility.yul\":1259:1381   */\n    tag_155:\n        /* \"#utility.yul\":1332:1356   */\n      tag_231\n        /* \"#utility.yul\":1350:1355   */\n      dup2\n        /* \"#utility.yul\":1332:1356   */\n      tag_154\n      jump\t// in\n    tag_231:\n        /* \"#utility.yul\":1325:1330   */\n      dup2\n        /* \"#utility.yul\":1322:1357   */\n      eq\n        /* \"#utility.yul\":1312:1375   */\n      tag_232\n      jumpi\n        /* \"#utility.yul\":1371:1372   */\n      0x00\n        /* \"#utility.yul\":1368:1369   */\n      0x00\n        /* \"#utility.yul\":1361:1373   */\n      revert\n        /* \"#utility.yul\":1312:1375   */\n    tag_232:\n        /* \"#utility.yul\":1259:1381   */\n      pop\n      jump\t// out\n        /* \"#utility.yul\":1387:1526   */\n    tag_156:\n        /* \"#utility.yul\":1433:1438   */\n      0x00\n        /* \"#utility.yul\":1471:1477   */\n      dup2\n        /* \"#utility.yul\":1458:1478   */\n      calldataload\n        /* \"#utility.yul\":1449:1478   */\n      swap1\n      pop\n        /* \"#utility.yul\":1487:1520   */\n      tag_234\n        /* \"#utility.yul\":1514:1519   */\n      dup2\n        /* \"#utility.yul\":1487:1520   */\n      tag_155\n      jump\t// in\n    tag_234:\n        /* \"#utility.yul\":1387:1526   */\n      swap3\n      swap2\n      pop\n      pop\n      jump\t// out\n        /* \"#utility.yul\":1532:1861   */\n    tag_25:\n        /* \"#utility.yul\":1591:1597   */\n      0x00\n        /* \"#utility.yul\":1640:1642   */\n      0x20\n        /* \"#utility.yul\":1628:1637   */\n      dup3\n        /* \"#utility.yul\":1619:1626   */\n      dup5\n        /* \"#utility.yul\":1615:1638   */\n      sub\n        /* \"#utility.yul\":1611:1643   */\n      slt\n        /* \"#utility.yul\":1608:1727   */\n      iszero\n      tag_236\n      jumpi\n        /* \"#utility.yul\":1646:1725   */\n      tag_237\n      tag_148\n      jump\t// in\n    tag_237:\n        /* \"#utility.yul\":1608:1727   */\n    tag_236:\n        /* \"#utility.yul\":1766:1767   */\n      0x00\n        /* \"#utility.yul\":1791:1844   */\n      tag_238\n        /* \"#utility.yul\":1836:1843   */\n      dup5\n        /* \"#utility.yul\":1827:1833   */\n      dup3\n        /* \"#utility.yul\":1816:1825   */\n      dup6\n        /* \"#utility.yul\":1812:1834   */\n      add\n        /* \"#utility.yul\":1791:1844   */\n      tag_156\n      jump\t// in\n    tag_238:\n        /* \"#utility.yul\":1781:1844   */\n      swap2\n      pop\n        /* \"#utility.yul\":1737:1854   */\n      pop\n        /* \"#utility.yul\":1532:1861   */\n      swap3\n      swap2\n      pop\n      pop\n      jump\t// out\n        /* \"#utility.yul\":1867:1957   */\n    tag_157:\n        /* \"#utility.yul\":1901:1908   */\n      0x00\n        /* \"#utility.yul\":1944:1949   */\n      dup2\n        /* \"#utility.yul\":1937:1950   */\n      iszero\n        /* \"#utility.yul\":1930:1951   */\n      iszero\n        /* \"#utility.yul\":1919:1951   */\n      swap1\n      pop\n        /* \"#utility.yul\":1867:1957   */\n      swap2\n      swap1\n      pop\n      jump\t// out\n        /* \"#utility.yul\":1963:2072   */\n    tag_158:\n        /* \"#utility.yul\":2044:2065   */\n      tag_241\n        /* \"#utility.yul\":2059:2064   */\n      dup2\n        /* \"#utility.yul\":2044:2065   */\n      tag_157\n      jump\t// in\n    tag_241:\n        /* \"#utility.yul\":2039:2042   */\n      dup3\n        /* \"#utility.yul\":2032:2066   */\n      mstore\n        /* \"#utility.yul\":1963:2072   */\n      pop\n      pop\n      jump\t// out\n        /* \"#utility.yul\":2078:2288   */\n    tag_28:\n        /* \"#utility.yul\":2165:2169   */\n      0x00\n        /* \"#utility.yul\":2203:2205   */\n      0x20\n        /* \"#utility.yul\":2192:2201   */\n      dup3\n        /* \"#utility.yul\":2188:2206   */\n      add\n        /* \"#utility.yul\":2180:2206   */\n      swap1\n      pop\n        /* \"#utility.yul\":2216:2281   */\n      tag_243\n        /* \"#utility.yul\":2278:2279   */\n      0x00\n        /* \"#utility.yul\":2267:2276   */\n      dup4\n        /* \"#utility.yul\":2263:2280   */\n      add\n        /* \"#utility.yul\":2254:2260   */\n      dup5\n        /* \"#utility.yul\":2216:2281   */\n      tag_158\n      jump\t// in\n    tag_243:\n        /* \"#utility.yul\":2078:2288   */\n      swap3\n      swap2\n      pop\n      pop\n      jump\t// out\n        /* \"#utility.yul\":2294:2412   */\n    tag_159:\n        /* \"#utility.yul\":2381:2405   */\n      tag_245\n        /* \"#utility.yul\":2399:2404   */\n      dup2\n        /* \"#utility.yul\":2381:2405   */\n      tag_150\n      jump\t// in\n    tag_245:\n        /* \"#utility.yul\":2376:2379   */\n      dup3\n        /* \"#utility.yul\":2369:2406   */\n      mstore\n        /* \"#utility.yul\":2294:2412   */\n      pop\n      pop\n      jump\t// out\n        /* \"#utility.yul\":2418:2640   */\n    tag_33:\n        /* \"#utility.yul\":2511:2515   */\n      0x00\n        /* \"#utility.yul\":2549:2551   */\n      0x20\n        /* \"#utility.yul\":2538:2547   */\n      dup3\n        /* \"#utility.yul\":2534:2552   */\n      add\n        /* \"#utility.yul\":2526:2552   */\n      swap1\n      pop\n        /* \"#utility.yul\":2562:2633   */\n      tag_247\n        /* \"#utility.yul\":2630:2631   */\n      0x00\n        /* \"#utility.yul\":2619:2628   */\n      dup4\n        /* \"#utility.yul\":2615:2632   */\n      add\n        /* \"#utility.yul\":2606:2612   */\n      dup5\n        /* \"#utility.yul\":2562:2633   */\n      tag_159\n      jump\t// in\n    tag_247:\n        /* \"#utility.yul\":2418:2640   */\n      swap3\n      swap2\n      pop\n      pop\n      jump\t// out\n        /* \"#utility.yul\":2646:2764   */\n    tag_160:\n        /* \"#utility.yul\":2733:2757   */\n      tag_249\n        /* \"#utility.yul\":2751:2756   */\n      dup2\n        /* \"#utility.yul\":2733:2757   */\n      tag_154\n      jump\t// in\n    tag_249:\n        /* \"#utility.yul\":2728:2731   */\n      dup3\n        /* \"#utility.yul\":2721:2758   */\n      mstore\n        /* \"#utility.yul\":2646:2764   */\n      pop\n      pop\n      jump\t// out\n        /* \"#utility.yul\":2770:3434   */\n    tag_38:\n        /* \"#utility.yul\":2975:2979   */\n      0x00\n        /* \"#utility.yul\":3013:3016   */\n      0xa0\n        /* \"#utility.yul\":3002:3011   */\n      dup3\n        /* \"#utility.yul\":2998:3017   */\n      add\n        /* \"#utility.yul\":2990:3017   */\n      swap1\n      pop\n        /* \"#utility.yul\":3027:3098   */\n      tag_251\n        /* \"#utility.yul\":3095:3096   */\n      0x00\n        /* \"#utility.yul\":3084:3093   */\n      dup4\n        /* \"#utility.yul\":3080:3097   */\n      add\n        /* \"#utility.yul\":3071:3077   */\n      dup9\n        /* \"#utility.yul\":3027:3098   */\n      tag_159\n      jump\t// in\n    tag_251:\n        /* \"#utility.yul\":3108:3180   */\n      tag_252\n        /* \"#utility.yul\":3176:3178   */\n      0x20\n        /* \"#utility.yul\":3165:3174   */\n      dup4\n        /* \"#utility.yul\":3161:3179   */\n      add\n        /* \"#utility.yul\":3152:3158   */\n      dup8\n        /* \"#utility.yul\":3108:3180   */\n      tag_159\n      jump\t// in\n    tag_252:\n        /* \"#utility.yul\":3190:3262   */\n      tag_253\n        /* \"#utility.yul\":3258:3260   */\n      0x40\n        /* \"#utility.yul\":3247:3256   */\n      dup4\n        /* \"#utility.yul\":3243:3261   */\n      add\n        /* \"#utility.yul\":3234:3240   */\n      dup7\n        /* \"#utility.yul\":3190:3262   */\n      tag_159\n      jump\t// in\n    tag_253:\n        /* \"#utility.yul\":3272:3344   */\n      tag_254\n        /* \"#utility.yul\":3340:3342   */\n      0x60\n        /* \"#utility.yul\":3329:3338   */\n      dup4\n        /* \"#utility.yul\":3325:3343   */\n      add\n        /* \"#utility.yul\":3316:3322   */\n      dup6\n        /* \"#utility.yul\":3272:3344   */\n      tag_159\n      jump\t// in\n    tag_254:\n        /* \"#utility.yul\":3354:3427   */\n      tag_255\n        /* \"#utility.yul\":3422:3425   */\n      0x80\n        /* \"#utility.yul\":3411:3420   */\n      dup4\n        /* \"#utility.yul\":3407:3426   */\n      add\n        /* \"#utility.yul\":3398:3404   */\n      dup5\n        /* \"#utility.yul\":3354:3427   */\n      tag_160\n      jump\t// in\n    tag_255:\n        /* \"#utility.yul\":2770:3434   */\n      swap7\n      swap6\n      pop\n      pop\n      pop\n      pop\n      pop\n      pop\n      jump\t// out\n        /* \"#utility.yul\":3440:3662   */\n    tag_43:\n        /* \"#utility.yul\":3533:3537   */\n      0x00\n        /* \"#utility.yul\":3571:3573   */\n      0x20\n        /* \"#utility.yul\":3560:3569   */\n      dup3\n        /* \"#utility.yul\":3556:3574   */\n      add\n        /* \"#utility.yul\":3548:3574   */\n      swap1\n      pop\n        /* \"#utility.yul\":3584:3655   */\n      tag_257\n        /* \"#utility.yul\":3652:3653   */\n      0x00\n        /* \"#utility.yul\":3641:3650   */\n      dup4\n        /* \"#utility.yul\":3637:3654   */\n      add\n        /* \"#utility.yul\":3628:3634   */\n      dup5\n        /* \"#utility.yul\":3584:3655   */\n      tag_160\n      jump\t// in\n    tag_257:\n        /* \"#utility.yul\":3440:3662   */\n      swap3\n      swap2\n      pop\n      pop\n      jump\t// out\n        /* \"#utility.yul\":3668:4209   */\n    tag_49:\n        /* \"#utility.yul\":3839:3843   */\n      0x00\n        /* \"#utility.yul\":3877:3880   */\n      0x80\n        /* \"#utility.yul\":3866:3875   */\n      dup3\n        /* \"#utility.yul\":3862:3881   */\n      add\n        /* \"#utility.yul\":3854:3881   */\n      swap1\n      pop\n        /* \"#utility.yul\":3891:3962   */\n      tag_259\n        /* \"#utility.yul\":3959:3960   */\n      0x00\n        /* \"#utility.yul\":3948:3957   */\n      dup4\n        /* \"#utility.yul\":3944:3961   */\n      add\n        /* \"#utility.yul\":3935:3941   */\n      dup8\n        /* \"#utility.yul\":3891:3962   */\n      tag_159\n      jump\t// in\n    tag_259:\n        /* \"#utility.yul\":3972:4044   */\n      tag_260\n        /* \"#utility.yul\":4040:4042   */\n      0x20\n        /* \"#utility.yul\":4029:4038   */\n      dup4\n        /* \"#utility.yul\":4025:4043   */\n      add\n        /* \"#utility.yul\":4016:4022   */\n      dup7\n        /* \"#utility.yul\":3972:4044   */\n      tag_160\n      jump\t// in\n    tag_260:\n        /* \"#utility.yul\":4054:4120   */\n      tag_261\n        /* \"#utility.yul\":4116:4118   */\n      0x40\n        /* \"#utility.yul\":4105:4114   */\n      dup4\n        /* \"#utility.yul\":4101:4119   */\n      add\n        /* \"#utility.yul\":4092:4098   */\n      dup6\n        /* \"#utility.yul\":4054:4120   */\n      tag_158\n      jump\t// in\n    tag_261:\n        /* \"#utility.yul\":4130:4202   */\n      tag_262\n        /* \"#utility.yul\":4198:4200   */\n      0x60\n        /* \"#utility.yul\":4187:4196   */\n      dup4\n        /* \"#utility.yul\":4183:4201   */\n      add\n        /* \"#utility.yul\":4174:4180   */\n      dup5\n        /* \"#utility.yul\":4130:4202   */\n      tag_159\n      jump\t// in\n    tag_262:\n        /* \"#utility.yul\":3668:4209   */\n      swap6\n      swap5\n      pop\n      pop\n      pop\n      pop\n      pop\n      jump\t// out\n        /* \"#utility.yul\":4215:4314   */\n    tag_161:\n        /* \"#utility.yul\":4267:4273   */\n      0x00\n        /* \"#utility.yul\":4301:4306   */\n      dup2\n        /* \"#utility.yul\":4295:4307   */\n      mload\n        /* \"#utility.yul\":4285:4307   */\n      swap1\n      pop\n        /* \"#utility.yul\":4215:4314   */\n      swap2\n      swap1\n      pop\n      jump\t// out\n        /* \"#utility.yul\":4320:4489   */\n    tag_162:\n        /* \"#utility.yul\":4404:4415   */\n      0x00\n        /* \"#utility.yul\":4438:4444   */\n      dup3\n        /* \"#utility.yul\":4433:4436   */\n      dup3\n        /* \"#utility.yul\":4426:4445   */\n      mstore\n        /* \"#utility.yul\":4478:4482   */\n      0x20\n        /* \"#utility.yul\":4473:4476   */\n      dup3\n        /* \"#utility.yul\":4469:4483   */\n      add\n        /* \"#utility.yul\":4454:4483   */\n      swap1\n      pop\n        /* \"#utility.yul\":4320:4489   */\n      swap3\n      swap2\n      pop\n      pop\n      jump\t// out\n        /* \"#utility.yul\":4495:4634   */\n    tag_163:\n        /* \"#utility.yul\":4584:4590   */\n      dup3\n        /* \"#utility.yul\":4579:4582   */\n      dup2\n        /* \"#utility.yul\":4574:4577   */\n      dup4\n        /* \"#utility.yul\":4568:4591   */\n      mcopy\n        /* \"#utility.yul\":4625:4626   */\n      0x00\n        /* \"#utility.yul\":4616:4622   */\n      dup4\n        /* \"#utility.yul\":4611:4614   */\n      dup4\n        /* \"#utility.yul\":4607:4623   */\n      add\n        /* \"#utility.yul\":4600:4627   */\n      mstore\n        /* \"#utility.yul\":4495:4634   */\n      pop\n      pop\n      pop\n      jump\t// out\n        /* \"#utility.yul\":4640:4742   */\n    tag_164:\n        /* \"#utility.yul\":4681:4687   */\n      0x00\n        /* \"#utility.yul\":4732:4734   */\n      0x1f\n        /* \"#utility.yul\":4728:4735   */\n      not\n        /* \"#utility.yul\":4723:4725   */\n      0x1f\n        /* \"#utility.yul\":4716:4721   */\n      dup4\n        /* \"#utility.yul\":4712:4726   */\n      add\n        /* \"#utility.yul\":4708:4736   */\n      and\n        /* \"#utility.yul\":4698:4736   */\n      swap1\n      pop\n        /* \"#utility.yul\":4640:4742   */\n      swap2\n      swap1\n      pop\n      jump\t// out\n        /* \"#utility.yul\":4748:5125   */\n    tag_165:\n        /* \"#utility.yul\":4836:4839   */\n      0x00\n        /* \"#utility.yul\":4864:4903   */\n      tag_268\n        /* \"#utility.yul\":4897:4902   */\n      dup3\n        /* \"#utility.yul\":4864:4903   */\n      tag_161\n      jump\t// in\n    tag_268:\n        /* \"#utility.yul\":4919:4990   */\n      tag_269\n        /* \"#utility.yul\":4983:4989   */\n      dup2\n        /* \"#utility.yul\":4978:4981   */\n      dup6\n        /* \"#utility.yul\":4919:4990   */\n      tag_162\n      jump\t// in\n    tag_269:\n        /* \"#utility.yul\":4912:4990   */\n      swap4\n      pop\n        /* \"#utility.yul\":4999:5064   */\n      tag_270\n        /* \"#utility.yul\":5057:5063   */\n      dup2\n        /* \"#utility.yul\":5052:5055   */\n      dup6\n        /* \"#utility.yul\":5045:5049   */\n      0x20\n        /* \"#utility.yul\":5038:5043   */\n      dup7\n        /* \"#utility.yul\":5034:5050   */\n      add\n        /* \"#utility.yul\":4999:5064   */\n      tag_163\n      jump\t// in\n    tag_270:\n        /* \"#utility.yul\":5089:5118   */\n      tag_271\n        /* \"#utility.yul\":5111:5117   */\n      dup2\n        /* \"#utility.yul\":5089:5118   */\n      tag_164\n      jump\t// in\n    tag_271:\n        /* \"#utility.yul\":5084:5087   */\n      dup5\n        /* \"#utility.yul\":5080:5119   */\n      add\n        /* \"#utility.yul\":5073:5119   */\n      swap2\n      pop\n        /* \"#utility.yul\":4840:5125   */\n      pop\n        /* \"#utility.yul\":4748:5125   */\n      swap3\n      swap2\n      pop\n      pop\n      jump\t// out\n        /* \"#utility.yul\":5131:5235   */\n    tag_166:\n        /* \"#utility.yul\":5176:5183   */\n      0x00\n        /* \"#utility.yul\":5205:5229   */\n      tag_273\n        /* \"#utility.yul\":5223:5228   */\n      dup3\n        /* \"#utility.yul\":5205:5229   */\n      tag_153\n      jump\t// in\n    tag_273:\n        /* \"#utility.yul\":5194:5229   */\n      swap1\n      pop\n        /* \"#utility.yul\":5131:5235   */\n      swap2\n      swap1\n      pop\n      jump\t// out\n        /* \"#utility.yul\":5241:5383   */\n    tag_167:\n        /* \"#utility.yul\":5344:5376   */\n      tag_275\n        /* \"#utility.yul\":5370:5375   */\n      dup2\n        /* \"#utility.yul\":5344:5376   */\n      tag_166\n      jump\t// in\n    tag_275:\n        /* \"#utility.yul\":5339:5342   */\n      dup3\n        /* \"#utility.yul\":5332:5377   */\n      mstore\n        /* \"#utility.yul\":5241:5383   */\n      pop\n      pop\n      jump\t// out\n        /* \"#utility.yul\":5389:6164   */\n    tag_55:\n        /* \"#utility.yul\":5624:5628   */\n      0x00\n        /* \"#utility.yul\":5662:5665   */\n      0xa0\n        /* \"#utility.yul\":5651:5660   */\n      dup3\n        /* \"#utility.yul\":5647:5666   */\n      add\n        /* \"#utility.yul\":5639:5666   */\n      swap1\n      pop\n        /* \"#utility.yul\":5712:5721   */\n      dup2\n        /* \"#utility.yul\":5706:5710   */\n      dup2\n        /* \"#utility.yul\":5702:5722   */\n      sub\n        /* \"#utility.yul\":5698:5699   */\n      0x00\n        /* \"#utility.yul\":5687:5696   */\n      dup4\n        /* \"#utility.yul\":5683:5700   */\n      add\n        /* \"#utility.yul\":5676:5723   */\n      mstore\n        /* \"#utility.yul\":5740:5818   */\n      tag_277\n        /* \"#utility.yul\":5813:5817   */\n      dup2\n        /* \"#utility.yul\":5804:5810   */\n      dup9\n        /* \"#utility.yul\":5740:5818   */\n      tag_165\n      jump\t// in\n    tag_277:\n        /* \"#utility.yul\":5732:5818   */\n      swap1\n      pop\n        /* \"#utility.yul\":5828:5900   */\n      tag_278\n        /* \"#utility.yul\":5896:5898   */\n      0x20\n        /* \"#utility.yul\":5885:5894   */\n      dup4\n        /* \"#utility.yul\":5881:5899   */\n      add\n        /* \"#utility.yul\":5872:5878   */\n      dup8\n        /* \"#utility.yul\":5828:5900   */\n      tag_159\n      jump\t// in\n    tag_278:\n        /* \"#utility.yul\":5910:5998   */\n      tag_279\n        /* \"#utility.yul\":5994:5996   */\n      0x40\n        /* \"#utility.yul\":5983:5992   */\n      dup4\n        /* \"#utility.yul\":5979:5997   */\n      add\n        /* \"#utility.yul\":5970:5976   */\n      dup7\n        /* \"#utility.yul\":5910:5998   */\n      tag_167\n      jump\t// in\n    tag_279:\n        /* \"#utility.yul\":6008:6074   */\n      tag_280\n        /* \"#utility.yul\":6070:6072   */\n      0x60\n        /* \"#utility.yul\":6059:6068   */\n      dup4\n        /* \"#utility.yul\":6055:6073   */\n      add\n        /* \"#utility.yul\":6046:6052   */\n      dup6\n        /* \"#utility.yul\":6008:6074   */\n      tag_158\n      jump\t// in\n    tag_280:\n        /* \"#utility.yul\":6084:6157   */\n      tag_281\n        /* \"#utility.yul\":6152:6155   */\n      0x80\n        /* \"#utility.yul\":6141:6150   */\n      dup4\n        /* \"#utility.yul\":6137:6156   */\n      add\n        /* \"#utility.yul\":6128:6134   */\n      dup5\n        /* \"#utility.yul\":6084:6157   */\n      tag_159\n      jump\t// in\n    tag_281:\n        /* \"#utility.yul\":5389:6164   */\n      swap7\n      swap6\n      pop\n      pop\n      pop\n      pop\n      pop\n      pop\n      jump\t// out\n        /* \"#utility.yul\":6170:6287   */\n    tag_168:\n        /* \"#utility.yul\":6279:6280   */\n      0x00\n        /* \"#utility.yul\":6276:6277   */\n      0x00\n        /* \"#utility.yul\":6269:6281   */\n      revert\n        /* \"#utility.yul\":6293:6410   */\n    tag_169:\n        /* \"#utility.yul\":6402:6403   */\n      0x00\n        /* \"#utility.yul\":6399:6400   */\n      0x00\n        /* \"#utility.yul\":6392:6404   */\n      revert\n        /* \"#utility.yul\":6416:6596   */\n    tag_170:\n        /* \"#utility.yul\":6464:6541   */\n      0x4e487b7100000000000000000000000000000000000000000000000000000000\n        /* \"#utility.yul\":6461:6462   */\n      0x00\n        /* \"#utility.yul\":6454:6542   */\n      mstore\n        /* \"#utility.yul\":6561:6565   */\n      0x41\n        /* \"#utility.yul\":6558:6559   */\n      0x04\n        /* \"#utility.yul\":6551:6566   */\n      mstore\n        /* \"#utility.yul\":6585:6589   */\n      0x24\n        /* \"#utility.yul\":6582:6583   */\n      0x00\n        /* \"#utility.yul\":6575:6590   */\n      revert\n        /* \"#utility.yul\":6602:6883   */\n    tag_171:\n        /* \"#utility.yul\":6685:6712   */\n      tag_286\n        /* \"#utility.yul\":6707:6711   */\n      dup3\n        /* \"#utility.yul\":6685:6712   */\n      tag_164\n      jump\t// in\n    tag_286:\n        /* \"#utility.yul\":6677:6683   */\n      dup2\n        /* \"#utility.yul\":6673:6713   */\n      add\n        /* \"#utility.yul\":6815:6821   */\n      dup2\n        /* \"#utility.yul\":6803:6813   */\n      dup2\n        /* \"#utility.yul\":6800:6822   */\n      lt\n        /* \"#utility.yul\":6779:6797   */\n      0xffffffffffffffff\n        /* \"#utility.yul\":6767:6777   */\n      dup3\n        /* \"#utility.yul\":6764:6798   */\n      gt\n        /* \"#utility.yul\":6761:6823   */\n      or\n        /* \"#utility.yul\":6758:6846   */\n      iszero\n      tag_287\n      jumpi\n        /* \"#utility.yul\":6826:6844   */\n      tag_288\n      tag_170\n      jump\t// in\n    tag_288:\n        /* \"#utility.yul\":6758:6846   */\n    tag_287:\n        /* \"#utility.yul\":6866:6876   */\n      dup1\n        /* \"#utility.yul\":6862:6864   */\n      0x40\n        /* \"#utility.yul\":6855:6877   */\n      mstore\n        /* \"#utility.yul\":6645:6883   */\n      pop\n        /* \"#utility.yul\":6602:6883   */\n      pop\n      pop\n      jump\t// out\n        /* \"#utility.yul\":6889:7018   */\n    tag_172:\n        /* \"#utility.yul\":6923:6929   */\n      0x00\n        /* \"#utility.yul\":6950:6970   */\n      tag_290\n      tag_147\n      jump\t// in\n    tag_290:\n        /* \"#utility.yul\":6940:6970   */\n      swap1\n      pop\n        /* \"#utility.yul\":6979:7012   */\n      tag_291\n        /* \"#utility.yul\":7007:7011   */\n      dup3\n        /* \"#utility.yul\":6999:7005   */\n      dup3\n        /* \"#utility.yul\":6979:7012   */\n      tag_171\n      jump\t// in\n    tag_291:\n        /* \"#utility.yul\":6889:7018   */\n      swap2\n      swap1\n      pop\n      jump\t// out\n        /* \"#utility.yul\":7024:7332   */\n    tag_173:\n        /* \"#utility.yul\":7086:7090   */\n      0x00\n        /* \"#utility.yul\":7176:7194   */\n      0xffffffffffffffff\n        /* \"#utility.yul\":7168:7174   */\n      dup3\n        /* \"#utility.yul\":7165:7195   */\n      gt\n        /* \"#utility.yul\":7162:7218   */\n      iszero\n      tag_293\n      jumpi\n        /* \"#utility.yul\":7198:7216   */\n      tag_294\n      tag_170\n      jump\t// in\n    tag_294:\n        /* \"#utility.yul\":7162:7218   */\n    tag_293:\n        /* \"#utility.yul\":7236:7265   */\n      tag_295\n        /* \"#utility.yul\":7258:7264   */\n      dup3\n        /* \"#utility.yul\":7236:7265   */\n      tag_164\n      jump\t// in\n    tag_295:\n        /* \"#utility.yul\":7228:7265   */\n      swap1\n      pop\n        /* \"#utility.yul\":7320:7324   */\n      0x20\n        /* \"#utility.yul\":7314:7318   */\n      dup2\n        /* \"#utility.yul\":7310:7325   */\n      add\n        /* \"#utility.yul\":7302:7325   */\n      swap1\n      pop\n        /* \"#utility.yul\":7024:7332   */\n      swap2\n      swap1\n      pop\n      jump\t// out\n        /* \"#utility.yul\":7338:7486   */\n    tag_174:\n        /* \"#utility.yul\":7436:7442   */\n      dup3\n        /* \"#utility.yul\":7431:7434   */\n      dup2\n        /* \"#utility.yul\":7426:7429   */\n      dup4\n        /* \"#utility.yul\":7413:7443   */\n      calldatacopy\n        /* \"#utility.yul\":7477:7478   */\n      0x00\n        /* \"#utility.yul\":7468:7474   */\n      dup4\n        /* \"#utility.yul\":7463:7466   */\n      dup4\n        /* \"#utility.yul\":7459:7475   */\n      add\n        /* \"#utility.yul\":7452:7479   */\n      mstore\n        /* \"#utility.yul\":7338:7486   */\n      pop\n      pop\n      pop\n      jump\t// out\n        /* \"#utility.yul\":7492:7917   */\n    tag_175:\n        /* \"#utility.yul\":7570:7575   */\n      0x00\n        /* \"#utility.yul\":7595:7661   */\n      tag_298\n        /* \"#utility.yul\":7611:7660   */\n      tag_299\n        /* \"#utility.yul\":7653:7659   */\n      dup5\n        /* \"#utility.yul\":7611:7660   */\n      tag_173\n      jump\t// in\n    tag_299:\n        /* \"#utility.yul\":7595:7661   */\n      tag_172\n      jump\t// in\n    tag_298:\n        /* \"#utility.yul\":7586:7661   */\n      swap1\n      pop\n        /* \"#utility.yul\":7684:7690   */\n      dup3\n        /* \"#utility.yul\":7677:7682   */\n      dup2\n        /* \"#utility.yul\":7670:7691   */\n      mstore\n        /* \"#utility.yul\":7722:7726   */\n      0x20\n        /* \"#utility.yul\":7715:7720   */\n      dup2\n        /* \"#utility.yul\":7711:7727   */\n      add\n        /* \"#utility.yul\":7760:7763   */\n      dup5\n        /* \"#utility.yul\":7751:7757   */\n      dup5\n        /* \"#utility.yul\":7746:7749   */\n      dup5\n        /* \"#utility.yul\":7742:7758   */\n      add\n        /* \"#utility.yul\":7739:7764   */\n      gt\n        /* \"#utility.yul\":7736:7848   */\n      iszero\n      tag_300\n      jumpi\n        /* \"#utility.yul\":7767:7846   */\n      tag_301\n      tag_169\n      jump\t// in\n    tag_301:\n        /* \"#utility.yul\":7736:7848   */\n    tag_300:\n        /* \"#utility.yul\":7857:7911   */\n      tag_302\n        /* \"#utility.yul\":7904:7910   */\n      dup5\n        /* \"#utility.yul\":7899:7902   */\n      dup3\n        /* \"#utility.yul\":7894:7897   */\n      dup6\n        /* \"#utility.yul\":7857:7911   */\n      tag_174\n      jump\t// in\n    tag_302:\n        /* \"#utility.yul\":7576:7917   */\n      pop\n        /* \"#utility.yul\":7492:7917   */\n      swap4\n      swap3\n      pop\n      pop\n      pop\n      jump\t// out\n        /* \"#utility.yul\":7937:8277   */\n    tag_176:\n        /* \"#utility.yul\":7993:7998   */\n      0x00\n        /* \"#utility.yul\":8042:8045   */\n      dup3\n        /* \"#utility.yul\":8035:8039   */\n      0x1f\n        /* \"#utility.yul\":8027:8033   */\n      dup4\n        /* \"#utility.yul\":8023:8040   */\n      add\n        /* \"#utility.yul\":8019:8046   */\n      slt\n        /* \"#utility.yul\":8009:8131   */\n      tag_304\n      jumpi\n        /* \"#utility.yul\":8050:8129   */\n      tag_305\n      tag_168\n      jump\t// in\n    tag_305:\n        /* \"#utility.yul\":8009:8131   */\n    tag_304:\n        /* \"#utility.yul\":8167:8173   */\n      dup2\n        /* \"#utility.yul\":8154:8174   */\n      calldataload\n        /* \"#utility.yul\":8192:8271   */\n      tag_306\n        /* \"#utility.yul\":8267:8270   */\n      dup5\n        /* \"#utility.yul\":8259:8265   */\n      dup3\n        /* \"#utility.yul\":8252:8256   */\n      0x20\n        /* \"#utility.yul\":8244:8250   */\n      dup7\n        /* \"#utility.yul\":8240:8257   */\n      add\n        /* \"#utility.yul\":8192:8271   */\n      tag_175\n      jump\t// in\n    tag_306:\n        /* \"#utility.yul\":8183:8271   */\n      swap2\n      pop\n        /* \"#utility.yul\":7999:8277   */\n      pop\n        /* \"#utility.yul\":7937:8277   */\n      swap3\n      swap2\n      pop\n      pop\n      jump\t// out\n        /* \"#utility.yul\":8283:8421   */\n    tag_177:\n        /* \"#utility.yul\":8364:8396   */\n      tag_308\n        /* \"#utility.yul\":8390:8395   */\n      dup2\n        /* \"#utility.yul\":8364:8396   */\n      tag_166\n      jump\t// in\n    tag_308:\n        /* \"#utility.yul\":8357:8362   */\n      dup2\n        /* \"#utility.yul\":8354:8397   */\n      eq\n        /* \"#utility.yul\":8344:8415   */\n      tag_309\n      jumpi\n        /* \"#utility.yul\":8411:8412   */\n      0x00\n        /* \"#utility.yul\":8408:8409   */\n      0x00\n        /* \"#utility.yul\":8401:8413   */\n      revert\n        /* \"#utility.yul\":8344:8415   */\n    tag_309:\n        /* \"#utility.yul\":8283:8421   */\n      pop\n      jump\t// out\n        /* \"#utility.yul\":8427:8582   */\n    tag_178:\n        /* \"#utility.yul\":8481:8486   */\n      0x00\n        /* \"#utility.yul\":8519:8525   */\n      dup2\n        /* \"#utility.yul\":8506:8526   */\n      calldataload\n        /* \"#utility.yul\":8497:8526   */\n      swap1\n      pop\n        /* \"#utility.yul\":8535:8576   */\n      tag_311\n        /* \"#utility.yul\":8570:8575   */\n      dup2\n        /* \"#utility.yul\":8535:8576   */\n      tag_177\n      jump\t// in\n    tag_311:\n        /* \"#utility.yul\":8427:8582   */\n      swap3\n      swap2\n      pop\n      pop\n      jump\t// out\n        /* \"#utility.yul\":8588:9403   */\n    tag_63:\n        /* \"#utility.yul\":8683:8689   */\n      0x00\n        /* \"#utility.yul\":8691:8697   */\n      0x00\n        /* \"#utility.yul\":8699:8705   */\n      0x00\n        /* \"#utility.yul\":8748:8750   */\n      0x60\n        /* \"#utility.yul\":8736:8745   */\n      dup5\n        /* \"#utility.yul\":8727:8734   */\n      dup7\n        /* \"#utility.yul\":8723:8746   */\n      sub\n        /* \"#utility.yul\":8719:8751   */\n      slt\n        /* \"#utility.yul\":8716:8835   */\n      iszero\n      tag_313\n      jumpi\n        /* \"#utility.yul\":8754:8833   */\n      tag_314\n      tag_148\n      jump\t// in\n    tag_314:\n        /* \"#utility.yul\":8716:8835   */\n    tag_313:\n        /* \"#utility.yul\":8902:8903   */\n      0x00\n        /* \"#utility.yul\":8891:8900   */\n      dup5\n        /* \"#utility.yul\":8887:8904   */\n      add\n        /* \"#utility.yul\":8874:8905   */\n      calldataload\n        /* \"#utility.yul\":8932:8950   */\n      0xffffffffffffffff\n        /* \"#utility.yul\":8924:8930   */\n      dup2\n        /* \"#utility.yul\":8921:8951   */\n      gt\n        /* \"#utility.yul\":8918:9035   */\n      iszero\n      tag_315\n      jumpi\n        /* \"#utility.yul\":8954:9033   */\n      tag_316\n      tag_149\n      jump\t// in\n    tag_316:\n        /* \"#utility.yul\":8918:9035   */\n    tag_315:\n        /* \"#utility.yul\":9059:9122   */\n      tag_317\n        /* \"#utility.yul\":9114:9121   */\n      dup7\n        /* \"#utility.yul\":9105:9111   */\n      dup3\n        /* \"#utility.yul\":9094:9103   */\n      dup8\n        /* \"#utility.yul\":9090:9112   */\n      add\n        /* \"#utility.yul\":9059:9122   */\n      tag_176\n      jump\t// in\n    tag_317:\n        /* \"#utility.yul\":9049:9122   */\n      swap4\n      pop\n        /* \"#utility.yul\":8845:9132   */\n      pop\n        /* \"#utility.yul\":9171:9173   */\n      0x20\n        /* \"#utility.yul\":9197:9250   */\n      tag_318\n        /* \"#utility.yul\":9242:9249   */\n      dup7\n        /* \"#utility.yul\":9233:9239   */\n      dup3\n        /* \"#utility.yul\":9222:9231   */\n      dup8\n        /* \"#utility.yul\":9218:9240   */\n      add\n        /* \"#utility.yul\":9197:9250   */\n      tag_152\n      jump\t// in\n    tag_318:\n        /* \"#utility.yul\":9187:9250   */\n      swap3\n      pop\n        /* \"#utility.yul\":9142:9260   */\n      pop\n        /* \"#utility.yul\":9299:9301   */\n      0x40\n        /* \"#utility.yul\":9325:9386   */\n      tag_319\n        /* \"#utility.yul\":9378:9385   */\n      dup7\n        /* \"#utility.yul\":9369:9375   */\n      dup3\n        /* \"#utility.yul\":9358:9367   */\n      dup8\n        /* \"#utility.yul\":9354:9376   */\n      add\n        /* \"#utility.yul\":9325:9386   */\n      tag_178\n      jump\t// in\n    tag_319:\n        /* \"#utility.yul\":9315:9386   */\n      swap2\n      pop\n        /* \"#utility.yul\":9270:9396   */\n      pop\n        /* \"#utility.yul\":8588:9403   */\n      swap3\n      pop\n      swap3\n      pop\n      swap3\n      jump\t// out\n        /* \"#utility.yul\":9409:9883   */\n    tag_72:\n        /* \"#utility.yul\":9477:9483   */\n      0x00\n        /* \"#utility.yul\":9485:9491   */\n      0x00\n        /* \"#utility.yul\":9534:9536   */\n      0x40\n        /* \"#utility.yul\":9522:9531   */\n      dup4\n        /* \"#utility.yul\":9513:9520   */\n      dup6\n        /* \"#utility.yul\":9509:9532   */\n      sub\n        /* \"#utility.yul\":9505:9537   */\n      slt\n        /* \"#utility.yul\":9502:9621   */\n      iszero\n      tag_321\n      jumpi\n        /* \"#utility.yul\":9540:9619   */\n      tag_322\n      tag_148\n      jump\t// in\n    tag_322:\n        /* \"#utility.yul\":9502:9621   */\n    tag_321:\n        /* \"#utility.yul\":9660:9661   */\n      0x00\n        /* \"#utility.yul\":9685:9738   */\n      tag_323\n        /* \"#utility.yul\":9730:9737   */\n      dup6\n        /* \"#utility.yul\":9721:9727   */\n      dup3\n        /* \"#utility.yul\":9710:9719   */\n      dup7\n        /* \"#utility.yul\":9706:9728   */\n      add\n        /* \"#utility.yul\":9685:9738   */\n      tag_152\n      jump\t// in\n    tag_323:\n        /* \"#utility.yul\":9675:9738   */\n      swap3\n      pop\n        /* \"#utility.yul\":9631:9748   */\n      pop\n        /* \"#utility.yul\":9787:9789   */\n      0x20\n        /* \"#utility.yul\":9813:9866   */\n      tag_324\n        /* \"#utility.yul\":9858:9865   */\n      dup6\n        /* \"#utility.yul\":9849:9855   */\n      dup3\n        /* \"#utility.yul\":9838:9847   */\n      dup7\n        /* \"#utility.yul\":9834:9856   */\n      add\n        /* \"#utility.yul\":9813:9866   */\n      tag_156\n      jump\t// in\n    tag_324:\n        /* \"#utility.yul\":9803:9866   */\n      swap2\n      pop\n        /* \"#utility.yul\":9758:9876   */\n      pop\n        /* \"#utility.yul\":9409:9883   */\n      swap3\n      pop\n      swap3\n      swap1\n      pop\n      jump\t// out\n        /* \"#utility.yul\":9889:10070   */\n    tag_179:\n        /* \"#utility.yul\":10029:10062   */\n      0x4f6e6c79206d616e616765722063616e20637265617465207265717565737400\n        /* \"#utility.yul\":10025:10026   */\n      0x00\n        /* \"#utility.yul\":10017:10023   */\n      dup3\n        /* \"#utility.yul\":10013:10027   */\n      add\n        /* \"#utility.yul\":10006:10063   */\n      mstore\n        /* \"#utility.yul\":9889:10070   */\n      pop\n      jump\t// out\n        /* \"#utility.yul\":10076:10442   */\n    tag_180:\n        /* \"#utility.yul\":10218:10221   */\n      0x00\n        /* \"#utility.yul\":10239:10306   */\n      tag_327\n        /* \"#utility.yul\":10303:10305   */\n      0x1f\n        /* \"#utility.yul\":10298:10301   */\n      dup4\n        /* \"#utility.yul\":10239:10306   */\n      tag_162\n      jump\t// in\n    tag_327:\n        /* \"#utility.yul\":10232:10306   */\n      swap2\n      pop\n        /* \"#utility.yul\":10315:10408   */\n      tag_328\n        /* \"#utility.yul\":10404:10407   */\n      dup3\n        /* \"#utility.yul\":10315:10408   */\n      tag_179\n      jump\t// in\n    tag_328:\n        /* \"#utility.yul\":10433:10435   */\n      0x20\n        /* \"#utility.yul\":10428:10431   */\n      dup3\n        /* \"#utility.yul\":10424:10436   */\n      add\n        /* \"#utility.yul\":10417:10436   */\n      swap1\n      pop\n        /* \"#utility.yul\":10076:10442   */\n      swap2\n      swap1\n      pop\n      jump\t// out\n        /* \"#utility.yul\":10448:10867   */\n    tag_84:\n        /* \"#utility.yul\":10614:10618   */\n      0x00\n        /* \"#utility.yul\":10652:10654   */\n      0x20\n        /* \"#utility.yul\":10641:10650   */\n      dup3\n        /* \"#utility.yul\":10637:10655   */\n      add\n        /* \"#utility.yul\":10629:10655   */\n      swap1\n      pop\n        /* \"#utility.yul\":10701:10710   */\n      dup2\n        /* \"#utility.yul\":10695:10699   */\n      dup2\n        /* \"#utility.yul\":10691:10711   */\n      sub\n        /* \"#utility.yul\":10687:10688   */\n      0x00\n        /* \"#utility.yul\":10676:10685   */\n      dup4\n        /* \"#utility.yul\":10672:10689   */\n      add\n        /* \"#utility.yul\":10665:10712   */\n      mstore\n        /* \"#utility.yul\":10729:10860   */\n      tag_330\n        /* \"#utility.yul\":10855:10859   */\n      dup2\n        /* \"#utility.yul\":10729:10860   */\n      tag_180\n      jump\t// in\n    tag_330:\n        /* \"#utility.yul\":10721:10860   */\n      swap1\n      pop\n        /* \"#utility.yul\":10448:10867   */\n      swap2\n      swap1\n      pop\n      jump\t// out\n        /* \"#utility.yul\":10873:11053   */\n    tag_88:\n        /* \"#utility.yul\":10921:10998   */\n      0x4e487b7100000000000000000000000000000000000000000000000000000000\n        /* \"#utility.yul\":10918:10919   */\n      0x00\n        /* \"#utility.yul\":10911:10999   */\n      mstore\n        /* \"#utility.yul\":11018:11022   */\n      0x32\n        /* \"#utility.yul\":11015:11016   */\n      0x04\n        /* \"#utility.yul\":11008:11023   */\n      mstore\n        /* \"#utility.yul\":11042:11046   */\n      0x24\n        /* \"#utility.yul\":11039:11040   */\n      0x00\n        /* \"#utility.yul\":11032:11047   */\n      revert\n        /* \"#utility.yul\":11059:11239   */\n    tag_181:\n        /* \"#utility.yul\":11199:11231   */\n      0x496e73756666696369656e7420636f6e74726163742062616c616e63652e0000\n        /* \"#utility.yul\":11195:11196   */\n      0x00\n        /* \"#utility.yul\":11187:11193   */\n      dup3\n        /* \"#utility.yul\":11183:11197   */\n      add\n        /* \"#utility.yul\":11176:11232   */\n      mstore\n        /* \"#utility.yul\":11059:11239   */\n      pop\n      jump\t// out\n        /* \"#utility.yul\":11245:11611   */\n    tag_182:\n        /* \"#utility.yul\":11387:11390   */\n      0x00\n        /* \"#utility.yul\":11408:11475   */\n      tag_334\n        /* \"#utility.yul\":11472:11474   */\n      0x1e\n        /* \"#utility.yul\":11467:11470   */\n      dup4\n        /* \"#utility.yul\":11408:11475   */\n      tag_162\n      jump\t// in\n    tag_334:\n        /* \"#utility.yul\":11401:11475   */\n      swap2\n      pop\n        /* \"#utility.yul\":11484:11577   */\n      tag_335\n        /* \"#utility.yul\":11573:11576   */\n      dup3\n        /* \"#utility.yul\":11484:11577   */\n      tag_181\n      jump\t// in\n    tag_335:\n        /* \"#utility.yul\":11602:11604   */\n      0x20\n        /* \"#utility.yul\":11597:11600   */\n      dup3\n        /* \"#utility.yul\":11593:11605   */\n      add\n        /* \"#utility.yul\":11586:11605   */\n      swap1\n      pop\n        /* \"#utility.yul\":11245:11611   */\n      swap2\n      swap1\n      pop\n      jump\t// out\n        /* \"#utility.yul\":11617:12036   */\n    tag_92:\n        /* \"#utility.yul\":11783:11787   */\n      0x00\n        /* \"#utility.yul\":11821:11823   */\n      0x20\n        /* \"#utility.yul\":11810:11819   */\n      dup3\n        /* \"#utility.yul\":11806:11824   */\n      add\n        /* \"#utility.yul\":11798:11824   */\n      swap1\n      pop\n        /* \"#utility.yul\":11870:11879   */\n      dup2\n        /* \"#utility.yul\":11864:11868   */\n      dup2\n        /* \"#utility.yul\":11860:11880   */\n      sub\n        /* \"#utility.yul\":11856:11857   */\n      0x00\n        /* \"#utility.yul\":11845:11854   */\n      dup4\n        /* \"#utility.yul\":11841:11858   */\n      add\n        /* \"#utility.yul\":11834:11881   */\n      mstore\n        /* \"#utility.yul\":11898:12029   */\n      tag_337\n        /* \"#utility.yul\":12024:12028   */\n      dup2\n        /* \"#utility.yul\":11898:12029   */\n      tag_182\n      jump\t// in\n    tag_337:\n        /* \"#utility.yul\":11890:12029   */\n      swap1\n      pop\n        /* \"#utility.yul\":11617:12036   */\n      swap2\n      swap1\n      pop\n      jump\t// out\n        /* \"#utility.yul\":12042:12222   */\n    tag_183:\n        /* \"#utility.yul\":12090:12167   */\n      0x4e487b7100000000000000000000000000000000000000000000000000000000\n        /* \"#utility.yul\":12087:12088   */\n      0x00\n        /* \"#utility.yul\":12080:12168   */\n      mstore\n        /* \"#utility.yul\":12187:12191   */\n      0x12\n        /* \"#utility.yul\":12184:12185   */\n      0x04\n        /* \"#utility.yul\":12177:12192   */\n      mstore\n        /* \"#utility.yul\":12211:12215   */\n      0x24\n        /* \"#utility.yul\":12208:12209   */\n      0x00\n        /* \"#utility.yul\":12201:12216   */\n      revert\n        /* \"#utility.yul\":12228:12408   */\n    tag_184:\n        /* \"#utility.yul\":12276:12353   */\n      0x4e487b7100000000000000000000000000000000000000000000000000000000\n        /* \"#utility.yul\":12273:12274   */\n      0x00\n        /* \"#utility.yul\":12266:12354   */\n      mstore\n        /* \"#utility.yul\":12373:12377   */\n      0x11\n        /* \"#utility.yul\":12370:12371   */\n      0x04\n        /* \"#utility.yul\":12363:12378   */\n      mstore\n        /* \"#utility.yul\":12397:12401   */\n      0x24\n        /* \"#utility.yul\":12394:12395   */\n      0x00\n        /* \"#utility.yul\":12387:12402   */\n      revert\n        /* \"#utility.yul\":12414:12599   */\n    tag_94:\n        /* \"#utility.yul\":12454:12455   */\n      0x00\n        /* \"#utility.yul\":12471:12491   */\n      tag_341\n        /* \"#utility.yul\":12489:12490   */\n      dup3\n        /* \"#utility.yul\":12471:12491   */\n      tag_150\n      jump\t// in\n    tag_341:\n        /* \"#utility.yul\":12466:12491   */\n      swap2\n      pop\n        /* \"#utility.yul\":12505:12525   */\n      tag_342\n        /* \"#utility.yul\":12523:12524   */\n      dup4\n        /* \"#utility.yul\":12505:12525   */\n      tag_150\n      jump\t// in\n    tag_342:\n        /* \"#utility.yul\":12500:12525   */\n      swap3\n      pop\n        /* \"#utility.yul\":12544:12545   */\n      dup3\n        /* \"#utility.yul\":12534:12569   */\n      tag_343\n      jumpi\n        /* \"#utility.yul\":12549:12567   */\n      tag_344\n      tag_183\n      jump\t// in\n    tag_344:\n        /* \"#utility.yul\":12534:12569   */\n    tag_343:\n        /* \"#utility.yul\":12591:12592   */\n      dup3\n        /* \"#utility.yul\":12588:12589   */\n      dup3\n        /* \"#utility.yul\":12584:12593   */\n      div\n        /* \"#utility.yul\":12579:12593   */\n      swap1\n      pop\n        /* \"#utility.yul\":12414:12599   */\n      swap3\n      swap2\n      pop\n      pop\n      jump\t// out\n        /* \"#utility.yul\":12605:12776   */\n    tag_185:\n        /* \"#utility.yul\":12745:12768   */\n      0x4e6f7420656e6f75676820617070726f76616c732e0000000000000000000000\n        /* \"#utility.yul\":12741:12742   */\n      0x00\n        /* \"#utility.yul\":12733:12739   */\n      dup3\n        /* \"#utility.yul\":12729:12743   */\n      add\n        /* \"#utility.yul\":12722:12769   */\n      mstore\n        /* \"#utility.yul\":12605:12776   */\n      pop\n      jump\t// out\n        /* \"#utility.yul\":12782:13148   */\n    tag_186:\n        /* \"#utility.yul\":12924:12927   */\n      0x00\n        /* \"#utility.yul\":12945:13012   */\n      tag_347\n        /* \"#utility.yul\":13009:13011   */\n      0x15\n        /* \"#utility.yul\":13004:13007   */\n      dup4\n        /* \"#utility.yul\":12945:13012   */\n      tag_162\n      jump\t// in\n    tag_347:\n        /* \"#utility.yul\":12938:13012   */\n      swap2\n      pop\n        /* \"#utility.yul\":13021:13114   */\n      tag_348\n        /* \"#utility.yul\":13110:13113   */\n      dup3\n        /* \"#utility.yul\":13021:13114   */\n      tag_185\n      jump\t// in\n    tag_348:\n        /* \"#utility.yul\":13139:13141   */\n      0x20\n        /* \"#utility.yul\":13134:13137   */\n      dup3\n        /* \"#utility.yul\":13130:13142   */\n      add\n        /* \"#utility.yul\":13123:13142   */\n      swap1\n      pop\n        /* \"#utility.yul\":12782:13148   */\n      swap2\n      swap1\n      pop\n      jump\t// out\n        /* \"#utility.yul\":13154:13573   */\n    tag_97:\n        /* \"#utility.yul\":13320:13324   */\n      0x00\n        /* \"#utility.yul\":13358:13360   */\n      0x20\n        /* \"#utility.yul\":13347:13356   */\n      dup3\n        /* \"#utility.yul\":13343:13361   */\n      add\n        /* \"#utility.yul\":13335:13361   */\n      swap1\n      pop\n        /* \"#utility.yul\":13407:13416   */\n      dup2\n        /* \"#utility.yul\":13401:13405   */\n      dup2\n        /* \"#utility.yul\":13397:13417   */\n      sub\n        /* \"#utility.yul\":13393:13394   */\n      0x00\n        /* \"#utility.yul\":13382:13391   */\n      dup4\n        /* \"#utility.yul\":13378:13395   */\n      add\n        /* \"#utility.yul\":13371:13418   */\n      mstore\n        /* \"#utility.yul\":13435:13566   */\n      tag_350\n        /* \"#utility.yul\":13561:13565   */\n      dup2\n        /* \"#utility.yul\":13435:13566   */\n      tag_186\n      jump\t// in\n    tag_350:\n        /* \"#utility.yul\":13427:13566   */\n      swap1\n      pop\n        /* \"#utility.yul\":13154:13573   */\n      swap2\n      swap1\n      pop\n      jump\t// out\n        /* \"#utility.yul\":13579:13757   */\n    tag_187:\n        /* \"#utility.yul\":13719:13749   */\n      0x5265717565737420697320616c726561647920636f6d706c6574652e00000000\n        /* \"#utility.yul\":13715:13716   */\n      0x00\n        /* \"#utility.yul\":13707:13713   */\n      dup3\n        /* \"#utility.yul\":13703:13717   */\n      add\n        /* \"#utility.yul\":13696:13750   */\n      mstore\n        /* \"#utility.yul\":13579:13757   */\n      pop\n      jump\t// out\n        /* \"#utility.yul\":13763:14129   */\n    tag_188:\n        /* \"#utility.yul\":13905:13908   */\n      0x00\n        /* \"#utility.yul\":13926:13993   */\n      tag_353\n        /* \"#utility.yul\":13990:13992   */\n      0x1c\n        /* \"#utility.yul\":13985:13988   */\n      dup4\n        /* \"#utility.yul\":13926:13993   */\n      tag_162\n      jump\t// in\n    tag_353:\n        /* \"#utility.yul\":13919:13993   */\n      swap2\n      pop\n        /* \"#utility.yul\":14002:14095   */\n      tag_354\n        /* \"#utility.yul\":14091:14094   */\n      dup3\n        /* \"#utility.yul\":14002:14095   */\n      tag_187\n      jump\t// in\n    tag_354:\n        /* \"#utility.yul\":14120:14122   */\n      0x20\n        /* \"#utility.yul\":14115:14118   */\n      dup3\n        /* \"#utility.yul\":14111:14123   */\n      add\n        /* \"#utility.yul\":14104:14123   */\n      swap1\n      pop\n        /* \"#utility.yul\":13763:14129   */\n      swap2\n      swap1\n      pop\n      jump\t// out\n        /* \"#utility.yul\":14135:14554   */\n    tag_100:\n        /* \"#utility.yul\":14301:14305   */\n      0x00\n        /* \"#utility.yul\":14339:14341   */\n      0x20\n        /* \"#utility.yul\":14328:14337   */\n      dup3\n        /* \"#utility.yul\":14324:14342   */\n      add\n        /* \"#utility.yul\":14316:14342   */\n      swap1\n      pop\n        /* \"#utility.yul\":14388:14397   */\n      dup2\n        /* \"#utility.yul\":14382:14386   */\n      dup2\n        /* \"#utility.yul\":14378:14398   */\n      sub\n        /* \"#utility.yul\":14374:14375   */\n      0x00\n        /* \"#utility.yul\":14363:14372   */\n      dup4\n        /* \"#utility.yul\":14359:14376   */\n      add\n        /* \"#utility.yul\":14352:14399   */\n      mstore\n        /* \"#utility.yul\":14416:14547   */\n      tag_356\n        /* \"#utility.yul\":14542:14546   */\n      dup2\n        /* \"#utility.yul\":14416:14547   */\n      tag_188\n      jump\t// in\n    tag_356:\n        /* \"#utility.yul\":14408:14547   */\n      swap1\n      pop\n        /* \"#utility.yul\":14135:14554   */\n      swap2\n      swap1\n      pop\n      jump\t// out\n        /* \"#utility.yul\":14560:14732   */\n    tag_189:\n        /* \"#utility.yul\":14700:14724   */\n      0x496e76616c6964207265717565737420696e6465782e00000000000000000000\n        /* \"#utility.yul\":14696:14697   */\n      0x00\n        /* \"#utility.yul\":14688:14694   */\n      dup3\n        /* \"#utility.yul\":14684:14698   */\n      add\n        /* \"#utility.yul\":14677:14725   */\n      mstore\n        /* \"#utility.yul\":14560:14732   */\n      pop\n      jump\t// out\n        /* \"#utility.yul\":14738:15104   */\n    tag_190:\n        /* \"#utility.yul\":14880:14883   */\n      0x00\n        /* \"#utility.yul\":14901:14968   */\n      tag_359\n        /* \"#utility.yul\":14965:14967   */\n      0x16\n        /* \"#utility.yul\":14960:14963   */\n      dup4\n        /* \"#utility.yul\":14901:14968   */\n      tag_162\n      jump\t// in\n    tag_359:\n        /* \"#utility.yul\":14894:14968   */\n      swap2\n      pop\n        /* \"#utility.yul\":14977:15070   */\n      tag_360\n        /* \"#utility.yul\":15066:15069   */\n      dup3\n        /* \"#utility.yul\":14977:15070   */\n      tag_189\n      jump\t// in\n    tag_360:\n        /* \"#utility.yul\":15095:15097   */\n      0x20\n        /* \"#utility.yul\":15090:15093   */\n      dup3\n        /* \"#utility.yul\":15086:15098   */\n      add\n        /* \"#utility.yul\":15079:15098   */\n      swap1\n      pop\n        /* \"#utility.yul\":14738:15104   */\n      swap2\n      swap1\n      pop\n      jump\t// out\n        /* \"#utility.yul\":15110:15529   */\n    tag_108:\n        /* \"#utility.yul\":15276:15280   */\n      0x00\n        /* \"#utility.yul\":15314:15316   */\n      0x20\n        /* \"#utility.yul\":15303:15312   */\n      dup3\n        /* \"#utility.yul\":15299:15317   */\n      add\n        /* \"#utility.yul\":15291:15317   */\n      swap1\n      pop\n        /* \"#utility.yul\":15363:15372   */\n      dup2\n        /* \"#utility.yul\":15357:15361   */\n      dup2\n        /* \"#utility.yul\":15353:15373   */\n      sub\n        /* \"#utility.yul\":15349:15350   */\n      0x00\n        /* \"#utility.yul\":15338:15347   */\n      dup4\n        /* \"#utility.yul\":15334:15351   */\n      add\n        /* \"#utility.yul\":15327:15374   */\n      mstore\n        /* \"#utility.yul\":15391:15522   */\n      tag_362\n        /* \"#utility.yul\":15517:15521   */\n      dup2\n        /* \"#utility.yul\":15391:15522   */\n      tag_190\n      jump\t// in\n    tag_362:\n        /* \"#utility.yul\":15383:15522   */\n      swap1\n      pop\n        /* \"#utility.yul\":15110:15529   */\n      swap2\n      swap1\n      pop\n      jump\t// out\n        /* \"#utility.yul\":15535:15715   */\n    tag_191:\n        /* \"#utility.yul\":15583:15660   */\n      0x4e487b7100000000000000000000000000000000000000000000000000000000\n        /* \"#utility.yul\":15580:15581   */\n      0x00\n        /* \"#utility.yul\":15573:15661   */\n      mstore\n        /* \"#utility.yul\":15680:15684   */\n      0x22\n        /* \"#utility.yul\":15677:15678   */\n      0x04\n        /* \"#utility.yul\":15670:15685   */\n      mstore\n        /* \"#utility.yul\":15704:15708   */\n      0x24\n        /* \"#utility.yul\":15701:15702   */\n      0x00\n        /* \"#utility.yul\":15694:15709   */\n      revert\n        /* \"#utility.yul\":15721:16041   */\n    tag_113:\n        /* \"#utility.yul\":15765:15771   */\n      0x00\n        /* \"#utility.yul\":15802:15803   */\n      0x02\n        /* \"#utility.yul\":15796:15800   */\n      dup3\n        /* \"#utility.yul\":15792:15804   */\n      div\n        /* \"#utility.yul\":15782:15804   */\n      swap1\n      pop\n        /* \"#utility.yul\":15849:15850   */\n      0x01\n        /* \"#utility.yul\":15843:15847   */\n      dup3\n        /* \"#utility.yul\":15839:15851   */\n      and\n        /* \"#utility.yul\":15870:15888   */\n      dup1\n        /* \"#utility.yul\":15860:15941   */\n      tag_365\n      jumpi\n        /* \"#utility.yul\":15926:15930   */\n      0x7f\n        /* \"#utility.yul\":15918:15924   */\n      dup3\n        /* \"#utility.yul\":15914:15931   */\n      and\n        /* \"#utility.yul\":15904:15931   */\n      swap2\n      pop\n        /* \"#utility.yul\":15860:15941   */\n    tag_365:\n        /* \"#utility.yul\":15988:15990   */\n      0x20\n        /* \"#utility.yul\":15980:15986   */\n      dup3\n        /* \"#utility.yul\":15977:15991   */\n      lt\n        /* \"#utility.yul\":15957:15975   */\n      dup2\n        /* \"#utility.yul\":15954:15992   */\n      sub\n        /* \"#utility.yul\":15951:16035   */\n      tag_366\n      jumpi\n        /* \"#utility.yul\":16007:16025   */\n      tag_367\n      tag_191\n      jump\t// in\n    tag_367:\n        /* \"#utility.yul\":15951:16035   */\n    tag_366:\n        /* \"#utility.yul\":15772:16041   */\n      pop\n        /* \"#utility.yul\":15721:16041   */\n      swap2\n      swap1\n      pop\n      jump\t// out\n        /* \"#utility.yul\":16047:16188   */\n    tag_192:\n        /* \"#utility.yul\":16096:16100   */\n      0x00\n        /* \"#utility.yul\":16119:16122   */\n      dup2\n        /* \"#utility.yul\":16111:16122   */\n      swap1\n      pop\n        /* \"#utility.yul\":16142:16145   */\n      dup2\n        /* \"#utility.yul\":16139:16140   */\n      0x00\n        /* \"#utility.yul\":16132:16146   */\n      mstore\n        /* \"#utility.yul\":16176:16180   */\n      0x20\n        /* \"#utility.yul\":16173:16174   */\n      0x00\n        /* \"#utility.yul\":16163:16181   */\n      keccak256\n        /* \"#utility.yul\":16155:16181   */\n      swap1\n      pop\n        /* \"#utility.yul\":16047:16188   */\n      swap2\n      swap1\n      pop\n      jump\t// out\n        /* \"#utility.yul\":16194:16287   */\n    tag_193:\n        /* \"#utility.yul\":16231:16237   */\n      0x00\n        /* \"#utility.yul\":16278:16280   */\n      0x20\n        /* \"#utility.yul\":16273:16275   */\n      0x1f\n        /* \"#utility.yul\":16266:16271   */\n      dup4\n        /* \"#utility.yul\":16262:16276   */\n      add\n        /* \"#utility.yul\":16258:16281   */\n      div\n        /* \"#utility.yul\":16248:16281   */\n      swap1\n      pop\n        /* \"#utility.yul\":16194:16287   */\n      swap2\n      swap1\n      pop\n      jump\t// out\n        /* \"#utility.yul\":16293:16400   */\n    tag_194:\n        /* \"#utility.yul\":16337:16345   */\n      0x00\n        /* \"#utility.yul\":16387:16392   */\n      dup3\n        /* \"#utility.yul\":16381:16385   */\n      dup3\n        /* \"#utility.yul\":16377:16393   */\n      shl\n        /* \"#utility.yul\":16356:16393   */\n      swap1\n      pop\n        /* \"#utility.yul\":16293:16400   */\n      swap3\n      swap2\n      pop\n      pop\n      jump\t// out\n        /* \"#utility.yul\":16406:16799   */\n    tag_195:\n        /* \"#utility.yul\":16475:16481   */\n      0x00\n        /* \"#utility.yul\":16525:16526   */\n      0x08\n        /* \"#utility.yul\":16513:16523   */\n      dup4\n        /* \"#utility.yul\":16509:16527   */\n      mul\n        /* \"#utility.yul\":16548:16645   */\n      tag_372\n        /* \"#utility.yul\":16578:16644   */\n      0xffffffffffffffffffffffffffffffffffffffffffffffffffffffffffffffff\n        /* \"#utility.yul\":16567:16576   */\n      dup3\n        /* \"#utility.yul\":16548:16645   */\n      tag_194\n      jump\t// in\n    tag_372:\n        /* \"#utility.yul\":16666:16705   */\n      tag_373\n        /* \"#utility.yul\":16696:16704   */\n      dup7\n        /* \"#utility.yul\":16685:16694   */\n      dup4\n        /* \"#utility.yul\":16666:16705   */\n      tag_194\n      jump\t// in\n    tag_373:\n        /* \"#utility.yul\":16654:16705   */\n      swap6\n      pop\n        /* \"#utility.yul\":16738:16742   */\n      dup1\n        /* \"#utility.yul\":16734:16743   */\n      not\n        /* \"#utility.yul\":16727:16732   */\n      dup5\n        /* \"#utility.yul\":16723:16744   */\n      and\n        /* \"#utility.yul\":16714:16744   */\n      swap4\n      pop\n        /* \"#utility.yul\":16787:16791   */\n      dup1\n        /* \"#utility.yul\":16777:16785   */\n      dup7\n        /* \"#utility.yul\":16773:16792   */\n      and\n        /* \"#utility.yul\":16766:16771   */\n      dup5\n        /* \"#utility.yul\":16763:16793   */\n      or\n        /* \"#utility.yul\":16753:16793   */\n      swap3\n      pop\n        /* \"#utility.yul\":16482:16799   */\n      pop\n      pop\n        /* \"#utility.yul\":16406:16799   */\n      swap4\n      swap3\n      pop\n      pop\n      pop\n      jump\t// out\n        /* \"#utility.yul\":16805:16865   */\n    tag_196:\n        /* \"#utility.yul\":16833:16836   */\n      0x00\n        /* \"#utility.yul\":16854:16859   */\n      dup2\n        /* \"#utility.yul\":16847:16859   */\n      swap1\n      pop\n        /* \"#utility.yul\":16805:16865   */\n      swap2\n      swap1\n      pop\n      jump\t// out\n        /* \"#utility.yul\":16871:17013   */\n    tag_197:\n        /* \"#utility.yul\":16921:16930   */\n      0x00\n        /* \"#utility.yul\":16954:17007   */\n      tag_376\n        /* \"#utility.yul\":16972:17006   */\n      tag_377\n        /* \"#utility.yul\":16981:17005   */\n      tag_378\n        /* \"#utility.yul\":16999:17004   */\n      dup5\n        /* \"#utility.yul\":16981:17005   */\n      tag_150\n      jump\t// in\n    tag_378:\n        /* \"#utility.yul\":16972:17006   */\n      tag_196\n      jump\t// in\n    tag_377:\n        /* \"#utility.yul\":16954:17007   */\n      tag_150\n      jump\t// in\n    tag_376:\n        /* \"#utility.yul\":16941:17007   */\n      swap1\n      pop\n        /* \"#utility.yul\":16871:17013   */\n      swap2\n      swap1\n      pop\n      jump\t// out\n        /* \"#utility.yul\":17019:17094   */\n    tag_198:\n        /* \"#utility.yul\":17062:17065   */\n      0x00\n        /* \"#utility.yul\":17083:17088   */\n      dup2\n        /* \"#utility.yul\":17076:17088   */\n      swap1\n      pop\n        /* \"#utility.yul\":17019:17094   */\n      swap2\n      swap1\n      pop\n      jump\t// out\n        /* \"#utility.yul\":17100:17369   */\n    tag_199:\n        /* \"#utility.yul\":17210:17249   */\n      tag_381\n        /* \"#utility.yul\":17241:17248   */\n      dup4\n        /* \"#utility.yul\":17210:17249   */\n      tag_197\n      jump\t// in\n    tag_381:\n        /* \"#utility.yul\":17271:17362   */\n      tag_382\n        /* \"#utility.yul\":17320:17361   */\n      tag_383\n        /* \"#utility.yul\":17344:17360   */\n      dup3\n        /* \"#utility.yul\":17320:17361   */\n      tag_198\n      jump\t// in\n    tag_383:\n        /* \"#utility.yul\":17312:17318   */\n      dup5\n        /* \"#utility.yul\":17305:17309   */\n      dup5\n        /* \"#utility.yul\":17299:17310   */\n      sload\n        /* \"#utility.yul\":17271:17362   */\n      tag_195\n      jump\t// in\n    tag_382:\n        /* \"#utility.yul\":17265:17269   */\n      dup3\n        /* \"#utility.yul\":17258:17363   */\n      sstore\n        /* \"#utility.yul\":17176:17369   */\n      pop\n        /* \"#utility.yul\":17100:17369   */\n      pop\n      pop\n      pop\n      jump\t// out\n        /* \"#utility.yul\":17375:17448   */\n    tag_200:\n        /* \"#utility.yul\":17420:17423   */\n      0x00\n        /* \"#utility.yul\":17441:17442   */\n      0x00\n        /* \"#utility.yul\":17434:17442   */\n      swap1\n      pop\n        /* \"#utility.yul\":17375:17448   */\n      swap1\n      jump\t// out\n        /* \"#utility.yul\":17454:17643   */\n    tag_201:\n        /* \"#utility.yul\":17531:17563   */\n      tag_386\n      tag_200\n      jump\t// in\n    tag_386:\n        /* \"#utility.yul\":17572:17637   */\n      tag_387\n        /* \"#utility.yul\":17630:17636   */\n      dup2\n        /* \"#utility.yul\":17622:17628   */\n      dup5\n        /* \"#utility.yul\":17616:17620   */\n      dup5\n        /* \"#utility.yul\":17572:17637   */\n      tag_199\n      jump\t// in\n    tag_387:\n        /* \"#utility.yul\":17507:17643   */\n      pop\n        /* \"#utility.yul\":17454:17643   */\n      pop\n      pop\n      jump\t// out\n        /* \"#utility.yul\":17649:17835   */\n    tag_202:\n        /* \"#utility.yul\":17709:17829   */\n    tag_389:\n        /* \"#utility.yul\":17726:17729   */\n      dup2\n        /* \"#utility.yul\":17719:17724   */\n      dup2\n        /* \"#utility.yul\":17716:17730   */\n      lt\n        /* \"#utility.yul\":17709:17829   */\n      iszero\n      tag_391\n      jumpi\n        /* \"#utility.yul\":17780:17819   */\n      tag_392\n        /* \"#utility.yul\":17817:17818   */\n      0x00\n        /* \"#utility.yul\":17810:17815   */\n      dup3\n        /* \"#utility.yul\":17780:17819   */\n      tag_201\n      jump\t// in\n    tag_392:\n        /* \"#utility.yul\":17753:17754   */\n      0x01\n        /* \"#utility.yul\":17746:17751   */\n      dup2\n        /* \"#utility.yul\":17742:17755   */\n      add\n        /* \"#utility.yul\":17733:17755   */\n      swap1\n      pop\n        /* \"#utility.yul\":17709:17829   */\n      jump(tag_389)\n    tag_391:\n        /* \"#utility.yul\":17649:17835   */\n      pop\n      pop\n      jump\t// out\n        /* \"#utility.yul\":17841:18384   */\n    tag_203:\n        /* \"#utility.yul\":17942:17944   */\n      0x1f\n        /* \"#utility.yul\":17937:17940   */\n      dup3\n        /* \"#utility.yul\":17934:17945   */\n      gt\n        /* \"#utility.yul\":17931:18377   */\n      iszero\n      tag_394\n      jumpi\n        /* \"#utility.yul\":17976:18014   */\n      tag_395\n        /* \"#utility.yul\":18008:18013   */\n      dup2\n        /* \"#utility.yul\":17976:18014   */\n      tag_192\n      jump\t// in\n    tag_395:\n        /* \"#utility.yul\":18060:18089   */\n      tag_396\n        /* \"#utility.yul\":18078:18088   */\n      dup5\n        /* \"#utility.yul\":18060:18089   */\n      tag_193\n      jump\t// in\n    tag_396:\n        /* \"#utility.yul\":18050:18058   */\n      dup2\n        /* \"#utility.yul\":18046:18090   */\n      add\n        /* \"#utility.yul\":18243:18245   */\n      0x20\n        /* \"#utility.yul\":18231:18241   */\n      dup6\n        /* \"#utility.yul\":18228:18246   */\n      lt\n        /* \"#utility.yul\":18225:18274   */\n      iszero\n      tag_397\n      jumpi\n        /* \"#utility.yul\":18264:18272   */\n      dup2\n        /* \"#utility.yul\":18249:18272   */\n      swap1\n      pop\n        /* \"#utility.yul\":18225:18274   */\n    tag_397:\n        /* \"#utility.yul\":18287:18367   */\n      tag_398\n        /* \"#utility.yul\":18343:18365   */\n      tag_399\n        /* \"#utility.yul\":18361:18364   */\n      dup6\n        /* \"#utility.yul\":18343:18365   */\n      tag_193\n      jump\t// in\n    tag_399:\n        /* \"#utility.yul\":18333:18341   */\n      dup4\n        /* \"#utility.yul\":18329:18366   */\n      add\n        /* \"#utility.yul\":18316:18327   */\n      dup3\n        /* \"#utility.yul\":18287:18367   */\n      tag_202\n      jump\t// in\n    tag_398:\n        /* \"#utility.yul\":17946:18377   */\n      pop\n      pop\n        /* \"#utility.yul\":17931:18377   */\n    tag_394:\n        /* \"#utility.yul\":17841:18384   */\n      pop\n      pop\n      pop\n      jump\t// out\n        /* \"#utility.yul\":18390:18507   */\n    tag_204:\n        /* \"#utility.yul\":18444:18452   */\n      0x00\n        /* \"#utility.yul\":18494:18499   */\n      dup3\n        /* \"#utility.yul\":18488:18492   */\n      dup3\n        /* \"#utility.yul\":18484:18500   */\n      shr\n        /* \"#utility.yul\":18463:18500   */\n      swap1\n      pop\n        /* \"#utility.yul\":18390:18507   */\n      swap3\n      swap2\n      pop\n      pop\n      jump\t// out\n        /* \"#utility.yul\":18513:18682   */\n    tag_205:\n        /* \"#utility.yul\":18557:18563   */\n      0x00\n        /* \"#utility.yul\":18590:18641   */\n      tag_402\n        /* \"#utility.yul\":18638:18639   */\n      0x00\n        /* \"#utility.yul\":18634:18640   */\n      not\n        /* \"#utility.yul\":18626:18631   */\n      dup5\n        /* \"#utility.yul\":18623:18624   */\n      0x08\n        /* \"#utility.yul\":18619:18632   */\n      mul\n        /* \"#utility.yul\":18590:18641   */\n      tag_204\n      jump\t// in\n    tag_402:\n        /* \"#utility.yul\":18586:18642   */\n      not\n        /* \"#utility.yul\":18671:18675   */\n      dup1\n        /* \"#utility.yul\":18665:18669   */\n      dup4\n        /* \"#utility.yul\":18661:18676   */\n      and\n        /* \"#utility.yul\":18651:18676   */\n      swap2\n      pop\n        /* \"#utility.yul\":18564:18682   */\n      pop\n        /* \"#utility.yul\":18513:18682   */\n      swap3\n      swap2\n      pop\n      pop\n      jump\t// out\n        /* \"#utility.yul\":18687:18982   */\n    tag_206:\n        /* \"#utility.yul\":18763:18767   */\n      0x00\n        /* \"#utility.yul\":18909:18938   */\n      tag_404\n        /* \"#utility.yul\":18934:18937   */\n      dup4\n        /* \"#utility.yul\":18928:18932   */\n      dup4\n        /* \"#utility.yul\":18909:18938   */\n      tag_205\n      jump\t// in\n    tag_404:\n        /* \"#utility.yul\":18901:18938   */\n      swap2\n      pop\n        /* \"#utility.yul\":18971:18974   */\n      dup3\n        /* \"#utility.yul\":18968:18969   */\n      0x02\n        /* \"#utility.yul\":18964:18975   */\n      mul\n        /* \"#utility.yul\":18958:18962   */\n      dup3\n        /* \"#utility.yul\":18955:18976   */\n      or\n        /* \"#utility.yul\":18947:18976   */\n      swap1\n      pop\n        /* \"#utility.yul\":18687:18982   */\n      swap3\n      swap2\n      pop\n      pop\n      jump\t// out\n        /* \"#utility.yul\":18987:20382   */\n    tag_128:\n        /* \"#utility.yul\":19104:19141   */\n      tag_406\n        /* \"#utility.yul\":19137:19140   */\n      dup3\n        /* \"#utility.yul\":19104:19141   */\n      tag_161\n      jump\t// in\n    tag_406:\n        /* \"#utility.yul\":19206:19224   */\n      0xffffffffffffffff\n        /* \"#utility.yul\":19198:19204   */\n      dup2\n        /* \"#utility.yul\":19195:19225   */\n      gt\n        /* \"#utility.yul\":19192:19248   */\n      iszero\n      tag_407\n      jumpi\n        /* \"#utility.yul\":19228:19246   */\n      tag_408\n      tag_170\n      jump\t// in\n    tag_408:\n        /* \"#utility.yul\":19192:19248   */\n    tag_407:\n        /* \"#utility.yul\":19272:19310   */\n      tag_409\n        /* \"#utility.yul\":19304:19308   */\n      dup3\n        /* \"#utility.yul\":19298:19309   */\n      sload\n        /* \"#utility.yul\":19272:19310   */\n      tag_113\n      jump\t// in\n    tag_409:\n        /* \"#utility.yul\":19357:19424   */\n      tag_410\n        /* \"#utility.yul\":19417:19423   */\n      dup3\n        /* \"#utility.yul\":19409:19415   */\n      dup3\n        /* \"#utility.yul\":19403:19407   */\n      dup6\n        /* \"#utility.yul\":19357:19424   */\n      tag_203\n      jump\t// in\n    tag_410:\n        /* \"#utility.yul\":19451:19452   */\n      0x00\n        /* \"#utility.yul\":19475:19479   */\n      0x20\n        /* \"#utility.yul\":19462:19479   */\n      swap1\n      pop\n        /* \"#utility.yul\":19507:19509   */\n      0x1f\n        /* \"#utility.yul\":19499:19505   */\n      dup4\n        /* \"#utility.yul\":19496:19510   */\n      gt\n        /* \"#utility.yul\":19524:19525   */\n      0x01\n        /* \"#utility.yul\":19519:20137   */\n      dup2\n      eq\n      tag_412\n      jumpi\n        /* \"#utility.yul\":20181:20182   */\n      0x00\n        /* \"#utility.yul\":20198:20204   */\n      dup5\n        /* \"#utility.yul\":20195:20272   */\n      iszero\n      tag_413\n      jumpi\n        /* \"#utility.yul\":20247:20256   */\n      dup3\n        /* \"#utility.yul\":20242:20245   */\n      dup8\n        /* \"#utility.yul\":20238:20257   */\n      add\n        /* \"#utility.yul\":20232:20258   */\n      mload\n        /* \"#utility.yul\":20223:20258   */\n      swap1\n      pop\n        /* \"#utility.yul\":20195:20272   */\n    tag_413:\n        /* \"#utility.yul\":20298:20365   */\n      tag_414\n        /* \"#utility.yul\":20358:20364   */\n      dup6\n        /* \"#utility.yul\":20351:20356   */\n      dup3\n        /* \"#utility.yul\":20298:20365   */\n      tag_206\n      jump\t// in\n    tag_414:\n        /* \"#utility.yul\":20292:20296   */\n      dup7\n        /* \"#utility.yul\":20285:20366   */\n      sstore\n        /* \"#utility.yul\":20154:20376   */\n      pop\n        /* \"#utility.yul\":19489:20376   */\n      jump(tag_411)\n        /* \"#utility.yul\":19519:20137   */\n    tag_412:\n        /* \"#utility.yul\":19571:19575   */\n      0x1f\n        /* \"#utility.yul\":19567:19576   */\n      not\n        /* \"#utility.yul\":19559:19565   */\n      dup5\n        /* \"#utility.yul\":19555:19577   */\n      and\n        /* \"#utility.yul\":19605:19642   */\n      tag_415\n        /* \"#utility.yul\":19637:19641   */\n      dup7\n        /* \"#utility.yul\":19605:19642   */\n      tag_192\n      jump\t// in\n    tag_415:\n        /* \"#utility.yul\":19664:19665   */\n      0x00\n        /* \"#utility.yul\":19678:19886   */\n    tag_416:\n        /* \"#utility.yul\":19692:19699   */\n      dup3\n        /* \"#utility.yul\":19689:19690   */\n      dup2\n        /* \"#utility.yul\":19686:19700   */\n      lt\n        /* \"#utility.yul\":19678:19886   */\n      iszero\n      tag_418\n      jumpi\n        /* \"#utility.yul\":19771:19780   */\n      dup5\n        /* \"#utility.yul\":19766:19769   */\n      dup10\n        /* \"#utility.yul\":19762:19781   */\n      add\n        /* \"#utility.yul\":19756:19782   */\n      mload\n        /* \"#utility.yul\":19748:19754   */\n      dup3\n        /* \"#utility.yul\":19741:19783   */\n      sstore\n        /* \"#utility.yul\":19822:19823   */\n      0x01\n        /* \"#utility.yul\":19814:19820   */\n      dup3\n        /* \"#utility.yul\":19810:19824   */\n      add\n        /* \"#utility.yul\":19800:19824   */\n      swap2\n      pop\n        /* \"#utility.yul\":19869:19871   */\n      0x20\n        /* \"#utility.yul\":19858:19867   */\n      dup6\n        /* \"#utility.yul\":19854:19872   */\n      add\n        /* \"#utility.yul\":19841:19872   */\n      swap5\n      pop\n        /* \"#utility.yul\":19715:19719   */\n      0x20\n        /* \"#utility.yul\":19712:19713   */\n      dup2\n        /* \"#utility.yul\":19708:19720   */\n      add\n        /* \"#utility.yul\":19703:19720   */\n      swap1\n      pop\n        /* \"#utility.yul\":19678:19886   */\n      jump(tag_416)\n    tag_418:\n        /* \"#utility.yul\":19914:19920   */\n      dup7\n        /* \"#utility.yul\":19905:19912   */\n      dup4\n        /* \"#utility.yul\":19902:19921   */\n      lt\n        /* \"#utility.yul\":19899:20078   */\n      iszero\n      tag_419\n      jumpi\n        /* \"#utility.yul\":19972:19981   */\n      dup5\n        /* \"#utility.yul\":19967:19970   */\n      dup10\n        /* \"#utility.yul\":19963:19982   */\n      add\n        /* \"#utility.yul\":19957:19983   */\n      mload\n        /* \"#utility.yul\":20015:20063   */\n      tag_420\n        /* \"#utility.yul\":20057:20061   */\n      0x1f\n        /* \"#utility.yul\":20049:20055   */\n      dup10\n        /* \"#utility.yul\":20045:20062   */\n      and\n        /* \"#utility.yul\":20034:20043   */\n      dup3\n        /* \"#utility.yul\":20015:20063   */\n      tag_205\n      jump\t// in\n    tag_420:\n        /* \"#utility.yul\":20007:20013   */\n      dup4\n        /* \"#utility.yul\":20000:20064   */\n      sstore\n        /* \"#utility.yul\":19922:20078   */\n      pop\n        /* \"#utility.yul\":19899:20078   */\n    tag_419:\n        /* \"#utility.yul\":20124:20125   */\n      0x01\n        /* \"#utility.yul\":20120:20121   */\n      0x02\n        /* \"#utility.yul\":20112:20118   */\n      dup9\n        /* \"#utility.yul\":20108:20122   */\n      mul\n        /* \"#utility.yul\":20104:20126   */\n      add\n        /* \"#utility.yul\":20098:20102   */\n      dup9\n        /* \"#utility.yul\":20091:20127   */\n      sstore\n        /* \"#utility.yul\":19526:20137   */\n      pop\n      pop\n      pop\n        /* \"#utility.yul\":19489:20376   */\n    tag_411:\n      pop\n        /* \"#utility.yul\":19079:20382   */\n      pop\n      pop\n      pop\n        /* \"#utility.yul\":18987:20382   */\n      pop\n      pop\n      jump\t// out\n        /* \"#utility.yul\":20388:20624   */\n    tag_207:\n        /* \"#utility.yul\":20528:20562   */\n      0x436f6e747269627574696f6e206d757374206265206772656174657220746861\n        /* \"#utility.yul\":20524:20525   */\n      0x00\n        /* \"#utility.yul\":20516:20522   */\n      dup3\n        /* \"#utility.yul\":20512:20526   */\n      add\n        /* \"#utility.yul\":20505:20563   */\n      mstore\n        /* \"#utility.yul\":20597:20616   */\n      0x6e206d696e696d756d20616d6f756e742e000000000000000000000000000000\n        /* \"#utility.yul\":20592:20594   */\n      0x20\n        /* \"#utility.yul\":20584:20590   */\n      dup3\n        /* \"#utility.yul\":20580:20595   */\n      add\n        /* \"#utility.yul\":20573:20617   */\n      mstore\n        /* \"#utility.yul\":20388:20624   */\n      pop\n      jump\t// out\n        /* \"#utility.yul\":20630:20996   */\n    tag_208:\n        /* \"#utility.yul\":20772:20775   */\n      0x00\n        /* \"#utility.yul\":20793:20860   */\n      tag_423\n        /* \"#utility.yul\":20857:20859   */\n      0x31\n        /* \"#utility.yul\":20852:20855   */\n      dup4\n        /* \"#utility.yul\":20793:20860   */\n      tag_162\n      jump\t// in\n    tag_423:\n        /* \"#utility.yul\":20786:20860   */\n      swap2\n      pop\n        /* \"#utility.yul\":20869:20962   */\n      tag_424\n        /* \"#utility.yul\":20958:20961   */\n      dup3\n        /* \"#utility.yul\":20869:20962   */\n      tag_207\n      jump\t// in\n    tag_424:\n        /* \"#utility.yul\":20987:20989   */\n      0x40\n        /* \"#utility.yul\":20982:20985   */\n      dup3\n        /* \"#utility.yul\":20978:20990   */\n      add\n        /* \"#utility.yul\":20971:20990   */\n      swap1\n      pop\n        /* \"#utility.yul\":20630:20996   */\n      swap2\n      swap1\n      pop\n      jump\t// out\n        /* \"#utility.yul\":21002:21421   */\n    tag_132:\n        /* \"#utility.yul\":21168:21172   */\n      0x00\n        /* \"#utility.yul\":21206:21208   */\n      0x20\n        /* \"#utility.yul\":21195:21204   */\n      dup3\n        /* \"#utility.yul\":21191:21209   */\n      add\n        /* \"#utility.yul\":21183:21209   */\n      swap1\n      pop\n        /* \"#utility.yul\":21255:21264   */\n      dup2\n        /* \"#utility.yul\":21249:21253   */\n      dup2\n        /* \"#utility.yul\":21245:21265   */\n      sub\n        /* \"#utility.yul\":21241:21242   */\n      0x00\n        /* \"#utility.yul\":21230:21239   */\n      dup4\n        /* \"#utility.yul\":21226:21243   */\n      add\n        /* \"#utility.yul\":21219:21266   */\n      mstore\n        /* \"#utility.yul\":21283:21414   */\n      tag_426\n        /* \"#utility.yul\":21409:21413   */\n      dup2\n        /* \"#utility.yul\":21283:21414   */\n      tag_208\n      jump\t// in\n    tag_426:\n        /* \"#utility.yul\":21275:21414   */\n      swap1\n      pop\n        /* \"#utility.yul\":21002:21421   */\n      swap2\n      swap1\n      pop\n      jump\t// out\n        /* \"#utility.yul\":21427:21660   */\n    tag_135:\n        /* \"#utility.yul\":21466:21469   */\n      0x00\n        /* \"#utility.yul\":21489:21513   */\n      tag_428\n        /* \"#utility.yul\":21507:21512   */\n      dup3\n        /* \"#utility.yul\":21489:21513   */\n      tag_150\n      jump\t// in\n    tag_428:\n        /* \"#utility.yul\":21480:21513   */\n      swap2\n      pop\n        /* \"#utility.yul\":21535:21601   */\n      0xffffffffffffffffffffffffffffffffffffffffffffffffffffffffffffffff\n        /* \"#utility.yul\":21528:21533   */\n      dup3\n        /* \"#utility.yul\":21525:21602   */\n      sub\n        /* \"#utility.yul\":21522:21625   */\n      tag_429\n      jumpi\n        /* \"#utility.yul\":21605:21623   */\n      tag_430\n      tag_184\n      jump\t// in\n    tag_430:\n        /* \"#utility.yul\":21522:21625   */\n    tag_429:\n        /* \"#utility.yul\":21652:21653   */\n      0x01\n        /* \"#utility.yul\":21645:21650   */\n      dup3\n        /* \"#utility.yul\":21641:21654   */\n      add\n        /* \"#utility.yul\":21634:21654   */\n      swap1\n      pop\n        /* \"#utility.yul\":21427:21660   */\n      swap2\n      swap1\n      pop\n      jump\t// out\n        /* \"#utility.yul\":21666:21846   */\n    tag_209:\n        /* \"#utility.yul\":21806:21838   */\n      0x4f6e6c7920636f6e7472696275746f72732063616e20617070726f76652e0000\n        /* \"#utility.yul\":21802:21803   */\n      0x00\n        /* \"#utility.yul\":21794:21800   */\n      dup3\n        /* \"#utility.yul\":21790:21804   */\n      add\n        /* \"#utility.yul\":21783:21839   */\n      mstore\n        /* \"#utility.yul\":21666:21846   */\n      pop\n      jump\t// out\n        /* \"#utility.yul\":21852:22218   */\n    tag_210:\n        /* \"#utility.yul\":21994:21997   */\n      0x00\n        /* \"#utility.yul\":22015:22082   */\n      tag_433\n        /* \"#utility.yul\":22079:22081   */\n      0x1e\n        /* \"#utility.yul\":22074:22077   */\n      dup4\n        /* \"#utility.yul\":22015:22082   */\n      tag_162\n      jump\t// in\n    tag_433:\n        /* \"#utility.yul\":22008:22082   */\n      swap2\n      pop\n        /* \"#utility.yul\":22091:22184   */\n      tag_434\n        /* \"#utility.yul\":22180:22183   */\n      dup3\n        /* \"#utility.yul\":22091:22184   */\n      tag_209\n      jump\t// in\n    tag_434:\n        /* \"#utility.yul\":22209:22211   */\n      0x20\n        /* \"#utility.yul\":22204:22207   */\n      dup3\n        /* \"#utility.yul\":22200:22212   */\n      add\n        /* \"#utility.yul\":22193:22212   */\n      swap1\n      pop\n        /* \"#utility.yul\":21852:22218   */\n      swap2\n      swap1\n      pop\n      jump\t// out\n        /* \"#utility.yul\":22224:22643   */\n    tag_142:\n        /* \"#utility.yul\":22390:22394   */\n      0x00\n        /* \"#utility.yul\":22428:22430   */\n      0x20\n        /* \"#utility.yul\":22417:22426   */\n      dup3\n        /* \"#utility.yul\":22413:22431   */\n      add\n        /* \"#utility.yul\":22405:22431   */\n      swap1\n      pop\n        /* \"#utility.yul\":22477:22486   */\n      dup2\n        /* \"#utility.yul\":22471:22475   */\n      dup2\n        /* \"#utility.yul\":22467:22487   */\n      sub\n        /* \"#utility.yul\":22463:22464   */\n      0x00\n        /* \"#utility.yul\":22452:22461   */\n      dup4\n        /* \"#utility.yul\":22448:22465   */\n      add\n        /* \"#utility.yul\":22441:22488   */\n      mstore\n        /* \"#utility.yul\":22505:22636   */\n      tag_436\n        /* \"#utility.yul\":22631:22635   */\n      dup2\n        /* \"#utility.yul\":22505:22636   */\n      tag_210\n      jump\t// in\n    tag_436:\n        /* \"#utility.yul\":22497:22636   */\n      swap1\n      pop\n        /* \"#utility.yul\":22224:22643   */\n      swap2\n      swap1\n      pop\n      jump\t// out\n        /* \"#utility.yul\":22649:22875   */\n    tag_211:\n        /* \"#utility.yul\":22789:22823   */\n      0x596f75206861766520616c726561647920617070726f76656420746869732072\n        /* \"#utility.yul\":22785:22786   */\n      0x00\n        /* \"#utility.yul\":22777:22783   */\n      dup3\n        /* \"#utility.yul\":22773:22787   */\n      add\n        /* \"#utility.yul\":22766:22824   */\n      mstore\n        /* \"#utility.yul\":22858:22867   */\n      0x6571756573742e00000000000000000000000000000000000000000000000000\n        /* \"#utility.yul\":22853:22855   */\n      0x20\n        /* \"#utility.yul\":22845:22851   */\n      dup3\n        /* \"#utility.yul\":22841:22856   */\n      add\n        /* \"#utility.yul\":22834:22868   */\n      mstore\n        /* \"#utility.yul\":22649:22875   */\n      pop\n      jump\t// out\n        /* \"#utility.yul\":22881:23247   */\n    tag_212:\n        /* \"#utility.yul\":23023:23026   */\n      0x00\n        /* \"#utility.yul\":23044:23111   */\n      tag_439\n        /* \"#utility.yul\":23108:23110   */\n      0x27\n        /* \"#utility.yul\":23103:23106   */\n      dup4\n        /* \"#utility.yul\":23044:23111   */\n      tag_162\n      jump\t// in\n    tag_439:\n        /* \"#utility.yul\":23037:23111   */\n      swap2\n      pop\n        /* \"#utility.yul\":23120:23213   */\n      tag_440\n        /* \"#utility.yul\":23209:23212   */\n      dup3\n        /* \"#utility.yul\":23120:23213   */\n      tag_211\n      jump\t// in\n    tag_440:\n        /* \"#utility.yul\":23238:23240   */\n      0x40\n        /* \"#utility.yul\":23233:23236   */\n      dup3\n        /* \"#utility.yul\":23229:23241   */\n      add\n        /* \"#utility.yul\":23222:23241   */\n      swap1\n      pop\n        /* \"#utility.yul\":22881:23247   */\n      swap2\n      swap1\n      pop\n      jump\t// out\n        /* \"#utility.yul\":23253:23672   */\n    tag_145:\n        /* \"#utility.yul\":23419:23423   */\n      0x00\n        /* \"#utility.yul\":23457:23459   */\n      0x20\n        /* \"#utility.yul\":23446:23455   */\n      dup3\n        /* \"#utility.yul\":23442:23460   */\n      add\n        /* \"#utility.yul\":23434:23460   */\n      swap1\n      pop\n        /* \"#utility.yul\":23506:23515   */\n      dup2\n        /* \"#utility.yul\":23500:23504   */\n      dup2\n        /* \"#utility.yul\":23496:23516   */\n      sub\n        /* \"#utility.yul\":23492:23493   */\n      0x00\n        /* \"#utility.yul\":23481:23490   */\n      dup4\n        /* \"#utility.yul\":23477:23494   */\n      add\n        /* \"#utility.yul\":23470:23517   */\n      mstore\n        /* \"#utility.yul\":23534:23665   */\n      tag_442\n        /* \"#utility.yul\":23660:23664   */\n      dup2\n        /* \"#utility.yul\":23534:23665   */\n      tag_212\n      jump\t// in\n    tag_442:\n        /* \"#utility.yul\":23526:23665   */\n      swap1\n      pop\n        /* \"#utility.yul\":23253:23672   */\n      swap2\n      swap1\n      pop\n      jump\t// out\n\n    auxdata: 0xa2646970667358221220747f7a8a96c244d0e2f6f976fe3f64537df1044408652ee71296b16da54397b264736f6c634300081c0033\n}\n","bytecode":{"linkReferences":{},"object":"6080604052604051611a39380380611a3983398181016040528101906100259190610104565b8060015f6101000a81548173ffffffffffffffffffffffffffffffffffffffff021916908373ffffffffffffffffffffffffffffffffffffffff160217905550816002819055505050610142565b5f5ffd5b5f819050919050565b61008981610077565b8114610093575f5ffd5b50565b5f815190506100a481610080565b92915050565b5f73ffffffffffffffffffffffffffffffffffffffff82169050919050565b5f6100d3826100aa565b9050919050565b6100e3816100c9565b81146100ed575f5ffd5b50565b5f815190506100fe816100da565b92915050565b5f5f6040838503121561011a57610119610073565b5b5f61012785828601610096565b9250506020610138858286016100f0565b9150509250929050565b6118ea8061014f5f395ff3fe6080604052600436106100c1575f3560e01c806381d12c581161007e578063937e09b111610058578063937e09b11461027c578063ab2850da146102a6578063d7bb99ba146102e2578063d7d1bbdb146102ec576100c1565b806381d12c58146101ea57806382fde0931461022a5780638a9cfd5514610254576100c1565b806303441006146100c55780630a144391146100ed5780633410452a146101295780634051ddac14610153578063481c6a75146101815780636d052b37146101ab575b5f5ffd5b3480156100d0575f5ffd5b506100eb60048036038101906100e69190610caf565b610314565b005b3480156100f8575f5ffd5b50610113600480360381019061010e9190610d34565b61053e565b6040516101209190610d79565b60405180910390f35b348015610134575f5ffd5b5061013d61055b565b60405161014a9190610da1565b60405180910390f35b34801561015e575f5ffd5b50610167610566565b604051610178959493929190610dc9565b60405180910390f35b34801561018c575f5ffd5b506101956105aa565b6040516101a29190610e1a565b60405180910390f35b3480156101b6575f5ffd5b506101d160048036038101906101cc9190610caf565b6105cf565b6040516101e19493929190610e33565b60405180910390f35b3480156101f5575f5ffd5b50610210600480360381019061020b9190610caf565b61077d565b604051610221959493929190610f06565b60405180910390f35b348015610235575f5ffd5b5061023e61086f565b60405161024b9190610da1565b60405180910390f35b34801561025f575f5ffd5b5061027a600480360381019061027591906110b4565b610875565b005b348015610287575f5ffd5b50610290610975565b60405161029d9190610da1565b60405180910390f35b3480156102b1575f5ffd5b506102cc60048036038101906102c79190611120565b61097b565b6040516102d99190610d79565b60405180910390f35b6102ea6109a5565b005b3480156102f7575f5ffd5b50610312600480360381019061030d9190610caf565b610aa6565b005b60015f9054906101000a900473ffffffffffffffffffffffffffffffffffffffff1673ffffffffffffffffffffffffffffffffffffffff163373ffffffffffffffffffffffffffffffffffffffff16146103a3576040517f08c379a000000000000000000000000000000000000000000000000000000000815260040161039a906111a8565b60405180910390fd5b5f5f82815481106103b7576103b66111c6565b5b905f5260205f2090600402019050806001015447101561040c576040517f08c379a00000000000000000000000000000000000000000000000000000000081526004016104039061123d565b60405180910390fd5b600260055461041b91906112b5565b816003015411610460576040517f08c379a00000000000000000000000000000000000000000000000000000000081526004016104579061132f565b60405180910390fd5b8060020160149054906101000a900460ff16156104b2576040517f08c379a00000000000000000000000000000000000000000000000000000000081526004016104a990611397565b60405180910390fd5b806002015f9054906101000a900473ffffffffffffffffffffffffffffffffffffffff1673ffffffffffffffffffffffffffffffffffffffff166108fc826001015490811502906040515f60405180830381858888f1935050505015801561051c573d5f5f3e3d5ffd5b5060018160020160146101000a81548160ff0219169083151502179055505050565b6003602052805f5260405f205f915054906101000a900460ff1681565b5f5f80549050905090565b5f5f5f5f5f600254475f8054905060055460015f9054906101000a900473ffffffffffffffffffffffffffffffffffffffff16945094509450945094509091929394565b60015f9054906101000a900473ffffffffffffffffffffffffffffffffffffffff1681565b5f5f5f5f5f805490508510610619576040517f08c379a0000000000000000000000000000000000000000000000000000000008152600401610610906113ff565b60405180910390fd5b5f5f868154811061062d5761062c6111c6565b5b905f5260205f2090600402016040518060a00160405290815f820180546106539061144a565b80601f016020809104026020016040519081016040528092919081815260200182805461067f9061144a565b80156106ca5780601f106106a1576101008083540402835291602001916106ca565b820191905f5260205f20905b8154815290600101906020018083116106ad57829003601f168201915b5050505050815260200160018201548152602001600282015f9054906101000a900473ffffffffffffffffffffffffffffffffffffffff1673ffffffffffffffffffffffffffffffffffffffff1673ffffffffffffffffffffffffffffffffffffffff1681526020016002820160149054906101000a900460ff16151515158152602001600382015481525050905080602001518160400151826060015183608001519450945094509450509193509193565b5f818154811061078b575f80fd5b905f5260205f2090600402015f91509050805f0180546107aa9061144a565b80601f01602080910402602001604051908101604052809291908181526020018280546107d69061144a565b80156108215780601f106107f857610100808354040283529160200191610821565b820191905f5260205f20905b81548152906001019060200180831161080457829003601f168201915b505050505090806001015490806002015f9054906101000a900473ffffffffffffffffffffffffffffffffffffffff16908060020160149054906101000a900460ff16908060030154905085565b60055481565b5f6040518060a001604052808581526020018481526020018373ffffffffffffffffffffffffffffffffffffffff1681526020015f151581526020015f81525090505f81908060018154018082558091505060019003905f5260205f2090600402015f909190919091505f820151815f0190816108f2919061161a565b50602082015181600101556040820151816002015f6101000a81548173ffffffffffffffffffffffffffffffffffffffff021916908373ffffffffffffffffffffffffffffffffffffffff16021790555060608201518160020160146101000a81548160ff02191690831515021790555060808201518160030155505050505050565b60025481565b6004602052815f5260405f20602052805f5260405f205f915091509054906101000a900460ff1681565b60025434116109e9576040517f08c379a00000000000000000000000000000000000000000000000000000000081526004016109e090611759565b60405180910390fd5b60035f3373ffffffffffffffffffffffffffffffffffffffff1673ffffffffffffffffffffffffffffffffffffffff1681526020019081526020015f205f9054906101000a900460ff16610aa457600160035f3373ffffffffffffffffffffffffffffffffffffffff1673ffffffffffffffffffffffffffffffffffffffff1681526020019081526020015f205f6101000a81548160ff02191690831515021790555060055f815480929190610a9e90611777565b91905055505b565b5f5f8281548110610aba57610ab96111c6565b5b905f5260205f209060040201905060035f3373ffffffffffffffffffffffffffffffffffffffff1673ffffffffffffffffffffffffffffffffffffffff1681526020019081526020015f205f9054906101000a900460ff16610b51576040517f08c379a0000000000000000000000000000000000000000000000000000000008152600401610b4890611808565b60405180910390fd5b60045f8381526020019081526020015f205f3373ffffffffffffffffffffffffffffffffffffffff1673ffffffffffffffffffffffffffffffffffffffff1681526020019081526020015f205f9054906101000a900460ff1615610bea576040517f08c379a0000000000000000000000000000000000000000000000000000000008152600401610be190611896565b60405180910390fd5b600160045f8481526020019081526020015f205f3373ffffffffffffffffffffffffffffffffffffffff1673ffffffffffffffffffffffffffffffffffffffff1681526020019081526020015f205f6101000a81548160ff021916908315150217905550806003015f815480929190610c6290611777565b91905055505050565b5f604051905090565b5f5ffd5b5f5ffd5b5f819050919050565b610c8e81610c7c565b8114610c98575f5ffd5b50565b5f81359050610ca981610c85565b92915050565b5f60208284031215610cc457610cc3610c74565b5b5f610cd184828501610c9b565b91505092915050565b5f73ffffffffffffffffffffffffffffffffffffffff82169050919050565b5f610d0382610cda565b9050919050565b610d1381610cf9565b8114610d1d575f5ffd5b50565b5f81359050610d2e81610d0a565b92915050565b5f60208284031215610d4957610d48610c74565b5b5f610d5684828501610d20565b91505092915050565b5f8115159050919050565b610d7381610d5f565b82525050565b5f602082019050610d8c5f830184610d6a565b92915050565b610d9b81610c7c565b82525050565b5f602082019050610db45f830184610d92565b92915050565b610dc381610cf9565b82525050565b5f60a082019050610ddc5f830188610d92565b610de96020830187610d92565b610df66040830186610d92565b610e036060830185610d92565b610e106080830184610dba565b9695505050505050565b5f602082019050610e2d5f830184610dba565b92915050565b5f608082019050610e465f830187610d92565b610e536020830186610dba565b610e606040830185610d6a565b610e6d6060830184610d92565b95945050505050565b5f81519050919050565b5f82825260208201905092915050565b8281835e5f83830152505050565b5f601f19601f8301169050919050565b5f610eb882610e76565b610ec28185610e80565b9350610ed2818560208601610e90565b610edb81610e9e565b840191505092915050565b5f610ef082610cda565b9050919050565b610f0081610ee6565b82525050565b5f60a0820190508181035f830152610f1e8188610eae565b9050610f2d6020830187610d92565b610f3a6040830186610ef7565b610f476060830185610d6a565b610f546080830184610d92565b9695505050505050565b5f5ffd5b5f5ffd5b7f4e487b71000000000000000000000000000000000000000000000000000000005f52604160045260245ffd5b610f9c82610e9e565b810181811067ffffffffffffffff82111715610fbb57610fba610f66565b5b80604052505050565b5f610fcd610c6b565b9050610fd98282610f93565b919050565b5f67ffffffffffffffff821115610ff857610ff7610f66565b5b61100182610e9e565b9050602081019050919050565b828183375f83830152505050565b5f61102e61102984610fde565b610fc4565b90508281526020810184848401111561104a57611049610f62565b5b61105584828561100e565b509392505050565b5f82601f83011261107157611070610f5e565b5b813561108184826020860161101c565b91505092915050565b61109381610ee6565b811461109d575f5ffd5b50565b5f813590506110ae8161108a565b92915050565b5f5f5f606084860312156110cb576110ca610c74565b5b5f84013567ffffffffffffffff8111156110e8576110e7610c78565b5b6110f48682870161105d565b935050602061110586828701610c9b565b9250506040611116868287016110a0565b9150509250925092565b5f5f6040838503121561113657611135610c74565b5b5f61114385828601610c9b565b925050602061115485828601610d20565b9150509250929050565b7f4f6e6c79206d616e616765722063616e206372656174652072657175657374005f82015250565b5f611192601f83610e80565b915061119d8261115e565b602082019050919050565b5f6020820190508181035f8301526111bf81611186565b9050919050565b7f4e487b71000000000000000000000000000000000000000000000000000000005f52603260045260245ffd5b7f496e73756666696369656e7420636f6e74726163742062616c616e63652e00005f82015250565b5f611227601e83610e80565b9150611232826111f3565b602082019050919050565b5f6020820190508181035f8301526112548161121b565b9050919050565b7f4e487b71000000000000000000000000000000000000000000000000000000005f52601260045260245ffd5b7f4e487b71000000000000000000000000000000000000000000000000000000005f52601160045260245ffd5b5f6112bf82610c7c565b91506112ca83610c7c565b9250826112da576112d961125b565b5b828204905092915050565b7f4e6f7420656e6f75676820617070726f76616c732e00000000000000000000005f82015250565b5f611319601583610e80565b9150611324826112e5565b602082019050919050565b5f6020820190508181035f8301526113468161130d565b9050919050565b7f5265717565737420697320616c726561647920636f6d706c6574652e000000005f82015250565b5f611381601c83610e80565b915061138c8261134d565b602082019050919050565b5f6020820190508181035f8301526113ae81611375565b9050919050565b7f496e76616c6964207265717565737420696e6465782e000000000000000000005f82015250565b5f6113e9601683610e80565b91506113f4826113b5565b602082019050919050565b5f6020820190508181035f830152611416816113dd565b9050919050565b7f4e487b71000000000000000000000000000000000000000000000000000000005f52602260045260245ffd5b5f600282049050600182168061146157607f821691505b6020821081036114745761147361141d565b5b50919050565b5f819050815f5260205f209050919050565b5f6020601f8301049050919050565b5f82821b905092915050565b5f600883026114d67fffffffffffffffffffffffffffffffffffffffffffffffffffffffffffffffff8261149b565b6114e0868361149b565b95508019841693508086168417925050509392505050565b5f819050919050565b5f61151b61151661151184610c7c565b6114f8565b610c7c565b9050919050565b5f819050919050565b61153483611501565b61154861154082611522565b8484546114a7565b825550505050565b5f5f905090565b61155f611550565b61156a81848461152b565b505050565b5b8181101561158d576115825f82611557565b600181019050611570565b5050565b601f8211156115d2576115a38161147a565b6115ac8461148c565b810160208510156115bb578190505b6115cf6115c78561148c565b83018261156f565b50505b505050565b5f82821c905092915050565b5f6115f25f19846008026115d7565b1980831691505092915050565b5f61160a83836115e3565b9150826002028217905092915050565b61162382610e76565b67ffffffffffffffff81111561163c5761163b610f66565b5b611646825461144a565b611651828285611591565b5f60209050601f831160018114611682575f8415611670578287015190505b61167a85826115ff565b8655506116e1565b601f1984166116908661147a565b5f5b828110156116b757848901518255600182019150602085019450602081019050611692565b868310156116d457848901516116d0601f8916826115e3565b8355505b6001600288020188555050505b505050505050565b7f436f6e747269627574696f6e206d7573742062652067726561746572207468615f8201527f6e206d696e696d756d20616d6f756e742e000000000000000000000000000000602082015250565b5f611743603183610e80565b915061174e826116e9565b604082019050919050565b5f6020820190508181035f83015261177081611737565b9050919050565b5f61178182610c7c565b91507fffffffffffffffffffffffffffffffffffffffffffffffffffffffffffffffff82036117b3576117b2611288565b5b600182019050919050565b7f4f6e6c7920636f6e7472696275746f72732063616e20617070726f76652e00005f82015250565b5f6117f2601e83610e80565b91506117fd826117be565b602082019050919050565b5f6020820190508181035f83015261181f816117e6565b9050919050565b7f596f75206861766520616c726561647920617070726f766564207468697320725f8201527f6571756573742e00000000000000000000000000000000000000000000000000602082015250565b5f611880602783610e80565b915061188b82611826565b604082019050919050565b5f6020820190508181035f8301526118ad81611874565b905091905056fea2646970667358221220747f7a8a96c244d0e2f6f976fe3f64537df1044408652ee71296b16da54397b264736f6c634300081c0033","opcodes":"PUSH1 0x80 PUSH1 0x40 MSTORE PUSH1 0x40 MLOAD PUSH2 0x1A39 CODESIZE SUB DUP1 PUSH2 0x1A39 DUP4 CODECOPY DUP2 DUP2 ADD PUSH1 0x40 MSTORE DUP2 ADD SWAP1 PUSH2 0x25 SWAP2 SWAP1 PUSH2 0x104 JUMP JUMPDEST DUP1 PUSH1 0x1 PUSH0 PUSH2 0x100 EXP DUP2 SLOAD DUP2 PUSH20 0xFFFFFFFFFFFFFFFFFFFFFFFFFFFFFFFFFFFFFFFF MUL NOT AND SWAP1 DUP4 PUSH20 0xFFFFFFFFFFFFFFFFFFFFFFFFFFFFFFFFFFFFFFFF AND MUL OR SWAP1 SSTORE POP DUP2 PUSH1 0x2 DUP2 SWAP1 SSTORE POP POP POP PUSH2 0x142 JUMP JUMPDEST PUSH0 PUSH0 REVERT JUMPDEST PUSH0 DUP2 SWAP1 POP SWAP2 SWAP1 POP JUMP JUMPDEST PUSH2 0x89 DUP2 PUSH2 0x77 JUMP JUMPDEST DUP2 EQ PUSH2 0x93 JUMPI PUSH0 PUSH0 REVERT JUMPDEST POP JUMP JUMPDEST PUSH0 DUP2 MLOAD SWAP1 POP PUSH2 0xA4 DUP2 PUSH2 0x80 JUMP JUMPDEST SWAP3 SWAP2 POP POP JUMP JUMPDEST PUSH0 PUSH20 0xFFFFFFFFFFFFFFFFFFFFFFFFFFFFFFFFFFFFFFFF DUP3 AND SWAP1 POP SWAP2 SWAP1 POP JUMP JUMPDEST PUSH0 PUSH2 0xD3 DUP3 PUSH2 0xAA JUMP JUMPDEST SWAP1 POP SWAP2 SWAP1 POP JUMP JUMPDEST PUSH2 0xE3 DUP2 PUSH2 0xC9 JUMP JUMPDEST DUP2 EQ PUSH2 0xED JUMPI PUSH0 PUSH0 REVERT JUMPDEST POP JUMP JUMPDEST PUSH0 DUP2 MLOAD SWAP1 POP PUSH2 0xFE DUP2 PUSH2 0xDA JUMP JUMPDEST SWAP3 SWAP2 POP POP JUMP JUMPDEST PUSH0 PUSH0 PUSH1 0x40 DUP4 DUP6 SUB SLT ISZERO PUSH2 0x11A JUMPI PUSH2 0x119 PUSH2 0x73 JUMP JUMPDEST JUMPDEST PUSH0 PUSH2 0x127 DUP6 DUP3 DUP7 ADD PUSH2 0x96 JUMP JUMPDEST SWAP3 POP POP PUSH1 0x20 PUSH2 0x138 DUP6 DUP3 DUP7 ADD PUSH2 0xF0 JUMP JUMPDEST SWAP2 POP POP SWAP3 POP SWAP3 SWAP1 POP JUMP JUMPDEST PUSH2 0x18EA DUP1 PUSH2 0x14F PUSH0 CODECOPY PUSH0 RETURN INVALID PUSH1 0x80 PUSH1 0x40 MSTORE PUSH1 0x4 CALLDATASIZE LT PUSH2 0xC1 JUMPI PUSH0 CALLDATALOAD PUSH1 0xE0 SHR DUP1 PUSH4 0x81D12C58 GT PUSH2 0x7E JUMPI DUP1 PUSH4 0x937E09B1 GT PUSH2 0x58 JUMPI DUP1 PUSH4 0x937E09B1 EQ PUSH2 0x27C JUMPI DUP1 PUSH4 0xAB2850DA EQ PUSH2 0x2A6 JUMPI DUP1 PUSH4 0xD7BB99BA EQ PUSH2 0x2E2 JUMPI DUP1 PUSH4 0xD7D1BBDB EQ PUSH2 0x2EC JUMPI PUSH2 0xC1 JUMP JUMPDEST DUP1 PUSH4 0x81D12C58 EQ PUSH2 0x1EA JUMPI DUP1 PUSH4 0x82FDE093 EQ PUSH2 0x22A JUMPI DUP1 PUSH4 0x8A9CFD55 EQ PUSH2 0x254 JUMPI PUSH2 0xC1 JUMP JUMPDEST DUP1 PUSH4 0x3441006 EQ PUSH2 0xC5 JUMPI DUP1 PUSH4 0xA144391 EQ PUSH2 0xED JUMPI DUP1 PUSH4 0x3410452A EQ PUSH2 0x129 JUMPI DUP1 PUSH4 0x4051DDAC EQ PUSH2 0x153 JUMPI DUP1 PUSH4 0x481C6A75 EQ PUSH2 0x181 JUMPI DUP1 PUSH4 0x6D052B37 EQ PUSH2 0x1AB JUMPI JUMPDEST PUSH0 PUSH0 REVERT JUMPDEST CALLVALUE DUP1 ISZERO PUSH2 0xD0 JUMPI PUSH0 PUSH0 REVERT JUMPDEST POP PUSH2 0xEB PUSH1 0x4 DUP1 CALLDATASIZE SUB DUP2 ADD SWAP1 PUSH2 0xE6 SWAP2 SWAP1 PUSH2 0xCAF JUMP JUMPDEST PUSH2 0x314 JUMP JUMPDEST STOP JUMPDEST CALLVALUE DUP1 ISZERO PUSH2 0xF8 JUMPI PUSH0 PUSH0 REVERT JUMPDEST POP PUSH2 0x113 PUSH1 0x4 DUP1 CALLDATASIZE SUB DUP2 ADD SWAP1 PUSH2 0x10E SWAP2 SWAP1 PUSH2 0xD34 JUMP JUMPDEST PUSH2 0x53E JUMP JUMPDEST PUSH1 0x40 MLOAD PUSH2 0x120 SWAP2 SWAP1 PUSH2 0xD79 JUMP JUMPDEST PUSH1 0x40 MLOAD DUP1 SWAP2 SUB SWAP1 RETURN JUMPDEST CALLVALUE DUP1 ISZERO PUSH2 0x134 JUMPI PUSH0 PUSH0 REVERT JUMPDEST POP PUSH2 0x13D PUSH2 0x55B JUMP JUMPDEST PUSH1 0x40 MLOAD PUSH2 0x14A SWAP2 SWAP1 PUSH2 0xDA1 JUMP JUMPDEST PUSH1 0x40 MLOAD DUP1 SWAP2 SUB SWAP1 RETURN JUMPDEST CALLVALUE DUP1 ISZERO PUSH2 0x15E JUMPI PUSH0 PUSH0 REVERT JUMPDEST POP PUSH2 0x167 PUSH2 0x566 JUMP JUMPDEST PUSH1 0x40 MLOAD PUSH2 0x178 SWAP6 SWAP5 SWAP4 SWAP3 SWAP2 SWAP1 PUSH2 0xDC9 JUMP JUMPDEST PUSH1 0x40 MLOAD DUP1 SWAP2 SUB SWAP1 RETURN JUMPDEST CALLVALUE DUP1 ISZERO PUSH2 0x18C JUMPI PUSH0 PUSH0 REVERT JUMPDEST POP PUSH2 0x195 PUSH2 0x5AA JUMP JUMPDEST PUSH1 0x40 MLOAD PUSH2 0x1A2 SWAP2 SWAP1 PUSH2 0xE1A JUMP JUMPDEST PUSH1 0x40 MLOAD DUP1 SWAP2 SUB SWAP1 RETURN JUMPDEST CALLVALUE DUP1 ISZERO PUSH2 0x1B6 JUMPI PUSH0 PUSH0 REVERT JUMPDEST POP PUSH2 0x1D1 PUSH1 0x4 DUP1 CALLDATASIZE SUB DUP2 ADD SWAP1 PUSH2 0x1CC SWAP2 SWAP1 PUSH2 0xCAF JUMP JUMPDEST PUSH2 0x5CF JUMP JUMPDEST PUSH1 0x40 MLOAD PUSH2 0x1E1 SWAP5 SWAP4 SWAP3 SWAP2 SWAP1 PUSH2 0xE33 JUMP JUMPDEST PUSH1 0x40 MLOAD DUP1 SWAP2 SUB SWAP1 RETURN JUMPDEST CALLVALUE DUP1 ISZERO PUSH2 0x1F5 JUMPI PUSH0 PUSH0 REVERT JUMPDEST POP PUSH2 0x210 PUSH1 0x4 DUP1 CALLDATASIZE SUB DUP2 ADD SWAP1 PUSH2 0x20B SWAP2 SWAP1 PUSH2 0xCAF JUMP JUMPDEST PUSH2 0x77D JUMP JUMPDEST PUSH1 0x40 MLOAD PUSH2 0x221 SWAP6 SWAP5 SWAP4 SWAP3 SWAP2 SWAP1 PUSH2 0xF06 JUMP JUMPDEST PUSH1 0x40 MLOAD DUP1 SWAP2 SUB SWAP1 RETURN JUMPDEST CALLVALUE DUP1 ISZERO PUSH2 0x235 JUMPI PUSH0 PUSH0 REVERT JUMPDEST POP PUSH2 0x23E PUSH2 0x86F JUMP JUMPDEST PUSH1 0x40 MLOAD PUSH2 0x24B SWAP2 SWAP1 PUSH2 0xDA1 JUMP JUMPDEST PUSH1 0x40 MLOAD DUP1 SWAP2 SUB SWAP1 RETURN JUMPDEST CALLVALUE DUP1 ISZERO PUSH2 0x25F JUMPI PUSH0 PUSH0 REVERT JUMPDEST POP PUSH2 0x27A PUSH1 0x4 DUP1 CALLDATASIZE SUB DUP2 ADD SWAP1 PUSH2 0x275 SWAP2 SWAP1 PUSH2 0x10B4 JUMP JUMPDEST PUSH2 0x875 JUMP JUMPDEST STOP JUMPDEST CALLVALUE DUP1 ISZERO PUSH2 0x287 JUMPI PUSH0 PUSH0 REVERT JUMPDEST POP PUSH2 0x290 PUSH2 0x975 JUMP JUMPDEST PUSH1 0x40 MLOAD PUSH2 0x29D SWAP2 SWAP1 PUSH2 0xDA1 JUMP JUMPDEST PUSH1 0x40 MLOAD DUP1 SWAP2 SUB SWAP1 RETURN JUMPDEST CALLVALUE DUP1 ISZERO PUSH2 0x2B1 JUMPI PUSH0 PUSH0 REVERT JUMPDEST POP PUSH2 0x2CC PUSH1 0x4 DUP1 CALLDATASIZE SUB DUP2 ADD SWAP1 PUSH2 0x2C7 SWAP2 SWAP1 PUSH2 0x1120 JUMP JUMPDEST PUSH2 0x97B JUMP JUMPDEST PUSH1 0x40 MLOAD PUSH2 0x2D9 SWAP2 SWAP1 PUSH2 0xD79 JUMP JUMPDEST PUSH1 0x40 MLOAD DUP1 SWAP2 SUB SWAP1 RETURN JUMPDEST PUSH2 0x2EA PUSH2 0x9A5 JUMP JUMPDEST STOP JUMPDEST CALLVALUE DUP1 ISZERO PUSH2 0x2F7 JUMPI PUSH0 PUSH0 REVERT JUMPDEST POP PUSH2 0x312 PUSH1 0x4 DUP1 CALLDATASIZE SUB DUP2 ADD SWAP1 PUSH2 0x30D SWAP2 SWAP1 PUSH2 0xCAF JUMP JUMPDEST PUSH2 0xAA6 JUMP JUMPDEST STOP JUMPDEST PUSH1 0x1 PUSH0 SWAP1 SLOAD SWAP1 PUSH2 0x100 EXP SWAP1 DIV PUSH20 0xFFFFFFFFFFFFFFFFFFFFFFFFFFFFFFFFFFFFFFFF AND PUSH20 0xFFFFFFFFFFFFFFFFFFFFFFFFFFFFFFFFFFFFFFFF AND CALLER PUSH20 0xFFFFFFFFFFFFFFFFFFFFFFFFFFFFFFFFFFFFFFFF AND EQ PUSH2 0x3A3 JUMPI PUSH1 0x40 MLOAD PUSH32 0x8C379A000000000000000000000000000000000000000000000000000000000 DUP2 MSTORE PUSH1 0x4 ADD PUSH2 0x39A SWAP1 PUSH2 0x11A8 JUMP JUMPDEST PUSH1 0x40 MLOAD DUP1 SWAP2 SUB SWAP1 REVERT JUMPDEST PUSH0 PUSH0 DUP3 DUP2 SLOAD DUP2 LT PUSH2 0x3B7 JUMPI PUSH2 0x3B6 PUSH2 0x11C6 JUMP JUMPDEST JUMPDEST SWAP1 PUSH0 MSTORE PUSH1 0x20 PUSH0 KECCAK256 SWAP1 PUSH1 0x4 MUL ADD SWAP1 POP DUP1 PUSH1 0x1 ADD SLOAD SELFBALANCE LT ISZERO PUSH2 0x40C JUMPI PUSH1 0x40 MLOAD PUSH32 0x8C379A000000000000000000000000000000000000000000000000000000000 DUP2 MSTORE PUSH1 0x4 ADD PUSH2 0x403 SWAP1 PUSH2 0x123D JUMP JUMPDEST PUSH1 0x40 MLOAD DUP1 SWAP2 SUB SWAP1 REVERT JUMPDEST PUSH1 0x2 PUSH1 0x5 SLOAD PUSH2 0x41B SWAP2 SWAP1 PUSH2 0x12B5 JUMP JUMPDEST DUP2 PUSH1 0x3 ADD SLOAD GT PUSH2 0x460 JUMPI PUSH1 0x40 MLOAD PUSH32 0x8C379A000000000000000000000000000000000000000000000000000000000 DUP2 MSTORE PUSH1 0x4 ADD PUSH2 0x457 SWAP1 PUSH2 0x132F JUMP JUMPDEST PUSH1 0x40 MLOAD DUP1 SWAP2 SUB SWAP1 REVERT JUMPDEST DUP1 PUSH1 0x2 ADD PUSH1 0x14 SWAP1 SLOAD SWAP1 PUSH2 0x100 EXP SWAP1 DIV PUSH1 0xFF AND ISZERO PUSH2 0x4B2 JUMPI PUSH1 0x40 MLOAD PUSH32 0x8C379A000000000000000000000000000000000000000000000000000000000 DUP2 MSTORE PUSH1 0x4 ADD PUSH2 0x4A9 SWAP1 PUSH2 0x1397 JUMP JUMPDEST PUSH1 0x40 MLOAD DUP1 SWAP2 SUB SWAP1 REVERT JUMPDEST DUP1 PUSH1 0x2 ADD PUSH0 SWAP1 SLOAD SWAP1 PUSH2 0x100 EXP SWAP1 DIV PUSH20 0xFFFFFFFFFFFFFFFFFFFFFFFFFFFFFFFFFFFFFFFF AND PUSH20 0xFFFFFFFFFFFFFFFFFFFFFFFFFFFFFFFFFFFFFFFF AND PUSH2 0x8FC DUP3 PUSH1 0x1 ADD SLOAD SWAP1 DUP2 ISZERO MUL SWAP1 PUSH1 0x40 MLOAD PUSH0 PUSH1 0x40 MLOAD DUP1 DUP4 SUB DUP2 DUP6 DUP9 DUP9 CALL SWAP4 POP POP POP POP ISZERO DUP1 ISZERO PUSH2 0x51C JUMPI RETURNDATASIZE PUSH0 PUSH0 RETURNDATACOPY RETURNDATASIZE PUSH0 REVERT JUMPDEST POP PUSH1 0x1 DUP2 PUSH1 0x2 ADD PUSH1 0x14 PUSH2 0x100 EXP DUP2 SLOAD DUP2 PUSH1 0xFF MUL NOT AND SWAP1 DUP4 ISZERO ISZERO MUL OR SWAP1 SSTORE POP POP POP JUMP JUMPDEST PUSH1 0x3 PUSH1 0x20 MSTORE DUP1 PUSH0 MSTORE PUSH1 0x40 PUSH0 KECCAK256 PUSH0 SWAP2 POP SLOAD SWAP1 PUSH2 0x100 EXP SWAP1 DIV PUSH1 0xFF AND DUP2 JUMP JUMPDEST PUSH0 PUSH0 DUP1 SLOAD SWAP1 POP SWAP1 POP SWAP1 JUMP JUMPDEST PUSH0 PUSH0 PUSH0 PUSH0 PUSH0 PUSH1 0x2 SLOAD SELFBALANCE PUSH0 DUP1 SLOAD SWAP1 POP PUSH1 0x5 SLOAD PUSH1 0x1 PUSH0 SWAP1 SLOAD SWAP1 PUSH2 0x100 EXP SWAP1 DIV PUSH20 0xFFFFFFFFFFFFFFFFFFFFFFFFFFFFFFFFFFFFFFFF AND SWAP5 POP SWAP5 POP SWAP5 POP SWAP5 POP SWAP5 POP SWAP1 SWAP2 SWAP3 SWAP4 SWAP5 JUMP JUMPDEST PUSH1 0x1 PUSH0 SWAP1 SLOAD SWAP1 PUSH2 0x100 EXP SWAP1 DIV PUSH20 0xFFFFFFFFFFFFFFFFFFFFFFFFFFFFFFFFFFFFFFFF AND DUP2 JUMP JUMPDEST PUSH0 PUSH0 PUSH0 PUSH0 PUSH0 DUP1 SLOAD SWAP1 POP DUP6 LT PUSH2 0x619 JUMPI PUSH1 0x40 MLOAD PUSH32 0x8C379A000000000000000000000000000000000000000000000000000000000 DUP2 MSTORE PUSH1 0x4 ADD PUSH2 0x610 SWAP1 PUSH2 0x13FF JUMP JUMPDEST PUSH1 0x40 MLOAD DUP1 SWAP2 SUB SWAP1 REVERT JUMPDEST PUSH0 PUSH0 DUP7 DUP2 SLOAD DUP2 LT PUSH2 0x62D JUMPI PUSH2 0x62C PUSH2 0x11C6 JUMP JUMPDEST JUMPDEST SWAP1 PUSH0 MSTORE PUSH1 0x20 PUSH0 KECCAK256 SWAP1 PUSH1 0x4 MUL ADD PUSH1 0x40 MLOAD DUP1 PUSH1 0xA0 ADD PUSH1 0x40 MSTORE SWAP1 DUP2 PUSH0 DUP3 ADD DUP1 SLOAD PUSH2 0x653 SWAP1 PUSH2 0x144A JUMP JUMPDEST DUP1 PUSH1 0x1F ADD PUSH1 0x20 DUP1 SWAP2 DIV MUL PUSH1 0x20 ADD PUSH1 0x40 MLOAD SWAP1 DUP2 ADD PUSH1 0x40 MSTORE DUP1 SWAP3 SWAP2 SWAP1 DUP2 DUP2 MSTORE PUSH1 0x20 ADD DUP3 DUP1 SLOAD PUSH2 0x67F SWAP1 PUSH2 0x144A JUMP JUMPDEST DUP1 ISZERO PUSH2 0x6CA JUMPI DUP1 PUSH1 0x1F LT PUSH2 0x6A1 JUMPI PUSH2 0x100 DUP1 DUP4 SLOAD DIV MUL DUP4 MSTORE SWAP2 PUSH1 0x20 ADD SWAP2 PUSH2 0x6CA JUMP JUMPDEST DUP3 ADD SWAP2 SWAP1 PUSH0 MSTORE PUSH1 0x20 PUSH0 KECCAK256 SWAP1 JUMPDEST DUP2 SLOAD DUP2 MSTORE SWAP1 PUSH1 0x1 ADD SWAP1 PUSH1 0x20 ADD DUP1 DUP4 GT PUSH2 0x6AD JUMPI DUP3 SWAP1 SUB PUSH1 0x1F AND DUP3 ADD SWAP2 JUMPDEST POP POP POP POP POP DUP2 MSTORE PUSH1 0x20 ADD PUSH1 0x1 DUP3 ADD SLOAD DUP2 MSTORE PUSH1 0x20 ADD PUSH1 0x2 DUP3 ADD PUSH0 SWAP1 SLOAD SWAP1 PUSH2 0x100 EXP SWAP1 DIV PUSH20 0xFFFFFFFFFFFFFFFFFFFFFFFFFFFFFFFFFFFFFFFF AND PUSH20 0xFFFFFFFFFFFFFFFFFFFFFFFFFFFFFFFFFFFFFFFF AND PUSH20 0xFFFFFFFFFFFFFFFFFFFFFFFFFFFFFFFFFFFFFFFF AND DUP2 MSTORE PUSH1 0x20 ADD PUSH1 0x2 DUP3 ADD PUSH1 0x14 SWAP1 SLOAD SWAP1 PUSH2 0x100 EXP SWAP1 DIV PUSH1 0xFF AND ISZERO ISZERO ISZERO ISZERO DUP2 MSTORE PUSH1 0x20 ADD PUSH1 0x3 DUP3 ADD SLOAD DUP2 MSTORE POP POP SWAP1 POP DUP1 PUSH1 0x20 ADD MLOAD DUP2 PUSH1 0x40 ADD MLOAD DUP3 PUSH1 0x60 ADD MLOAD DUP4 PUSH1 0x80 ADD MLOAD SWAP5 POP SWAP5 POP SWAP5 POP SWAP5 POP POP SWAP2 SWAP4 POP SWAP2 SWAP4 JUMP JUMPDEST PUSH0 DUP2 DUP2 SLOAD DUP2 LT PUSH2 0x78B JUMPI PUSH0 DUP1 REVERT JUMPDEST SWAP1 PUSH0 MSTORE PUSH1 0x20 PUSH0 KECCAK256 SWAP1 PUSH1 0x4 MUL ADD PUSH0 SWAP2 POP SWAP1 POP DUP1 PUSH0 ADD DUP1 SLOAD PUSH2 0x7AA SWAP1 PUSH2 0x144A JUMP JUMPDEST DUP1 PUSH1 0x1F ADD PUSH1 0x20 DUP1 SWAP2 DIV MUL PUSH1 0x20 ADD PUSH1 0x40 MLOAD SWAP1 DUP2 ADD PUSH1 0x40 MSTORE DUP1 SWAP3 SWAP2 SWAP1 DUP2 DUP2 MSTORE PUSH1 0x20 ADD DUP3 DUP1 SLOAD PUSH2 0x7D6 SWAP1 PUSH2 0x144A JUMP JUMPDEST DUP1 ISZERO PUSH2 0x821 JUMPI DUP1 PUSH1 0x1F LT PUSH2 0x7F8 JUMPI PUSH2 0x100 DUP1 DUP4 SLOAD DIV MUL DUP4 MSTORE SWAP2 PUSH1 0x20 ADD SWAP2 PUSH2 0x821 JUMP JUMPDEST DUP3 ADD SWAP2 SWAP1 PUSH0 MSTORE PUSH1 0x20 PUSH0 KECCAK256 SWAP1 JUMPDEST DUP2 SLOAD DUP2 MSTORE SWAP1 PUSH1 0x1 ADD SWAP1 PUSH1 0x20 ADD DUP1 DUP4 GT PUSH2 0x804 JUMPI DUP3 SWAP1 SUB PUSH1 0x1F AND DUP3 ADD SWAP2 JUMPDEST POP POP POP POP POP SWAP1 DUP1 PUSH1 0x1 ADD SLOAD SWAP1 DUP1 PUSH1 0x2 ADD PUSH0 SWAP1 SLOAD SWAP1 PUSH2 0x100 EXP SWAP1 DIV PUSH20 0xFFFFFFFFFFFFFFFFFFFFFFFFFFFFFFFFFFFFFFFF AND SWAP1 DUP1 PUSH1 0x2 ADD PUSH1 0x14 SWAP1 SLOAD SWAP1 PUSH2 0x100 EXP SWAP1 DIV PUSH1 0xFF AND SWAP1 DUP1 PUSH1 0x3 ADD SLOAD SWAP1 POP DUP6 JUMP JUMPDEST PUSH1 0x5 SLOAD DUP2 JUMP JUMPDEST PUSH0 PUSH1 0x40 MLOAD DUP1 PUSH1 0xA0 ADD PUSH1 0x40 MSTORE DUP1 DUP6 DUP2 MSTORE PUSH1 0x20 ADD DUP5 DUP2 MSTORE PUSH1 0x20 ADD DUP4 PUSH20 0xFFFFFFFFFFFFFFFFFFFFFFFFFFFFFFFFFFFFFFFF AND DUP2 MSTORE PUSH1 0x20 ADD PUSH0 ISZERO ISZERO DUP2 MSTORE PUSH1 0x20 ADD PUSH0 DUP2 MSTORE POP SWAP1 POP PUSH0 DUP2 SWAP1 DUP1 PUSH1 0x1 DUP2 SLOAD ADD DUP1 DUP3 SSTORE DUP1 SWAP2 POP POP PUSH1 0x1 SWAP1 SUB SWAP1 PUSH0 MSTORE PUSH1 0x20 PUSH0 KECCAK256 SWAP1 PUSH1 0x4 MUL ADD PUSH0 SWAP1 SWAP2 SWAP1 SWAP2 SWAP1 SWAP2 POP PUSH0 DUP3 ADD MLOAD DUP2 PUSH0 ADD SWAP1 DUP2 PUSH2 0x8F2 SWAP2 SWAP1 PUSH2 0x161A JUMP JUMPDEST POP PUSH1 0x20 DUP3 ADD MLOAD DUP2 PUSH1 0x1 ADD SSTORE PUSH1 0x40 DUP3 ADD MLOAD DUP2 PUSH1 0x2 ADD PUSH0 PUSH2 0x100 EXP DUP2 SLOAD DUP2 PUSH20 0xFFFFFFFFFFFFFFFFFFFFFFFFFFFFFFFFFFFFFFFF MUL NOT AND SWAP1 DUP4 PUSH20 0xFFFFFFFFFFFFFFFFFFFFFFFFFFFFFFFFFFFFFFFF AND MUL OR SWAP1 SSTORE POP PUSH1 0x60 DUP3 ADD MLOAD DUP2 PUSH1 0x2 ADD PUSH1 0x14 PUSH2 0x100 EXP DUP2 SLOAD DUP2 PUSH1 0xFF MUL NOT AND SWAP1 DUP4 ISZERO ISZERO MUL OR SWAP1 SSTORE POP PUSH1 0x80 DUP3 ADD MLOAD DUP2 PUSH1 0x3 ADD SSTORE POP POP POP POP POP POP JUMP JUMPDEST PUSH1 0x2 SLOAD DUP2 JUMP JUMPDEST PUSH1 0x4 PUSH1 0x20 MSTORE DUP2 PUSH0 MSTORE PUSH1 0x40 PUSH0 KECCAK256 PUSH1 0x20 MSTORE DUP1 PUSH0 MSTORE PUSH1 0x40 PUSH0 KECCAK256 PUSH0 SWAP2 POP SWAP2 POP SWAP1 SLOAD SWAP1 PUSH2 0x100 EXP SWAP1 DIV PUSH1 0xFF AND DUP2 JUMP JUMPDEST PUSH1 0x2 SLOAD CALLVALUE GT PUSH2 0x9E9 JUMPI PUSH1 0x40 MLOAD PUSH32 0x8C379A000000000000000000000000000000000000000000000000000000000 DUP2 MSTORE PUSH1 0x4 ADD PUSH2 0x9E0 SWAP1 PUSH2 0x1759 JUMP JUMPDEST PUSH1 0x40 MLOAD DUP1 SWAP2 SUB SWAP1 REVERT JUMPDEST PUSH1 0x3 PUSH0 CALLER PUSH20 0xFFFFFFFFFFFFFFFFFFFFFFFFFFFFFFFFFFFFFFFF AND PUSH20 0xFFFFFFFFFFFFFFFFFFFFFFFFFFFFFFFFFFFFFFFF AND DUP2 MSTORE PUSH1 0x20 ADD SWAP1 DUP2 MSTORE PUSH1 0x20 ADD PUSH0 KECCAK256 PUSH0 SWAP1 SLOAD SWAP1 PUSH2 0x100 EXP SWAP1 DIV PUSH1 0xFF AND PUSH2 0xAA4 JUMPI PUSH1 0x1 PUSH1 0x3 PUSH0 CALLER PUSH20 0xFFFFFFFFFFFFFFFFFFFFFFFFFFFFFFFFFFFFFFFF AND PUSH20 0xFFFFFFFFFFFFFFFFFFFFFFFFFFFFFFFFFFFFFFFF AND DUP2 MSTORE PUSH1 0x20 ADD SWAP1 DUP2 MSTORE PUSH1 0x20 ADD PUSH0 KECCAK256 PUSH0 PUSH2 0x100 EXP DUP2 SLOAD DUP2 PUSH1 0xFF MUL NOT AND SWAP1 DUP4 ISZERO ISZERO MUL OR SWAP1 SSTORE POP PUSH1 0x5 PUSH0 DUP2 SLOAD DUP1 SWAP3 SWAP2 SWAP1 PUSH2 0xA9E SWAP1 PUSH2 0x1777 JUMP JUMPDEST SWAP2 SWAP1 POP SSTORE POP JUMPDEST JUMP JUMPDEST PUSH0 PUSH0 DUP3 DUP2 SLOAD DUP2 LT PUSH2 0xABA JUMPI PUSH2 0xAB9 PUSH2 0x11C6 JUMP JUMPDEST JUMPDEST SWAP1 PUSH0 MSTORE PUSH1 0x20 PUSH0 KECCAK256 SWAP1 PUSH1 0x4 MUL ADD SWAP1 POP PUSH1 0x3 PUSH0 CALLER PUSH20 0xFFFFFFFFFFFFFFFFFFFFFFFFFFFFFFFFFFFFFFFF AND PUSH20 0xFFFFFFFFFFFFFFFFFFFFFFFFFFFFFFFFFFFFFFFF AND DUP2 MSTORE PUSH1 0x20 ADD SWAP1 DUP2 MSTORE PUSH1 0x20 ADD PUSH0 KECCAK256 PUSH0 SWAP1 SLOAD SWAP1 PUSH2 0x100 EXP SWAP1 DIV PUSH1 0xFF AND PUSH2 0xB51 JUMPI PUSH1 0x40 MLOAD PUSH32 0x8C379A000000000000000000000000000000000000000000000000000000000 DUP2 MSTORE PUSH1 0x4 ADD PUSH2 0xB48 SWAP1 PUSH2 0x1808 JUMP JUMPDEST PUSH1 0x40 MLOAD DUP1 SWAP2 SUB SWAP1 REVERT JUMPDEST PUSH1 0x4 PUSH0 DUP4 DUP2 MSTORE PUSH1 0x20 ADD SWAP1 DUP2 MSTORE PUSH1 0x20 ADD PUSH0 KECCAK256 PUSH0 CALLER PUSH20 0xFFFFFFFFFFFFFFFFFFFFFFFFFFFFFFFFFFFFFFFF AND PUSH20 0xFFFFFFFFFFFFFFFFFFFFFFFFFFFFFFFFFFFFFFFF AND DUP2 MSTORE PUSH1 0x20 ADD SWAP1 DUP2 MSTORE PUSH1 0x20 ADD PUSH0 KECCAK256 PUSH0 SWAP1 SLOAD SWAP1 PUSH2 0x100 EXP SWAP1 DIV PUSH1 0xFF AND ISZERO PUSH2 0xBEA JUMPI PUSH1 0x40 MLOAD PUSH32 0x8C379A000000000000000000000000000000000000000000000000000000000 DUP2 MSTORE PUSH1 0x4 ADD PUSH2 0xBE1 SWAP1 PUSH2 0x1896 JUMP JUMPDEST PUSH1 0x40 MLOAD DUP1 SWAP2 SUB SWAP1 REVERT JUMPDEST PUSH1 0x1 PUSH1 0x4 PUSH0 DUP5 DUP2 MSTORE PUSH1 0x20 ADD SWAP1 DUP2 MSTORE PUSH1 0x20 ADD PUSH0 KECCAK256 PUSH0 CALLER PUSH20 0xFFFFFFFFFFFFFFFFFFFFFFFFFFFFFFFFFFFFFFFF AND PUSH20 0xFFFFFFFFFFFFFFFFFFFFFFFFFFFFFFFFFFFFFFFF AND DUP2 MSTORE PUSH1 0x20 ADD SWAP1 DUP2 MSTORE PUSH1 0x20 ADD PUSH0 KECCAK256 PUSH0 PUSH2 0x100 EXP DUP2 SLOAD DUP2 PUSH1 0xFF MUL NOT AND SWAP1 DUP4 ISZERO ISZERO MUL OR SWAP1 SSTORE POP DUP1 PUSH1 0x3 ADD PUSH0 DUP2 SLOAD DUP1 SWAP3 SWAP2 SWAP1 PUSH2 0xC62 SWAP1 PUSH2 0x1777 JUMP JUMPDEST SWAP2 SWAP1 POP SSTORE POP POP POP JUMP JUMPDEST PUSH0 PUSH1 0x40 MLOAD SWAP1 POP SWAP1 JUMP JUMPDEST PUSH0 PUSH0 REVERT JUMPDEST PUSH0 PUSH0 REVERT JUMPDEST PUSH0 DUP2 SWAP1 POP SWAP2 SWAP1 POP JUMP JUMPDEST PUSH2 0xC8E DUP2 PUSH2 0xC7C JUMP JUMPDEST DUP2 EQ PUSH2 0xC98 JUMPI PUSH0 PUSH0 REVERT JUMPDEST POP JUMP JUMPDEST PUSH0 DUP2 CALLDATALOAD SWAP1 POP PUSH2 0xCA9 DUP2 PUSH2 0xC85 JUMP JUMPDEST SWAP3 SWAP2 POP POP JUMP JUMPDEST PUSH0 PUSH1 0x20 DUP3 DUP5 SUB SLT ISZERO PUSH2 0xCC4 JUMPI PUSH2 0xCC3 PUSH2 0xC74 JUMP JUMPDEST JUMPDEST PUSH0 PUSH2 0xCD1 DUP5 DUP3 DUP6 ADD PUSH2 0xC9B JUMP JUMPDEST SWAP2 POP POP SWAP3 SWAP2 POP POP JUMP JUMPDEST PUSH0 PUSH20 0xFFFFFFFFFFFFFFFFFFFFFFFFFFFFFFFFFFFFFFFF DUP3 AND SWAP1 POP SWAP2 SWAP1 POP JUMP JUMPDEST PUSH0 PUSH2 0xD03 DUP3 PUSH2 0xCDA JUMP JUMPDEST SWAP1 POP SWAP2 SWAP1 POP JUMP JUMPDEST PUSH2 0xD13 DUP2 PUSH2 0xCF9 JUMP JUMPDEST DUP2 EQ PUSH2 0xD1D JUMPI PUSH0 PUSH0 REVERT JUMPDEST POP JUMP JUMPDEST PUSH0 DUP2 CALLDATALOAD SWAP1 POP PUSH2 0xD2E DUP2 PUSH2 0xD0A JUMP JUMPDEST SWAP3 SWAP2 POP POP JUMP JUMPDEST PUSH0 PUSH1 0x20 DUP3 DUP5 SUB SLT ISZERO PUSH2 0xD49 JUMPI PUSH2 0xD48 PUSH2 0xC74 JUMP JUMPDEST JUMPDEST PUSH0 PUSH2 0xD56 DUP5 DUP3 DUP6 ADD PUSH2 0xD20 JUMP JUMPDEST SWAP2 POP POP SWAP3 SWAP2 POP POP JUMP JUMPDEST PUSH0 DUP2 ISZERO ISZERO SWAP1 POP SWAP2 SWAP1 POP JUMP JUMPDEST PUSH2 0xD73 DUP2 PUSH2 0xD5F JUMP JUMPDEST DUP3 MSTORE POP POP JUMP JUMPDEST PUSH0 PUSH1 0x20 DUP3 ADD SWAP1 POP PUSH2 0xD8C PUSH0 DUP4 ADD DUP5 PUSH2 0xD6A JUMP JUMPDEST SWAP3 SWAP2 POP POP JUMP JUMPDEST PUSH2 0xD9B DUP2 PUSH2 0xC7C JUMP JUMPDEST DUP3 MSTORE POP POP JUMP JUMPDEST PUSH0 PUSH1 0x20 DUP3 ADD SWAP1 POP PUSH2 0xDB4 PUSH0 DUP4 ADD DUP5 PUSH2 0xD92 JUMP JUMPDEST SWAP3 SWAP2 POP POP JUMP JUMPDEST PUSH2 0xDC3 DUP2 PUSH2 0xCF9 JUMP JUMPDEST DUP3 MSTORE POP POP JUMP JUMPDEST PUSH0 PUSH1 0xA0 DUP3 ADD SWAP1 POP PUSH2 0xDDC PUSH0 DUP4 ADD DUP9 PUSH2 0xD92 JUMP JUMPDEST PUSH2 0xDE9 PUSH1 0x20 DUP4 ADD DUP8 PUSH2 0xD92 JUMP JUMPDEST PUSH2 0xDF6 PUSH1 0x40 DUP4 ADD DUP7 PUSH2 0xD92 JUMP JUMPDEST PUSH2 0xE03 PUSH1 0x60 DUP4 ADD DUP6 PUSH2 0xD92 JUMP JUMPDEST PUSH2 0xE10 PUSH1 0x80 DUP4 ADD DUP5 PUSH2 0xDBA JUMP JUMPDEST SWAP7 SWAP6 POP POP POP POP POP POP JUMP JUMPDEST PUSH0 PUSH1 0x20 DUP3 ADD SWAP1 POP PUSH2 0xE2D PUSH0 DUP4 ADD DUP5 PUSH2 0xDBA JUMP JUMPDEST SWAP3 SWAP2 POP POP JUMP JUMPDEST PUSH0 PUSH1 0x80 DUP3 ADD SWAP1 POP PUSH2 0xE46 PUSH0 DUP4 ADD DUP8 PUSH2 0xD92 JUMP JUMPDEST PUSH2 0xE53 PUSH1 0x20 DUP4 ADD DUP7 PUSH2 0xDBA JUMP JUMPDEST PUSH2 0xE60 PUSH1 0x40 DUP4 ADD DUP6 PUSH2 0xD6A JUMP JUMPDEST PUSH2 0xE6D PUSH1 0x60 DUP4 ADD DUP5 PUSH2 0xD92 JUMP JUMPDEST SWAP6 SWAP5 POP POP POP POP POP JUMP JUMPDEST PUSH0 DUP2 MLOAD SWAP1 POP SWAP2 SWAP1 POP JUMP JUMPDEST PUSH0 DUP3 DUP3 MSTORE PUSH1 0x20 DUP3 ADD SWAP1 POP SWAP3 SWAP2 POP POP JUMP JUMPDEST DUP3 DUP2 DUP4 MCOPY PUSH0 DUP4 DUP4 ADD MSTORE POP POP POP JUMP JUMPDEST PUSH0 PUSH1 0x1F NOT PUSH1 0x1F DUP4 ADD AND SWAP1 POP SWAP2 SWAP1 POP JUMP JUMPDEST PUSH0 PUSH2 0xEB8 DUP3 PUSH2 0xE76 JUMP JUMPDEST PUSH2 0xEC2 DUP2 DUP6 PUSH2 0xE80 JUMP JUMPDEST SWAP4 POP PUSH2 0xED2 DUP2 DUP6 PUSH1 0x20 DUP7 ADD PUSH2 0xE90 JUMP JUMPDEST PUSH2 0xEDB DUP2 PUSH2 0xE9E JUMP JUMPDEST DUP5 ADD SWAP2 POP POP SWAP3 SWAP2 POP POP JUMP JUMPDEST PUSH0 PUSH2 0xEF0 DUP3 PUSH2 0xCDA JUMP JUMPDEST SWAP1 POP SWAP2 SWAP1 POP JUMP JUMPDEST PUSH2 0xF00 DUP2 PUSH2 0xEE6 JUMP JUMPDEST DUP3 MSTORE POP POP JUMP JUMPDEST PUSH0 PUSH1 0xA0 DUP3 ADD SWAP1 POP DUP2 DUP2 SUB PUSH0 DUP4 ADD MSTORE PUSH2 0xF1E DUP2 DUP9 PUSH2 0xEAE JUMP JUMPDEST SWAP1 POP PUSH2 0xF2D PUSH1 0x20 DUP4 ADD DUP8 PUSH2 0xD92 JUMP JUMPDEST PUSH2 0xF3A PUSH1 0x40 DUP4 ADD DUP7 PUSH2 0xEF7 JUMP JUMPDEST PUSH2 0xF47 PUSH1 0x60 DUP4 ADD DUP6 PUSH2 0xD6A JUMP JUMPDEST PUSH2 0xF54 PUSH1 0x80 DUP4 ADD DUP5 PUSH2 0xD92 JUMP JUMPDEST SWAP7 SWAP6 POP POP POP POP POP POP JUMP JUMPDEST PUSH0 PUSH0 REVERT JUMPDEST PUSH0 PUSH0 REVERT JUMPDEST PUSH32 0x4E487B7100000000000000000000000000000000000000000000000000000000 PUSH0 MSTORE PUSH1 0x41 PUSH1 0x4 MSTORE PUSH1 0x24 PUSH0 REVERT JUMPDEST PUSH2 0xF9C DUP3 PUSH2 0xE9E JUMP JUMPDEST DUP2 ADD DUP2 DUP2 LT PUSH8 0xFFFFFFFFFFFFFFFF DUP3 GT OR ISZERO PUSH2 0xFBB JUMPI PUSH2 0xFBA PUSH2 0xF66 JUMP JUMPDEST JUMPDEST DUP1 PUSH1 0x40 MSTORE POP POP POP JUMP JUMPDEST PUSH0 PUSH2 0xFCD PUSH2 0xC6B JUMP JUMPDEST SWAP1 POP PUSH2 0xFD9 DUP3 DUP3 PUSH2 0xF93 JUMP JUMPDEST SWAP2 SWAP1 POP JUMP JUMPDEST PUSH0 PUSH8 0xFFFFFFFFFFFFFFFF DUP3 GT ISZERO PUSH2 0xFF8 JUMPI PUSH2 0xFF7 PUSH2 0xF66 JUMP JUMPDEST JUMPDEST PUSH2 0x1001 DUP3 PUSH2 0xE9E JUMP JUMPDEST SWAP1 POP PUSH1 0x20 DUP2 ADD SWAP1 POP SWAP2 SWAP1 POP JUMP JUMPDEST DUP3 DUP2 DUP4 CALLDATACOPY PUSH0 DUP4 DUP4 ADD MSTORE POP POP POP JUMP JUMPDEST PUSH0 PUSH2 0x102E PUSH2 0x1029 DUP5 PUSH2 0xFDE JUMP JUMPDEST PUSH2 0xFC4 JUMP JUMPDEST SWAP1 POP DUP3 DUP2 MSTORE PUSH1 0x20 DUP2 ADD DUP5 DUP5 DUP5 ADD GT ISZERO PUSH2 0x104A JUMPI PUSH2 0x1049 PUSH2 0xF62 JUMP JUMPDEST JUMPDEST PUSH2 0x1055 DUP5 DUP3 DUP6 PUSH2 0x100E JUMP JUMPDEST POP SWAP4 SWAP3 POP POP POP JUMP JUMPDEST PUSH0 DUP3 PUSH1 0x1F DUP4 ADD SLT PUSH2 0x1071 JUMPI PUSH2 0x1070 PUSH2 0xF5E JUMP JUMPDEST JUMPDEST DUP2 CALLDATALOAD PUSH2 0x1081 DUP5 DUP3 PUSH1 0x20 DUP7 ADD PUSH2 0x101C JUMP JUMPDEST SWAP2 POP POP SWAP3 SWAP2 POP POP JUMP JUMPDEST PUSH2 0x1093 DUP2 PUSH2 0xEE6 JUMP JUMPDEST DUP2 EQ PUSH2 0x109D JUMPI PUSH0 PUSH0 REVERT JUMPDEST POP JUMP JUMPDEST PUSH0 DUP2 CALLDATALOAD SWAP1 POP PUSH2 0x10AE DUP2 PUSH2 0x108A JUMP JUMPDEST SWAP3 SWAP2 POP POP JUMP JUMPDEST PUSH0 PUSH0 PUSH0 PUSH1 0x60 DUP5 DUP7 SUB SLT ISZERO PUSH2 0x10CB JUMPI PUSH2 0x10CA PUSH2 0xC74 JUMP JUMPDEST JUMPDEST PUSH0 DUP5 ADD CALLDATALOAD PUSH8 0xFFFFFFFFFFFFFFFF DUP2 GT ISZERO PUSH2 0x10E8 JUMPI PUSH2 0x10E7 PUSH2 0xC78 JUMP JUMPDEST JUMPDEST PUSH2 0x10F4 DUP7 DUP3 DUP8 ADD PUSH2 0x105D JUMP JUMPDEST SWAP4 POP POP PUSH1 0x20 PUSH2 0x1105 DUP7 DUP3 DUP8 ADD PUSH2 0xC9B JUMP JUMPDEST SWAP3 POP POP PUSH1 0x40 PUSH2 0x1116 DUP7 DUP3 DUP8 ADD PUSH2 0x10A0 JUMP JUMPDEST SWAP2 POP POP SWAP3 POP SWAP3 POP SWAP3 JUMP JUMPDEST PUSH0 PUSH0 PUSH1 0x40 DUP4 DUP6 SUB SLT ISZERO PUSH2 0x1136 JUMPI PUSH2 0x1135 PUSH2 0xC74 JUMP JUMPDEST JUMPDEST PUSH0 PUSH2 0x1143 DUP6 DUP3 DUP7 ADD PUSH2 0xC9B JUMP JUMPDEST SWAP3 POP POP PUSH1 0x20 PUSH2 0x1154 DUP6 DUP3 DUP7 ADD PUSH2 0xD20 JUMP JUMPDEST SWAP2 POP POP SWAP3 POP SWAP3 SWAP1 POP JUMP JUMPDEST PUSH32 0x4F6E6C79206D616E616765722063616E20637265617465207265717565737400 PUSH0 DUP3 ADD MSTORE POP JUMP JUMPDEST PUSH0 PUSH2 0x1192 PUSH1 0x1F DUP4 PUSH2 0xE80 JUMP JUMPDEST SWAP2 POP PUSH2 0x119D DUP3 PUSH2 0x115E JUMP JUMPDEST PUSH1 0x20 DUP3 ADD SWAP1 POP SWAP2 SWAP1 POP JUMP JUMPDEST PUSH0 PUSH1 0x20 DUP3 ADD SWAP1 POP DUP2 DUP2 SUB PUSH0 DUP4 ADD MSTORE PUSH2 0x11BF DUP2 PUSH2 0x1186 JUMP JUMPDEST SWAP1 POP SWAP2 SWAP1 POP JUMP JUMPDEST PUSH32 0x4E487B7100000000000000000000000000000000000000000000000000000000 PUSH0 MSTORE PUSH1 0x32 PUSH1 0x4 MSTORE PUSH1 0x24 PUSH0 REVERT JUMPDEST PUSH32 0x496E73756666696369656E7420636F6E74726163742062616C616E63652E0000 PUSH0 DUP3 ADD MSTORE POP JUMP JUMPDEST PUSH0 PUSH2 0x1227 PUSH1 0x1E DUP4 PUSH2 0xE80 JUMP JUMPDEST SWAP2 POP PUSH2 0x1232 DUP3 PUSH2 0x11F3 JUMP JUMPDEST PUSH1 0x20 DUP3 ADD SWAP1 POP SWAP2 SWAP1 POP JUMP JUMPDEST PUSH0 PUSH1 0x20 DUP3 ADD SWAP1 POP DUP2 DUP2 SUB PUSH0 DUP4 ADD MSTORE PUSH2 0x1254 DUP2 PUSH2 0x121B JUMP JUMPDEST SWAP1 POP SWAP2 SWAP1 POP JUMP JUMPDEST PUSH32 0x4E487B7100000000000000000000000000000000000000000000000000000000 PUSH0 MSTORE PUSH1 0x12 PUSH1 0x4 MSTORE PUSH1 0x24 PUSH0 REVERT JUMPDEST PUSH32 0x4E487B7100000000000000000000000000000000000000000000000000000000 PUSH0 MSTORE PUSH1 0x11 PUSH1 0x4 MSTORE PUSH1 0x24 PUSH0 REVERT JUMPDEST PUSH0 PUSH2 0x12BF DUP3 PUSH2 0xC7C JUMP JUMPDEST SWAP2 POP PUSH2 0x12CA DUP4 PUSH2 0xC7C JUMP JUMPDEST SWAP3 POP DUP3 PUSH2 0x12DA JUMPI PUSH2 0x12D9 PUSH2 0x125B JUMP JUMPDEST JUMPDEST DUP3 DUP3 DIV SWAP1 POP SWAP3 SWAP2 POP POP JUMP JUMPDEST PUSH32 0x4E6F7420656E6F75676820617070726F76616C732E0000000000000000000000 PUSH0 DUP3 ADD MSTORE POP JUMP JUMPDEST PUSH0 PUSH2 0x1319 PUSH1 0x15 DUP4 PUSH2 0xE80 JUMP JUMPDEST SWAP2 POP PUSH2 0x1324 DUP3 PUSH2 0x12E5 JUMP JUMPDEST PUSH1 0x20 DUP3 ADD SWAP1 POP SWAP2 SWAP1 POP JUMP JUMPDEST PUSH0 PUSH1 0x20 DUP3 ADD SWAP1 POP DUP2 DUP2 SUB PUSH0 DUP4 ADD MSTORE PUSH2 0x1346 DUP2 PUSH2 0x130D JUMP JUMPDEST SWAP1 POP SWAP2 SWAP1 POP JUMP JUMPDEST PUSH32 0x5265717565737420697320616C726561647920636F6D706C6574652E00000000 PUSH0 DUP3 ADD MSTORE POP JUMP JUMPDEST PUSH0 PUSH2 0x1381 PUSH1 0x1C DUP4 PUSH2 0xE80 JUMP JUMPDEST SWAP2 POP PUSH2 0x138C DUP3 PUSH2 0x134D JUMP JUMPDEST PUSH1 0x20 DUP3 ADD SWAP1 POP SWAP2 SWAP1 POP JUMP JUMPDEST PUSH0 PUSH1 0x20 DUP3 ADD SWAP1 POP DUP2 DUP2 SUB PUSH0 DUP4 ADD MSTORE PUSH2 0x13AE DUP2 PUSH2 0x1375 JUMP JUMPDEST SWAP1 POP SWAP2 SWAP1 POP JUMP JUMPDEST PUSH32 0x496E76616C6964207265717565737420696E6465782E00000000000000000000 PUSH0 DUP3 ADD MSTORE POP JUMP JUMPDEST PUSH0 PUSH2 0x13E9 PUSH1 0x16 DUP4 PUSH2 0xE80 JUMP JUMPDEST SWAP2 POP PUSH2 0x13F4 DUP3 PUSH2 0x13B5 JUMP JUMPDEST PUSH1 0x20 DUP3 ADD SWAP1 POP SWAP2 SWAP1 POP JUMP JUMPDEST PUSH0 PUSH1 0x20 DUP3 ADD SWAP1 POP DUP2 DUP2 SUB PUSH0 DUP4 ADD MSTORE PUSH2 0x1416 DUP2 PUSH2 0x13DD JUMP JUMPDEST SWAP1 POP SWAP2 SWAP1 POP JUMP JUMPDEST PUSH32 0x4E487B7100000000000000000000000000000000000000000000000000000000 PUSH0 MSTORE PUSH1 0x22 PUSH1 0x4 MSTORE PUSH1 0x24 PUSH0 REVERT JUMPDEST PUSH0 PUSH1 0x2 DUP3 DIV SWAP1 POP PUSH1 0x1 DUP3 AND DUP1 PUSH2 0x1461 JUMPI PUSH1 0x7F DUP3 AND SWAP2 POP JUMPDEST PUSH1 0x20 DUP3 LT DUP2 SUB PUSH2 0x1474 JUMPI PUSH2 0x1473 PUSH2 0x141D JUMP JUMPDEST JUMPDEST POP SWAP2 SWAP1 POP JUMP JUMPDEST PUSH0 DUP2 SWAP1 POP DUP2 PUSH0 MSTORE PUSH1 0x20 PUSH0 KECCAK256 SWAP1 POP SWAP2 SWAP1 POP JUMP JUMPDEST PUSH0 PUSH1 0x20 PUSH1 0x1F DUP4 ADD DIV SWAP1 POP SWAP2 SWAP1 POP JUMP JUMPDEST PUSH0 DUP3 DUP3 SHL SWAP1 POP SWAP3 SWAP2 POP POP JUMP JUMPDEST PUSH0 PUSH1 0x8 DUP4 MUL PUSH2 0x14D6 PUSH32 0xFFFFFFFFFFFFFFFFFFFFFFFFFFFFFFFFFFFFFFFFFFFFFFFFFFFFFFFFFFFFFFFF DUP3 PUSH2 0x149B JUMP JUMPDEST PUSH2 0x14E0 DUP7 DUP4 PUSH2 0x149B JUMP JUMPDEST SWAP6 POP DUP1 NOT DUP5 AND SWAP4 POP DUP1 DUP7 AND DUP5 OR SWAP3 POP POP POP SWAP4 SWAP3 POP POP POP JUMP JUMPDEST PUSH0 DUP2 SWAP1 POP SWAP2 SWAP1 POP JUMP JUMPDEST PUSH0 PUSH2 0x151B PUSH2 0x1516 PUSH2 0x1511 DUP5 PUSH2 0xC7C JUMP JUMPDEST PUSH2 0x14F8 JUMP JUMPDEST PUSH2 0xC7C JUMP JUMPDEST SWAP1 POP SWAP2 SWAP1 POP JUMP JUMPDEST PUSH0 DUP2 SWAP1 POP SWAP2 SWAP1 POP JUMP JUMPDEST PUSH2 0x1534 DUP4 PUSH2 0x1501 JUMP JUMPDEST PUSH2 0x1548 PUSH2 0x1540 DUP3 PUSH2 0x1522 JUMP JUMPDEST DUP5 DUP5 SLOAD PUSH2 0x14A7 JUMP JUMPDEST DUP3 SSTORE POP POP POP POP JUMP JUMPDEST PUSH0 PUSH0 SWAP1 POP SWAP1 JUMP JUMPDEST PUSH2 0x155F PUSH2 0x1550 JUMP JUMPDEST PUSH2 0x156A DUP2 DUP5 DUP5 PUSH2 0x152B JUMP JUMPDEST POP POP POP JUMP JUMPDEST JUMPDEST DUP2 DUP2 LT ISZERO PUSH2 0x158D JUMPI PUSH2 0x1582 PUSH0 DUP3 PUSH2 0x1557 JUMP JUMPDEST PUSH1 0x1 DUP2 ADD SWAP1 POP PUSH2 0x1570 JUMP JUMPDEST POP POP JUMP JUMPDEST PUSH1 0x1F DUP3 GT ISZERO PUSH2 0x15D2 JUMPI PUSH2 0x15A3 DUP2 PUSH2 0x147A JUMP JUMPDEST PUSH2 0x15AC DUP5 PUSH2 0x148C JUMP JUMPDEST DUP2 ADD PUSH1 0x20 DUP6 LT ISZERO PUSH2 0x15BB JUMPI DUP2 SWAP1 POP JUMPDEST PUSH2 0x15CF PUSH2 0x15C7 DUP6 PUSH2 0x148C JUMP JUMPDEST DUP4 ADD DUP3 PUSH2 0x156F JUMP JUMPDEST POP POP JUMPDEST POP POP POP JUMP JUMPDEST PUSH0 DUP3 DUP3 SHR SWAP1 POP SWAP3 SWAP2 POP POP JUMP JUMPDEST PUSH0 PUSH2 0x15F2 PUSH0 NOT DUP5 PUSH1 0x8 MUL PUSH2 0x15D7 JUMP JUMPDEST NOT DUP1 DUP4 AND SWAP2 POP POP SWAP3 SWAP2 POP POP JUMP JUMPDEST PUSH0 PUSH2 0x160A DUP4 DUP4 PUSH2 0x15E3 JUMP JUMPDEST SWAP2 POP DUP3 PUSH1 0x2 MUL DUP3 OR SWAP1 POP SWAP3 SWAP2 POP POP JUMP JUMPDEST PUSH2 0x1623 DUP3 PUSH2 0xE76 JUMP JUMPDEST PUSH8 0xFFFFFFFFFFFFFFFF DUP2 GT ISZERO PUSH2 0x163C JUMPI PUSH2 0x163B PUSH2 0xF66 JUMP JUMPDEST JUMPDEST PUSH2 0x1646 DUP3 SLOAD PUSH2 0x144A JUMP JUMPDEST PUSH2 0x1651 DUP3 DUP3 DUP6 PUSH2 0x1591 JUMP JUMPDEST PUSH0 PUSH1 0x20 SWAP1 POP PUSH1 0x1F DUP4 GT PUSH1 0x1 DUP2 EQ PUSH2 0x1682 JUMPI PUSH0 DUP5 ISZERO PUSH2 0x1670 JUMPI DUP3 DUP8 ADD MLOAD SWAP1 POP JUMPDEST PUSH2 0x167A DUP6 DUP3 PUSH2 0x15FF JUMP JUMPDEST DUP7 SSTORE POP PUSH2 0x16E1 JUMP JUMPDEST PUSH1 0x1F NOT DUP5 AND PUSH2 0x1690 DUP7 PUSH2 0x147A JUMP JUMPDEST PUSH0 JUMPDEST DUP3 DUP2 LT ISZERO PUSH2 0x16B7 JUMPI DUP5 DUP10 ADD MLOAD DUP3 SSTORE PUSH1 0x1 DUP3 ADD SWAP2 POP PUSH1 0x20 DUP6 ADD SWAP5 POP PUSH1 0x20 DUP2 ADD SWAP1 POP PUSH2 0x1692 JUMP JUMPDEST DUP7 DUP4 LT ISZERO PUSH2 0x16D4 JUMPI DUP5 DUP10 ADD MLOAD PUSH2 0x16D0 PUSH1 0x1F DUP10 AND DUP3 PUSH2 0x15E3 JUMP JUMPDEST DUP4 SSTORE POP JUMPDEST PUSH1 0x1 PUSH1 0x2 DUP9 MUL ADD DUP9 SSTORE POP POP POP JUMPDEST POP POP POP POP POP POP JUMP JUMPDEST PUSH32 0x436F6E747269627574696F6E206D757374206265206772656174657220746861 PUSH0 DUP3 ADD MSTORE PUSH32 0x6E206D696E696D756D20616D6F756E742E000000000000000000000000000000 PUSH1 0x20 DUP3 ADD MSTORE POP JUMP JUMPDEST PUSH0 PUSH2 0x1743 PUSH1 0x31 DUP4 PUSH2 0xE80 JUMP JUMPDEST SWAP2 POP PUSH2 0x174E DUP3 PUSH2 0x16E9 JUMP JUMPDEST PUSH1 0x40 DUP3 ADD SWAP1 POP SWAP2 SWAP1 POP JUMP JUMPDEST PUSH0 PUSH1 0x20 DUP3 ADD SWAP1 POP DUP2 DUP2 SUB PUSH0 DUP4 ADD MSTORE PUSH2 0x1770 DUP2 PUSH2 0x1737 JUMP JUMPDEST SWAP1 POP SWAP2 SWAP1 POP JUMP JUMPDEST PUSH0 PUSH2 0x1781 DUP3 PUSH2 0xC7C JUMP JUMPDEST SWAP2 POP PUSH32 0xFFFFFFFFFFFFFFFFFFFFFFFFFFFFFFFFFFFFFFFFFFFFFFFFFFFFFFFFFFFFFFFF DUP3 SUB PUSH2 0x17B3 JUMPI PUSH2 0x17B2 PUSH2 0x1288 JUMP JUMPDEST JUMPDEST PUSH1 0x1 DUP3 ADD SWAP1 POP SWAP2 SWAP1 POP JUMP JUMPDEST PUSH32 0x4F6E6C7920636F6E7472696275746F72732063616E20617070726F76652E0000 PUSH0 DUP3 ADD MSTORE POP JUMP JUMPDEST PUSH0 PUSH2 0x17F2 PUSH1 0x1E DUP4 PUSH2 0xE80 JUMP JUMPDEST SWAP2 POP PUSH2 0x17FD DUP3 PUSH2 0x17BE JUMP JUMPDEST PUSH1 0x20 DUP3 ADD SWAP1 POP SWAP2 SWAP1 POP JUMP JUMPDEST PUSH0 PUSH1 0x20 DUP3 ADD SWAP1 POP DUP2 DUP2 SUB PUSH0 DUP4 ADD MSTORE PUSH2 0x181F DUP2 PUSH2 0x17E6 JUMP JUMPDEST SWAP1 POP SWAP2 SWAP1 POP JUMP JUMPDEST PUSH32 0x596F75206861766520616C726561647920617070726F76656420746869732072 PUSH0 DUP3 ADD MSTORE PUSH32 0x6571756573742E00000000000000000000000000000000000000000000000000 PUSH1 0x20 DUP3 ADD MSTORE POP JUMP JUMPDEST PUSH0 PUSH2 0x1880 PUSH1 0x27 DUP4 PUSH2 0xE80 JUMP JUMPDEST SWAP2 POP PUSH2 0x188B DUP3 PUSH2 0x1826 JUMP JUMPDEST PUSH1 0x40 DUP3 ADD SWAP1 POP SWAP2 SWAP1 POP JUMP JUMPDEST PUSH0 PUSH1 0x20 DUP3 ADD SWAP1 POP DUP2 DUP2 SUB PUSH0 DUP4 ADD MSTORE PUSH2 0x18AD DUP2 PUSH2 0x1874 JUMP JUMPDEST SWAP1 POP SWAP2 SWAP1 POP JUMP INVALID LOG2 PUSH5 0x6970667358 0x22 SLT KECCAK256 PUSH21 0x7F7A8A96C244D0E2F6F976FE3F64537DF104440865 0x2E 0xE7 SLT SWAP7 0xB1 PUSH14 0xA54397B264736F6C634300081C00 CALLER "},"gasEstimates":{"creation":{"codeDepositCost":"1275600","executionCost":"infinite","totalCost":"infinite"},"external":{"approvals(uint256,address)":"3114","approveRequest(uint256)":"infinite","approvers(address)":"2856","approversCount()":"2470","contribute()":"53253","createRequest(string,uint256,address)":"infinite","finalizeRequest(uint256)":"infinite","getRequestByIndex(uint256)":"infinite","getRequestsCount()":"2484","getSummary()":"infinite","manager()":"2597","minimumContribution()":"2447","requests(uint256)":"infinite"}},"methodIdentifiers":{"approvals(uint256,address)":"ab2850da","approveRequest(uint256)":"d7d1bbdb","approvers(address)":"0a144391","approversCount()":"82fde093","contribute()":"d7bb99ba","createRequest(string,uint256,address)":"8a9cfd55","finalizeRequest(uint256)":"03441006","getRequestByIndex(uint256)":"6d052b37","getRequestsCount()":"3410452a","getSummary()":"4051ddac","manager()":"481c6a75","minimumContribution()":"937e09b1","requests(uint256)":"81d12c58"}},"storageLayout":{"storage":[{"astId":54,"contract":"Campaign.sol:Campaign","label":"requests","offset":0,"slot":"0","type":"t_array(t_struct(Request)50_storage)dyn_storage"},{"astId":56,"contract":"Campaign.sol:Campaign","label":"manager","offset":0,"slot":"1","type":"t_address"},{"astId":58,"contract":"Campaign.sol:Campaign","label":"minimumContribution","offset":0,"slot":"2","type":"t_uint256"},{"astId":62,"contract":"Campaign.sol:Campaign","label":"approvers","offset":0,"slot":"3","type":"t_mapping(t_address,t_bool)"},{"astId":68,"contract":"Campaign.sol:Campaign","label":"approvals","offset":0,"slot":"4","type":"t_mapping(t_uint256,t_mapping(t_address,t_bool))"},{"astId":70,"contract":"Campaign.sol:Campaign","label":"approversCount","offset":0,"slot":"5","type":"t_uint256"}],"types":{"t_address":{"encoding":"inplace","label":"address","numberOfBytes":"20"},"t_address_payable":{"encoding":"inplace","label":"address payable","numberOfBytes":"20"},"t_array(t_struct(Request)50_storage)dyn_storage":{"base":"t_struct(Request)50_storage","encoding":"dynamic_array","label":"struct Campaign.Request[]","numberOfBytes":"32"},"t_bool":{"encoding":"inplace","label":"bool","numberOfBytes":"1"},"t_mapping(t_address,t_bool)":{"encoding":"mapping","key":"t_address","label":"mapping(address => bool)","numberOfBytes":"32","value":"t_bool"},"t_mapping(t_uint256,t_mapping(t_address,t_bool))":{"encoding":"mapping","key":"t_uint256","label":"mapping(uint256 => mapping(address => bool))","numberOfBytes":"32","value":"t_mapping(t_address,t_bool)"},"t_string_storage":{"encoding":"bytes","label":"string","numberOfBytes":"32"},"t_struct(Request)50_storage":{"encoding":"inplace","label":"struct Campaign.Request","members":[{"astId":41,"contract":"Campaign.sol:Campaign","label":"description","offset":0,"slot":"0","type":"t_string_storage"},{"astId":43,"contract":"Campaign.sol:Campaign","label":"value","offset":0,"slot":"1","type":"t_uint256"},{"astId":45,"contract":"Campaign.sol:Campaign","label":"recipient","offset":0,"slot":"2","type":"t_address_payable"},{"astId":47,"contract":"Campaign.sol:Campaign","label":"complete","offset":20,"slot":"2","type":"t_bool"},{"astId":49,"contract":"Campaign.sol:Campaign","label":"approvalCount","offset":0,"slot":"3","type":"t_uint256"}],"numberOfBytes":"128"},"t_uint256":{"encoding":"inplace","label":"uint256","numberOfBytes":"32"}}},"transientStorageLayout":{"storage":[],"types":null},"userdoc":{"kind":"user","methods":{},"version":1}}